:0400000081315029D1
:100008007E14803120007F08BF00960197012700E9
:10001800131E4B29EF302000BE003E082700930531
:1000280020000C1A20280A30200017027630031905
:10003800160203184B291428960197010C1E2C2828
:100048000A30170276300319160203184B292228A2
:10005800960197010C1A38280A30170276300319CE
:10006800160203184B292E281708C4001608C300C7
:10007800960197010C1E48280A301702763003199A
:10008800160203184B293E28960197010C1A54288A
:100098000A30170276300319160203184B294A282A
:1000A8001708C6001608C500CD30A0008C30A10086
:1000B8003F30A2004608F9004508F800843138248A
:1000C800803178082000A3007908A4007A08A500E8
:1000D80081316721803120002008B0002108B1005B
:1000E8002208B2004408F9004308F8008431382493
:1000F800803178082000B3007908B4007A08B50088
:100108008331FC238031031C4B29CD302000A00013
:100118008C30A1003F30A2004408F9004308F800E1
:1001280084313824803178082000A3007908A4009D
:100138007A08A50081316721803120002008B000AD
:100148002108B1002208B2004608F9004508F80065
:1001580084313824803178082000B3007908B4004D
:100168007A08B5008331FC238031031C4B29023007
:10017800F0000030F100200045084307F20046086F
:10018800443DF3008331AB23803171082000C8005F
:100198007008C7004808F9004708F8008431382477
:1001A800803178082000A3007908A4007A08A50007
:1001B800CD30A0008E30A1004130A20081316721EE
:1001C800803120002008B0002108B1002208B200C8
:1001D8008231C022803120003108CA003008C900AD
:1001E8004A08803ABE0097303E02031DFD28703051
:1001F8004902031C102920004A08803ABE009D309D
:100208003E02031D09294C30490203181029FF300A
:100218002000CD07FF302C2920004A08803ABE0074
:10022800A7303E02031D1A2910304902031C2E294B
:1002380020004A08803ABE00AE303E02031D26293F
:10024800E030490203182E2901302000CD07003084
:10025800CE3D4B2920004A08803ABE00B2303E020B
:10026800031D3829C8304902031C4B2920004A08BD
:10027800803ABE00BA303E02031D44299830490234
:1002880003184B2901302000CB070030CC3D20005B
:100298003F08FF007E10090081315229C301C401C3
:1002A800C501C601C701C801C901CA01CB01CC01FA
:1002B800843165248131CD0084316624CE007E10DE
:1002C800200082311B2A20002008A6002108A70050
:1002D8002208A8000310270D280DA9002908AA0044
:1002E8002A08031D7E290030A0000030A10000303C
:1002F800A20008002308A6002408A7002508A800D3
:100308000310270D280DA9002908AF002F08031D89
:1003180094290030A0000030A1000030A20008009D
:100328002F087B3EA6002608AA072008A600210859
:10033800A7002208A8001030A836A70CA60C890B25
:10034800A0292608A9002908AF002308A600240828
:10035800A7002508A8001030A836A70CA60C890B02
:10036800B0292608A9002908AF068030A60026086B
:10037800AF05A117A417FF30A305FF30A40500306F
:10038800A5050030AB000030AC000030AD000730F0
:10039800A6002608AE00201CD7292308AB0724088E
:1003A800AC3D2508AD3D0130A236A10CA00C890B4F
:1003B800D8290130A335A40DA50D890BDE290130FC
:1003C800AE02031DCF290930A6002608AE00201C66
:1003D800F3292308AB072408AC3D2508AD3D0130BF
:1003E800A236A10CA00C890BF4290130AD36AC0C57
:1003F800AB0C890BFA290130AE02031DEB292B083F
:10040800F0002C08F1002D08F2002A08A6002608A2
:10041800F3002F08A7002708F4008331472370084A
:100428002000A0007108A1007208A20008007A301C
:100438002000C000400821009904843158248231EA
:10044800103021008C0023008C012100A001A101A3
:100458002108803A2000C00080304002031D372A5E
:100468000330210020020318612A07302000C00051
:1004780040088C040530C2000F30C100F430C000C1
:10048800C00B442AC10B442AC20B442AF83020006E
:10049800C00040088C050530C2000F30C100F430A0
:1004A800C000C00B552AC10B552AC20B552A013072
:1004B8002100A0070030A13D2C2A20004E08803AD8
:1004C800C00080304002031D6B2A0A304D02031819
:1004D800812A20000C140530C2000F30C100F4300E
:1004E800C000C00B752AC10B752AC20B752A2000E3
:1004F8000C100A30CD000030CE0020004E08803AA3
:10050800C00080304002031D8B2A0B304D02031CB3
:10051800A12A20008C140530C2000F30C100F4302D
:10052800C000C00B952AC10B952AC20B952A200042
:100538008C100A30CD000030CE0020004C08803AE4
:10054800C00080304002031DAB2A01304B02031C5F
:10055800612A20000C150530C2000F30C100F430AC
:10056800C000C00BB52AC10BB52AC20BB52A2000A2
:100578000C11CB01CC01612A20003008B4003108ED
:10058800B5003208B6000310350D360DB700370830
:10059800BD003D08031DD92A0030B3000030B20069
:1005A8000030B1000030B00008003008B400310855
:1005B800B5003208B6001730B636B50CB40C890B46
:1005C800E02A3408B7003708B800B117FF30B00583
:1005D800FF30B1050030B2053008B9003108BA0063
:1005E8003208BB00BC018E30BD02BD1F172B3D0871
:1005F800803A8F3E0318092B0030B3000030B20058
:100608000030B1000030B00008000130BC36BB0C2F
:10061800BA0CB90C890B0A2B0130B4003408BD0799
:100628000319302B092B18303D02031C2D2B0030E9
:10063800B3000030B2000030B1000030B000080054
:100648000130B935BA0DBB0DBC0D890B252B013016
:10065800BD023D08031D242B380803193E2BB90998
:10066800BA09BB09BC09B90A0319BA0A0319BB0AB2
:100678000319BC0A3C08B3003B08B2003A08B100B1
:100688003908B0000800730803194F2B7208710469
:100698007004031D602B0030F0000030F1000030C2
:1006A800F20008000130F5007508F3070130F23652
:1006B800F10CF00C890B5B2BFE3072050319792BBA
:1006C800562B0130F5007508F3070130F0070030AC
:1006D80003180130F107003003180130F207013028
:1006E800F236F10CF00C890B742BFF3072050319EC
:1006F800862B652B0130F3020130F035F10DF20D38
:10070800890B812BF11B8C2B0230730203187E2B73
:100718007318942BFF30F0057F30F105FF30F20598
:100728000310F30C7308F500F601F7011030F535E6
:10073800F60DF70D890B9B2B7508F0047608F1046C
:100748007708F204740803190800F2170800F60184
:10075800F11FB52BF009F109F00A0319F10AF601A6
:10076800F60AF31FC02BF209F309F20A0319F30A78
:100778000130F4007408F606F701F80170087104F6
:100788000319EF2BF501F50AF11BD42B0130F035D5
:10079800F10D890BCB2B0130F4007408F507C82B39
:1007A8000130F735F80D890BD52B71087302031D3D
:1007B800DF2B70087202031CE62B7008F202710826
:1007C800F33B77140130F136F00C890BE72B01303D
:1007D800F502031DD42B76080319F72BF709F8093E
:1007E800F70A0319F80A7808F1007708F0000800FA
:1007F8002000B21F132C3009B6003109B7003209A6
:10080800B800B60A0319B70A0319B80A0030360740
:10081800B0000030373DB1008030383DB200B51F20
:10082800292C3309B6003409B7003509B800B60ACF
:100838000319B70A0319B80A00303607B3000030A5
:10084800373DB4008030383DB5008030B206803086
:10085800B50635083202031D080034083102031DAD
:100868000800330830020800FD01F91F422CF8097E
:10087800F909F80A0319F90AFD01FD0A7808F000D8
:100888007908F100F2018E30FB007B08F3007D0847
:10089800FC007C08F400833147237008F8007108D5
:1008A800F9007208FA000800D8308B0027001108F8
:1008B800103891001208103892002130200098005A
:0608C80008000A340034B0
:020000040001F9
:04000E00E4F9FFDE34
:00000001FF
