:08000000803102288731FD2F39
:100F7A0008000800080008007A30F0007008210014
:100F8A009904F730F00070088D0508008731C127F1
:100F9A0087318731BE2787318731BD27873187312E
:100FAA00C02787318731BF2787318731DE278731CD
:100FBA00DA2F20008D150B30F2002630F100663052
:100FCA00F000F00BE62FF10BE62FF20BE62F0032C2
:100FDA0020008D110B30F2002630F1006630F0004F
:100FEA00F00BF52FF10BF52FF20BF52F003208005D
:100FFA0020008731CB2F4D34613469346E3420346C
:10100A004C346F346F34703420344F346D3465345B
:0E101A00673461342034203420342034003414
:020000040001F9
:04000E00E4F9FFDE34
:00000001FF
