:0400000081318129A0
:100008007E14803120007F08BF00960197012700E9
:10001800931C2B289310C7302000BE000000BE0B95
:100028001228003200009A3185228031003A0319E3
:100038007C2932302000BE003E082100C5009C31DA
:100048001B24803102308C318B2480317C29131E93
:100058007C29EF302000BE003E08270093052000D1
:100068000C1E3F280A3020001702763003191602AA
:1000780003187C293328960197010C1A4B280A305B
:10008800170276300319160203187C2941289601B5
:1000980097010C1E57280A301702763003191602EA
:1000A80003187C294D281708C9001608C8009601AE
:1000B80097010C1A67280A301702763003191602BE
:1000C80003187C295D28960197010C1E73280A30B5
:1000D800170276300319160203187C2969281708B5
:1000E800CB001608CA00CD30A0008C30A1003F30EC
:1000F800A2004B08F9004A08F8009A31A922803179
:1001080078082000A3007908A4007A08A5009D318A
:10011800D725803120002008B0002108B10022082E
:10012800B2004908F9004808F8009A31A92280313C
:1001380078082000B3007908B4007A08B5009B312C
:1001480058238031031C7C29CD302000A0008C303E
:10015800A1003F30A2004908F9004808F8009A3188
:10016800A922803178082000A3007908A4007A0821
:10017800A5009D31D725803120002008B000210836
:10018800B1002208B2004B08F9004A08F8009A3179
:10019800A922803178082000B3007908B4007A08D1
:1001A800B5009B3158238031031C7C290230F000B4
:1001B8000030F10020004A084807F2004B08493D8A
:1001C800F3008731AB27803171082000CD0070081B
:1001D800CC004D08F9004C08F8009A31A92280316A
:1001E80078082000A3007908A4007A08A500CD307B
:1001F800A0008E30A1004130A2009D31D72580316A
:1002080020002008B0002108B1002208B2009B316C
:100218009423803120003108CF003008CE004F08E9
:10022800803ABE0097303E02031D1C2970304E02F2
:10023800031C3A2920004F08803ABE009D303E0238
:10024800031D28294C304E0203183A29210045087D
:1002580003197C299A3185228031003A031D7C29B3
:1002680001302100C502C301C30A7C2920004F08C0
:10027800803ABE00A7303E02031D442910304E02CA
:10028800031C5E2920004F08803ABE00AE303E02B3
:10029800031D5029E0304E0203185E293230210038
:1002A800450203187C2901302000BE003E082100C9
:1002B800C5077C2920004F08803ABE00B2303E02B4
:1002C800031D6829C8304E02031C7C2920004F08F2
:1002D800803ABE00BA303E02031D742998304E029F
:1002E80003187C2901302000BE003E082100C40705
:1002F80020003F08FF007E10090081318329C801D2
:10030800C901CA01CB01CC01CD01CE01CF01210029
:10031800C001C101C201C301C4018731FF27C50063
:100328007E1020009431E22C2100B200B601B70102
:10033800B801FF30A5002508B500FF30A500250845
:10034800B600B701B8013208031D3203031DED2AB8
:100358003608A50025082000C30021003708A6009C
:1003680026082000C40021003808A700270820001C
:10037800C5002100350896316826813103302100F7
:10038800A7000830A6007830A500A50BC929A60B40
:10039800C929A70BC92921003608A500250820006E
:1003A800C30021003708A60026082000C400210049
:1003B8003808A70027082000C50021003508973114
:1003C8003427813103302100A7000830A600783097
:1003D800A500A50BED29A60BED29A70BED292100FA
:1003E8003608A50025082000C30021003708A6000C
:1003F80026082000C40021003808A700270820008C
:10040800C5002100350888311620813103302100CC
:10041800A7000830A6007830A500A50B112AA60B66
:10042800112AA70B112A21003608A500250820004B
:10043800C30021003708A60026082000C4002100B8
:100448003808A70027082000C50021003508883192
:10045800E220813103302100A7000830A60078305F
:10046800A500A50B352AA60B352AA70B352A21008E
:100478003608A50025082000C30021003708A6007B
:1004880026082000C40021003808A70027082000FB
:10049800C500210035088931AE21813103302100A2
:1004A800A7000830A6007830A500A50B592AA60B8E
:1004B800592AA70B592A21003608A500250820002B
:1004C800C30021003708A60026082000C400210028
:1004D8003808A70027082000C500210035088A3100
:1004E8007A22813103302100A7000830A600783035
:1004F800A500A50B7D2AA60B7D2AA70B7D2A210026
:100508003608A50025082000C30021003708A600EA
:1005180026082000C40021003808A700270820006A
:10052800C500210035088631DF26813103302100DE
:10053800A7000830A6007830A500A50BA12AA60BB5
:10054800A12AA70BA12A2100B00104303002031808
:10055800442D3608A50025082000C30021003708CF
:10056800A60026082000C40021003808A700270894
:100578002000C500210035088631DF268131023090
:100588002100A7000430A600BA30A500A50BCA2A8E
:10059800A60BCA2AA70BCA2A00002000C301C4015F
:1005A800C501FF308631DF26813102302100A700E6
:1005B8000430A600BA30A500A50BE02AA60BE02A55
:1005C800A70BE02A000001302100A5002508B0078C
:1005D800A92A02303206031D542CB301330A031929
:1005E800A32BA801A9012908803AA500803025027B
:1005F800031D002B043028020318162B00309031FD
:100608000920813101302100A8070030A93D2908BF
:10061800803AA50080302502031D142B04302802DF
:10062800031C022BFF3090310920813100309031BA
:1006380009208131003090310920813121003308AF
:10064800903109208131FF3090310920813100300B
:100658009031092081310030903109208131210009
:100668003303FF3AFF3E903109208131FF3090314A
:1006780009208131003090310920813100309031DA
:100688000920813121003308903109208131FF3060
:1006980090310920813100309031092081310030BA
:1006A80090310920813121003303FF3AFF3E903118
:1006B80009208131FF30903109208131003090319B
:1006C800092081310030903109208131210033081F
:1006D8009031092081312100AA01AB012B08803A11
:1006E800A50080302502031D7B2B04302A02031845
:1006F800912BFF3090310920813101302100AA0768
:100708000030AB3D2B08803AA50080302502031D40
:100718008F2B04302A02031C7D2BD0302100A60029
:10072800C930A500A50B962BA60B962B00320530D9
:100738002100A5002508B307330A031DF52AFF3059
:10074800A5002508B40034080319442DAC01AD01F7
:100758002D08803AA50080302502031DB52B0430F2
:100768002C020318CB2B0030903109208131013045
:100778002100AC070030AD3D2D08803AA50080303F
:100788002502031DC92B04302C02031CB72BFF3094
:1007980090310920813100309031092081310030B9
:1007A80090310920813121003408903109208131AC
:1007B800FF3090310920813100309031092081319A
:1007C800003090310920813121003403FF3AFF3E87
:1007D800903109208131FF3090310920813100307A
:1007E8009031092081310030903109208131210078
:1007F8003408903109208131FF309031092081314E
:100808000030903109208131003090310920813148
:1008180021003403FF3AFF3E903109208131FF3037
:100828009031092081310030903109208131003028
:10083800903109208131210034089031092081311B
:100848002100AE01AF012F08803AA50080302502B3
:10085800031D302C04302E020318462CFF30903133
:100868000920813101302100AE070030AF3D2F084B
:10087800803AA50080302502031D442C04302E0246
:10088800031C322CD0302100A600C930A500A50BCE
:100898004B2CA60B4B2C003205302100B402A72BA1
:1008A80003303206031D442DFF30A5002508200023
:1008B800C300C401C501FF308631DF268131033012
:1008C8002100A7000830A6007830A500A50B6A2CE7
:1008D800A60B6A2CA70B6A2CFF302100A50025085F
:1008E8002000C300C401C501FF308A317A2281315A
:1008F80003302100A7000830A6007830A500A50B1A
:10090800832CA60B832CA70B832CFF302100A5007A
:1009180025082000C300C401C501FF308931AE217C
:10092800813103302100A7000830A6007830A500E7
:10093800A50B9C2CA60B9C2CA70B9C2CFF302100F4
:10094800A50025082000C300C401C501FF30883177
:10095800E220813103302100A7000830A60078305A
:10096800A500A50BB52CA60BB52CA70BB52CFF30F5
:100978002100A50025082000C300C401C501FF30DF
:1009880088311620813103302100A7000830A600E5
:100998007830A500A50BCE2CA60BCE2CA70BCE2C01
:1009A800FF302100A50025082000C300C401C501AF
:1009B800FF3097313427813103302100A7000830F8
:1009C800A6007830A500A50BE72CA60BE72CA70BF3
:1009D800E72CFF302100A50025082000C300C40132
:1009E800C501FF3096316826813103302100A70008
:1009F8000830A6007830A500A50B002DA60B002D09
:100A0800A70B002D2100B101043031020318442D39
:100A1800FF30A50025082000C300C401C501FF3030
:100A280096316826813102302100A7000430A600E3
:100A3800BA30A500A50B1E2DA60B1E2DA70B1E2D2B
:100A480000002000C301C401C501FF3096316826AB
:100A5800813102302100A7000430A600BA30A50079
:100A6800A50B342DA60B342DA70B342D0000013017
:100A78002100A5002508B10704303102031C0C2D04
:100A88009531A125080020008E1F4C2D013008004B
:100A98002100A001A101A201A301A401A501B201A5
:100AA800B301B401B501B601B701A601A701A801B8
:100AB800A901AA01AB01AC01AD01AE01AF01B001C2
:100AC800B101903104208531003A0319D42D00304A
:100AD8008400A0308500003F2000C000013FC10015
:100AE8004008543E2100A6000B302000413D210063
:100AF800A70000308400A0308500003F2000C0001F
:100B0800013FC1004008AC3E2100A800F43020009D
:100B1800413D2100A90000308400A0308500003F3D
:100B28002000C000013FC1004008543E2100AA0037
:100B38000B302000413D2100AB0000308400A03084
:100B48008500003F2000C000013FC1004008AC3EC6
:100B58002100AC00F4302000413D2100AD00003000
:100B68008400A0308500003F2000C000013FC10084
:100B78004008543E2100AE000B302000413D2100CA
:100B8800AF0000308400A0308500003F2000C00086
:100B9800013FC1004008AC3E2100B000F4303C2EBB
:100BA80000308400A0308500003F2000C000013FD5
:100BB800C1004008803E2100A6000C302000413DC5
:100BC8002100A70000308400A0308500003F2000ED
:100BD800C000013FC1004008803E2100A800F3305A
:100BE8002000413D2100A90000308400A03085008C
:100BF800003F2000C000013FC1004008803E2100A6
:100C0800AA000C302000413D2100AB0000308400D8
:100C1800A0308500003F2000C000013FC10040080F
:100C2800803E2100AC00F3302000413D2100AD00A2
:100C380000308400A0308500003F2000C000013F44
:100C4800C1004008803E2100AE000C302000413D2C
:100C58002100AF0000308400A0308500003F200054
:100C6800C000013FC1004008803E2100B000F330C1
:100C78002000413D2100B10009309D00C73020000F
:100C8800C0000000C00B452E0032000021009D145A
:100C98009D184C2E1C08B3001B08B2000D309D0097
:100CA800C7302000C0000000C00B572E00320000E3
:100CB80021009D149D185E2E1C08B5001B08B40069
:100CC80015309D00C7302000C0000000C00B692E01
:100CD8000032000021009D149D18702E1C08B700DA
:100CE8001B08B6002708803A2000C00021003308FE
:100CF800803A20004002031D842E2100320826027B
:100D0800031CDB2E21003308803A2000C00021009C
:100D18002908803A20004002031D952E210028084A
:100D28003202031CDB2E21002B08803A2000C00071
:100D380021003508803A20004002031DA62E21001C
:100D480034082A02031CDB2E21003508803A2000D3
:100D5800C00021002D08803A20004002031DB72E54
:100D680021002C083402031CDB2E21002F08803AB6
:100D78002000C00021003708803A20004002031DEF
:100D8800C82E210036082E02031CDB2E210037084E
:100D9800803A2000C00021003108803A200040023B
:100DA800031DD92E2100300836020318DD2E01302C
:100DB8000800003008002100A000A101A2012208BB
:100DC800803A2000C60080304602031DEE2E043013
:100DD800210021020318062F0030903109208631A6
:100DE80001302100A1070030A23D2208803A2000EE
:100DF800C60080304602031D042F04302100210262
:100E0800031CF02EFF3090310920863100309031DC
:100E18000920863100309031092086310030903128
:100E280009208631FF309031092086310030903119
:100E38000920863100309031092086310030903108
:100E480009208631FF3090310920863100309031F9
:100E580009208631003090310920863100309031E8
:100E680009208631FF3090310920863100309031D9
:100E780009208631003090310920863100309031C8
:100E880009208631FF3090310920863100309031B9
:100E980009208631003090310920863100309031A8
:100EA80009208631FF309031092086310030903199
:100EB8000920863100309031092086310030903188
:100EC8000920863121002008903109208631200030
:100ED80045089031092086312000440890310920C6
:100EE8008631200043089031092086312100A30172
:100EF800A4012408803A2000C60080304602031D61
:100F0800882F0430210023020318A02FFF309031CE
:100F18000920863101302100A3070030A43D2408B0
:100F2800803A2000C60080304602031D9E2F043000
:100F380021002302031C8A2FD0302000C700C930AB
:100F4800C600C60BA52FC70BA52F00320800F60157
:100F5800F11FB52FF009F109F00A0319F10AF6019A
:100F6800F60AF31FC02FF209F309F20A0319F30A6C
:100F78000130F4007408F606F701F80170087104EE
:100F88000319EF2FF501F50AF11BD42F0130F035C5
:100F9800F10D890BCB2F0130F4007408F507C82F29
:100FA8000130F735F80D890BD52F71087302031D31
:100FB800DF2F70087202031CE62F7008F202710816
:100FC800F33B77140130F136F00C890BE72F013031
:100FD800F502031DD42F76080319F72FF709F8092E
:100FE800F70A0319F80A7808F1007708F0000800F2
:080FF80021008C1408003234C2
:1010020021009D0180309E000F309F002C30200077
:10101200C000400821008C042C302000C000400891
:1010220023008C0421008E1708002100A000A101DA
:10103200A2012208803A2000C60080304602031D29
:10104200252804302100210203183D280030903168
:101052000920883101302100A1070030A23D220879
:10106200803A2000C60080304602031D3B2804302F
:1010720021002102031C2728FF30903109208831EA
:1010820000309031092088310030903109208831B8
:101092000030903109208831FF30903109208831A9
:1010A2000030903109208831003090310920883198
:1010B2000030903109208831210020089031092028
:1010C20088312000450890310920883120004408E9
:1010D200903109208831200043089031092088315D
:1010E200FF30903109208831003090310920883159
:1010F2000030903109208831003090310920883148
:10110200FF30903109208831003090310920883138
:101112000030903109208831003090310920883127
:10112200FF30903109208831003090310920883118
:101132000030903109208831003090310920883107
:10114200FF309031092088310030903109208831F8
:1011520000309031092088310030903109208831E7
:101162002100A301A4012408803A2000C600803097
:101172004602031DBF280430210023020318D7288A
:10118200FF3090310920883101302100A30700305F
:10119200A43D2408803A2000C60080304602031D88
:1011A200D528043021002302031CC128D03020009E
:1011B200C700C930C600C60BDC28C70BDC280032CA
:1011C20008002100A000A101A2012208803A20000B
:1011D200C60080304602031DF1280430210021029E
:1011E200031809290030903109208831013021008B
:1011F200A1070030A23D2208803A2000C6008030BC
:101202004602031D0729043021002102031CF32892
:10121200FF30903109208831003090310920883127
:101222000030903109208831003090310920883116
:10123200FF30903109208831003090310920883107
:1012420000309031092088310030903109208831F6
:10125200FF309031092088310030903109208831E7
:1012620000309031092088310030903109208831D6
:101272002100200890310920883120004508903152
:10128200092088312000440890310920883120004B
:101292004308903109208831FF309031092088318C
:1012A2000030903109208831003090310920883196
:1012B2000030903109208831FF3090310920883187
:1012C2000030903109208831003090310920883176
:1012D2000030903109208831FF3090310920883167
:1012E2000030903109208831003090310920883156
:1012F20000309031092088312100A301A401240883
:10130200803A2000C60080304602031D8B2904303B
:10131200210023020318A329FF30903109208831CC
:1013220001302100A3070030A43D2408803A2000A8
:10133200C60080304602031DA12904302100230289
:10134200031C8D29D0302000C700C930C600C60B4F
:10135200A829C70BA829003208002100A000A1017A
:10136200A2012208803A2000C60080304602031DF6
:10137200BD290430210021020318D5290030903103
:101382000920893101302100A1070030A23D220845
:10139200803A2000C60080304602031DD329043063
:1013A20021002102031CBF29FF309031092089311D
:1013B2000030903109208931003090310920893183
:1013C2000030903109208931FF3090310920893174
:1013D2000030903109208931003090310920893163
:1013E2000030903109208931FF3090310920893154
:1013F2000030903109208931003090310920893143
:101402000030903109208931FF3090310920893133
:101412000030903109208931003090310920893122
:1014220000309031092089312100200890310920B3
:101432008931200045089031092089312000440873
:1014420090310920893120004308903109208931E7
:10145200FF309031092089310030903109208931E3
:1014620000309031092089310030903109208931D2
:10147200FF309031092089310030903109208931C3
:1014820000309031092089310030903109208931B2
:101492002100A301A4012408803A2000C600803064
:1014A2004602031D572A04302100230203186F2A23
:1014B200FF3090310920893101302100A30700302B
:1014C200A43D2408803A2000C60080304602031D55
:1014D2006D2A043021002302031C592AD030200037
:1014E200C700C930C600C60B742AC70B742A003263
:1014F20008002100A000A101A2012208803A2000D8
:10150200C60080304602031D892A043021002102D0
:101512000318A12A0030903109208A3101302100BC
:10152200A1070030A23D2208803A2000C600803088
:101532004602031D9F2A043021002102031C8B2A2C
:10154200FF30903109208A310030903109208A31F0
:101552000030903109208A310030903109208A31DF
:10156200FF30903109208A310030903109208A31D0
:101572000030903109208A310030903109208A31BF
:10158200FF30903109208A310030903109208A31B0
:101592000030903109208A310030903109208A319F
:1015A200FF30903109208A310030903109208A3190
:1015B2000030903109208A310030903109208A317F
:1015C200FF30903109208A310030903109208A3170
:1015D2000030903109208A310030903109208A315F
:1015E20021002008903109208A31200045089031DD
:1015F20009208A3120004408903109208A312000D4
:101602004308903109208A31FF30903109208A3114
:101612000030903109208A310030903109208A311E
:101622000030903109208A312100A301A40124084D
:10163200803A2000C60080304602031D232B04306E
:101642002100230203183B2BFF30903109208A31FD
:1016520001302100A3070030A43D2408803A200075
:10166200C60080304602031D392B043021002302BC
:10167200031C252BD0302000C700C930C600C60B82
:10168200402BC70B402B003208002100A600260881
:10169200031DB42BA001A1012108803A2000C10042
:1016A20080304102031D582B4008210020020318FC
:1016B20008003D009216ED302000C100003200000B
:1016C200C10B5F2B00003D0092121A302000C200B5
:1016D200F830C100C10B6B2BC20B6B2B00003D001D
:1016E200921604302000C200B430C100C10B772B27
:1016F200C20B772B00003D00921219302000C2006D
:101702001B30C100C10B832BC20B832B00323D0067
:10171200921604302000C200B430C100C10B8F2BDE
:10172200C20B8F2B00003D00921219302000C20024
:101732001B30C100C10B9B2BC20B9B2B00323D0007
:1017420092161C302000C200D130C100C10BA72B61
:10175200C20BA72B00323D00921201302100A007DC
:101762000030A13D4D2B21002603031D212CA20197
:10177200A3012308803A2000C10080304102031DEA
:10178200C52B400821002202031808003D009216D2
:10179200ED302000C10000320000C10BCC2B000054
:1017A2003D0092121A302000C200F830C100C10B75
:1017B200D82BC20BD82B00003D0092160630200019
:1017C200C2008D30C100C10BE42BC20BE42B0032EE
:1017D2003D00921217302000C2004230C100C10BFE
:1017E200F02BC20BF02B00003D00921606302000B9
:1017F200C2008D30C100C10BFC2BC20BFC2B00328E
:101802003D00921217302000C2004230C100C10BCD
:10181200082CC20B082C00003D0092161C30200040
:10182200C200D130C100C10B142CC20B142C0032E7
:101832003D00921201302100A2070030A33DBA2BD5
:101842002100A401A5012508803A2000C1008030B2
:101852004102031D2F2C4008210024020318080016
:101862003D009216ED302000C10000320000C10B95
:10187200362C00003D0092121A302000C200F830CF
:10188200C100C10B422CC20B422C00003D0092163B
:1018920008302000C2006930C100C10B4E2CC20BBF
:1018A2004E2C00323D00921215302000C2006630EC
:1018B200C100C10B5A2CC20B5A2C00003D009216DB
:1018C20008302000C2006930C100C10B662CC20B77
:1018D200662C00323D00921215302000C2006630A4
:1018E200C100C10B722CC20B722C00003D0092167B
:1018F2001C302000C200D130C100C10B7E2CC20BB3
:101902007E2C00323D00921201302100A4070030EB
:10191200A53D242C2000A300B101B201B301FF3088
:10192200A0002008B000FF30A0002008B100B201E2
:10193200B3012308031D2303031DAF2D3108A000AB
:101942002008F3003208A1002108F4003308A200A5
:101952002208F50030089F3145278C3103302000E2
:10196200A2000830A1007830A000A00BB62CA10B79
:10197200B62CA20BB62C20003108A0002008F300E0
:101982003208A1002108F4003308A2002208F50061
:101992003008903180208C3103302000A2000830C2
:1019A200A1007830A000A00BD42CA10BD42CA20B48
:1019B200D42C20003108A0002008F3003208A10036
:1019C2002108F4003308A2002208F5003008913102
:1019D2003B218C3103302000A2000830A100783076
:1019E200A000A00BF22CA10BF22CA20BF22C2000D7
:1019F2003108A0002008F3003208A1002108F400F9
:101A02003308A2002208F50030089131F6218C310A
:101A120003302000A2000830A1007830A000A00B03
:101A2200102DA10B102DA20B102D20003108A000AB
:101A32002008F3003208A1002108F4003308A200B4
:101A42002208F50030089231B1228C310330200097
:101A5200A2000830A1007830A000A00B2E2DA10B0F
:101A62002E2DA20B2E2D20003108A0002008F300FD
:101A72003208A1002108F4003308A2002208F50070
:101A8200300893316C238C3103302000A2000830DF
:101A9200A1007830A000A00B4C2DA10B4C2DA20B65
:101AA2004C2D20003108A0002008F3003208A100CC
:101AB2002108F4003308A2002208F500300894310E
:101AC20027248C3103302000A2000830A100783096
:101AD200A000A00B6A2DA10B6A2DA20B6A2D20007B
:101AE200AC0104302C020318FD2F3108A00020089D
:101AF200F3003208A1002108F4003308A2002208F2
:101B0200F5003008943127248C3102302000A200E5
:101B12000430A100BA30A000A00B8D2DA10B8D2D99
:101B2200A20B8D2D0000F301F401F501FF30943179
:101B320027248C3102302000A2000430A100BA30E8
:101B4200A000A00BA22DA10BA22DA20BA22D000082
:101B520001302000A0002008AC07722D02302306BD
:101B6200031D162FAE012E0A0319652EA401A5012D
:101B72002508803AA00080302002031DC22D0430C7
:101B820024020318D82D00309A3199228C31013069
:101B92002000A4070030A53D2508803AA00080302F
:101BA2002002031DD62D04302402031CC42DFF3055
:101BB2009A3199228C3100309A3199228C3100303D
:101BC2009A3199228C3120002E089A3199228C3137
:101BD200FF309A3199228C3100309A3199228C311E
:101BE20000309A3199228C3120002E03FF3AFF3EB9
:101BF2009A3199228C31FF309A3199228C310030FE
:101C02009A3199228C3100309A3199228C312000FC
:101C12002E089A3199228C31FF309A3199228C31D7
:101C220000309A3199228C3100309A3199228C31CC
:101C320020002E03FF3AFF3E9A3199228C31FF3069
:101C42009A3199228C3100309A3199228C310030AC
:101C52009A3199228C3120002E089A3199228C31A6
:101C62002000A601A7012708803AA00080302002A8
:101C7200031D3D2E043026020318532EFF309A31E5
:101C820099228C3101302000A6070030A73D270899
:101C9200803AA00080302002031D512E043026021B
:101CA200031C3F2ED0302000A100C930A000A00BA1
:101CB200582EA10B582E003205302000A00020081B
:101CC200AE072E0A031DB72DFF30A0002008AF007B
:101CD2002F080319FD2FA801A9012908803AA000A5
:101CE20080302002031D772E0430280203188D2E27
:101CF20000309A3199228C3101302000A80700303F
:101D0200A93D2908803AA00080302002031D8B2EB5
:101D120004302802031C792EFF309A3199228C312B
:101D220000309A3199228C3100309A3199228C31CB
:101D320020002F089A3199228C31FF309A31992252
:101D42008C3100309A3199228C3100309A319922AB
:101D52008C3120002F03FF3AFF3E9A3199228C31B9
:101D6200FF309A3199228C3100309A3199228C318C
:101D720000309A3199228C3120002F089A31992211
:101D82008C31FF309A3199228C3100309A3199226C
:101D92008C3100309A3199228C3120002F03FF3A86
:101DA200FF3E9A3199228C31FF309A3199228C313F
:101DB20000309A3199228C3100309A3199228C313B
:101DC20020002F089A3199228C312000AA01AB0100
:101DD2002B08803AA00080302002031DF22E04302E
:101DE2002A020318082FFF309A3199228C310130D0
:101DF2002000AA070030AB3D2B08803AA0008030BB
:101E02002002031D062F04302A02031CF42ED030B8
:101E12002000A100C930A000A00B0D2FA10B0D2F97
:101E2200003205302000AF02692E03302306031D65
:101E3200FD2FFF30A0002008F300F401F501FF3070
:101E4200943127248C3103302000A2000830A100F5
:101E52007830A000A00B2B2FA10B2B2FA20B2B2F26
:101E6200FF302000A0002008F300F401F501FF304C
:101E720093316C238C3103302000A2000830A10082
:101E82007830A000A00B432FA10B432FA20B432FAE
:101E9200FF302000A0002008F300F401F501FF301C
:101EA2009231B1228C3103302000A2000830A1000F
:101EB2007830A000A00B5B2FA10B5B2FA20B5B2F36
:101EC200FF302000A0002008F300F401F501FF30EC
:101ED2009131F6218C3103302000A2000830A1009C
:101EE2007830A000A00B732FA10B732FA20B732FBE
:101EF200FF302000A0002008F300F401F501FF30BC
:101F020091313B218C3103302000A2000830A10026
:101F12007830A000A00B8B2FA10B8B2FA20B8B2F45
:101F2200FF302000A0002008F300F401F501FF308B
:101F3200903180208C3103302000A2000830A100B3
:101F42007830A000A00BA32FA10BA32FA20BA32FCD
:101F5200FF302000A0002008F300F401F501FF305B
:101F62009F3145278C3103302000A2000830A100A8
:101F72007830A000A00BBB2FA10BBB2FA20BBB2F55
:101F82002000AD0104302D020318FD2FFF30A00008
:101F92002008F300F401F501FF309F3145278C3111
:101FA20002302000A2000430A100BA30A000A00B31
:101FB200D82FA10BD82FA20BD82F0000F301F401C8
:101FC200F501FF309F3145278C3102302000A200FD
:101FD2000430A100BA30A000A00BED2FA10BED2F11
:101FE200A20BED2F000001302000A0002008AD0759
:0E1FF20004302D02031CC72F9E318B260800E1
:10200800003020008C18013008002000C200240095
:1020180011082000C0004008C10091112400951348
:102028002000420824009100200091190800182877
:10203800730803192428720871047004031D3528D5
:102048000030F0000030F1000030F20008000130EC
:10205800F5007508F3070130F236F10CF00C890B26
:102068003028FE30720503194E282B280130F50060
:102078007508F3070130F007003003180130F10745
:10208800003003180130F2070130F236F10CF00C81
:10209800890B4928FF30720503195B283A2801305B
:1020A800F3020130F035F10DF20D890B5628F11BC2
:1020B8006128023073020318532873186928FF3007
:1020C800F0057F30F105FF30F2050310F30C7308BB
:1020D800F500F601F7011030F535F60DF70D890B0F
:1020E80070287508F0047608F1047708F20474087B
:1020F80003190800F2170800F800F901FA017A0834
:10210800803AF60080307602031D8C28043079026C
:102118000318A12800309A31992290310130F9072B
:102128000030FA3D7A08803AF60080307602031DC6
:102138009F2804307902031C8E28FF309A31992297
:10214800903100309A319922903100309A31992299
:10215800903100309A319922903178089A31992239
:10216800903175089A319922903174089A319922E0
:10217800903173089A3199229031FF309A3199221F
:10218800903100309A319922903100309A31992259
:10219800903100309A3199229031FF309A3199224A
:1021A800903100309A319922903100309A31992239
:1021B800903100309A3199229031FF309A3199222A
:1021C800903100309A319922903100309A31992219
:1021D800903100309A3199229031FF309A3199220A
:1021E800903100309A319922903100309A319922F9
:1021F800903100309A3199229031FF309A319922EA
:10220800903100309A319922903100309A319922D8
:10221800903100309A3199229031FB01FC017C0801
:10222800803AF60080307602031D1C2904307B02B8
:1022380003183129FF309A31992290310130FB0778
:102248000030FC3D7C08803AF60080307602031DA1
:102258002F2904307B02031C1E29D030F700C93017
:10226800F600F60B3529F70B352900320800F8007F
:10227800F901FA017A08803AF60080307602031DE7
:1022880047290430790203185C2900309A319922D1
:1022980091310130F9070030FA3D7A08803AF600AA
:1022A80080307602031D5A2904307902031C49291B
:1022B800FF309A319922913100309A319922913127
:1022C80000309A319922913100309A319922913116
:1022D800FF309A319922913100309A319922913107
:1022E80000309A319922913100309A3199229131F6
:1022F80078089A319922913175089A319922913149
:1023080074089A319922913173089A31992291313E
:10231800FF309A319922913100309A3199229131C6
:1023280000309A319922913100309A3199229131B5
:10233800FF309A319922913100309A3199229131A6
:1023480000309A319922913100309A319922913195
:10235800FF309A319922913100309A319922913186
:1023680000309A319922913100309A319922913175
:10237800FF309A319922913100309A319922913166
:1023880000309A319922913100309A319922913155
:10239800FB01FC017C08803AF60080307602031DC0
:1023A800D72904307B020318EC29FF309A3199228F
:1023B80091310130FB070030FC3D7C08803AF60083
:1023C80080307602031DEA2904307B02031CD929D8
:1023D800D030F700C930F600F60BF029F70BF029DA
:1023E80000320800F800F901FA017A08803AF6008C
:1023F80080307602031D022A043079020318172A56
:1024080000309A31992291310130F9070030FA3DB4
:102418007A08803AF60080307602031D152A0430C7
:102428007902031C042AFF309A3199229131003035
:102438009A319922913100309A31992291310030A4
:102448009A3199229131FF309A3199229131003095
:102458009A319922913100309A3199229131003084
:102468009A3199229131FF309A3199229131003075
:102478009A319922913100309A3199229131003064
:102488009A319922913178089A31992291317508B7
:102498009A319922913174089A31992291317308AD
:1024A8009A3199229131FF309A3199229131003035
:1024B8009A319922913100309A3199229131003024
:1024C8009A3199229131FF309A3199229131003015
:1024D8009A319922913100309A3199229131003004
:1024E8009A3199229131FF309A31992291310030F5
:1024F8009A319922913100309A31992291310030E4
:102508009A3199229131FB01FC017C08803AF6004E
:1025180080307602031D922A04307B020318A72A12
:10252800FF309A31992291310130FB070030FC3D90
:102538007C08803AF60080307602031DA52A043014
:102548007B02031C942AD030F700C930F600F60B42
:10255800AB2AF70BAB2A00320800F800F901FA01A0
:102568007A08803AF60080307602031DBD2A0430CE
:1025780079020318D22A00309A3199229231013017
:10258800F9070030FA3D7A08803AF6008030760282
:10259800031DD02A04307902031CBF2AFF309A3168
:1025A8009922923100309A319922923100309A3131
:1025B8009922923100309A3199229231FF309A3122
:1025C8009922923100309A319922923100309A3111
:1025D8009922923100309A3199229231FF309A3102
:1025E8009922923100309A319922923100309A31F1
:1025F8009922923100309A3199229231FF309A31E2
:102608009922923100309A319922923100309A31D0
:102618009922923100309A319922923178089A3170
:102628009922923175089A319922923174089A3117
:102638009922923173089A3199229231FF309A3156
:102648009922923100309A319922923100309A3190
:102658009922923100309A3199229231FF309A3181
:102668009922923100309A319922923100309A3170
:102678009922923100309A3199229231FB01FC0162
:102688007C08803AF60080307602031D4D2B04301A
:102698007B020318622BFF309A3199229231013064
:1026A800FB070030FC3D7C08803AF600803076025B
:1026B800031D602B04307B02031C4F2BD030F70026
:1026C800C930F600F60B662BF70B662B00320800B4
:1026D800F800F901FA017A08803AF60080307602AB
:1026E800031D782B0430790203188D2B00309A31A2
:1026F800992293310130F9070030FA3D7A08803A7F
:10270800F60080307602031D8B2B04307902031CFF
:102718007A2BFF309A319922933100309A319922DD
:10272800933100309A319922933100309A319922AD
:102738009331FF309A319922933100309A3199229E
:10274800933100309A319922933100309A3199228D
:102758009331FF309A319922933100309A3199227E
:10276800933100309A319922933100309A3199226D
:102778009331FF309A319922933100309A3199225E
:10278800933100309A319922933100309A3199224D
:102798009331FF309A319922933100309A3199223E
:1027A800933100309A319922933100309A3199222D
:1027B800933178089A319922933175089A31992280
:1027C800933174089A319922933173089A31992276
:1027D8009331FF309A319922933100309A319922FE
:1027E800933100309A319922933100309A319922ED
:1027F8009331FB01FC017C08803AF60080307602B8
:10280800031D082C04307B0203181D2CFF309A315D
:10281800992293310130FB070030FC3D7C08803A57
:10282800F60080307602031D1B2C04307B02031C4B
:102838000A2CD030F700C930F600F60B212CF70B24
:10284800212C00320800F800F901FA017A08803AD0
:10285800F60080307602031D332C04307902031809
:10286800482C00309A31992294310130F907003010
:10287800FA3D7A08803AF60080307602031D462C2D
:1028880004307902031C352CFF309A319922943197
:1028980000309A319922943100309A31992294313A
:1028A80000309A3199229431FF309A31992294312B
:1028B80000309A319922943100309A31992294311A
:1028C80000309A3199229431FF309A31992294310B
:1028D80000309A319922943100309A3199229431FA
:1028E80000309A3199229431FF309A3199229431EB
:1028F80000309A319922943100309A3199229431DA
:1029080000309A3199229431FF309A3199229431CA
:1029180000309A319922943100309A3199229431B9
:1029280000309A3199229431FF309A3199229431AA
:1029380000309A319922943100309A319922943199
:1029480000309A319922943178089A319922943139
:1029580075089A319922943174089A3199229431E0
:1029680073089A3199229431FB01FC017C08803A62
:10297800F60080307602031DC32C04307B02031856
:10298800D82CFF309A31992294310130FB0700305E
:10299800FC3D7C08803AF60080307602031DD62C78
:1029A80004307B02031CC52CD030F700C930F60078
:1029B800F60BDC2CF70BDC2C003208002100400859
:1029C800BC004108BD004208BE00BF019A31F22296
:1029D80094319B311F2394318831012094319D31EA
:1029E8002D2594319A318A2294318731FC279431EC
:1029F8009C31A3249431210043080319092D033085
:102A08008131982194312100C301853147259431C2
:102A1800003A0319512D21004508031D192D903145
:102A280004209431003A0319512D90310420943137
:102A3800003A031D4D2D0030813198219431BC306E
:102A48009A31C922943103302100B9003908BF00F6
:102A58003F080319512D3F08FF3EBC3E8600870101
:102A680001080319492D8B133F08FF3EBC3E860021
:102A780087010108B90039082000C00021003F087B
:102A8800FF3E8B31462394318B1701302100BF0262
:102A98002C2D01308131982194318B13952D8B1772
:102AA800FF303D00C400FF30C3003117E401E301EB
:102AB8005117FF303E00A400A30111173D00311744
:102AC80051173E00111703302100BB000830BA002F
:102AD8007830B900B90B6E2DBA0B6E2DBB0B6E2D6D
:102AE8003D00C401C3013117E401E30151173E0061
:102AF800A401A30111173D00311751173E0011170A
:102B080003302100BB000830BA007830B900B90B97
:102B18008B2DBA0B8B2DBB0B8B2D8B13013021000A
:102B2800C4022100440803199F2D903104209431D8
:102B3800003A0319532D8B17FC2C2100A001A10189
:102B48002108803A2000C30080304302031DAF2DC6
:102B58000430210020020318C72D003090310920CD
:102B6800953101302100A0070030A13D2108803AAD
:102B78002000C30080304302031DC52D043021000E
:102B88002002031CB12DFF3090310920953100300F
:102B9800903109209531003090310920953100306D
:102BA800903109209531FF3090310920953100305E
:102BB800903109209531003090310920953100304D
:102BC800903109209531FF3090310920953100303E
:102BD800903109209531003090310920953100302D
:102BE800903109209531FF3090310920953100301E
:102BF800903109209531003090310920953100300D
:102C0800903109209531FF309031092095310030FD
:102C180090310920953100309031092095310030EC
:102C2800903109209531FF309031092095310030DD
:102C380090310920953100309031092095310030CC
:102C4800903109209531FF309031092095310030BD
:102C580090310920953100309031092095310030AC
:102C68009031092095312100A201A3012308803A5F
:102C78002000C30080304302031D452E043021008C
:102C8800220203185D2EFF30903109209531013062
:102C98002100A2070030A33D2308803A2000C3008A
:102CA80080304302031D5B2E043021002202031CE6
:102CB800472ED0302000C400C930C300C30B622E99
:102CC800C40B622E003208002100A000A101A2015D
:102CD8002208803A2000C60080304602031D772E65
:102CE80004302100210203188F2E00309031092072
:102CF800963101302100A1070030A23D2208803A18
:102D08002000C60080304602031D8D2E04302100AD
:102D18002102031C792E21002008903109209631C8
:102D28002000450890310920963120004408903150
:102D38000920963120004308903109209631FF3050
:102D480090310920963100309031092096310030B9
:102D58009031092096310030903109209631FF30AA
:102D68009031092096310030903109209631003099
:102D78009031092096310030903109209631FF308A
:102D88009031092096310030903109209631003079
:102D98009031092096310030903109209631FF306A
:102DA8009031092096310030903109209631003059
:102DB8009031092096310030903109209631FF304A
:102DC8009031092096310030903109209631003039
:102DD8009031092096310030903109209631FF302A
:102DE8009031092096310030903109209631003019
:102DF8009031092096310030903109209631210018
:102E0800A301A4012408803A2000C60080304602AD
:102E1800031D112F0430210023020318292FFF302E
:102E280090310920963101302100A3070030A43DDC
:102E38002408803A2000C60080304602031D272F50
:102E4800043021002302031C132FD0302000C700B8
:102E5800C930C600C60B2E2FC70B2E2F0032080014
:102E68002100A000A101A2012208803A2000C6008A
:102E780080304602031D432F04302100210203182D
:102E88005B2F003090310920973101302100A107D4
:102E98000030A23D2208803A2000C6008030460259
:102EA800031D592F043021002102031C452FFF3038
:102EB8009031092097310030903109209731003046
:102EC8009031092097310030903109209731210045
:102ED80020089031092097312000450890310920B9
:102EE8009731200044089031092097312000430889
:102EF800903109209731FF30903109209731003007
:102F080090310920973100309031092097310030F5
:102F1800903109209731FF309031092097310030E6
:102F280090310920973100309031092097310030D5
:102F3800903109209731FF309031092097310030C6
:102F480090310920973100309031092097310030B5
:102F5800903109209731FF309031092097310030A6
:102F68009031092097310030903109209731003095
:102F7800903109209731FF30903109209731003086
:102F88009031092097310030903109209731003075
:102F98009031092097312100A301A4012408803A27
:102FA8002000C60080304602031DDD2F04302100BA
:102FB80023020318F52FFF30903109209731013093
:102FC8002100A3070030A43D2408803A2000C60051
:102FD80080304602031DF32F043021002302031C16
:102FE800DF2FD0302000C700C930C600C60BFA2F2B
:082FF800C70BFA2F003208009C
:10350A00003020008C1801300800D8308B002700CA
:10351A001108123891001208103892003130200038
:10352A00980021000C160800F20024001108F0008F
:10353A007008F1002000911124009513720891007F
:10354A00200091190800A52AFD01F91FB32AF809DC
:10355A00F909F80A0319F90AFD01FD0A7808F000C9
:10356A007908F100F2018E30FB007B08F3007D0838
:10357A00FC007C08F40090311C207008F8007108E7
:10358A00F9007208FA0008002000C10090310420F6
:10359A009A31003A0319E02A20004108860087017F
:1035AA008101410A8600870181014108023E8600A5
:1035BA008701810108000F302000C0004108860001
:1035CA00870140088100410A86008701810141087C
:1035DA00023E860087018101080023008C018D01CB
:1035EA0022000D158D1520000D158D1524000D15C1
:1035FA008D15F8302000C0004008210099040530DC
:10360A002000C2000F30C100F430C000C00B0B2BE9
:10361A00C10B0B2BC20B0B2BF3302000C000400850
:10362A0021008D0520000D158D150D198D1D010028
:10363A008B170800F7302000C000400821008E05D3
:10364A003D00910180309200930194019601970107
:10365A009801990101309A0001309B0001309C00C9
:10366A009D0108309E009F01A201A1010130A40022
:10367A006A30A3000230A6003A30A500A901AA01C7
:10368A00AD01AB01AC010830AE00AF01A0010830BA
:10369A00950080309100EE302000C00040082100E3
:1036AA009405140808002000B21F6F2B3009B600D9
:1036BA003109B7003209B800B60A0319B70A031963
:1036CA00B80A00303607B0000030373DB10080300C
:1036DA00383DB200B51F852B3309B6003409B7004F
:1036EA003509B800B60A0319B70A0319B80A00302F
:1036FA003607B3000030373DB4008030383DB5009E
:10370A008030B2068030B50635083202031D080043
:10371A0034083102031D0800330830020800200073
:10372A003008B4003108B5003208B6000310350D70
:10373A00360DB7003708BD003D08031DAD2B00301C
:10374A00B3000030B2000030B1000030B000080011
:10375A003008B4003108B5003208B6001730B63662
:10376A00B50CB40C890BB42B3408B7003708B80071
:10377A00B117FF30B005FF30B1050030B20530088F
:10378A00B9003108BA003208BB00BC018E30BD0254
:10379A00BD1FEB2B3D08803A8F3E0318DD2B00300E
:1037AA00B3000030B2000030B1000030B0000800B1
:1037BA000130BC36BB0CBA0CB90C890BDE2B0130BC
:1037CA00B4003408BD070319042CDD2B18303D0260
:1037DA00031C012C0030B3000030B2000030B100ED
:1037EA000030B00008000130B935BA0DBB0DBC0D70
:1037FA00890BF92B0130BD023D08031DF82B38084F
:10380A000319122CB909BA09BB09BC09B90A031967
:10381A00BA0A0319BB0A0319BC0A3C08B3003B08DD
:10382A00B2003A08B1003908B00008002100450882
:10383A00031D5C2C3D00C401C3013117E401E301FF
:10384A005117FF303E00A400FF30A30011173D00BE
:10385A00311751173E0011171530F2004B30F100A5
:10386A00D130F000F00B372CF10B372CF20B372C40
:10387A0000003D00C401C3013117E401E3015117FF
:10388A003E00A401A30111173D00311751173E0054
:10389A0011171530F2004B30F100D130F000F00B67
:1038AA00542CF10B542CF20B542C00001B2C0B3013
:1038BA0045020318732C3D00C401C3013117E4010A
:1038CA00E3015117FF303E00A400FF30A300111797
:1038DA003D00311751173E00111708000B30210027
:1038EA004502031C902C233045020318902CFF300C
:1038FA003D00C400FF30C3003117E401E301511752
:10390A00FF303E00A400A30111173D0031175117E3
:10391A003E0011170800FF303D00C400FF30C3000D
:10392A003117E401E30151173E00A401A301111765
:10393A003D00311751173E001117080021004508B4
:10394A00031DE62C3D00C401C3013117E401E30164
:10395A005117FF303E00A400FF30A30011173D00AD
:10396A00311751173E00111715302000C2004B3095
:10397A00C100D130C000C00BC02CC10BC02CC20B7F
:10398A00C02C00003D00C401C3013117E401E3016A
:10399A0051173E00A401A30111173D003117511719
:1039AA003E00111715302000C2004B30C100D13043
:1039BA00C000C00BDE2CC10BDE2CC20BDE2C0000BB
:1039CA00A32C0B3045020318FD2C3D00C401C30192
:1039DA003117E401E3015117FF303E00A400FF3024
:1039EA00A30011173D00311751173E0011170800A7
:1039FA000B3021004502031C1A2D233045020318FF
:103A0A001A2DFF303D00C400FF30C3003117E40116
:103A1A00E3015117FF303E00A400A30111173D0036
:103A2A00311751173E0011170800FF303D00C4003E
:103A3A00FF30C3003117E401E30151173E00A4012E
:103A4A00A30111173D00311751173E001117080045
:103A5A008F302000C500450821008E058D138D1278
:103A6A003D00B101B201B301B401B601B701B80119
:103A7A00B9010130BA000130BB000130BC00BD0100
:103A8A000130BE00BF01C201C1010130C400F430DF
:103A9A00C3000330C600E730C500C901CA01CD0121
:103AAA00CB01CC010130CE00CF01C0010130B500FD
:103ABA008030B100DD302000C500450821009405A2
:103ACA0014083D00D101D2010230D300D401D6013D
:103ADA00D701D801D9010130DA000130DB00013009
:103AEA00DC00DD010130DE00DF01E201E10101302D
:103AFA00E400F430E3000330E600E730E500E901D2
:103B0A00EA01ED01EB01EC010130EE00EF01E00109
:103B1A000130D5008030D100BB302000C5004508F7
:103B2A002100940514083E0091019201023093008D
:103B3A009401960197019801990101309A00013088
:103B4A009B0001309C009D0102309E009F01A20152
:103B5A00A1010130A400F430A3000330A600E7302D
:103B6A00A500A901AA01AD01AB01AC010230AE006A
:103B7A00AF01A0010230950080309100773020001B
:103B8A00C500450821009405140824009512203028
:103B9A00950022001D169D169D1524009516953137
:103BAA00A125080020002008A6002108A700220855
:103BBA00A8000310270D280DA9002908AA002A0821
:103BCA00031DEE2D0030A0000030A1000030A2003D
:103BDA0008002308A6002408A7002508A800031047
:103BEA00270D280DA9002908AF002F08031D042E50
:103BFA000030A0000030A1000030A20008002F0809
:103C0A007B3EA6002608AA072008A6002108A700CE
:103C1A002208A8001030A836A70CA60C890B102E73
:103C2A002608A9002908AF002308A6002408A7002F
:103C3A002508A8001030A836A70CA60C890B202E40
:103C4A002608A9002908AF068030A6002608AF0575
:103C5A00A117A417FF30A305FF30A4050030A5055E
:103C6A000030AB000030AC000030AD000730A600D9
:103C7A002608AE00201C472E2308AB072408AC3DBB
:103C8A002508AD3D0130A236A10CA00C890B482EA7
:103C9A000130A335A40DA50D890B4E2E0130AE02BD
:103CAA00031D3F2E0930A6002608AE00201C632EF5
:103CBA002308AB072408AC3D2508AD3D0130A236E8
:103CCA00A10CA00C890B642E0130AD36AC0CAB0CE8
:103CDA00890B6A2E0130AE02031D5B2E2B08F00001
:103CEA002C08F1002D08F2002A08A6002608F30085
:103CFA002F08A7002708F40090311C207008200024
:103D0A00A0007108A1007208A2000800F501F601DE
:103D1A007608803AF30080307302031D962E043031
:103D2A0075020318AB2E00309A3199229E31013068
:103D3A00F5070030F63D7608803AF30080307302CA
:103D4A00031DA92E04307502031C982EFF309A31E8
:103D5A0099229E3100309A3199229E3100309A314F
:103D6A0099229E3100309A3199229E31FF309A3140
:103D7A0099229E3100309A3199229E3100309A312F
:103D8A0099229E3100309A3199229E31FF309A3120
:103D9A0099229E3100309A3199229E3100309A310F
:103DAA0099229E3100309A3199229E31FF309A3100
:103DBA0099229E3100309A3199229E3100309A31EF
:103DCA0099229E3100309A3199229E31FF309A31E0
:103DDA0099229E3100309A3199229E3100309A31CF
:103DEA0099229E3100309A3199229E31FF309A31C0
:103DFA0099229E3100309A3199229E3100309A31AF
:103E0A0099229E3100309A3199229E31FF309A319F
:103E1A0099229E3100309A3199229E3100309A318E
:103E2A0099229E3100309A3199229E31F701F80188
:103E3A007808803AF30080307302031D262F04307D
:103E4A00770203183B2FFF309A3199229E310130B5
:103E5A00F7070030F83D7808803AF30080307302A3
:103E6A00031D392F04307702031C282FD030F400A9
:103E7A00C930F300F30B3F2FF40B3F2F0032080039
:103E8A00F800F901FA017A08803AF60080307602E1
:103E9A00031D512F043079020318662F00309A311E
:103EAA0099229F310130F9070030FA3D7A08803AA9
:103EBA00F60080307602031D642F04307902031C59
:103ECA00532F78089A3199229F3175089A3199228D
:103EDA009F3174089A3199229F3173089A31992235
:103EEA009F31FF309A3199229F3100309A319922BD
:103EFA009F3100309A3199229F3100309A319922AC
:103F0A009F31FF309A3199229F3100309A3199229C
:103F1A009F3100309A3199229F3100309A3199228B
:103F2A009F31FF309A3199229F3100309A3199227C
:103F3A009F3100309A3199229F3100309A3199226B
:103F4A009F31FF309A3199229F3100309A3199225C
:103F5A009F3100309A3199229F3100309A3199224B
:103F6A009F31FF309A3199229F3100309A3199223C
:103F7A009F3100309A3199229F3100309A3199222B
:103F8A009F31FF309A3199229F3100309A3199221C
:103F9A009F3100309A3199229F3100309A3199220B
:103FAA009F31FB01FC017C08803AF60080307602E2
:103FBA00031DE12F04307B020318F62FFF309A31DC
:103FCA0099229F310130FB070030FC3D7C08803A82
:103FDA00F60080307602031DF42F04307B02031CA6
:103FEA00E32FD030F700C930F600F60BFA2FF70BA3
:103FFA00FA2F003208000034103418340C34E83434
:10400A0013340A340D3447346F346F346434203433
:10401A006A346F3462342E34203459346F34753430
:10402A0020346B346E346F347734203468346F3410
:10403A007734203474346F34203472346534613404
:10404A006434203469346E3473347434723475349D
:10405A006334743469346F346E3473342E340A34EE
:10406A000A34003450346C34653461347334653442
:10407A00203465346E3474346534723420347434C4
:10408A00683465342034633468346134723461349A
:10409A006334743465347234203441343A3420340D
:1040AA0000340A340D34573472346F346E34673442
:1040BA0020346B34653479342E34203454347234D9
:1040CA007934203461346734613469346E342E347F
:1040DA000A340D3400340A340D344D3461346934F1
:1040EA006E3420344C346F346F3470342034493495
:1040FA006E346434693476346934643475346134C2
:08410A006C340A340D3400345A
:020000040001F9
:04000E00E4F9FFDE34
:00000001FF
