:0400000081318129A0
:1000060032347E14803120007F08BF0096019701AC
:100016002700931C2B289310C7302000BE00000039
:10002600BE0B122800320000903101208031003AC8
:1000360003197C2932302000BE003E082100C5008D
:100046009B31EA23803102308C31432480317C2974
:10005600131E7C29EF302000BE003E0827009305C2
:1000660020000C1E3F280A302000170276300319A4
:10007600160203187C293328960197010C1A4B287F
:100086000A30170276300319160203187C29412814
:10009600960197010C1E57280A301702763003196D
:1000A600160203187C294D281708C9001608C8002F
:1000B600960197010C1A67280A3017027630031941
:1000C600160203187C295D28960197010C1E7328D9
:1000D6000A30170276300319160203187C2969289C
:1000E6001708CB001608CA00CD30A0008C30A1003E
:1000F6003F30A2004B08F9004A08F8009A311E2248
:10010600803178082000A3007908A4007A08A500A9
:100116009D311C25803120002008B0002108B10047
:100126002208B2004908F9004808F8009A311E2250
:10013600803178082000B3007908B4007A08B50049
:100146009A31D6228031031C7C29CD302000A000B4
:100156008C30A1003F30A2004908F9004808F80099
:100166009A311E22803178082000A3007908A40065
:100176007A08A5009D311C25803120002008B0009A
:100186002108B1002208B2004B08F9004A08F8001D
:100196009A311E22803178082000B3007908B40015
:1001A6007A08B5009A31D6228031031C7C290230A8
:1001B600F0000030F10020004A084807F2004B0822
:1001C600493DF3009B311223803171082000CD0098
:1001D6007008CC004D08F9004C08F8009A311E2230
:1001E600803178082000A3007908A4007A08A500C9
:1001F600CD30A0008E30A1004130A2009D311C25DB
:10020600803120002008B0002108B1002208B20089
:100216009B316323803120003108CF003008CE00A7
:100226004F08803ABE0097303E02031D1C297030ED
:100236004E02031C3A2920004F08803ABE009D302A
:100246003E02031D28294C304E0203183A2921008C
:10025600450803197C29903101208031003A031D9D
:100266007C2901302100C502C301C30A7C29200074
:100276004F08803ABE00A7303E02031D44291030C5
:100286004E02031C5E2920004F08803ABE00AE30A5
:100296003E02031D5029E0304E0203185E2932301B
:1002A6002100450203187C2901302000BE003E08CB
:1002B6002100C5077C2920004F08803ABE00B230D5
:1002C6003E02031D6829C8304E02031C7C2920000B
:1002D6004F08803ABE00BA303E02031D742998309A
:1002E6004E0203187C2901302000BE003E08210082
:1002F600C40720003F08FF007E10090081318329D2
:10030600C801C901CA01CB01CC01CD01CE01CF0183
:100316002100C001C101C201C301C4018031032013
:10032600C5007E1020009431162C2100B200B401C5
:10033600B501B601FF30A5002508B300B401B5012B
:10034600FF30A5002508B6003208031D3203031D41
:10035600ED2A3408A50025082000C3002100350831
:10036600A60026082000C40021003608A70027089A
:100376002000C5002100330895319C2581310330CA
:100386002100A7000830A6007830A500A50BC929D2
:10039600A60BC929A70BC92921003408A5002508E1
:1003A6002000C30021003508A60026082000C4004E
:1003B60021003608A70027082000C50021003308C1
:1003C60096316826813103302100A7000830A60047
:1003D6007830A500A50BED29A60BED29A70BED2975
:1003E60021003408A50025082000C3002100350897
:1003F600A60026082000C40021003608A70027080A
:100406002000C5002100330897313427813103309D
:100416002100A7000830A6007830A500A50B112AF8
:10042600A60B112AA70B112A21003408A5002508BE
:100436002000C30021003508A60026082000C400BD
:1004460021003608A70027082000C5002100330830
:1004560088319A20813103302100A7000830A60098
:100466007830A500A50B352AA60B352AA70B352A09
:1004760021003408A50025082000C3002100350806
:10048600A60026082000C40021003608A700270879
:100496002000C500210033088931662181310330EF
:1004A6002100A7000830A6007830A500A50B592A20
:1004B600A60B592AA70B592A21003408A50025089E
:1004C6002000C30021003508A60026082000C4002D
:1004D60021003608A70027082000C50021003308A0
:1004E6008A313222813103302100A7000830A6006C
:1004F6007830A500A50B7D2AA60B7D2AA70B7D2AA1
:1005060021003408A50025082000C3002100350875
:10051600A60026082000C40021003608A7002708E8
:100526002000C5002100330887312427813103309C
:100536002100A7000830A6007830A500A50BA12A47
:10054600A60BA12AA70BA12A2100B0010430300274
:1005560003188C2D3408A50025082000C3002100AF
:100566003508A60026082000C40021003608A7008A
:1005760027082000C5002100330887312427813150
:1005860002302100A7000430A600BA30A500A50B52
:10059600CA2AA60BCA2AA70BCA2A00002000C30132
:1005A600C401C501FF308731242781310230210083
:1005B600A7000430A600BA30A500A50BE02AA60BBA
:1005C600E02AA70BE02A000001302100A50025083B
:1005D600B007A92A02303206031D9C2CB701370A40
:1005E6000319C72BA801A9012908803AA500803064
:1005F6002502031D002B043028020318162B003099
:100606009931F621813101302100A8070030A93D3A
:100616002908803AA50080302502031D142B0430DA
:100626002802031C022BFF309931F621813100305C
:100636009931F621813100309931F621813121003D
:1006460037089931F6218131FF309931F621813110
:1006560000309931F621813100309931F62181310E
:1006660021003703FF3AFF3E9931F6218131FF30F1
:100676009931F621813100309931F62181310030EE
:100686009931F6218131210037089931F6218131DE
:10069600FF309931F621813100309931F6218131CF
:1006A60000309931F621813121003703FF3AFF3EB0
:1006B6009931F6218131FF309931F62181310030AF
:1006C6009931F621813100309931F62181312100AD
:1006D60037089931F6218131FF309931F621813180
:1006E60000309931F621813100309931F62181317E
:1006F60021003703FF3AFF3E9931F6218131FF3061
:100706009931F621813100309931F621813100305D
:100716009931F6218131210037089931F62181314D
:100726002100AA01AB012B08803AA50080302502E2
:10073600031D9F2B04302A020318B52BFF30993175
:10074600F621813101302100AA070030AB3D2B088C
:10075600803AA50080302502031DB32B04302A02FF
:10076600031CA12BD0302100A600C930A500A50B83
:10077600BA2BA60BBA2B003205302100A50025089E
:10078600B707370A031DF52AFF30A5002508B8006C
:10079600380803198C2DAC01AD012D08803AA5004F
:1007A60080302502031DD92B04302C020318EF2BB1
:1007B60000309931F621813101302100AC0700303B
:1007C600AD3D2D08803AA50080302502031DED2B96
:1007D60004302C02031CDB2BFF309931F6218131CA
:1007E60000309931F621813100309931F62181317D
:1007F600210038089931F6218131FF309931F621EF
:10080600813100309931F621813100309931F6215C
:10081600813121003803FF3AFF3E9931F6218131BB
:10082600FF309931F621813100309931F62181313D
:1008360000309931F6218131210038089931F621AD
:100846008131FF309931F621813100309931F6211D
:10085600813100309931F621813121003803FF3A88
:10086600FF3E9931F6218131FF309931F6218131F0
:1008760000309931F621813100309931F6218131EC
:10088600210038089931F6218131FF309931F6215E
:10089600813100309931F621813100309931F621CC
:1008A600813121003803FF3AFF3E9931F62181312B
:1008B600FF309931F621813100309931F6218131AD
:1008C60000309931F6218131210038089931F6211D
:1008D60081312100AE01AF012F08803AA50080309A
:1008E6002502031D782C04302E0203188E2CFF30AF
:1008F6009931F621813101302100AE070030AF3D3C
:100906002F08803AA50080302502031D8C2C043068
:100916002E02031C7A2CD0302100A600C930A50077
:10092600A50B932CA60B932C003205302100B802A0
:10093600CB2B03303206031D8C2DFF30A500250876
:100946002000C300C401C501FF308731242781314F
:1009560003302100A7000830A6007830A500A50BBB
:10096600B22CA60BB22CA70BB22CFF302100A5008F
:1009760025082000C300C401C501FF308A31322298
:10098600813103302100A7000830A6007830A50089
:10099600A50BCB2CA60BCB2CA70BCB2CFF30210009
:1009A600A50025082000C300C401C501FF30893118
:1009B6006621813103302100A7000830A600783077
:1009C600A500A50BE42CA60BE42CA70BE42CFF300A
:1009D6002100A50025082000C300C401C501FF3081
:1009E60088319A20813103302100A7000830A60003
:1009F6007830A500A50BFD2CA60BFD2CA70BFD2C16
:100A0600FF302100A50025082000C300C401C50150
:100A1600FF3097313427813103302100A700083099
:100A2600A6007830A500A50B162DA60B162DA70B34
:100A3600162DFF302100A50025082000C300C401A3
:100A4600C501FF3096316826813103302100A700A9
:100A56000830A6007830A500A50B2F2DA60B2F2D4C
:100A6600A70B2F2DFF302100A50025082000C3006D
:100A7600C401C501FF3095319C2581310330210029
:100A8600A7000830A6007830A500A50B482DA60BB8
:100A9600482DA70B482D2100B1010430310203185F
:100AA6008C2DFF30A50025082000C300C401C50118
:100AB600FF3095319C25813102302100A70004309A
:100AC600A600BA30A500A50B662DA60B662DA70BB2
:100AD600662D00002000C301C401C501FF30953119
:100AE6009C25813102302100A7000430A600BA30CF
:100AF600A500A50B7C2DA60B7C2DA70B7C2D00003D
:100B060001302100A5002508B10704303102031C7D
:100B1600542D9431D524080020008E1F942D0130C9
:100B260008002100A001A101A201A301A401A501C1
:100B3600B201B301B401B501B601B701A601A7011F
:100B4600A801A901AA01AB01AC01AD01AE01AF013B
:100B5600B001B101903106208531003A0319192EF2
:100B660000308400A0308500003F2000C000013F17
:100B7600C1004008543E2100A6000B302000413D34
:100B86002100A70000308400A0308500003F20002F
:100B9600C000013FC1004008AC3E2100A800F4306F
:100BA6002000413D2100A90000308400A0308500CE
:100BB600003F2000C000013FC1004008543E210014
:100BC600AA000B302000413D2100AB00003084001C
:100BD600A0308500003F2000C000013FC100400852
:100BE600AC3E2100AC00F4302000413D2100AD00B8
:100BF60000308400A0308500003F2000C000013F87
:100C0600C1004008543E2100AE000B302000413D9B
:100C16002100AF0000308400A0308500003F200096
:100C2600C000013FC1004008AC3E7E2E003084006B
:100C3600A0308500003F2000C000013FC1004008F1
:100C4600EA3E2100A6000B302000413D2100A7000E
:100C560000308400A0308500003F2000C000013F26
:100C6600C1004008163E2100A800F4302000413D96
:100C76002100A90000308400A0308500003F20003C
:100C8600C000013FC1004008EA3E2100AA000B3027
:100C96002000413D2100AB0000308400A0308500DB
:100CA600003F2000C000013FC1004008163E210061
:100CB600AC00F4302000413D2100AD00003084003E
:100CC600A0308500003F2000C000013FC100400861
:100CD600EA3E2100AE000B302000413D2100AF006E
:100CE60000308400A0308500003F2000C000013F96
:100CF600C1004008163E2100B000F4302000413DFE
:100D06002100B10009309D00C7302000C00000005E
:100D1600C00B8A2E0032000021009D149D18912ED2
:100D26001C08B3001B08B2000D309D00C730200020
:100D3600C0000000C00B9C2E0032000021009D1454
:100D46009D18A32E1C08B5001B08B40015309D0085
:100D5600C7302000C0000000C00BAE2E00320000DD
:100D660021009D149D18B52E1C08B7001B08B6005F
:100D76002708803A2000C00021003308803A20006E
:100D86004002031DC92E210032082602031C202F13
:100D960021003308803A2000C00021002908803A4B
:100DA60020004002031DDA2E210028083202031C0F
:100DB600202F21002B08803A2000C0002100350892
:100DC600803A20004002031DEB2E210034082A023F
:100DD600031C202F21003508803A2000C000210086
:100DE6002D08803A20004002031DFC2E21002C080D
:100DF6003402031C202F21002F08803A2000C00057
:100E060021003708803A20004002031D0D2F2100E3
:100E160036082E02031C202F21003708803A2000B6
:100E2600C00021003108803A20004002031D1E2F19
:100E36002100300836020318222F01300800003046
:100E460008002100A000A101A2012208803A20008A
:100E5600C60080304602031D332F043021002102D4
:100E660003184B2F00309931F621873101302100CC
:100E7600A1070030A23D2208803A2000C60080303B
:100E86004602031D492F043021002102031C352F81
:100E9600FF309931F621873100309931F6218731BB
:100EA60000309931F621873100309931F6218731AA
:100EB600FF309931F621873100309931F62187319B
:100EC60000309931F621873100309931F62187318A
:100ED600FF309931F621873100309931F62187317B
:100EE60000309931F621873100309931F62187316A
:100EF600FF309931F621873100309931F62187315B
:100F060000309931F621873100309931F621873149
:100F1600FF309931F621873100309931F62187313A
:100F260000309931F621873100309931F621873129
:100F3600FF309931F621873100309931F62187311A
:100F460000309931F621873100309931F621873109
:100F5600210020089931F621873120004508993172
:100F6600F6218731200044089931F6218731200087
:100F760043089931F62187312100A301A4012408F1
:100F8600803A2000C60080304602031DCD2F043073
:100F9600210023020318E52FFF309931F62187310E
:100FA60001302100A3070030A43D2408803A200028
:100FB600C60080304602031DE32F043021002302C1
:100FC600031CCF2FD0302000C700C930C600C60B87
:100FD600EA2FC70BEA2F00320800F200240011089E
:100FE600F0007008F100200091112400951372089A
:0A0FF6009100200091190800FC2F63
:10100200D8308B00270011081238910012081038CE
:10101200920031302000980021000C1608002100B7
:101022004508031D53283D00C401C3013117E401E3
:10103200E3015117FF303E00A400FF30A300111757
:101042003D00311751173E00111715302000C20024
:101052004B30C100D130C000C00B2D28C10B2D2850
:10106200C20B2D2800003D00C401C3013117E40169
:10107200E30151173E00A401A30111173D003117EE
:1010820051173E00111715302000C2004B30C1002D
:10109200D130C000C00B4B28C10B4B28C20B4B28D0
:1010A200000010280B30450203186A283D00C401D5
:1010B200C3013117E401E3015117FF303E00A400E0
:1010C200FF30A30011173D00311751173E001117D1
:1010D20008000B3021004502031C872823304502FB
:1010E20003188728FF303D00C400FF30C3003117CA
:1010F200E401E3015117FF303E00A400A3011117E0
:101102003D00311751173E0011170800FF303D0016
:10111200C400FF30C3003117E401E30151173E0060
:10112200A401A30111173D00311751173E001117F9
:1011320008002100A000A101A2012208803A20009B
:10114200C60080304602031DA92804302100210276
:101152000318C12800309931F6218831013021006D
:10116200A1070030A23D2208803A2000C60080304C
:101172004602031DBF28043021002102031CAB28B4
:10118200FF309931F621883100309931F6218831CA
:1011920000309931F621883100309931F6218831B9
:1011A200FF309931F621883100309931F6218831AA
:1011B20000309931F621883100309931F621883199
:1011C200FF309931F621883100309931F62188318A
:1011D20000309931F621883100309931F621883179
:1011E200210020089931F6218831200045089931E3
:1011F200F6218831200044089931F62188312000F7
:1012020043089931F6218831FF309931F62188312E
:1012120000309931F621883100309931F621883138
:1012220000309931F6218831FF309931F621883129
:1012320000309931F621883100309931F621883118
:1012420000309931F6218831FF309931F621883109
:1012520000309931F621883100309931F6218831F8
:1012620000309931F62188312100A301A40124081C
:10127200803A2000C60080304602031D4329043014
:101282002100230203185B29FF309931F6218831AE
:1012920001302100A3070030A43D2408803A200039
:1012A200C60080304602031D592904302100230262
:1012B200031C4529D0302000C700C930C600C60B28
:1012C2006029C70B6029003208002100A000A1019B
:1012D200A2012208803A2000C60080304602031D87
:1012E200752904302100210203188D29003099311B
:1012F200F621893101302100A1070030A23D2208E8
:10130200803A2000C60080304602031D8B2904303B
:1013120021002102031C7729FF309931F6218931FE
:1013220000309931F621893100309931F621893125
:1013320000309931F6218931FF309931F621893116
:1013420000309931F621893100309931F621893105
:1013520000309931F6218931FF309931F6218931F6
:1013620000309931F621893100309931F6218931E5
:1013720000309931F6218931FF309931F6218931D6
:1013820000309931F621893100309931F6218931C5
:1013920000309931F6218931210020089931F62156
:1013A2008931200045089931F6218931200044080D
:1013B2009931F6218931200043089931F62189318A
:1013C200FF309931F621893100309931F621893186
:1013D20000309931F621893100309931F621893175
:1013E200FF309931F621893100309931F621893166
:1013F20000309931F621893100309931F621893155
:101402002100A301A4012408803A2000C6008030F4
:101412004602031D0F2A0430210023020318272A43
:10142200FF309931F621893101302100A3070030C4
:10143200A43D2408803A2000C60080304602031DE5
:10144200252A043021002302031C112AD030200057
:10145200C700C930C600C60B2C2AC70B2C2A003283
:1014620008002100A000A101A2012208803A200068
:10147200C60080304602031D412A043021002102A9
:101482000318592A00309931F6218A31013021009E
:10149200A1070030A23D2208803A2000C600803019
:1014A2004602031D572A043021002102031C432A4D
:1014B200FF309931F6218A3100309931F6218A3193
:1014C20000309931F6218A3100309931F6218A3182
:1014D200FF309931F6218A3100309931F6218A3173
:1014E20000309931F6218A3100309931F6218A3162
:1014F200FF309931F6218A3100309931F6218A3153
:1015020000309931F6218A3100309931F6218A3141
:10151200FF309931F6218A3100309931F6218A3132
:1015220000309931F6218A3100309931F6218A3121
:10153200FF309931F6218A3100309931F6218A3112
:1015420000309931F6218A3100309931F6218A3101
:10155200210020089931F6218A312000450899316D
:10156200F6218A31200044089931F6218A3120007F
:1015720043089931F6218A31FF309931F6218A31B7
:1015820000309931F6218A3100309931F6218A31C1
:1015920000309931F6218A312100A301A4012408E7
:1015A200803A2000C60080304602031DDB2A043048
:1015B200210023020318F32AFF309931F6218A31E0
:1015C20001302100A3070030A43D2408803A200006
:1015D200C60080304602031DF12A04302100230296
:1015E200031CDD2AD0302000C700C930C600C60B5C
:1015F200F82AC70BF82A003208002100A6002608A4
:10160200031D6C2BA001A1012108803A2000C1001A
:1016120080304102031D102B4008210020020318D4
:1016220008003D009216ED302000C100003200009B
:10163200C10B172B00003D0092121A302000C2008D
:10164200F830C100C10B232BC20B232B00003D003D
:10165200921604302000C200B430C100C10B2F2BFF
:10166200C20B2F2B00003D00921219302000C20045
:101672001B30C100C10B3B2BC20B3B2B00323D0088
:10168200921604302000C200B430C100C10B472BB7
:10169200C20B472B00003D00921219302000C200FD
:1016A2001B30C100C10B532BC20B532B00323D0028
:1016B20092161C302000C200D130C100C10B5F2B3A
:1016C200C20B5F2B00323D00921201302100A007B5
:1016D2000030A13D052B21002603031DD92BA201B9
:1016E200A3012308803A2000C10080304102031D7B
:1016F2007D2B400821002202031808003D009216AB
:10170200ED302000C10000320000C10B842B00002C
:101712003D0092121A302000C200F830C100C10B05
:10172200902BC20B902B00003D0092160630200039
:10173200C2008D30C100C10B9C2BC20B9C2B00320E
:101742003D00921217302000C2004230C100C10B8E
:10175200A82BC20BA82B00003D00921606302000D9
:10176200C2008D30C100C10BB42BC20BB42B0032AE
:101772003D00921217302000C2004230C100C10B5E
:10178200C02BC20BC02B00003D0092161C30200063
:10179200C200D130C100C10BCC2BC20BCC2B00320A
:1017A2003D00921201302100A2070030A33D722BAE
:1017B2002100A401A5012508803A2000C100803043
:1017C2004102031DE72B40082100240203180800F0
:1017D2003D009216ED302000C10000320000C10B26
:1017E200EE2B00003D0092121A302000C200F830A9
:1017F200C100C10BFA2BC20BFA2B00003D0092165E
:1018020008302000C2006930C100C10B062CC20B97
:10181200062C00323D00921215302000C2006630C4
:10182200C100C10B122CC20B122C00003D009216FB
:1018320008302000C2006930C100C10B1E2CC20B4F
:101842001E2C00323D00921215302000C20066307C
:10185200C100C10B2A2CC20B2A2C00003D0092169B
:101862001C302000C200D130C100C10B362CC20B8B
:10187200362C00323D00921201302100A4070030C4
:10188200A53DDC2B2000A300AF01B001B101FF3068
:10189200A0002008AE00AF01B001FF30A000200878
:1018A200B1002308031D2303031D672D2F08A00089
:1018B2002008F3003008A1002108F4003108A2003A
:1018C2002208F5002E089E318A268C310330200032
:1018D200A2000830A1007830A000A00B6E2CA10B52
:1018E2006E2CA20B6E2C20002F08A0002008F30003
:1018F2003008A1002108F4003108A2002208F500F6
:101902002E089F3145278C3103302000A200083079
:10191200A1007830A000A00B8C2CA10B8C2CA20B68
:101922008C2C20002F08A0002008F3003008A10012
:101932002108F4003108A2002208F5002E08903197
:101942006F208C3103302000A2000830A1007830D3
:10195200A000A00BAA2CA10BAA2CA20BAA2C20003F
:101962002F08A0002008F3003008A1002108F4008D
:101972003108A2002208F5002E0891312A218C316B
:1019820003302000A2000830A1007830A000A00B94
:10199200C82CA10BC82CA20BC82C20002F08A00019
:1019A2002008F3003008A1002108F4003108A20049
:1019B2002208F5002E089131E5218C3103302000F8
:1019C200A2000830A1007830A000A00BE62CA10BE9
:1019D200E62CA20BE62C20002F08A0002008F30022
:1019E2003008A1002108F4003108A2002208F50005
:1019F2002E089231A0228C3103302000A200083040
:101A0200A1007830A000A00B042DA10B042DA20B85
:101A1200042D20002F08A0002008F3003008A100A8
:101A22002108F4003108A2002208F5002E089331A3
:101A32005B238C3103302000A2000830A1007830F3
:101A4200A000A00B222DA10B222DA20B222D2000E3
:101A5200AC0104302C020318FD2F2F08A00020082F
:101A6200F3003008A1002108F4003108A200220886
:101A7200F5002E0893315B238C3102302000A20046
:101A82000430A100BA30A000A00B452DA10B452DBA
:101A9200A20B452D0000F301F401F501FF30933153
:101AA2005B238C3102302000A2000430A100BA3046
:101AB200A000A00B5A2DA10B5A2DA20B5A2D0000EB
:101AC20001302000A0002008AC072A2D0230230696
:101AD200031D162FB201320A0319412EA401A501DA
:101AE2002508803AA00080302002031D7A2D0430A0
:101AF20024020318902D00308731F0278C310130F9
:101B02002000A4070030A53D2508803AA0008030BF
:101B12002002031D8E2D04302402031C7C2DFF3075
:101B22008731F0278C3100308731F0278C3100303B
:101B32008731F0278C31200032088731F0278C3131
:101B4200FF308731F0278C3100308731F0278C311C
:101B520000308731F0278C3120003203FF3AFF3EFC
:101B62008731F0278C31FF308731F0278C310030FC
:101B72008731F0278C3100308731F0278C312000FB
:101B820032088731F0278C31FF308731F0278C31D2
:101B920000308731F0278C3100308731F0278C31CB
:101BA20020003203FF3AFF3E8731F0278C31FF30AD
:101BB2008731F0278C3100308731F0278C310030AB
:101BC2008731F0278C31200032088731F0278C31A1
:101BD200FF308731F0278C3100308731F0278C318C
:101BE20000308731F0278C3120003203FF3AFF3E6C
:101BF2008731F0278C31FF308731F0278C3100306C
:101C02008731F0278C3100308731F0278C3120006A
:101C120032088731F0278C312000A601A70127085E
:101C2200803AA00080302002031D192E04302602C3
:101C320003182F2EFF308731F0278C31013020001E
:101C4200A6070030A73D2708803AA0008030200276
:101C5200031D2D2E04302602031C1B2ED030200023
:101C6200A100C930A000A00B342EA10B342E0032EB
:101C720005302000A0002008B207320A031D6F2D94
:101C8200FF30A0002008B30033080319FD2FA8017C
:101C9200A9012908803AA00080302002031D532E9A
:101CA200043028020318692E00308731F0278C3166
:101CB20001302000A8070030A93D2908803AA00081
:101CC20080302002031D672E04302802031C552E8B
:101CD200FF308731F0278C3100308731F0278C318B
:101CE20000308731F0278C31200033088731F0270C
:101CF2008C31FF308731F0278C3100308731F0276B
:101D02008C3100308731F0278C3120003303FF3AC9
:101D1200FF3E8731F0278C31FF308731F0278C313D
:101D220000308731F0278C3100308731F0278C3139
:101D3200200033088731F0278C31FF308731F027BC
:101D42008C3100308731F0278C3100308731F02719
:101D52008C3120003303FF3AFF3E8731F0278C316C
:101D6200FF308731F0278C3100308731F0278C31FA
:101D720000308731F0278C31200033088731F0277B
:101D82008C31FF308731F0278C3100308731F027DA
:101D92008C3100308731F0278C3120003303FF3A39
:101DA200FF3E8731F0278C31FF308731F0278C31AD
:101DB20000308731F0278C3100308731F0278C31A9
:101DC200200033088731F0278C312000AA01AB01B3
:101DD2002B08803AA00080302002031DF22E04302E
:101DE2002A020318082FFF308731F0278C31013087
:101DF2002000AA070030AB3D2B08803AA0008030BB
:101E02002002031D062F04302A02031CF42ED030B8
:101E12002000A100C930A000A00B0D2FA10B0D2F97
:101E2200003205302000B302452E03302306031D85
:101E3200FD2FFF30A0002008F300F401F501FF3070
:101E420093315B238C3103302000A2000830A100C3
:101E52007830A000A00B2B2FA10B2B2FA20B2B2F26
:101E6200FF302000A0002008F300F401F501FF304C
:101E72009231A0228C3103302000A2000830A10050
:101E82007830A000A00B432FA10B432FA20B432FAE
:101E9200FF302000A0002008F300F401F501FF301C
:101EA2009131E5218C3103302000A2000830A100DD
:101EB2007830A000A00B5B2FA10B5B2FA20B5B2F36
:101EC200FF302000A0002008F300F401F501FF30EC
:101ED20091312A218C3103302000A2000830A10068
:101EE2007830A000A00B732FA10B732FA20B732FBE
:101EF200FF302000A0002008F300F401F501FF30BC
:101F020090316F208C3103302000A2000830A100F4
:101F12007830A000A00B8B2FA10B8B2FA20B8B2F45
:101F2200FF302000A0002008F300F401F501FF308B
:101F32009F3145278C3103302000A2000830A100D8
:101F42007830A000A00BA32FA10BA32FA20BA32FCD
:101F5200FF302000A0002008F300F401F501FF305B
:101F62009E318A268C3103302000A2000830A10065
:101F72007830A000A00BBB2FA10BBB2FA20BBB2F55
:101F82002000AD0104302D020318FD2FFF30A00008
:101F92002008F300F401F501FF309E318A268C31CE
:101FA20002302000A2000430A100BA30A000A00B31
:101FB200D82FA10BD82FA20BD82F0000F301F401C8
:101FC200F501FF309E318A268C3102302000A200BA
:101FD2000430A100BA30A000A00BED2FA10BED2F11
:101FE200A20BED2F000001302000A0002008AD0759
:0E1FF20004302D02031CC72F9D31D02508009E
:10200200003020008C1801300800003020008C18AD
:102012000130080073080319132872087104700450
:10202200031D24280030F0000030F1000030F200DF
:1020320008000130F5007508F3070130F236F10CA3
:10204200F00C890B1F28FE30720503193D281A284F
:102052000130F5007508F3070130F007003003186E
:102062000130F107003003180130F2070130F23677
:10207200F10CF00C890B3828FF30720503194A283D
:1020820029280130F3020130F035F10DF20D890BF0
:102092004528F11B50280230730203184228731896
:1020A2005828FF30F0057F30F105FF30F2050310AC
:1020B200F30C7308F500F601F7011030F535F60D53
:1020C200F70D890B5F287508F0047608F10477088C
:1020D200F204740803190800F2170800F800F90165
:1020E200FA017A08803AF60080307602031D7B28D6
:1020F200043079020318902800308731F02790319C
:102102000130F9070030FA3D7A08803AF600803053
:102112007602031D8E2804307902031C7D28FF30CD
:102122008731F027903100308731F027903100302D
:102132008731F027903100308731F0279031FF301E
:102142008731F027903100308731F027903100300D
:102152008731F027903100308731F02790317808AD
:102162008731F027903175088731F0279031740854
:102172008731F027903173088731F0279031FF3093
:102182008731F027903100308731F02790310030CD
:102192008731F027903100308731F0279031FF30BE
:1021A2008731F027903100308731F02790310030AD
:1021B2008731F027903100308731F0279031FF309E
:1021C2008731F027903100308731F027903100308D
:1021D2008731F027903100308731F0279031FF307E
:1021E2008731F027903100308731F027903100306D
:1021F2008731F027903100308731F0279031FB0191
:10220200FC017C08803AF60080307602031D0B291F
:1022120004307B0203182029FF308731F0279031E8
:102222000130FB070030FC3D7C08803AF60080302C
:102232007602031D1E2904307B02031C0D29D030B7
:10224200F700C930F600F60B2429F70B24290032D7
:102252000800F800F901FA017A08803AF6008030A5
:102262007602031D36290430790203184B29003007
:102272008731F02791310130F9070030FA3D7A08B1
:10228200803AF60080307602031D49290430790233
:10229200031C3829FF308731F02791310030873114
:1022A200F027913100308731F027913100308731AA
:1022B200F0279131FF308731F0279131003087319B
:1022C200F027913100308731F0279131003087318A
:1022D200F0279131FF308731F0279131003087317B
:1022E200F027913100308731F0279131003087316A
:1022F200F027913178088731F027913175088731BD
:10230200F027913174088731F027913173088731B2
:10231200F0279131FF308731F0279131003087313A
:10232200F027913100308731F02791310030873129
:10233200F0279131FF308731F0279131003087311A
:10234200F027913100308731F02791310030873109
:10235200F0279131FF308731F027913100308731FA
:10236200F027913100308731F027913100308731E9
:10237200F0279131FB01FC017C08803AF6008030A5
:102382007602031DC62904307B020318DB29FF30C5
:102392008731F02791310130FB070030FC3D7C088A
:1023A200803AF60080307602031DD92904307B0280
:1023B200031CC829D030F700C930F600F60BDF291C
:1023C200F70BDF2900320800F800F901FA017A0858
:1023D200803AF60080307602031DF129043079023A
:1023E2000318062A00308731F02791310130F907AE
:1023F2000030FA3D7A08803AF60080307602031DFA
:10240200042A04307902031CF329FF308731F027B4
:10241200913100308731F027913100308731F02738
:10242200913100308731F0279131FF308731F02729
:10243200913100308731F027913100308731F02718
:10244200913100308731F0279131FF308731F02709
:10245200913100308731F027913100308731F027F8
:10246200913100308731F0279131FF308731F027E9
:10247200913100308731F027913100308731F027D8
:10248200913100308731F027913178088731F02778
:10249200913175088731F027913174088731F0271F
:1024A200913173088731F0279131FF308731F0275E
:1024B200913100308731F027913100308731F02798
:1024C200913100308731F0279131FF308731F02789
:1024D200913100308731F027913100308731F02778
:1024E200913100308731F0279131FB01FC017C08EA
:1024F200803AF60080307602031D812A04307B0286
:102502000318962AFF308731F02791310130FB07FB
:102512000030FC3D7C08803AF60080307602031DD4
:10252200942A04307B02031C832AD030F700C9307E
:10253200F600F60B9A2AF70B9A2A00320800F800E6
:10254200F901FA017A08803AF60080307602031D1A
:10255200AC2A043079020318C12A00308731F027EF
:1025620092310130F9070030FA3D7A08803AF600DC
:1025720080307602031DBF2A04307902031CAE2A82
:10258200FF308731F027923100308731F0279231C6
:1025920000308731F027923100308731F0279231B5
:1025A200FF308731F027923100308731F0279231A6
:1025B20000308731F027923100308731F027923195
:1025C200FF308731F027923100308731F027923186
:1025D20000308731F027923100308731F027923175
:1025E200FF308731F027923100308731F027923166
:1025F20000308731F027923100308731F027923155
:10260200FF308731F027923100308731F027923145
:1026120000308731F027923100308731F027923134
:1026220078088731F027923175088731F027923187
:1026320074088731F027923173088731F02792317D
:10264200FF308731F027923100308731F027923105
:1026520000308731F027923100308731F0279231F4
:10266200FB01FC017C08803AF60080307602031DF3
:102672003C2B04307B020318512BFF308731F027AB
:1026820092310130FB070030FC3D7C08803AF600B5
:1026920080307602031D4F2B04307B02031C3E2B3D
:1026A200D030F700C930F600F60B552BF70B552B3F
:1026B20000320800F800F901FA017A08803AF600BF
:1026C20080307602031D672B0430790203187C2BBD
:1026D20000308731F02793310130F9070030FA3D9D
:1026E2007A08803AF60080307602031D7A2B043095
:1026F2007902031C692BFF308731F02793310030B8
:102702008731F027933100308731F0279331003041
:102712008731F0279331FF308731F0279331003032
:102722008731F027933100308731F0279331003021
:102732008731F0279331FF308731F0279331003012
:102742008731F027933100308731F0279331003001
:102752008731F0279331FF308731F02793310030F2
:102762008731F027933100308731F02793310030E1
:102772008731F0279331FF308731F02793310030D2
:102782008731F027933100308731F02793310030C1
:102792008731F0279331FF308731F02793310030B2
:1027A2008731F027933100308731F02793310030A1
:1027B2008731F027933178088731F02793317508F4
:1027C2008731F027933174088731F02793317308EA
:1027D2008731F0279331FB01FC017C08803AF60037
:1027E20080307602031DF72B04307B0203180C2C79
:1027F200FF308731F02793310130FB070030FC3D79
:102802007C08803AF60080307602031D0A2C0430E0
:102812007B02031CF92BD030F700C930F600F60B0F
:10282200102CF70B102C0032080021004008BC00CD
:102832004108BD004208BE00BF019A313E229431D8
:102842009A319D2294319A31092294319C31722419
:1028520094318831012094319931F32194318831B6
:10286200102094312100430803193D2C033081319B
:10287200982194312100C30185318F259431003A8A
:102882000319852C21004508031D4D2C903106208B
:102892009431003A0319852C903106209431003A84
:1028A200031D552C0030562C013081319821943172
:1028B200BC309A316B22943103302100B9003908BF
:1028C200BF003F080319852C3F08FF3EBC3E86002F
:1028D2008701010803197F2C8B133F08FF3EBC3E82
:1028E200860087010108B90039082000C0002100D4
:1028F2003F08FF3E8A31FE2294318B1701302100BE
:10290200BF023F08031D652C8B13C92C8B17FF30A8
:102912003D00C400FF30C3003117E401E301511749
:10292200FF303E00A400A30111173D0031175117DB
:102932003E00111703302100BB000830BA00783086
:10294200B900B90BA22CBA0BA22CBB0BA22C3D00D6
:10295200C401C3013117E401E30151173E00A40190
:10296200A30111173D00311751173E001117033013
:102972002100BB000830BA007830B900B90BBF2C77
:10298200BA0BBF2CBB0BBF2C8B1301302100C4022E
:10299200210044080319D32C903106209431003AC7
:1029A2000319872C8B17302C2100A001A1012108CB
:1029B200803A2000C30080304302031DE32C043020
:1029C200210020020318FB2C00309931F6219431AA
:1029D20001302100A0070030A13D2108803A2000EB
:1029E200C30080304302031DF92C04302100200271
:1029F200031CE52CFF309931F621943100309931D6
:102A0200F621943100309931F62194310030993118
:102A1200F6219431FF309931F62194310030993109
:102A2200F621943100309931F621943100309931F8
:102A3200F6219431FF309931F621943100309931E9
:102A4200F621943100309931F621943100309931D8
:102A5200F6219431FF309931F621943100309931C9
:102A6200F621943100309931F621943100309931B8
:102A7200F6219431FF309931F621943100309931A9
:102A8200F621943100309931F62194310030993198
:102A9200F6219431FF309931F62194310030993189
:102AA200F621943100309931F62194310030993178
:102AB200F6219431FF309931F62194310030993169
:102AC200F621943100309931F62194310030993158
:102AD200F62194312100A201A3012308803A2000AB
:102AE200C30080304302031D792D043021002202ED
:102AF2000318912DFF309931F621943101302100D4
:102B0200A2070030A33D2308803A2000C300803092
:102B12004302031D8F2D043021002202031C7B2D52
:102B2200D0302000C400C930C300C30B962DC40BA3
:102B3200962D003208002100A000A101A201220866
:102B4200803A2000C60080304602031DAB2D0430BF
:102B5200210021020318C32D00309931F62195314D
:102B620001302100A1070030A23D2208803A200056
:102B7200C60080304602031DC12D0430210021020F
:102B8200031CAD2D210020089931F621953120003A
:102B920045089931F6219531200044089931F621F2
:102BA2009531200043089931F6219531FF30993152
:102BB200F621953100309931F62195310030993165
:102BC200F621953100309931F6219531FF30993156
:102BD200F621953100309931F62195310030993145
:102BE200F621953100309931F6219531FF30993136
:102BF200F621953100309931F62195310030993125
:102C0200F621953100309931F6219531FF30993115
:102C1200F621953100309931F62195310030993104
:102C2200F621953100309931F6219531FF309931F5
:102C3200F621953100309931F621953100309931E4
:102C4200F621953100309931F6219531FF309931D5
:102C5200F621953100309931F621953100309931C4
:102C6200F621953100309931F62195312100A301E9
:102C7200A4012408803A2000C60080304602031DC9
:102C8200452E04302100230203185D2EFF309931B6
:102C9200F621953101302100A3070030A43D24081C
:102CA200803A2000C60080304602031D5B2E0430AD
:102CB20021002302031C472ED0302000C700C93058
:102CC200C600C60B622EC70B622E0032080021001E
:102CD200A000A101A2012208803A2000C600803093
:102CE2004602031D772E04302100210203188F2E85
:102CF20000309931F621963101302100A1070030D0
:102D0200A23D2208803A2000C60080304602031D00
:102D12008D2E043021002102031C792EFF309931BF
:102D2200F621963100309931F621963100309931F1
:102D3200F621963100309931F62196312100200892
:102D42009931F6219631200045089931F6219631C4
:102D5200200044089931F621963120004308993128
:102D6200F6219631FF309931F621963100309931B2
:102D7200F621963100309931F621963100309931A1
:102D8200F6219631FF309931F62196310030993192
:102D9200F621963100309931F62196310030993181
:102DA200F6219631FF309931F62196310030993172
:102DB200F621963100309931F62196310030993161
:102DC200F6219631FF309931F62196310030993152
:102DD200F621963100309931F62196310030993141
:102DE200F6219631FF309931F62196310030993132
:102DF200F621963100309931F62196310030993121
:102E0200F62196312100A301A4012408803A200072
:102E1200C60080304602031D112F04302100230218
:102E22000318292FFF309931F62196310130210004
:102E3200A3070030A43D2408803A2000C600803059
:102E42004602031D272F043021002302031C132FE7
:102E5200D0302000C700C930C600C60B2E2FC70BCA
:102E62002E2F003208002100A000A101A201220899
:102E7200803A2000C60080304602031D432F0430F2
:102E82002100210203185B2F00309931F62197317E
:102E920001302100A1070030A23D2208803A200023
:102EA200C60080304602031D592F04302100210242
:102EB200031C452FFF309931F621973100309931AB
:102EC200F621973100309931F6219731003099314E
:102ED200F6219731FF309931F6219731003099313F
:102EE200F621973100309931F6219731003099312E
:102EF200F6219731210020089931F62197312000DF
:102F020045089931F6219731200044089931F6217C
:102F12009731200043089931F6219731FF309931DA
:102F2200F621973100309931F621973100309931ED
:102F3200F621973100309931F6219731FF309931DE
:102F4200F621973100309931F621973100309931CD
:102F5200F621973100309931F6219731FF309931BE
:102F6200F621973100309931F621973100309931AD
:102F7200F621973100309931F6219731FF3099319E
:102F8200F621973100309931F6219731003099318D
:102F9200F621973100309931F62197312100A301B2
:102FA200A4012408803A2000C60080304602031D96
:102FB200DD2F0430210023020318F52FFF30993151
:102FC200F621973101302100A3070030A43D2408E7
:102FD200803A2000C60080304602031DF32F0430E1
:102FE20021002302031CDF2FD0302000C700C9308C
:0E2FF200C600C60BFA2FC70BFA2F00320800DC
:1033E60021008C1408002000C200240011082000CF
:1033F600C0004008C1009111240095132000420826
:1034060024009100200091190800052A21009D0141
:1034160080309E000F309F002C302000C0004008F6
:1034260021008C042C302000C000400823008C04AE
:1034360021008E170800FD01F91F282AF809F9094D
:10344600F80A0319F90AFD01FD0A7808F00079085F
:10345600F100F2018E30FB007B08F3007D08FC00D2
:103466007C08F40090310B207008F8007108F90010
:103476007208FA00080023008C018D0122000D1548
:103486008D1520000D158D1524000D158D15F830A0
:103496002000C00040082100990405302000C20029
:1034A6000F30C100F430C000C00B572AC10B572A99
:1034B600C20B572AF3302000C000400821008D05BA
:1034C60020000D158D150D198D1D01008B17080097
:1034D6002000C100903106209A31003A0319882A4B
:1034E60016302000C0004108860087014008810090
:1034F600410A8600870181010F30C0004108023E63
:103506008600870140088100080005302000C000C1
:1035160041088600870140088100410A860087012C
:1035260081010530C0004108023E8600870140083F
:1035360081000800F7302000C000400821008E05F9
:103546003D0091018030920093019401960197010C
:103556009801990101309A0001309B0001309C00CE
:103566009D0108309E009F01A201A1010130A40027
:103576006A30A3000230A6003A30A500A901AA01CC
:10358600AD01AB01AC010830AE00AF01A0010830BF
:10359600950080309100EE302000C00040082100E8
:1035A6009405140808002000B21FED2A3009B60061
:1035B6003109B7003209B800B60A0319B70A031968
:1035C600B80A00303607B0000030373DB100803011
:1035D600383DB200B51F032B3309B6003409B700D6
:1035E6003509B800B60A0319B70A0319B80A003034
:1035F6003607B3000030373DB4008030383DB500A3
:103606008030B2068030B50635083202031D080048
:1036160034083102031D0800330830020800F601A1
:10362600F11F1C2BF009F109F00A0319F10AF60142
:10363600F60AF31F272BF209F309F20A0319F30A14
:103646000130F4007408F606F701F80170087104F9
:103656000319562BF501F50AF11B3B2B0130F0350A
:10366600F10D890B322B0130F4007408F5072F2B6E
:103676000130F735F80D890B3C2B71087302031DD9
:10368600462B70087202031C4D2B7008F20271085B
:10369600F33B77140130F136F00C890B4E2B0130D9
:1036A600F502031D3B2B760803195E2BF709F80973
:1036B600F70A0319F80A7808F1007708F0000800FD
:1036C60020003008B4003108B5003208B6000310F7
:1036D600350D360DB7003708BD003D08031D7C2BA0
:1036E6000030B3000030B2000030B1000030B0004E
:1036F60008003008B4003108B5003208B6001730AB
:10370600B636B50CB40C890B832B3408B7003708D2
:10371600B800B117FF30B005FF30B1050030B20573
:103726003008B9003108BA003208BB00BC018E303F
:10373600BD02BD1FBA2B3D08803A8F3E0318AC2B45
:103746000030B3000030B2000030B1000030B000ED
:1037560008000130BC36BB0CBA0CB90C890BAD2B7A
:103766000130B4003408BD070319D32BAC2B183035
:103776003D02031CD02B0030B3000030B2000030F5
:10378600B1000030B00008000130B935BA0DBB0DEC
:10379600BC0D890BC82B0130BD023D08031DC72B8C
:1037A60038080319E12BB909BA09BB09BC09B90ADA
:1037B6000319BA0A0319BB0A0319BC0A3C08B30069
:1037C6003B08B2003A08B1003908B00008002100F1
:1037D6004508031D2B2C3D00C401C3013117E4012C
:1037E600E3015117FF303E00A400FF30A30011177C
:1037F6003D00311751173E0011171530F2004B30BE
:10380600F100D130F000F00B062CF10B062CF20B78
:10381600062C00003D00C401C3013117E401E30199
:1038260051173E00A401A30111173D00311751178E
:103836003E0011171530F2004B30F100D130F00088
:10384600F00B232CF10B232CF20B232C0000EA2B7C
:103856000B3045020318422C3D00C401C301311749
:10386600E401E3015117FF303E00A400FF30A3003E
:1038760011173D00311751173E00111708000B3084
:1038860021004502031C5F2C2330450203185F2CE0
:10389600FF303D00C400FF30C3003117E401E301EF
:1038A6005117FF303E00A400A30111173D00311748
:1038B60051173E0011170800FF303D00C400FF30CD
:1038C600C3003117E401E30151173E00A401A3012F
:1038D60011173D00311751173E00111708008F30A0
:1038E6002000C500450821008E058D138D123D0070
:1038F600B101B201B301B401B601B701B801B90112
:103906000130BA000130BB000130BC00BD010130FE
:10391600BE00BF01C201C1010130C400F430C300C2
:103926000330C600E730C500C901CA01CD01CB018D
:10393600CC010130CE00CF01C0010130B50080308E
:10394600B100DD302000C5004508210094051408AB
:103956003D00D101D2010230D300D401D601D701F6
:10396600D801D9010130DA000130DB000130DC007A
:10397600DD010130DE00DF01E201E1010130E4009A
:10398600F430E3000330E600E730E500E901EA0140
:10399600ED01EB01EC010130EE00EF01E001013039
:1039A600D5008030D100BB302000C500450821007D
:1039B600940514083E00910192010230930094018F
:1039C600960197019801990101309A0001309B00F8
:1039D60001309C009D0102309E009F01A201A101C1
:1039E6000130A400F430A3000330A600E730A500A0
:1039F600A901AA01AD01AB01AC010230AE00AF01D5
:103A0600A001023095008030910077302000C5007B
:103A160045082100940514082400951220309500CD
:103A260022001D169D169D15240095169431D52449
:103A3600080020002008A6002108A7002208A800E8
:103A46000310270D280DA9002908AA002A08031D1E
:103A5600332D0030A0000030A1000030A200080085
:103A66002308A6002408A7002508A8000310270D90
:103A7600280DA9002908AF002F08031D492D003085
:103A8600A0000030A1000030A20008002F087B3EF5
:103A9600A6002608AA072008A6002108A7002208D3
:103AA600A8001030A836A70CA60C890B552D2608A1
:103AB600A9002908AF002308A6002408A7002508A6
:103AC600A8001030A836A70CA60C890B652D260871
:103AD600A9002908AF068030A6002608AF05A11761
:103AE600A417FF30A305FF30A4050030A50500305C
:103AF600AB000030AC000030AD000730A600260851
:103B0600AE00201C8C2D2308AB072408AC3D2508ED
:103B1600AD3D0130A236A10CA00C890B8D2D0130D4
:103B2600A335A40DA50D890B932D0130AE02031DFF
:103B3600842D0930A6002608AE00201CA82D2308D7
:103B4600AB072408AC3D2508AD3D0130A236A10CDB
:103B5600A00C890BA92D0130AD36AC0CAB0C890B32
:103B6600AF2D0130AE02031DA02D2B08F0002C084E
:103B7600F1002D08F2002A08A6002608F3002F08F7
:103B8600A7002708F40090310B2070082000A00041
:103B96007108A1007208A2000800F501F601760876
:103BA600803AF30080307302031DDB2D043075026A
:103BB6000318F02D00308731F0279D310130F507CD
:103BC6000030F63D7608803AF30080307302031D1C
:103BD600EE2D04307502031CDD2DFF308731F027F2
:103BE6009D3100308731F0279D3100308731F02735
:103BF6009D3100308731F0279D31FF308731F02726
:103C06009D3100308731F0279D3100308731F02714
:103C16009D3100308731F0279D31FF308731F02705
:103C26009D3100308731F0279D3100308731F027F4
:103C36009D3100308731F0279D31FF308731F027E5
:103C46009D3100308731F0279D3100308731F027D4
:103C56009D3100308731F0279D31FF308731F027C5
:103C66009D3100308731F0279D3100308731F027B4
:103C76009D3100308731F0279D31FF308731F027A5
:103C86009D3100308731F0279D3100308731F02794
:103C96009D3100308731F0279D31FF308731F02785
:103CA6009D3100308731F0279D3100308731F02774
:103CB6009D3100308731F0279D31F701F8017808F2
:103CC600803AF30080307302031D6B2E04307702B6
:103CD6000318802EFF308731F0279D310130F7071A
:103CE6000030F83D7808803AF30080307302031DF7
:103CF6007E2E04307702031C6D2ED030F400C930BE
:103D0600F300F30B842EF40B842E00320800F80027
:103D1600F901FA017A08803AF60080307602031D2E
:103D2600962E043079020318AB2E00308731F02727
:103D36009E310130F9070030FA3D7A08803AF600E4
:103D460080307602031DA92E04307902031C982EBA
:103D560078088731F0279E3175088731F0279E3124
:103D660074088731F0279E3173088731F0279E311A
:103D7600FF308731F0279E3100308731F0279E31A2
:103D860000308731F0279E3100308731F0279E3191
:103D9600FF308731F0279E3100308731F0279E3182
:103DA60000308731F0279E3100308731F0279E3171
:103DB600FF308731F0279E3100308731F0279E3162
:103DC60000308731F0279E3100308731F0279E3151
:103DD600FF308731F0279E3100308731F0279E3142
:103DE60000308731F0279E3100308731F0279E3131
:103DF600FF308731F0279E3100308731F0279E3122
:103E060000308731F0279E3100308731F0279E3110
:103E1600FF308731F0279E3100308731F0279E3101
:103E260000308731F0279E3100308731F0279E31F0
:103E3600FB01FC017C08803AF60080307602031D07
:103E4600262F04307B0203183B2FFF308731F027E3
:103E56009E310130FB070030FC3D7C08803AF600BD
:103E660080307602031D392F04307B02031C282F75
:103E7600D030F700C930F600F60B3F2FF70B3F2F77
:103E860000320800F800F901FA017A08803AF600D3
:103E960080307602031D512F043079020318662FF5
:103EA60000308731F0279F310130F9070030FA3DA5
:103EB6007A08803AF60080307602031D642F0430BB
:103EC6007902031C532FFF308731F0279F310030D2
:103ED6008731F0279F3100308731F0279F3100303E
:103EE6008731F0279F3178088731F0279F31750891
:103EF6008731F0279F3174088731F0279F31730887
:103F06008731F0279F31FF308731F0279F3100300E
:103F16008731F0279F3100308731F0279F310030FD
:103F26008731F0279F31FF308731F0279F310030EE
:103F36008731F0279F3100308731F0279F310030DD
:103F46008731F0279F31FF308731F0279F310030CE
:103F56008731F0279F3100308731F0279F310030BD
:103F66008731F0279F31FF308731F0279F310030AE
:103F76008731F0279F3100308731F0279F3100309D
:103F86008731F0279F31FF308731F0279F3100308E
:103F96008731F0279F3100308731F0279F3100307D
:103FA6008731F0279F31FB01FC017C08803AF6003F
:103FB60080307602031DE12F04307B020318F62FB2
:103FC600FF308731F0279F310130FB070030FC3D81
:103FD6007C08803AF60080307602031DF42F043008
:103FE6007B02031CE32FD030F700C930F600F60B36
:103FF600FA2FF70BFA2F0032080000341034183469
:104006000C34E83413340A340D3447346F346F34C7
:10401600643420346A346F3462342E342034593494
:104026006F34753420346B346E346F347734203407
:1040360068346F347734203474346F3420347234F7
:10404600653461346434203469346E3473347434C2
:10405600723475346334743469346F346E34733443
:104066002E340A340A34003450346C3465346134E6
:1040760073346534203465346E3474346534723484
:1040860020347434683465342034633468346134DD
:104096007234613463347434653472342034413498
:1040A6003A34203400340A340D34573472346F34C1
:1040B6006E34673420346B34653479342E342034CE
:1040C6005434723479342034613467346134693459
:1040D6006E342E340A340D3400340A340D344D3423
:1040E600613469346E3420344C346F346F34703438
:1040F600203449346E346434693476346934643433
:0C410600753461346C340A340D3400341C
:020000040001F9
:04000E00E4F9FFDE34
:00000001FF
