:0400000080312928FA
:1000060032347E14803120007F08AB0096019701C0
:100016002700931C1C28931032302000AA002A08BF
:10002600D7009331D023803102308C3106248031C1
:100036002428131E2428EF302000AA002A082700AF
:10004600930520002B08FF007E10090080312B2825
:10005600FD01CB01CC01CD01CE01CF01D001D101F3
:10006600D201D301D401D501D60180310320D700B6
:100076007E10200093316E2B2000BE00C001C1010E
:10008600C201FF30B9003908BF00FF30B900390896
:10009600C0002F30B9003908C100C2013E08031D57
:1000A6003E03031D2B294008B9003908AF0041085B
:1000B600BA003A08B0004208BB003B08B1003F084E
:1000C60089317621803103302000BB000830BA0028
:1000D6007830B900B90B6D28BA0B6D28BB0B6D28AB
:1000E60020004008B9003908AF004108BA003A08B4
:1000F600B0004208BB003B08B1003F088A311A2213
:10010600803103302000BB000830BA007830B900D7
:10011600B90B8B28BA0B8B28BB0B8B282000400809
:10012600B9003908AF004108BA003A08B0004208E1
:10013600BB003B08B1003F088A31BE228031033044
:100146002000BB000830BA007830B900B90BA928E6
:10015600BA0BA928BB0BA92820004008B90039080A
:10016600AF004108BA003A08B0004208BB003B089D
:10017600B1003F088B316223803103302000BB0081
:100186000830BA007830B900B90BC728BA0BC728AF
:10019600BB0BC72820004008B9003908AF0041084A
:1001A600BA003A08B0004208BB003B08B1003F085D
:1001B60087314427803103302000BB000830BA0065
:1001C6007830B900B90BE528BA0BE528BB0BE52852
:1001D6002000BC0104303C020318542C4008B9002E
:1001E6003908AF004108BA003A08B0004208BB001F
:1001F6003B08B1003F088731442780310230200098
:10020600BB000430BA00BA30B900B90B0829BA0BE2
:100216000829BB0B082900002000AF01B001B1017D
:10022600FF3087314427803102302000BB00043084
:10023600BA00BA30B900B90B1E29BA0B1E29BB0B7E
:100246001E29000001302000B9003908BC07ED283E
:1002560002303E06031D9B2B8731E82780312000A4
:10026600AF01FF30B9003908B000B101FF3092315B
:10027600802280319231D62280318731E827803141
:10028600FF302000B9003908AF002F30BA003A0815
:10029600B000B101FF309231802280312000AF01E1
:1002A600FF30B9003908B000B101FF309231802229
:1002B60080319231D62280318731E8278031200083
:1002C600AF01B001FF30B9003908B100FF309231FB
:1002D60080228031FF302000B9003908AF002F306E
:1002E600BA003A08B000B101FF3092318022803165
:1002F6002000AF01FF30B9003908B000B101FF306E
:100306009231802280319231D62280318731E8279E
:100316008031FF302000B9003908AF00B001B101CB
:10032600FF309231802280312000AF01B001FF30D2
:10033600B9003908B100FF30923180228031FF3098
:100346002000B9003908AF002F30BA003A08B000D3
:10035600B101FF309231802280312000AF01FF30A1
:10036600B9003908B000B101FF30923180228031E6
:100376009231D62280318731E82780312000AF01C3
:10038600B001B1010030923180228031FF3020006F
:10039600B9003908AF00B001B101FF3092318022B7
:1003A60080312000AF01B001FF30B9003908B1003B
:1003B600FF30923180228031FF302000B9003908A9
:1003C600AF002F30BA003A08B000B101FF309231C9
:1003D600802280312000AF01FF30B9003908B0001B
:1003E600B101FF309231802280319231D6228031A4
:1003F6008731E82780312000AF01B001B10100301C
:100406009231802280312000AF01B001B10100306D
:10041600923180228031FF302000B9003908AF00C8
:10042600B001B101FF309231802280312000AF014E
:10043600B001FF30B9003908B100FF309231802297
:100446008031FF302000B9003908AF002F30BA00E4
:100456003A08B000B101FF3092318022803120008D
:10046600AF01FF30B9003908B000B101FF30923159
:10047600802280319231D62280318731E82780313F
:100486002000AF01B001B1010030923180228031ED
:100496002000AF01B001B1010030923180228031DD
:1004A6002000AF01B001B1010030923180228031CD
:1004B600FF302000B9003908AF00B001B101FF30AC
:1004C6009231802280312000AF01B001FF30B900A7
:1004D6003908B100FF30923180228031FF30200090
:1004E600B9003908AF002F30BA003A08B000B101A0
:1004F600FF309231802280312000AF01FF30B900F9
:100506003908B000B101FF3092318022803192313A
:10051600D62280318731E82780312000AF01B00133
:10052600B10100309231802280312000AF01B0014C
:10053600B10100309231802280312000AF01B0013C
:10054600B10100309231802280312000AF01B0012C
:10055600B1010030923180228031FF302000B90095
:100566003908AF00B001B101FF30923180228031ED
:100576002000AF01B001FF30B9003908B100FF30EB
:10058600923180228031FF302000B9003908AF0057
:100596002F30BA003A08B000B101FF309231802204
:1005A60080319231D62280318731E8278031200090
:1005B600AF01B001B10100309231802280312000BC
:1005C600AF01B001B10100309231802280312000AC
:1005D600AF01B001B101003092318022803120009C
:1005E600AF01B001B101003092318022803120008C
:1005F600AF01B001B1010030923180228031FF306D
:100606002000B9003908AF00B001B101FF309231C6
:10061600802280312000AF01B001FF30B9003908D7
:10062600B100FF309231802280319231D622803162
:100636008731E82780312000AF01B001B1010030D9
:100646009231802280312000AF01B001B10100302B
:100656009231802280312000AF01B001B10100301B
:100666009231802280312000AF01B001B10100300B
:100676009231802280312000AF01B001B1010030FB
:100686009231802280312000AF01B001B1010030EB
:10069600923180228031FF302000B9003908AF0046
:1006A600B001B101FF309231802280319231D622E1
:1006B60080318731E82780312000AF01B001B101D8
:1006C60000309231802280312000AF01B001B101AB
:1006D60000309231802280312000AF01B001B1019B
:1006E60000309231802280312000AF01B001B1018B
:1006F60000309231802280312000AF01B001B1017B
:1007060000309231802280312000AF01B001B1016A
:1007160000309231802280312000AF01B001B1015A
:1007260000309231802280319231D6228031542C91
:10073600033020003E06031D542CFF30B900390853
:10074600AF00B001B101FF3087314427803103305B
:100756002000BB000830BA007830B900B90BB12BC5
:10076600BA0BB12BBB0BB12BFF302000B9003908F7
:10077600AF00B001B101FF308B316223803103300D
:100786002000BB000830BA007830B900B90BC92B7D
:10079600BA0BC92BBB0BC92BFF302000B900390897
:1007A600AF00B001B101FF308A31BE228031033083
:1007B6002000BB000830BA007830B900B90BE12B35
:1007C600BA0BE12BBB0BE12BFF302000B900390837
:1007D600AF00B001B101FF308A311A2280310330F7
:1007E6002000BB000830BA007830B900B90BF92BED
:1007F600BA0BF92BBB0BF92BFF302000B9003908D7
:10080600AF00B001B101FF3089317621803103306C
:100816002000BB000830BA007830B900B90B112CA3
:10082600BA0B112CBB0B112C2000BD0104303D026C
:100836000318542CFF30B9003908AF00B001B101DC
:10084600FF3089317621803102302000BB00043030
:10085600BA00BA30B900B90B2E2CBA0B2E2CBB0B32
:100866002E2C00002000AF01B001B101FF3089310C
:100876007621803102302000BB000430BA00BA3045
:10088600B900B90B442CBA0B442CBB0B442C00000A
:1008960001302000B9003908BD0704303D02031CB1
:1008A6001D2C8831D72008002000B5003508031D0F
:1008B600C32CAF01B0013008803AAD0080302D0264
:1008C600031D672C2C082F02031808003D00921602
:1008D600ED302000AD0000320000AD0B6E2C0000A4
:1008E6003D0092121A302000AE00F830AD00AD0B7C
:1008F6007A2CAE0B7A2C00003D00921604302000B4
:10090600AE00B430AD00AD0B862CAE0B862C0000CD
:100916003D00921219302000AE001B30AD00AD0B29
:10092600922CAE0B922C00323D0092160430200021
:10093600AE00B430AD00AD0B9E2CAE0B9E2C00006D
:100946003D00921219302000AE001B30AD00AD0BF9
:10095600AA2CAE0BAA2C00323D0092161C302000A9
:10096600AE00D130AD00AD0BB62CAE0BB62C0032BE
:100976003D00921201302000AF070030B03D5E2CE2
:1009860020003503031D2E2DB101B2013208803A35
:10099600AD0080302D02031DD22C2C083102031825
:1009A60008003D009216ED302000AD000032000038
:1009B600AD0BD92C00003D0092121A302000AE007B
:1009C600F830AD00AD0BE52CAE0BE52C00003D007C
:1009D600921606302000AE008D30AD00AD0BF12C26
:1009E600AE0BF12C00323D00921217302000AE0003
:1009F6004230AD00AD0BFD2CAE0BFD2C00003D00D2
:100A0600921606302000AE008D30AD00AD0B092DDC
:100A1600AE0B092D00323D00921217302000AE00B9
:100A26004230AD00AD0B152DAE0B152D00003D006F
:100A360092161C302000AE00D130AD00AD0B212D3A
:100A4600AE0B212D00323D00921201302000B1077D
:100A56000030B23DC92C2000B301B4013408803AFD
:100A6600AD0080302D02031D3A2D2C0833020318E9
:100A760008003D009216ED302000AD000032000067
:100A8600AD0B412D00003D0092121A302000AE0041
:100A9600F830AD00AD0B4D2DAE0B4D2D00003D00D9
:100AA600921608302000AE006930AD00AD0B592D0E
:100AB600AE0B592D00323D00921215302000AE00CB
:100AC6006630AD00AD0B652DAE0B652D00003D000B
:100AD600921608302000AE006930AD00AD0B712DC6
:100AE600AE0B712D00323D00921215302000AE0083
:100AF6006630AD00AD0B7D2DAE0B7D2D00003D00AB
:100B060092161C302000AE00D130AD00AD0B892D01
:100B1600AE0B892D00323D00921201302000B30742
:100B26000030B43D312D20008E1F9B2D0130080072
:100B3600AE01AF01B001B101B201B301C001C10103
:100B4600C201C301C401C501B401B501B601B701B3
:100B5600B801B901BA01BB01BC01BD01BE01BF01AB
:100B66000030840098308500003FAC00013FAD00A6
:100B76002C08543EB4000B302D3DB50000308400E7
:100B860098308500003FAC00013FAD002C08AC3E1C
:100B9600B600F4302D3DB700003084009830850053
:100BA600003FAC00013FAD002C08543EB8000B30AE
:100BB6002D3DB9000030840098308500003FAC0020
:100BC600013FAD002C08AC3EBA00F4302D3DBB0011
:100BD6000030840098308500003FAC00013FAD0036
:100BE6002C08543EBC000B302D3DBD000030840067
:100BF60098308500003FAC00013FAD002C08AC3EAC
:100C0600BE00F4302D3DBF00093021009D00C730E5
:100C16002000AC000000AC0B0D2E003200002100BD
:100C26009D149D18142E1C082000C10021001B08CD
:100C36002000C0000D3021009D00C7302000AC0010
:100C46000000AC0B232E0032000021009D149D18DD
:100C56002A2E1C082000C30021001B082000C20009
:100C6600153021009D00C7302000AC000000AC0B01
:100C7600392E0032000021009D149D18402E1C08BC
:100C86002000C50021001B082000C4003508803A5A
:100C9600AC004108803A2C02031D532E4008340252
:100CA600031C962E20004108803AAC003708803A93
:100CB6002C02031D602E36084002031C962E2000CF
:100CC6003908803AAC004308803A2C02031D6D2E89
:100CD60042083802031C962E20004308803AAC00D6
:100CE6003B08803A2C02031D7A2E3A084202031C66
:100CF600962E20003D08803AAC004508803A2C022A
:100D0600031D872E44083C02031C962E200045082E
:100D1600803AAC003F08803A2C02031D942E3E0810
:100D260044020318982E01300800003008008F3066
:100D36002000B500350821008E058D138D123D006B
:100D4600B101B201B301B401B601B701B801B901ED
:100D56000130BA000130BB000130BC00BD010130DA
:100D6600BE00BF01C201C1010130C400F430C3009E
:100D76000330C600E730C500C901CA01CD01CB0169
:100D8600CC010130CE00CF01C0010130B50080306A
:100D9600B100DD302000B5003508210094051408A7
:100DA6003D00D101D2010230D300D401D601D701D2
:100DB600D801D9010130DA000130DB000130DC0056
:100DC600DD010130DE00DF01E201E1010130E40076
:100DD600F430E3000330E600E730E500E901EA011C
:100DE600ED01EB01EC010130EE00EF01E001013015
:100DF600D5008030D100BB302000B5003508210079
:100E0600940514083E00910192010230930094016A
:100E1600960197019801990101309A0001309B00D3
:100E260001309C009D0102309E009F01A201A1019C
:100E36000130A400F430A3000330A600E730A5007B
:100E4600A901AA01AD01AB01AC010230AE00AF01B0
:100E5600A001023095008030910077302000B50067
:100E660035082100940514082400951220309500B9
:100E760022001D169D169D15240095168831D72033
:100E860008002000B400B501B6013608803AB20069
:100E960080303202031D512F043035020318672FAC
:100EA600003092316D22873101302000B5070030C5
:100EB600B63D3608803AB20080303202031D652FF7
:100EC60004303502031C532FFF3092316D228731D7
:100ED600003092316D228731003092316D22873198
:100EE600003092316D228731FF3092316D22873189
:100EF600003092316D228731003092316D22873178
:100F0600003092316D228731FF3092316D22873168
:100F1600003092316D228731003092316D22873157
:100F2600003092316D228731FF3092316D22873148
:100F3600003092316D228731003092316D22873137
:100F4600003092316D2287312000340892316D22B3
:100F560087312000310892316D2287312000300818
:100F660092316D22873120002F0892316D22873110
:100F76002000B701B8013808803AB200803032024A
:100F8600031DC72F043037020318DD2FFF309231BF
:100F96006D22873101302000B7070030B83D380890
:100FA600803AB20080303202031DDB2F0430370254
:100FB600031CC92FD0302000B300C930B200B20BD9
:100FC600E22FB30BE22F003208002000B001B1017E
:100FD6003108803AAF0080302F02031DF42F043011
:100FE600300203180800003092316D22873101303B
:100FF6002000B0070030B13DEB2F21008C14080013
:10100600F7302000AC002C0821008E053D00910130
:1010160080309200930194019601970198019901FD
:1010260001309A0001309B0001309C009D01083080
:101036009E009F01A201A1010130A4006A30A30015
:101046000230A6003A30A500A901AA01AD01AB0104
:10105600AC010830AE00AF01A00108309500803029
:101066009100EE302000AC002C08210094051408F5
:101076000800F800F901FA017A08803AF600803093
:101086007602031D48280430790203185D280030D3
:1010960092314C2288310130F9070030FA3D7A0846
:1010A600803AF60080307602031D5B280430790210
:1010B600031C4A28FF3092314C228831003092318D
:1010C6004C228831003092314C22883100309231E6
:1010D6004C228831FF3092314C22883100309231D7
:1010E6004C228831003092314C22883100309231C6
:1010F6004C228831FF3092314C22883100309231B7
:101106004C228831003092314C22883100309231A5
:101116004C228831FF3092314C2288310030923196
:101126004C228831003092314C2288310030923185
:101136004C228831780892314C22883175089231D8
:101146004C228831740892314C22883173089231CE
:101156004C228831FB01FC017C08803AF600803085
:101166007602031DB82804307B020318CD28FF3011
:1011760092314C2288310130FB070030FC3D7C085F
:10118600803AF60080307602031DCB2804307B02BD
:10119600031CBA28D030F700C930F600F60BD12868
:1011A600F70BD128003208002000B101B201320845
:1011B600803AAF0080302F02031DE328043031024D
:1011C6000318F928003092316D2288310130200051
:1011D600B1070030B23D3208803AAF0080302F02AE
:1011E600031DF72804303102031CE528FF30923135
:1011F6006D228831003092316D2288310030923173
:101206006D228831003092316D228831FF30923163
:101216006D228831003092316D2288310030923152
:101226006D228831003092316D228831FF30923143
:101236006D228831003092316D2288310030923132
:101246006D228831003092316D228831FF30923123
:101256006D228831003092316D2288310030923112
:101266006D228831003092316D228831FF30923103
:101276006D228831003092316D22883100309231F2
:101286006D228831003092316D2288312000B30101
:10129600B4013408803AAF0080302F02031D55296F
:1012A6000430330203186B29FF3092316D228831E6
:1012B60001302000B3070030B43D3408803AAF0057
:1012C60080302F02031D692904303302031C57297D
:1012D600D0302000B000C930AF00AF0B7029B00B82
:1012E6007029003208002000B400B501B6013608A6
:1012F600803AB20080303202031D83290430350261
:1013060003189929003092316D228931013020006D
:10131600B5070030B63D3608803AB200803032025A
:10132600031D972904303502031C85292000340843
:1013360092316D2289312000310892316D22893136
:101346002000300892316D22893120002F08923119
:101356006D228931FF3092316D2289310030923110
:101366006D228931003092316D22893100309231FF
:101376006D228931FF3092316D22893100309231F0
:101386006D228931003092316D22893100309231DF
:101396006D228931FF3092316D22893100309231D0
:1013A6006D228931003092316D22893100309231BF
:1013B6006D228931FF3092316D22893100309231B0
:1013C6006D228931003092316D228931003092319F
:1013D6006D2289312000B701B8013808803AB20081
:1013E60080303202031DF9290430370203180F2A10
:1013F600FF3092316D22893101302000B70700306D
:10140600B83D3808803AB20080303202031D0D2AFA
:1014160004303702031CFB29D0302000B300C9304A
:10142600B200B20B142AB30B142A003208002000B3
:10143600B400B501B6013608803AB20080303202F7
:10144600031D272A0430350203183D2A0030923145
:101456006D228A3101302000B5070030B63D3608CE
:10146600803AB20080303202031D3B2A0430350236
:10147600031C292AFF3092316D228A3100309231C5
:101486006D228A31003092316D228A3100309231DC
:101496006D228A312000340892316D228A31200073
:1014A600310892316D228A312000300892316D2246
:1014B6008A3120002F0892316D228A31FF30923115
:1014C6006D228A31003092316D228A31003092319C
:1014D6006D228A31003092316D228A31FF3092318D
:1014E6006D228A31003092316D228A31003092317C
:1014F6006D228A31003092316D228A31FF3092316D
:101506006D228A31003092316D228A31003092315B
:101516006D228A31003092316D228A312000B70166
:10152600B8013808803AB20080303202031D9D2A85
:10153600043037020318B32AFF3092316D228A3104
:1015460001302000B7070030B83D3808803AB200B5
:1015560080303202031DB12A04303702031C9F2A51
:10156600D0302000B300C930B200B20BB82AB30B9A
:10157600B82A003208002000B400B501B6013608CA
:10158600803AB20080303202031DCB2A0430350285
:101596000318E12A003092316D228A310130200091
:1015A600B5070030B63D3608803AB20080303202C8
:1015B600031DDF2A04303502031CCD2AFF30923189
:1015C6006D228A31003092316D228A31003092319B
:1015D6006D228A31003092316D228A31FF3092318C
:1015E6006D228A31003092316D228A31003092317B
:1015F6006D228A31003092316D228A312000340802
:1016060092316D228A312000310892316D228A3161
:101616002000300892316D228A3120002F08923145
:101626006D228A31FF3092316D228A31003092313B
:101636006D228A31003092316D228A31003092312A
:101646006D228A31FF3092316D228A31003092311B
:101656006D228A31003092316D228A31003092310A
:101666006D228A312000B701B8013808803AB200ED
:1016760080303202031D412B043037020318572BEA
:10168600FF3092316D228A3101302000B7070030D9
:10169600B83D3808803AB20080303202031D552B1F
:1016A60004303702031C432BD0302000B300C9306E
:1016B600B200B20B5C2BB30B5C2B0032080020008F
:1016C600B400B501B6013608803AB2008030320265
:1016D600031D6F2B043035020318852B0030923121
:1016E6006D228B3101302000B5070030B63D36083B
:1016F600803AB20080303202031D832B043035025B
:10170600031C712BFF3092316D228B3100309231E8
:101716006D228B31003092316D228B310030923147
:101726006D228B31FF3092316D228B310030923138
:101736006D228B31003092316D228B310030923127
:101746006D228B31FF3092316D228B310030923118
:101756006D228B31003092316D228B310030923107
:101766006D228B312000340892316D228B3120009E
:10177600310892316D228B312000300892316D2272
:101786008B3120002F0892316D228B31FF30923140
:101796006D228B31003092316D228B3100309231C7
:1017A6006D228B31003092316D228B312000B701D2
:1017B600B8013808803AB20080303202031DE52BAA
:1017C600043037020318FB2BFF3092316D228B3128
:1017D60001302000B7070030B83D3808803AB20023
:1017E60080303202031DF92B04303702031CE72B2D
:1017F600D0302000B300C930B200B20B002CB30BBE
:10180600002C003208002000A300A701A801A901AE
:10181600FF30A0002008A600FF30A0002008A70087
:101826002F30A0002008A800A9012308031D2303C8
:10183600031DF12C2708A0002008F3002808A100AA
:101846002108F4002908A2002208F500260895318F
:1018560094258C3103302000A2000830A100783096
:10186600A000A00B342CA10B342CA20B342C20008E
:101876002708A0002008F3002808A1002108F4008A
:101886002908A2002208F500260896312F268C3159
:1018960003302000A2000830A1007830A000A00B81
:1018A600522CA10B522CA20B522C20002708A00070
:1018B6002008F3002808A1002108F4002908A20046
:1018C6002208F50026089631CA268C3103302000FE
:1018D600A2000830A1007830A000A00B702CA10B4C
:1018E600702CA20B702C20002708A0002008F30003
:1018F6002808A1002108F4002908A2002208F50002
:101906002608973165278C3103302000A200083065
:10191600A1007830A000A00B8E2CA10B8E2CA20B60
:101926008E2C20002708A0002008F3002808A1001C
:101936002108F4002908A2002208F50026088831AB
:101946003C208C3103302000A2000830A100783002
:10195600A000A00BAC2CA10BAC2CA20BAC2C200035
:10196600A401043024020318FD2F2708A000200834
:10197600F3002808A1002108F4002908A200220883
:10198600F500260888313C208C3102302000A20068
:101996000430A100BA30A000A00BCF2CA10BCF2C95
:1019A600A20BCF2C0000F301F401F501FF308831C2
:1019B6003C208C3102302000A2000430A100BA3055
:1019C600A000A00BE42CA10BE42CA20BE42C00003D
:1019D60001302000A0002008A407B42C0230230602
:1019E600031D452F9231C0228C31F301FF302000B8
:1019F600A0002008F400F501FF3092315C228C3102
:101A06009231AA228C319231C0228C31FF302000D3
:101A1600A0002008F3002F30A1002108F400F501F2
:101A2600FF3092315C228C31F301FF302000A000A0
:101A36002008F400F501FF3092315C228C3192319E
:101A4600AA228C319231C0228C31F301F401FF308D
:101A56002000A0002008F500FF3092315C228C3176
:101A6600FF302000A0002008F3002F30A10021083D
:101A7600F400F501FF3092315C228C31F301FF3026
:101A86002000A0002008F400F501FF3092315C220E
:101A96008C319231AA228C319231C0228C31FF30A6
:101AA6002000A0002008F300F401F501FF30923178
:101AB6005C228C31F301F401FF302000A0002008E5
:101AC600F500FF3092315C228C31FF302000A000FF
:101AD6002008F3002F30A1002108F400F501FF30A3
:101AE60092315C228C31F301FF302000A0002008E7
:101AF600F400F501FF3092315C228C319231AA223A
:101B06008C319231C0228C31F301F401F5010030A1
:101B160092315C228C31FF302000A0002008F300B7
:101B2600F401F501FF3092315C228C31F301F401AE
:101B3600FF302000A0002008F500FF3092315C2223
:101B46008C31FF302000A0002008F3002F30A100C8
:101B56002108F400F501FF3092315C228C31F3014B
:101B6600FF302000A0002008F400F501FF3092317C
:101B76005C228C319231AA228C319231C0228C3176
:101B8600F301F401F501003092315C228C31F3014E
:101B9600F401F501003092315C228C31FF302000D7
:101BA600A0002008F300F401F501FF3092315C2219
:101BB6008C31F301F401FF302000A0002008F5006D
:101BC600FF3092315C228C31FF302000A0002008CB
:101BD600F3002F30A1002108F400F501FF30923107
:101BE6005C228C31F301FF302000A0002008F400B5
:101BF600F501FF3092315C228C319231AA228C3170
:101C06009231C0228C31F301F401F501003092319A
:101C16005C228C31F301F401F501003092315C2233
:101C26008C31F301F401F501003092315C228C31E4
:101C3600FF302000A0002008F300F401F501FF307A
:101C460092315C228C31F301F401FF302000A000B8
:101C56002008F500FF3092315C228C31FF302000E5
:101C6600A0002008F3002F30A1002108F400F501A0
:101C7600FF3092315C228C31F301FF302000A0004E
:101C86002008F400F501FF3092315C228C3192314C
:101C9600AA228C319231C0228C31F301F401F50174
:101CA600003092315C228C31F301F401F5010030F1
:101CB60092315C228C31F301F401F501003092314E
:101CC6005C228C31F301F401F501003092315C2283
:101CD6008C31FF302000A0002008F300F401F5014C
:101CE600FF3092315C228C31F301F401FF30200089
:101CF600A0002008F500FF3092315C228C31FF30C5
:101D06002000A0002008F3002F30A1002108F400D5
:101D1600F501FF3092315C228C319231AA228C314E
:101D26009231C0228C31F301F401F5010030923179
:101D36005C228C31F301F401F501003092315C2212
:101D46008C31F301F401F501003092315C228C31C3
:101D5600F301F401F501003092315C228C31F3017C
:101D6600F401F501003092315C228C31FF30200005
:101D7600A0002008F300F401F501FF3092315C2247
:101D86008C31F301F401FF302000A0002008F5009B
:101D9600FF3092315C228C319231AA228C31923101
:101DA600C0228C31F301F401F501003092315C223E
:101DB6008C31F301F401F501003092315C228C3153
:101DC600F301F401F501003092315C228C31F3010C
:101DD600F401F501003092315C228C31F301F401FB
:101DE600F501003092315C228C31F301F401F501EA
:101DF600003092315C228C31FF302000A000200898
:101E0600F300F401F501FF3092315C228C319231FE
:101E1600AA228C319231C0228C31F301F401F501F2
:101E2600003092315C228C31F301F401F50100306F
:101E360092315C228C31F301F401F50100309231CC
:101E46005C228C31F301F401F501003092315C2201
:101E56008C31F301F401F501003092315C228C31B2
:101E6600F301F401F501003092315C228C31F3016B
:101E7600F401F501003092315C228C319231AA22B4
:101E86008C31FD2F033020002306031DFD2FFF306C
:101E9600A0002008F300F401F501FF3088313C2052
:101EA6008C3103302000A2000830A1007830A00059
:101EB600A00B5B2FA10B5B2FA20B5B2FFF3020002B
:101EC600A0002008F300F401F501FF3097316527E3
:101ED6008C3103302000A2000830A1007830A00029
:101EE600A00B732FA10B732FA20B732FFF302000B3
:101EF600A0002008F300F401F501FF309631CA2650
:101F06008C3103302000A2000830A1007830A000F8
:101F1600A00B8B2FA10B8B2FA20B8B2FFF3020003A
:101F2600A0002008F300F401F501FF3096312F26BA
:101F36008C3103302000A2000830A1007830A000C8
:101F4600A00BA32FA10BA32FA20BA32FFF302000C2
:101F5600A0002008F300F401F501FF309531942527
:101F66008C3103302000A2000830A1007830A00098
:101F7600A00BBB2FA10BBB2FA20BBB2F2000A501D3
:101F8600043025020318FD2FFF30A0002008F300BF
:101F9600F401F501FF30953194258C310230200093
:101FA600A2000430A100BA30A000A00BD82FA10BCC
:101FB600D82FA20BD82F0000F301F401F501FF3052
:101FC600953194258C3102302000A2000430A10006
:101FD600BA30A000A00BED2FA10BED2FA20BED2F19
:101FE600000001302000A0002008A50704302502CB
:0A1FF600031CC72F9431FA240800E1
:10247000003020008C1801300800D8308B00270075
:1024800011081238910012081038920031302000E3
:10249000980021000C160800F20024001108F0003A
:1024A0007008F1002000911124009513720891002A
:1024B000200091190800582AF600760892314C2223
:1024C0009231750892314C229231740892314C222B
:1024D0009231730892314C2208002000AE00240093
:1024E00011082000AC002C08AD00911124009513B8
:1024F00020002E08240091002000911908007C2A59
:102500002000B200320892316D2292312000310851
:1025100092316D2292312000300892316D22923139
:1025200020002F0892316D22080021009D0180308B
:102530009E000F309F002C302000AC002C082100A2
:102540008C042C302000AC002C0823008C042100CB
:102550008E170800F401F5017508803AF300803009
:102560007302031DB52A0430740203180800FF30FB
:1025700092314C2292310130F4070030F53DAC2A03
:10258000F401F5017508803AF30080307302031DF1
:10259000CB2A0430740203180800003092314C2218
:1025A00092310130F4070030F53DC22A2000B0011D
:1025B000B1013108803AAF0080302F02031DE22ABA
:1025C0000430300203180800FF3092316D2292313E
:1025D00001302000B0070030B13DD92A2000AD0005
:1025E000923138229231003A0319052B20002D0830
:1025F0008600870181012D0A8600870181012D084F
:10260000023E860087018101080020002D08860017
:10261000870181012D0A8600870181010A30AC0003
:102620002D08023E860087012C088100080020004A
:10263000AF002F08031D2D2B8D110730AE00173072
:10264000AD006F30AC00AC0B232BAD0B232BAE0BCE
:10265000232B000020008D1508002F03031D080008
:102660000D110730AE001730AD006F30AC00AC0B71
:10267000372BAD0B372BAE0B372B000020000D1581
:10268000080023008C018D0122000D158D152000FE
:102690000D158D1524000D158D15F8302000AC009A
:1026A0002C082100990405302000AE000F30AD0049
:1026B000F430AC00AC0B5A2BAD0B5A2BAE0B5A2B93
:1026C000F3302000AC002C0821008D0520000D15F2
:1026D0008D150D198D1D01008B17080020004B086A
:1026E000C7004C08C8004D08C900CA0193314123F6
:1026F0009331883103209331923195229331863181
:102700009A26933192313D229331883100209331C2
:10271000943164249331853196259331003A03191D
:10272000882B923138229331003A031DC72B003099
:10273000933117239331003080313F20933147305C
:102740009231EE22933103302000C6004608CA00C1
:102750004A080319882B4A08FF3E473E8600870136
:1027600001080319C32B8B134A08FF3E473E86001E
:1027700087010108C6004608AC004A08FF3E8431C4
:10278000572493318B1701302000CA02A82B013047
:10279000933117239331013080313F209331882BBF
:1027A00020005708031D192CFF303D00C400FF30E6
:1027B000C3003117FF30E400FF30E30051173E0043
:1027C000A401A30111173D00311751173E00111745
:1027D0001530F2004B30F100D130F000F00BEE2B51
:1027E000F10BEE2BF20BEE2B0000FF303D00C4008E
:1027F000FF30C3003117FF30E400FF30E300511712
:10280000FF303E00A400FF30A30011173D00311738
:1028100051173E0011171530F2004B30F100D13046
:10282000F000F00B112CF10B112CF20B112C00000D
:10283000D02B0B3057020318322CFF303D00C40060
:10284000FF30C3003117FF30E400FF30E3005117C1
:102850003E00A401A30111173D00311751173E009E
:10286000111708000B3020005702031C4F2C233097
:10287000570203184F2C3D00C401C3013117FF302C
:10288000E400FF30E30051173E00A401FF30A30035
:1028900011173D00311751173E00111708003D0078
:1028A000C401C3013117FF30E400FF30E3005117CA
:1028B000FF303E00A400FF30A30011173D00311788
:1028C00051173E001117080020005708031DAF2CB8
:1028D000FF303D00C400FF30C3003117FF30E4007B
:1028E000FF30E30051173E00A401A30111173D0082
:1028F000311751173E00111715302000AE004B3034
:10290000AD00D130AC00AC0B832CAD0B832CAE0BE7
:10291000832C0000FF303D00C400FF30C30031179E
:10292000FF30E400FF30E3005117FF303E00A40009
:10293000FF30A30011173D00311751173E0011174A
:1029400015302000AE004B30AD00D130AC00AC0BE8
:10295000A72CAD0BA72CAE0BA72C0000642C0B30C2
:1029600057020318C82CFF303D00C400FF30C300DD
:102970003117FF30E400FF30E30051173E00A4019F
:10298000A30111173D00311751173E001117080020
:102990000B3020005702031CE52C2330570203188C
:1029A000E52C3D00C401C3013117FF30E400FF30C6
:1029B000E30051173E00A401FF30A30011173D00B2
:1029C000311751173E00111708003D00C401C30123
:1029D0003117FF30E400FF30E3005117FF303E00B5
:1029E000A400FF30A30011173D00311751173E001E
:1029F00011170800F501F6017608803AF3008030DF
:102A00007302031D052D0430750203181A2D0030C2
:102A100092314C2294310130F5070030F63D7608B2
:102A2000803AF30080307302031D182D04307502C4
:102A3000031C072DFF3092314C229431003092312B
:102A40004C229431003092314C229431003092313A
:102A50004C229431FF3092314C229431003092312B
:102A60004C229431003092314C229431003092311A
:102A70004C229431FF3092314C229431003092310B
:102A80004C229431003092314C22943100309231FA
:102A90004C229431FF3092314C22943100309231EB
:102AA0004C229431003092314C22943100309231DA
:102AB0004C229431FF3092314C22943100309231CB
:102AC0004C229431003092314C22943100309231BA
:102AD0004C229431F701F8017808803AF3008030F5
:102AE0007302031D752D0430770203188A2DFF3001
:102AF00092314C2294310130F7070030F83D7808CC
:102B0000803AF30080307302031D882D0430770271
:102B1000031C772DD030F400C930F300F30B8E2D59
:102B2000F40B8E2D00320800F800F901FA017A0842
:102B3000803AF60080307602031DA02D0430790221
:102B40000318B52D003092314C2295310130F90730
:102B50000030FA3D7A08803AF60080307602031D94
:102B6000B32D04307902031CA22D780892314C2237
:102B70009531750892314C229531740892314C226E
:102B80009531730892314C229531FF3092314C22AD
:102B90009531003092314C229531003092314C22E7
:102BA0009531003092314C229531FF3092314C22D8
:102BB0009531003092314C229531003092314C22C7
:102BC0009531003092314C229531FF3092314C22B8
:102BD0009531003092314C229531003092314C22A7
:102BE0009531003092314C229531FF3092314C2298
:102BF0009531003092314C229531003092314C2287
:102C00009531003092314C229531FB01FC017C085A
:102C1000803AF60080307602031D102E04307B02CD
:102C20000318252EFF3092314C2295310130FB07DD
:102C30000030FC3D7C08803AF60080307602031DAF
:102C4000232E04307B02031C122ED030F700C93033
:102C5000F600F60B292EF70B292E00320800F8009B
:102C6000F901FA017A08803AF60080307602031DF5
:102C70003B2E043079020318502E003092314C2242
:102C800096310130F9070030FA3D7A08803AF600B3
:102C900080307602031D4E2E04307902031C3D2E37
:102CA000FF3092314C229631003092314C229631D5
:102CB000003092314C229631003092314C229631C4
:102CC000780892314C229631750892314C22963117
:102CD000740892314C229631730892314C2296310D
:102CE000FF3092314C229631003092314C22963195
:102CF000003092314C229631003092314C22963184
:102D0000FF3092314C229631003092314C22963174
:102D1000003092314C229631003092314C22963163
:102D2000FF3092314C229631003092314C22963154
:102D3000003092314C229631003092314C22963143
:102D4000FB01FC017C08803AF60080307602031D0E
:102D5000AB2E04307B020318C02EFF3092314C2280
:102D600096310130FB070030FC3D7C08803AF600CC
:102D700080307602031DBE2E04307B02031CAD2E74
:102D8000D030F700C930F600F60BC42EF70BC42E76
:102D900000320800F800F901FA017A08803AF600DA
:102DA00080307602031DD62E043079020318EB2EF4
:102DB000003092314C2296310130F9070030FA3D53
:102DC0007A08803AF60080307602031DE92E04303E
:102DD0007902031CD82EFF3092314C2296310030FC
:102DE00092314C229631003092314C229631003093
:102DF00092314C229631FF3092314C229631003084
:102E000092314C229631003092314C229631003072
:102E100092314C229631780892314C2296317508C5
:102E200092314C229631740892314C2296317308BB
:102E300092314C229631FF3092314C229631003043
:102E400092314C229631003092314C229631003032
:102E500092314C229631FF3092314C229631003023
:102E600092314C229631003092314C229631003012
:102E700092314C229631FB01FC017C08803AF6002D
:102E800080307602031D462F04307B0203185B2F2F
:102E9000FF3092314C2296310130FB070030FC3D6F
:102EA0007C08803AF60080307602031D592F0430EA
:102EB0007B02031C482FD030F700C930F600F60B18
:102EC0005F2FF70B5F2F00320800F800F901FA01BD
:102ED0007A08803AF60080307602031D712F0430A4
:102EE00079020318862F003092314C22973101303D
:102EF000F9070030FA3D7A08803AF6008030760211
:102F0000031D842F04307902031C732FFF3092318C
:102F10004C229731003092314C229731003092315F
:102F20004C229731003092314C229731FF30923150
:102F30004C229731003092314C229731003092313F
:102F40004C229731003092314C229731FF30923130
:102F50004C229731003092314C229731003092311F
:102F60004C229731003092314C22973178089231BF
:102F70004C229731750892314C2297317408923166
:102F80004C229731730892314C229731FF309231A5
:102F90004C229731003092314C22973100309231DF
:102FA0004C229731003092314C229731FB01FC01C9
:102FB0007C08803AF60080307602031DE12F043051
:102FC0007B020318F62FFF3092314C2297310130EB
:102FD000FB070030FC3D7C08803AF600803076022A
:102FE000031DF42F04307B02031CE32FD030F700C5
:102FF000C930F600F60BFA2FF70BFA2F0032080053
:103000000034103418340C34E83413340A340D34DA
:1030100047346F346F34643420346A346F3462342C
:103020002E34203459346F34753420346B346E347C
:103030006F347734203468346F3477342034743408
:103040006F3420347234653461346434203469342C
:103050006E34733474347234753463347434693454
:103060006F346E3473342E340A340A3400345034DE
:103070006C346534613473346534203465346E34B3
:1030800074346534723420347434683465342034D4
:103090006334683461347234613463347434653455
:1030A0007234203441343A34203400340A340D343C
:1030B000573472346F346E34673420346B34653473
:1030C00079342E34203454347234793420346134D9
:1030D0006734613469346E342E340A340D3400346C
:1030E0000A340D344D34613469346E3420344C3438
:1030F0006F346F347034203449346E34643469343E
:10310000763469346434753461346C340A340D3483
:02311000003489
:020000040001F9
:04000E00E4F9FFDE34
:00000001FF
