:0400000080313728EC
:100008007E14803120007F08B500960197012700F3
:10001800931C2A289310C7302000B4000000B40BAA
:10002800122800320000883103208031003A031979
:10003800322832302000B4003408D9009E31CE2650
:10004800803102308C31402480313228131E32280E
:10005800EF302000B400340827009305200035084D
:10006800FF007E10090080313928FD01D001D1013F
:10007800D201D301D401D501D601D701D80121007D
:10008800B601B701B80120008731FF27D9007E10DB
:100098002000883108282100AA00AC01AD01AE017A
:1000A800FF302000C30043082100AB00FF302000D0
:1000B800C30043082100AC002F302000C3004308D0
:1000C8002100AD00AE012A08031D2A03031DAE2935
:1000D8002C082000C3004308B90021002D08200087
:1000E800C4004408BA0021002E082000C5004508B5
:1000F800BB0021002B0897313C27803103302000BA
:10010800C5000830C4007830C300C30B8928C40B6D
:100118008928C50B892821002C082000C300430822
:10012800B90021002D082000C4004408BA002100AD
:100138002E082000C5004508BB0021002B08883187
:100148006C20803103302000C5000830C4007830AE
:10015800C300C30BAD28C40BAD28C50BAD282100C7
:100168002C082000C3004308B90021002D082000F6
:10017800C4004408BA0021002E082000C500450824
:10018800BB0021002B088931302180310330200049
:10019800C5000830C4007830C300C30BD128C40B95
:1001A800D128C50BD12821002C082000C300430802
:1001B800B90021002D082000C4004408BA0021001D
:1001C8002E082000C5004508BB0021002B088931F6
:1001D800F421803103302000C5000830C400783095
:1001E800C300C30BF528C40BF528C50BF52821005F
:1001F8002C082000C3004308B90021002D08200066
:10020800C4004408BA0021002E082000C500450893
:10021800BB0021002B088A31B8228031033020002E
:10022800C5000830C4007830C300C30B1929C40BBB
:100238001929C50B192921002C082000C3004308DF
:10024800B90021002D082000C4004408BA0021008C
:100258002E082000C5004508BB0021002B088B3163
:100268007C23803103302000C5000830C40078307A
:10027800C300C30B3D29C40B3D29C50B3D292100F3
:100288002C082000C3004308B90021002D082000D5
:10029800C4004408BA0021002E082000C500450803
:1002A800BB0021002B088631FA268031033020005C
:1002B800C5000830C4007830C300C30B6129C40BE3
:1002C8006129C50B61292100A801043028020318FF
:1002D8005B2C2C082000C3004308B90021002D081E
:1002E8002000C4004408BA0021002E082000C500E0
:1002F8004508BB0021002B088631FA2680310230E0
:100308002000C5000430C400BA30C300C30B8A29DA
:10031800C40B8A29C50B8A2900002000B901BA013B
:10032800BB01FF308631FA26803102302000C5003B
:100338000430C400BA30C300C30BA029C40BA029E1
:10034800C50BA029000001302000C300430821008C
:10035800A807692902302A06031D702BAF012F0A4E
:100368000319912AA001A1012108803A2000C300A5
:1003780080304302031DC3290430210020020318E2
:10038800DB2900309E313B26803101302100A00757
:100398000030A13D2108803A2000C300803043028C
:1003A800031DD929043021002002031CC529FF3070
:1003B8009E313B26803100309E313B268031003013
:1003C8009E313B26803121002F089E313B2680310B
:1003D800FF309E313B26803100309E313B268031F4
:1003E80000309E313B26803121002F03FF3AFF3E2B
:1003F8009E313B268031FF309E313B2680310030D4
:100408009E313B26803100309E313B2680312100D1
:100418002F089E313B268031FF309E313B268031AC
:1004280000309E313B26803100309E313B268031A2
:1004380021002F03FF3AFF3E9E313B268031FF30DB
:100448009E313B26803100309E313B268031003082
:100458009E313B26803121002F089E313B2680317A
:10046800FF309E313B26803100309E313B26803163
:1004780000309E313B26803121002F03FF3AFF3E9A
:100488009E313B268031FF309E313B268031003043
:100498009E313B26803100309E313B268031210041
:1004A8002F089E313B2680312100A201A301230899
:1004B800803A2000C30080304302031D662A0430BE
:1004C8002100220203187E2AFF309E313B2680310C
:1004D80001302100A2070030A33D2308803A200004
:1004E800C30080304302031D7C2A0430210022020D
:1004F800031C682AD0302000C400C930C300C30BD5
:10050800832AC40B832A003205302000C300430825
:100518002100AF072F0A031DB629FF302000C300B2
:1005280043082100B000300803195B2CA401A50181
:100538002508803A2000C30080304302031DA72A03
:100548000430210024020318BF2A00309E313B26C4
:10055800803101302100A4070030A53D2508803AEC
:100568002000C30080304302031DBD2A043021004F
:100578002402031CA92AFF309E313B26803100301B
:100588009E313B26803100309E313B268031210050
:1005980030089E313B268031FF309E313B2680312A
:1005A80000309E313B26803100309E313B26803121
:1005B80021003003FF3AFF3E9E313B268031FF3059
:1005C8009E313B26803100309E313B268031003001
:1005D8009E313B268031210030089E313B268031F8
:1005E800FF309E313B26803100309E313B268031E2
:1005F80000309E313B26803121003003FF3AFF3E18
:100608009E313B268031FF309E313B2680310030C1
:100618009E313B26803100309E313B2680312100BF
:1006280030089E313B268031FF309E313B26803199
:1006380000309E313B26803100309E313B26803190
:1006480021003003FF3AFF3E9E313B268031FF30C8
:100658009E313B26803100309E313B268031003070
:100668009E313B268031210030089E313B26803167
:100678002100A601A7012708803A2000C300803086
:100688004302031D4A2B0430210026020318622B63
:10069800FF309E313B26803101302100A607003013
:1006A800A73D2708803A2000C30080304302031D7D
:1006B800602B043021002602031C4C2BD030200074
:1006C800C400C930C300C30B672BC40B672B0032AF
:1006D80005302100B002972A03302A06031D5B2C3F
:1006E800FF302000C3004308B900BA01BB01FF3046
:1006F8008631FA26803103302000C5000830C40056
:100708007830C300C30B862BC40B862BC50B862BF6
:10071800FF302000C3004308B900BA01BB01FF3015
:100728008B317C23803103302000C5000830C400A1
:100738007830C300C30B9E2BC40B9E2BC50B9E2B7E
:10074800FF302000C3004308B900BA01BB01FF30E5
:100758008A31B822803103302000C5000830C40037
:100768007830C300C30BB62BC40BB62BC50BB62B06
:10077800FF302000C3004308B900BA01BB01FF30B5
:100788008931F421803103302000C5000830C400CD
:100798007830C300C30BCE2BC40BCE2BC50BCE2B8E
:1007A800FF302000C3004308B900BA01BB01FF3085
:1007B80089313021803103302000C5000830C40061
:1007C8007830C300C30BE62BC40BE62BC50BE62B16
:1007D800FF302000C3004308B900BA01BB01FF3055
:1007E80088316C20803103302000C5000830C400F7
:1007F8007830C300C30BFE2BC40BFE2BC50BFE2B9E
:10080800FF302000C3004308B900BA01BB01FF3024
:1008180097313C27803103302000C5000830C400E0
:100828007830C300C30B162CC40B162CC50B162C22
:100838002100A9010430290203185B2CFF30200095
:10084800C3004308B900BA01BB01FF3097313C2708
:10085800803102302000C5000430C400BA30C30023
:10086800C30B342CC40B342CC50B342C00002000D3
:10087800B901BA01BB01FF3097313C278031023002
:100888002000C5000430C400BA30C300C30B4A2C92
:10089800C40B4A2CC50B4A2C000001302000C300B1
:1008A80043082100A90704302902031C222C963191
:1008B8007D26080020008E1F632C01300800B80137
:1008C800B901BA01BB01BC01BD01CA01CB01CC0110
:1008D800CD01CE01CF01BE01BF01C001C101C201DE
:1008E800C301C401C501C601C701C801C9018731D7
:1008F800F7278431003A0319D32C00308400A03044
:100908008500003F2000B600013FB7003608543E7E
:10091800BE000B30373DBF0000308400A03085009A
:10092800003FB600013FB7003608AC3EC000F430C7
:10093800373DC10000308400A0308500003FB6007C
:10094800013FB7003608543EC2000B30373DC300A4
:1009580000308400A0308500003FB600013FB7009A
:100968003608AC3EC400F430373DC5000030840082
:10097800A0308500003FB600013FB7003608543E5E
:10098800C6000B30373DC70000308400A03085001A
:10099800003FB600013FB7003608AC3E242D0030BA
:1009A8008400A0308500003F2000B600013FB7005A
:1009B8003608B83EBE000B30373DBF00003084001B
:1009C800A0308500003FB600013FB7003608483E1A
:1009D800C000F430373DC10000308400A0308500ED
:1009E800003FB600013FB7003608B83EC2000B30E2
:1009F800373DC30000308400A0308500003FB600BA
:100A0800013FB7003608483EC400F430373DC50002
:100A180000308400A0308500003FB600013FB700D9
:100A28003608B83EC6000B30373DC700003084009A
:100A3800A0308500003FB600013FB7003608483EA9
:100A4800C800F430373DC900093021009D00C73087
:100A58002000B6000000B60B2E2D00320000210049
:100A68009D149D18352D1C082000CB0021001B0863
:100A78002000CA000D3021009D00C7302000B600BC
:100A88000000B60B442D0032000021009D149D1873
:100A98004B2D1C082000CD0021001B082000CC0095
:100AA800153021009D00C7302000B6000000B60BAD
:100AB8005A2D0032000021009D149D18612D1C083C
:100AC8002000CF0021001B082000CE003F08803AFC
:100AD800B6004B08803A3602031D742D4A083E02C0
:100AE800031CB72D20004B08803AB6004108803A15
:100AF8003602031D812D40084A02031CB72D200031
:100B08004308803AB6004D08803A3602031D8E2D00
:100B18004C084202031CB72D20004D08803AB6004D
:100B28004508803A3602031D9B2D44084C02031CDD
:100B3800B72D20004708803AB6004F08803A3602A1
:100B4800031DA82D4E084602031CB72D20004F0890
:100B5800803AB6004908803A3602031DB52D480888
:100B68004E020318B92D013008000030080020009B
:100B7800BF003F08031D272EB901BA013A08803A81
:100B8800B70080303702031DCB2D36083902031811
:100B980008003D009216ED302000B700003200003A
:100BA800B70BD22D00003D0092121A302000B80079
:100BB800F830B700B70BDE2DB80BDE2D00003D0076
:100BC800921604302000B800B430B700B70BEA2DF5
:100BD800B80BEA2D00003D00921219302000B80031
:100BE8001B30B700B70BF62DB80BF62D00323D00C1
:100BF800921604302000B800B430B700B70B022EAC
:100C0800B80B022E00003D00921219302000B800E7
:100C18001B30B700B70B0E2EB80B0E2E00323D005E
:100C280092161C302000B800D130B700B70B1A2E2E
:100C3800B80B1A2E00323D00921201302000B9077D
:100C48000030BA3DC22D20003F03031D922EBB0188
:100C5800BC013C08803AB70080303702031D362EAD
:100C680036083B02031808003D009216ED302000BC
:100C7800B70000320000B70B3D2E00003D00921275
:100C88001A302000B800F830B700B70B492EB80B5F
:100C9800492E00003D00921606302000B8008D3025
:100CA800B700B70B552EB80B552E00323D009212E7
:100CB80017302000B8004230B700B70B612EB80BD0
:100CC800612E00003D00921606302000B8008D30DD
:100CD800B700B70B6D2EB80B6D2E00323D00921287
:100CE80017302000B8004230B700B70B792EB80B88
:100CF800792E00003D0092161C302000B800D1303B
:100D0800B700B70B852EB80B852E00323D00921226
:100D180001302000BB070030BC3D2D2E2000BD0156
:100D2800BE013E08803AB70080303702031D9E2E70
:100D380036083D02031808003D009216ED302000E9
:100D4800B70000320000B70BA52E00003D0092123C
:100D58001A302000B800F830B700B70BB12EB80B26
:100D6800B12E00003D00921608302000B80069300E
:100D7800B700B70BBD2EB80BBD2E00323D00921246
:100D880015302000B8006630B700B70BC92EB80B75
:100D9800C92E00003D00921608302000B8006930C6
:100DA800B700B70BD52EB80BD52E00323D009212E6
:100DB80015302000B8006630B700B70BE12EB80B2D
:100DC800E12E00003D0092161C302000B800D13002
:100DD800B700B70BED2EB80BED2E00323D00921286
:100DE80001302000BD070030BE3D952E2000BE001A
:100DF800BF01C0014008803ABC0080303C02031D9E
:100E0800072F04303F0203181D2F00309E313B2668
:100E1800863101302000BF070030C03D4008803ACD
:100E2800BC0080303C02031D1B2F04303F02031C12
:100E3800092FFF309E313B26863100309E313B26FC
:100E4800863100309E313B26863100309E313B266C
:100E58008631FF309E313B26863100309E313B265D
:100E6800863100309E313B26863100309E313B264C
:100E78008631FF309E313B26863100309E313B263D
:100E8800863100309E313B26863100309E313B262C
:100E98008631FF309E313B26863100309E313B261D
:100EA800863100309E313B26863100309E313B260C
:100EB8008631FF309E313B26863100309E313B26FD
:100EC800863100309E313B26863100309E313B26EC
:100ED8008631FF309E313B26863100309E313B26DD
:100EE800863100309E313B26863100309E313B26CC
:100EF800863120003E089E313B26863120003B0883
:100F08009E313B26863120003A089E313B268631A9
:100F1800200039089E313B2686312000C101C201DC
:100F28004208803ABC0080303C02031D9D2F0430EB
:100F380041020318B32FFF309E313B268631013022
:100F48002000C1070030C23D4208803ABC00803012
:100F58003C02031DB12F04304102031C9F2FD030E7
:100F68002000BD00C930BC00BC0BB82FBD0BB82F8A
:100F780000320800F7302000B600360821008E0540
:100F88003D009101803092009301940196019701F0
:100F98009801990101309A0001309B0001309C00B2
:100FA8009D0108309E009F01A201A1010130A4000B
:100FB8006A30A3000230A6003A30A500A901AA01B0
:100FC800AD01AB01AC010830AE00AF01A0010830A3
:100FD800950080309100EE302000B60036082100E0
:100FE800940514080800003020008C18013008000F
:080FF80021008C1408003234C2
:10100600003020008C180130080021003608B2009C
:101016003708B3003808B400B5019E31A1268831DF
:101026008731BE2788319031072088319F31562776
:1010360088319E311C2688318731FC2788319031D2
:101046001C20883184315E248831003A0319222815
:101056008731F7278831003A031D632800309E3117
:1010660077268831003080314F208831B2309E316A
:101076004E26883103302100B1003108B50035080D
:10108600031922283508FF3EB23E86008701010873
:1010960003195F288B133508FF3EB23E8600870191
:1010A6000108B10031082000B60021003508FF3ED6
:1010B6008531BB2588318B1701302100B5024228C6
:1010C60001309E3177268831013080314F208831BA
:1010D60022282000BE00BF01C0014008803ABC00A3
:1010E60080303C02031D792804303F0203188F2804
:1010F60000309E313B26883101302000BF0700308A
:10110600C03D4008803ABC0080303C02031D8D285B
:1011160004303F02031C7B28FF309E313B2688317A
:1011260000309E313B26883100309E313B26883187
:1011360000309E313B26883120003E089E313B26FA
:10114600883120003B089E313B26883120003A0832
:101156009E313B268831200039089E313B26883156
:10116600FF309E313B26883100309E313B26883148
:1011760000309E313B26883100309E313B26883137
:10118600FF309E313B26883100309E313B26883128
:1011960000309E313B26883100309E313B26883117
:1011A600FF309E313B26883100309E313B26883108
:1011B60000309E313B26883100309E313B268831F7
:1011C600FF309E313B26883100309E313B268831E8
:1011D60000309E313B26883100309E313B268831D7
:1011E600FF309E313B26883100309E313B268831C8
:1011F60000309E313B26883100309E313B268831B7
:101206002000C101C2014208803ABC0080303C0285
:10121600031D0F290430410203182529FF309E3192
:101226003B26883101302000C1070030C23D42080C
:10123600803ABC0080303C02031D23290430410261
:10124600031C1129D0302000BD00C930BC00BC0BE6
:101256002A29BD0B2A29003208002000BE00BF0142
:10126600C0014008803ABC0080303C02031D3D2985
:1012760004303F020318532900309E313B26893142
:1012860001302000BF070030C03D4008803ABC0056
:1012960080303C02031D512904303F02031C3F29C4
:1012A600FF309E313B26893100309E313B26893105
:1012B60000309E313B26893100309E313B268931F4
:1012C600FF309E313B26893100309E313B268931E5
:1012D60000309E313B26893100309E313B268931D4
:1012E60020003E089E313B26893120003B089E3176
:1012F6003B26893120003A089E313B268931200061
:1013060039089E313B268931FF309E313B26893193
:1013160000309E313B26893100309E313B26893193
:1013260000309E313B268931FF309E313B26893184
:1013360000309E313B26893100309E313B26893173
:1013460000309E313B268931FF309E313B26893164
:1013560000309E313B26893100309E313B26893153
:1013660000309E313B268931FF309E313B26893144
:1013760000309E313B26893100309E313B26893133
:1013860000309E313B2689312000C101C20142084E
:10139600803ABC0080303C02031DD3290430410250
:1013A6000318E929FF309E313B26893101302000A0
:1013B600C1070030C23D4208803ABC0080303C0282
:1013C600031DE72904304102031CD529D030200033
:1013D600BD00C930BC00BC0BEE29BD0BEE290032A6
:1013E60008002000BE00BF01C0014008803ABC00D2
:1013F60080303C02031D012A04303F020318172ADD
:1014060000309E313B26893101302000BF07003075
:10141600C03D4008803ABC0080303C02031D152ABE
:1014260004303F02031C032AFF309E313B268931DC
:1014360000309E313B26893100309E313B26893172
:1014460000309E313B268931FF309E313B26893163
:1014560000309E313B26893100309E313B26893152
:1014660000309E313B268931FF309E313B26893143
:1014760000309E313B26893100309E313B26893132
:1014860000309E313B26893120003E089E313B26A6
:10149600893120003B089E313B26893120003A08DD
:1014A6009E313B268931200039089E313B26893101
:1014B600FF309E313B26893100309E313B268931F3
:1014C60000309E313B26893100309E313B268931E2
:1014D600FF309E313B26893100309E313B268931D3
:1014E60000309E313B26893100309E313B268931C2
:1014F600FF309E313B26893100309E313B268931B3
:1015060000309E313B26893100309E313B268931A1
:101516002000C101C2014208803ABC0080303C0272
:10152600031D972A043041020318AD2AFF309E316D
:101536003B26893101302000C1070030C23D4208F8
:10154600803ABC0080303C02031DAB2A04304102C5
:10155600031C992AD0302000BD00C930BC00BC0B4A
:10156600B22ABD0BB22A003208002000BE00BF011D
:10157600C0014008803ABC0080303C02031DC52AE9
:1015860004303F020318DB2A00309E313B268A31A5
:1015960001302000BF070030C03D4008803ABC0043
:1015A60080303C02031DD92A04303F02031CC72A9F
:1015B600FF309E313B268A3100309E313B268A31F0
:1015C60000309E313B268A3100309E313B268A31DF
:1015D600FF309E313B268A3100309E313B268A31D0
:1015E60000309E313B268A3100309E313B268A31BF
:1015F600FF309E313B268A3100309E313B268A31B0
:1016060000309E313B268A3100309E313B268A319E
:10161600FF309E313B268A3100309E313B268A318F
:1016260000309E313B268A3100309E313B268A317E
:1016360020003E089E313B268A3120003B089E3121
:101646003B268A3120003A089E313B268A3120000B
:1016560039089E313B268A31FF309E313B268A313E
:1016660000309E313B268A3100309E313B268A313E
:1016760000309E313B268A31FF309E313B268A312F
:1016860000309E313B268A3100309E313B268A311E
:1016960000309E313B268A312000C101C20142083A
:1016A600803ABC0080303C02031D5B2B04304102B3
:1016B6000318712BFF309E313B268A310130200002
:1016C600C1070030C23D4208803ABC0080303C026F
:1016D600031D6F2B04304102031C5D2BD03020000C
:1016E600BD00C930BC00BC0B762BBD0B762B00327F
:1016F60008002000BE00BF01C0014008803ABC00BF
:1017060080303C02031D892B04303F0203189F2BB7
:1017160000309E313B268B3101302000BF07003060
:10172600C03D4008803ABC0080303C02031D9D2B22
:1017360004303F02031C8B2BFF309E313B268B313E
:1017460000309E313B268B3100309E313B268B315B
:1017560000309E313B268B31FF309E313B268B314C
:1017660000309E313B268B3100309E313B268B313B
:1017760000309E313B268B31FF309E313B268B312C
:1017860000309E313B268B3100309E313B268B311B
:1017960000309E313B268B31FF309E313B268B310C
:1017A60000309E313B268B3100309E313B268B31FB
:1017B60000309E313B268B31FF309E313B268B31EC
:1017C60000309E313B268B3100309E313B268B31DB
:1017D60000309E313B268B3120003E089E313B2651
:1017E6008B3120003B089E313B268B3120003A0886
:1017F6009E313B268B31200039089E313B268B31AA
:10180600FF309E313B268B3100309E313B268B319B
:1018160000309E313B268B3100309E313B268B318A
:101826002000C101C2014208803ABC0080303C025F
:10183600031D1F2C043041020318352CFF309E3146
:101846003B268B3101302000C1070030C23D4208E3
:10185600803ABC0080303C02031D332C0430410228
:10186600031C212CD0302000BD00C930BC00BC0BAD
:101876003A2CBD0B3A2C003208002000A300AF0121
:10188600B001B101FF30A0002008AE00FF30A0007B
:101896002008AF002F30A0002008B000B1012308B7
:1018A600031D2303031D672D2F08A0002008F30046
:1018B6003008A1002108F4003108A2002208F50032
:1018C6002E08913160218C3103302000A2000830AF
:1018D600A1007830A000A00B6E2CA10B6E2CA20BE1
:1018E6006E2C20002F08A0002008F3003008A1006D
:1018F6002108F4003108A2002208F5002E089231D2
:101906001B228C3103302000A2000830A100783061
:10191600A000A00B8C2CA10B8C2CA20B8C2C2000D5
:101926002F08A0002008F3003008A1002108F400C9
:101936003108A2002208F5002E089231D6228C31F9
:1019460003302000A2000830A1007830A000A00BD0
:10195600AA2CA10BAA2CA20BAA2C20002F08A000AF
:101966002008F3003008A1002108F4003108A20085
:101976002208F5002E08933191238C310330200084
:10198600A2000830A1007830A000A00BC82CA10B43
:10199600C82CA20BC82C20002F08A0002008F3009A
:1019A6003008A1002108F4003108A2002208F50041
:1019B6002E0894314C248C3103302000A2000830CC
:1019C600A1007830A000A00BE62CA10BE62CA20B00
:1019D600E62C20002F08A0002008F3003008A10004
:1019E6002108F4003108A2002208F5002E089531DE
:1019F60007258C3103302000A2000830A100783082
:101A0600A000A00B042DA10B042DA20B042D200079
:101A16002F08A0002008F3003008A1002108F400D8
:101A26003108A2002208F5002E089531C2258C3116
:101A360003302000A2000830A1007830A000A00BDF
:101A4600222DA10B222DA20B222D2000AC01043049
:101A56002C020318FD2F2F08A0002008F3003008E1
:101A6600A1002108F4003108A2002208F5002E0882
:101A76009531C2258C3102302000A2000430A1002D
:101A8600BA30A000A00B452DA10B452DA20B452D6C
:101A96000000F301F401F501FF309531C2258C31C8
:101AA60002302000A2000430A100BA30A000A00B32
:101AB6005A2DA10B5A2DA20B5A2D000001302000E1
:101AC600A0002008AC072A2D02302306031D162F7E
:101AD600B201320A0319412EA401A5012508803A54
:101AE600A00080302002031D7A2D04302402031842
:101AF600902D00309E312B268C3101302000A4071A
:101B06000030A53D2508803AA00080302002031D44
:101B16008E2D04302402031C7C2DFF309E312B2693
:101B26008C3100309E312B268C3100309E312B2695
:101B36008C31200032089E312B268C31FF309E31AD
:101B46002B268C3100309E312B268C3100309E3175
:101B56002B268C3120003203FF3AFF3E9E312B2686
:101B66008C31FF309E312B268C3100309E312B2656
:101B76008C3100309E312B268C31200032089E316C
:101B86002B268C31FF309E312B268C3100309E3136
:101B96002B268C3100309E312B268C3120003203CF
:101BA600FF3AFF3E9E312B268C31FF309E312B268D
:101BB6008C3100309E312B268C3100309E312B2605
:101BC6008C31200032089E312B268C31FF309E311D
:101BD6002B268C3100309E312B268C3100309E31E5
:101BE6002B268C3120003203FF3AFF3E9E312B26F6
:101BF6008C31FF309E312B268C3100309E312B26C6
:101C06008C3100309E312B268C31200032089E31DB
:101C16002B268C312000A601A7012708803AA000B8
:101C260080302002031D192E0430260203182F2EA1
:101C3600FF309E312B268C3101302000A607003064
:101C4600A73D2708803AA00080302002031D2D2ED4
:101C560004302602031C1B2ED0302000A100C93000
:101C6600A000A00B342EA10B342E0032053020002C
:101C7600A0002008B207320A031D6F2DFF30A00016
:101C86002008B30033080319FD2FA801A90129086C
:101C9600803AA00080302002031D532E0430280213
:101CA6000318692E00309E312B268C31013020001E
:101CB600A8070030A93D2908803AA00080302002FC
:101CC600031D672E04302802031C552EFF309E315B
:101CD6002B268C3100309E312B268C3100309E31E4
:101CE6002B268C31200033089E312B268C31FF3079
:101CF6009E312B268C3100309E312B268C310030C4
:101D06009E312B268C3120003303FF3AFF3E9E3155
:101D16002B268C31FF309E312B268C3100309E31A4
:101D26002B268C3100309E312B268C312000330837
:101D36009E312B268C31FF309E312B268C31003084
:101D46009E312B268C3100309E312B268C31200083
:101D56003303FF3AFF3E9E312B268C31FF309E31F6
:101D66002B268C3100309E312B268C3100309E3153
:101D76002B268C31200033089E312B268C31FF30E8
:101D86009E312B268C3100309E312B268C31003033
:101D96009E312B268C3120003303FF3AFF3E9E31C5
:101DA6002B268C31FF309E312B268C3100309E3114
:101DB6002B268C3100309E312B268C3120003308A7
:101DC6009E312B268C312000AA01AB012B08803ACC
:101DD600A00080302002031DF22E04302A020318D0
:101DE600082FFF309E312B268C3101302000AA07A8
:101DF6000030AB3D2B08803AA00080302002031D46
:101E0600062F04302A02031CF42ED0302000A10035
:101E1600C930A000A00B0D2FA10B0D2F00320530ED
:101E26002000B302452E03302306031DFD2FFF308D
:101E3600A0002008F300F401F501FF309531C2251A
:101E46008C3103302000A2000830A1007830A000B9
:101E5600A00B2B2FA10B2B2FA20B2B2FFF3020001B
:101E6600A0002008F300F401F501FF3095310725A5
:101E76008C3103302000A2000830A1007830A00089
:101E8600A00B432FA10B432FA20B432FFF302000A3
:101E9600A0002008F300F401F501FF3094314C2432
:101EA6008C3103302000A2000830A1007830A00059
:101EB600A00B5B2FA10B5B2FA20B5B2FFF3020002B
:101EC600A0002008F300F401F501FF3093319123BF
:101ED6008C3103302000A2000830A1007830A00029
:101EE600A00B732FA10B732FA20B732FFF302000B3
:101EF600A0002008F300F401F501FF309231D6224C
:101F06008C3103302000A2000830A1007830A000F8
:101F1600A00B8B2FA10B8B2FA20B8B2FFF3020003A
:101F2600A0002008F300F401F501FF3092311B22D6
:101F36008C3103302000A2000830A1007830A000C8
:101F4600A00BA32FA10BA32FA20BA32FFF302000C2
:101F5600A0002008F300F401F501FF309131602163
:101F66008C3103302000A2000830A1007830A00098
:101F7600A00BBB2FA10BBB2FA20BBB2F2000AD01CB
:101F860004302D020318FD2FFF30A0002008F300B7
:101F9600F401F501FF30913160218C3102302000CF
:101FA600A2000430A100BA30A000A00BD82FA10BCC
:101FB600D82FA20BD82F0000F301F401F501FF3052
:101FC600913160218C3102302000A2000430A10042
:101FD600BA30A000A00BED2FA10BED2FA20BED2F19
:101FE600000001302000A0002008AD0704302D02BB
:0A1FF600031CC72F9031A62008003D
:10200E0021009D0180309E000F309F002C3020005B
:10201E00B600360821008C042C302000B60036089D
:10202E0023008C0421008E17080020005908031D80
:10203E005F283D00C401C3013117E401E3015117CC
:10204E00FF303E00A400FF30A30011173D003117F2
:10205E0051173E00111715302000B8004B30B70055
:10206E00D130B600B60B3928B70B3928B80B392842
:10207E0000003D00C401C3013117E401E301511713
:10208E003E00A401A30111173D00311751173E0068
:10209E00111715302000B8004B30B700D130B60004
:1020AE00B60B5728B70B5728B80B572800001C281B
:1020BE000B305902031876283D00C401C3013117B5
:1020CE00E401E3015117FF303E00A400FF30A300EE
:1020DE0011173D00311751173E00111708000B3034
:1020EE0020005902031C9328233059020318932809
:1020FE00FF303D00C400FF30C3003117E401E3019F
:10210E005117FF303E00A400A30111173D003117F7
:10211E0051173E0011170800FF303D00C400FF307C
:10212E00C3003117E401E30151173E00A401A301DE
:10213E0011173D00311751173E0011170800F50118
:10214E00F6017608803AF30080307302031DB12841
:10215E00043075020318C62800309E312B269031AC
:10216E000130F5070030F63D7608803AF3008030F6
:10217E007302031DC42804307502031CB328FF30FC
:10218E009E312B26903100309E312B26903100301F
:10219E009E312B26903100309E312B269031FF3010
:1021AE009E312B26903100309E312B2690310030FF
:1021BE009E312B26903100309E312B269031FF30F0
:1021CE009E312B26903100309E312B2690310030DF
:1021DE009E312B26903100309E312B269031FF30D0
:1021EE009E312B26903100309E312B2690310030BF
:1021FE009E312B26903100309E312B269031FF30B0
:10220E009E312B26903100309E312B26903100309E
:10221E009E312B26903100309E312B269031FF308F
:10222E009E312B26903100309E312B26903100307E
:10223E009E312B26903100309E312B269031FF306F
:10224E009E312B26903100309E312B26903100305E
:10225E009E312B26903100309E312B269031F70186
:10226E00F8017808803AF30080307302031D41298B
:10227E000430770203185629FF309E312B269031F9
:10228E000130F7070030F83D7808803AF3008030CF
:10229E007302031D542904307702031C4329D030E6
:1022AE00F400C930F300F30B5A29F40B5A2900320B
:1022BE000800F800F901FA017A08803AF600803039
:1022CE007602031D6C29043079020318812900302F
:1022DE009E312B2691310130F9070030FA3D7A08F4
:1022EE00803AF60080307602031D7F290430790291
:1022FE00031C6E2978089E312B26913175089E316C
:10230E002B26913174089E312B26913173089E3104
:10231E002B269131FF309E312B26913100309E318C
:10232E002B26913100309E312B26913100309E317B
:10233E002B269131FF309E312B26913100309E316C
:10234E002B26913100309E312B26913100309E315B
:10235E002B269131FF309E312B26913100309E314C
:10236E002B26913100309E312B26913100309E313B
:10237E002B269131FF309E312B26913100309E312C
:10238E002B26913100309E312B26913100309E311B
:10239E002B269131FF309E312B26913100309E310C
:1023AE002B26913100309E312B26913100309E31FB
:1023BE002B269131FF309E312B26913100309E31EC
:1023CE002B26913100309E312B26913100309E31DB
:1023DE002B269131FB01FC017C08803AF6008030FF
:1023EE007602031DFC2904307B020318112AFF30EC
:1023FE009E312B2691310130FB070030FC3D7C08CD
:10240E00803AF60080307602031D0F2A04307B02DC
:10241E00031CFE29D030F700C930F600F60B152A42
:10242E00F70B152A00320800F800F901FA017A08B4
:10243E00803AF60080307602031D272A0430790296
:10244E0003183C2A00309E312B2692310130F907B9
:10245E000030FA3D7A08803AF60080307602031D8D
:10246E003A2A04307902031C292AFF309E312B268A
:10247E00923100309E312B26923100309E312B2628
:10248E00923100309E312B26923178089E312B26C8
:10249E00923175089E312B26923174089E312B266F
:1024AE00923173089E312B269231FF309E312B26AE
:1024BE00923100309E312B26923100309E312B26E8
:1024CE00923100309E312B269231FF309E312B26D9
:1024DE00923100309E312B26923100309E312B26C8
:1024EE00923100309E312B269231FF309E312B26B9
:1024FE00923100309E312B26923100309E312B26A8
:10250E00923100309E312B269231FF309E312B2698
:10251E00923100309E312B26923100309E312B2687
:10252E00923100309E312B269231FF309E312B2678
:10253E00923100309E312B26923100309E312B2667
:10254E00923100309E312B269231FB01FC017C082A
:10255E00803AF60080307602031DB72A04307B02E3
:10256E000318CC2AFF309E312B2692310130FB0707
:10257E000030FC3D7C08803AF60080307602031D68
:10258E00CA2A04307B02031CB92AD030F700C930A6
:10259E00F600F60BD02AF70BD02A00320800F8000E
:1025AE00F901FA017A08803AF60080307602031DAE
:1025BE00E22A043079020318F72A00309E312B26C6
:1025CE0092310130F9070030FA3D7A08803AF60070
:1025DE0080307602031DF52A04307902031CE42AAA
:1025EE00FF309E312B26923100309E312B269231B8
:1025FE0000309E312B26923100309E312B269231A7
:10260E00FF309E312B26923100309E312B26923197
:10261E0000309E312B26923100309E312B26923186
:10262E0078089E312B26923175089E312B269231D9
:10263E0074089E312B26923173089E312B269231CF
:10264E00FF309E312B26923100309E312B26923157
:10265E0000309E312B26923100309E312B26923146
:10266E00FF309E312B26923100309E312B26923137
:10267E0000309E312B26923100309E312B26923126
:10268E00FF309E312B26923100309E312B26923117
:10269E0000309E312B26923100309E312B26923106
:1026AE00FF309E312B26923100309E312B269231F7
:1026BE0000309E312B26923100309E312B269231E6
:1026CE00FB01FC017C08803AF60080307602031D87
:1026DE00722B04307B020318872BFF309E312B2682
:1026EE0092310130FB070030FC3D7C08803AF60049
:1026FE0080307602031D852B04307B02031C742B65
:10270E00D030F700C930F600F60B8B2BF70B8B2B66
:10271E0000320800F800F901FA017A08803AF60052
:10272E0080307602031D9D2B043079020318B22BE4
:10273E0000309E312B2693310130F9070030FA3DDF
:10274E007A08803AF60080307602031DB02B0430F2
:10275E007902031C9F2BFF309E312B2693310030C4
:10276E009E312B26933100309E312B269331003033
:10277E009E312B269331FF309E312B269331003024
:10278E009E312B26933100309E312B269331003013
:10279E009E312B269331FF309E312B269331003004
:1027AE009E312B26933100309E312B2693310030F3
:1027BE009E312B26933178089E312B269331750846
:1027CE009E312B26933174089E312B26933173083C
:1027DE009E312B269331FF309E312B2693310030C4
:1027EE009E312B26933100309E312B2693310030B3
:1027FE009E312B269331FF309E312B2693310030A4
:10280E009E312B26933100309E312B269331003092
:10281E009E312B269331FF309E312B269331003083
:10282E009E312B26933100309E312B269331003072
:10283E009E312B269331FB01FC017C08803AF60079
:10284E0080307602031D2D2C04307B020318422C9F
:10285E00FF309E312B2693310130FB070030FC3DBB
:10286E007C08803AF60080307602031D402C04303E
:10287E007B02031C2F2CD030F700C930F600F60B6C
:10288E00462CF70B462C00320800F800F901FA012D
:10289E007A08803AF60080307602031D582C0430F8
:1028AE00790203186D2C00309E312B2694310130A5
:1028BE00F9070030FA3D7A08803AF6008030760249
:1028CE00031D6B2C04307902031C5A2CFF309E31F1
:1028DE002B26943100309E312B26943100309E31C0
:1028EE002B26943100309E312B269431FF309E31B1
:1028FE002B26943100309E312B26943100309E31A0
:10290E002B26943100309E312B269431FF309E3190
:10291E002B26943100309E312B26943100309E317F
:10292E002B26943100309E312B269431FF309E3170
:10293E002B26943100309E312B26943100309E315F
:10294E002B26943100309E312B26943178089E31FF
:10295E002B26943175089E312B26943174089E31A6
:10296E002B26943173089E312B269431FF309E31E5
:10297E002B26943100309E312B26943100309E311F
:10298E002B26943100309E312B269431FF309E3110
:10299E002B26943100309E312B26943100309E31FF
:1029AE002B26943100309E312B269431FB01FC01F5
:1029BE007C08803AF60080307602031DE82C043045
:1029CE007B020318FD2CFF309E312B2694310130F3
:1029DE00FB070030FC3D7C08803AF6008030760222
:1029EE00031DFB2C04307B02031CEA2CD030F700B5
:1029FE00C930F600F60B012DF70B012D0032080041
:102A0E00F800F901FA017A08803AF6008030760271
:102A1E00031D132D043079020318282D00309E312A
:102A2E002B2695310130F9070030FA3D7A08803AAD
:102A3E00F60080307602031D262D04307902031C29
:102A4E00152DFF309E312B26953100309E312B26D1
:102A5E00953100309E312B26953100309E312B263C
:102A6E009531FF309E312B26953100309E312B262D
:102A7E00953100309E312B26953100309E312B261C
:102A8E009531FF309E312B26953100309E312B260D
:102A9E00953100309E312B26953100309E312B26FC
:102AAE009531FF309E312B26953100309E312B26ED
:102ABE00953100309E312B26953100309E312B26DC
:102ACE009531FF309E312B26953100309E312B26CD
:102ADE00953100309E312B26953100309E312B26BC
:102AEE00953178089E312B26953175089E312B260F
:102AFE00953174089E312B26953173089E312B2605
:102B0E009531FF309E312B26953100309E312B268C
:102B1E00953100309E312B26953100309E312B267B
:102B2E009531FB01FC017C08803AF600803076027C
:102B3E00031DA32D04307B020318B82DFF309E31E8
:102B4E002B2695310130FB070030FC3D7C08803A86
:102B5E00F60080307602031DB62D04307B02031C76
:102B6E00A52DD030F700C930F600F60BBC2DF70BB3
:102B7E00BC2D00320800F800F901FA017A08803AFB
:102B8E00F60080307602031DCE2D04307902031834
:102B9E00E32D00309E312B2695310130F9070030A0
:102BAE00FA3D7A08803AF60080307602031DE12D58
:102BBE0004307902031CD02DFF309E312B26953127
:102BCE0000309E312B26953100309E312B269531CB
:102BDE0000309E312B269531FF309E312B269531BC
:102BEE0000309E312B26953100309E312B269531AB
:102BFE0000309E312B269531FF309E312B2695319C
:102C0E0000309E312B26953100309E312B2695318A
:102C1E0000309E312B269531FF309E312B2695317B
:102C2E0000309E312B26953100309E312B2695316A
:102C3E0000309E312B269531FF309E312B2695315B
:102C4E0000309E312B26953100309E312B2695314A
:102C5E0000309E312B269531FF309E312B2695313B
:102C6E0000309E312B26953100309E312B2695312A
:102C7E0000309E312B26953178089E312B269531CA
:102C8E0075089E312B26953174089E312B26953171
:102C9E0073089E312B269531FB01FC017C08803A8E
:102CAE00F60080307602031D5E2E04307B02031880
:102CBE00732EFF309E312B2695310130FB070030ED
:102CCE00FC3D7C08803AF60080307602031D712EA2
:102CDE0004307B02031C602ED030F700C930F600A2
:102CEE00F60B772EF70B772E003208002000BB0173
:102CFE00BC013C08803AB90080303902031D892E90
:102D0E0004303B0203189F2E00309E313B26963135
:102D1E0001302000BB070030BC3D3C08803AB900B2
:102D2E0080303902031D9D2E04303B02031C8B2E76
:102D3E00FF309E313B26963100309E313B26963138
:102D4E0000309E313B26963100309E313B26963127
:102D5E00FF309E313B26963100309E313B26963118
:102D6E0000309E313B26963100309E313B26963107
:102D7E00FF309E313B26963100309E313B269631F8
:102D8E0000309E313B26963100309E313B269631E7
:102D9E00FF309E313B26963100309E313B269631D8
:102DAE0000309E313B26963100309E313B269631C7
:102DBE00FF309E313B26963100309E313B269631B8
:102DCE0000309E313B26963100309E313B269631A7
:102DDE00FF309E313B26963100309E313B26963198
:102DEE0000309E313B26963100309E313B26963187
:102DFE00FF309E313B26963100309E313B26963178
:102E0E0000309E313B26963100309E313B26963166
:102E1E002000BD01BE013E08803AB9008030390263
:102E2E00031D1B2F04303D020318312FFF309E313E
:102E3E003B26963101302000BD070030BE3D3E08D6
:102E4E00803AB90080303902031D2F2F04303D0225
:102E5E00031C1D2FD0302000BA00C930B900B90BA9
:102E6E00362FBA0B362F003208002000BE00BF01ED
:102E7E00C0014008803ABC0080303C02031D492F3F
:102E8E0004303F0203185F2F00309E313B269731EE
:102E9E0001302000BF070030C03D4008803ABC0022
:102EAE0080303C02031D5D2F04303F02031C4B2F6C
:102EBE0020003E089E313B26973120003B089E3174
:102ECE003B26973120003A089E313B269731200051
:102EDE0039089E313B269731FF309E313B26973184
:102EEE0000309E313B26973100309E313B26973184
:102EFE0000309E313B269731FF309E313B26973175
:102F0E0000309E313B26973100309E313B26973163
:102F1E0000309E313B269731FF309E313B26973154
:102F2E0000309E313B26973100309E313B26973143
:102F3E0000309E313B269731FF309E313B26973134
:102F4E0000309E313B26973100309E313B26973123
:102F5E0000309E313B269731FF309E313B26973114
:102F6E0000309E313B26973100309E313B26973103
:102F7E0000309E313B269731FF309E313B269731F4
:102F8E0000309E313B26973100309E313B269731E3
:102F9E0000309E313B2697312000C101C20142080C
:102FAE00803ABC0080303C02031DDF2F043041020A
:102FBE000318F52FFF309E313B269731013020004C
:102FCE00C1070030C23D4208803ABC0080303C024E
:102FDE00031DF32F04304102031CE12FD0302000DB
:102FEE00BD00C930BC00BC0BFA2FBD0BFA2F00324E
:022FFE000800C9
:103C3800D8308B002700110812389100120810386C
:103C4800920031302000980021000C160800F20084
:103C580024001108F0007008F100200091112400E0
:103C6800951372089100200091190800372E200042
:103C7800B800240011082000B6003608B7009111DA
:103C88002400951320003808240091002000911981
:103C980008004A2E2000B7008731F7279E31003AE6
:103CA8000319652E20003708860087018101370A2D
:103CB8008600870181013708023E8600870181015D
:103CC800080020003708860087018101370A86002E
:103CD800870181010A30B6003708023E8600870155
:103CE8003608810008002000B9003908031D8D2E10
:103CF8008D110730B8001730B7006F30B600B60B1B
:103D0800832EB70B832EB80B832E000020008D1551
:103D180008003903031D08000D110730B8001730DB
:103D2800B7006F30B600B60B972EB70B972EB80BAF
:103D3800972E000020000D15080023008C018D012E
:103D480022000D158D1520000D158D1524000D155B
:103D58008D15F8302000B60036082100990405308A
:103D68002000B8000F30B700F430B600B60BBA2EFA
:103D7800B70BBA2EB80BBA2EF3302000B6003608AF
:103D880021008D0520000D158D150D198D1D0100C3
:103D98008B17080020005908031D0F2F3D00C40190
:103DA800C3013117E401E3015117FF303E00A400BD
:103DB800FF30A30011173D00311751173E001117AE
:103DC8001530F2004B30F100D130F000F00BEA2E44
:103DD800F10BEA2EF20BEA2E00003D00C401C301EC
:103DE8003117E401E30151173E00A401A3011117A3
:103DF8003D00311751173E0011171530F2004B30B6
:103E0800F100D130F000F00B072FF10B072FF20B68
:103E1800072F0000CE2E0B3059020318262F3D0025
:103E2800C401C3013117E401E3015117FF303E001B
:103E3800A400FF30A30011173D00311751173E00B1
:103E4800111708000B3020005902031C432F2330A0
:103E580059020318432FFF303D00C400FF30C30050
:103E68003117E401E3015117FF303E00A400A3011C
:103E780011173D00311751173E0011170800FF3088
:103E88003D00C400FF30C3003117E401E3015117BE
:103E98003E00A401A30111173D00311751173E0040
:103EA800111708008F302000BF003F0821008E0541
:103EB8008D138D123D00B101B201B301B401B601F9
:103EC800B701B801B9010130BA000130BB000130B7
:103ED800BC00BD010130BE00BF01C201C1010130FB
:103EE800C400F430C3000330C600E730C500C90180
:103EF800CA01CD01CB01CC010130CE00CF01C001F8
:103F08000130B5008030B100DD302000BF003F082F
:103F18002100940514083D00D101D2010230D300DC
:103F2800D401D601D701D801D9010130DA00013016
:103F3800DB000130DC00DD010130DE00DF01E201E1
:103F4800E1010130E400F430E3000330E600E7303B
:103F5800E500E901EA01ED01EB01EC010130EE00B9
:103F6800EF01E0010130D5008030D100BB302000E6
:103F7800BF003F082100940514083E0091019201FA
:103F8800023093009401960197019801990101303C
:103F98009A0001309B0001309C009D0102309E0078
:103FA8009F01A201A1010130A400F430A300033055
:103FB800A600E730A500A901AA01AD01AB01AC013B
:103FC8000230AE00AF01A0010230950080309100B0
:103FD80077302000BF003F08210094051408240012
:103FE80095122030950022001D169D169D1524005F
:103FF800951696317D2608000034103418340C3498
:10400800E83413340A340D3447346F346F3464346D
:1040180020346A346F3462342E34203459346F3487
:10402800753420346B346E346F347734203468340C
:104038006F347734203474346F34203472346534F8
:1040480061346434203469346E34733474347234B3
:1040580075346334743469346F346E3473342E3485
:104068000A340A34003450346C346534613473349F
:104078006534203465346E347434653472342034D5
:104088007434683465342034633468346134723489
:1040980061346334743465347234203441343A34CE
:1040A800203400340A340D34573472346F346E348B
:1040B800673420346B34653479342E3420345434E6
:1040C80072347934203461346734613469346E343D
:1040D8002E340A340D3400340A340D344D3461342E
:1040E80069346E3420344C346F346F347034203477
:1040F80049346E34643469347634693464347534DC
:0A41080061346C340A340D340034C5
:020000040001F9
:04000E00E4F9FFDE34
:00000001FF
