:0400000081315629CB
:100008007E14803120007F08BF00960197012700E9
:10001800131E5129EF302000BE003E08270093052B
:1000280020000C1E20280A30200017027630031901
:100038001602031851291428960197010C1A2C2826
:100048000A3017027630031916020318512922289C
:10005800960197010C1E38280A30170276300319CA
:100068001602031851292E281708C7001608C600BB
:10007800960197010C1A48280A301702763003199E
:100088001602031851293E28960197010C1E542880
:100098000A301702763003191602031851294A2824
:1000A8001708C9001608C800CD30A0008C30A10080
:1000B8003F30A2004908F9004808F8008531C825F2
:1000C800803178082000A3007908A4007A08A500E8
:1000D8008231B222803120002008B0002108B1000E
:1000E8002208B2004708F9004608F8008531C825FB
:1000F800803178082000B3007908B4007A08B50088
:10010800853125258031031C5129CD302000A000E0
:100118008C30A1003F30A2004708F9004608F800DB
:100128008531C825803178082000A3007908A4000B
:100138007A08A5008231B222803120002008B00060
:100148002108B1002208B2004908F9004808F8005F
:100158008531C825803178082000B3007908B400BB
:100168007A08B500853125258031031C51290230D4
:10017800F0000030F100200048084607F200490866
:10018800473DF3008431D424803171082000CB002E
:100198007008CA004B08F9004A08F8008531C825DC
:1001A800803178082000A3007908A4007A08A50007
:1001B800CD30A0008E30A1004130A2008231B222A1
:1001C800803120002008B0002108B1002208B200C8
:1001D80083316623803120003108CD003008CC00FF
:1001E8004D08803ABE0097303E02031DFD2870304E
:1001F8004C02031C122920004D08803ABE009D3095
:100208003E02031D09294C304C0203181229200014
:100218004F08031951290130CF02512920004D08F8
:10022800803ABE00A7303E02031D1C2910304C0244
:10023800031C342920004D08803ABE00AE303E022F
:10024800031D2829E0304C020318342932302000DD
:100258004F02031851290130BE003E08CF0751292B
:1002680020004D08803ABE00B2303E02031D3E29F0
:10027800C8304C02031C512920004D08803ABE00AA
:10028800BA303E02031D4A2998304C0203185129FE
:1002980001302000BE003E08CE0720003F08FF00C6
:1002A8007E10090081315829C601C701C801C9015A
:1002B800CA01CB01CC01CD01CE012100AB01AC01BB
:1002C800AD01200086311426CF007E102000853134
:1002D8009A2D2100A6002608031DDB29A001A101F3
:1002E8002108803A2000C10080304102031D7F2987
:1002F800400821002002031808003D009216ED3046
:100308002000C10000320000C10B862900003D001A
:1003180092121A302000C200F830C100C10B922995
:10032800C20B922900003D00921604302000C20042
:10033800B430C100C10B9E29C20B9E2900003D00AC
:10034800921219302000C2001B30C100C10BAA292B
:10035800C20BAA2900323D00921604302000C200C8
:10036800B430C100C10BB629C20BB62900003D004C
:10037800921219302000C2001B30C100C10BC229E3
:10038800C20BC22900323D0092161C302000C20068
:10039800D130C100C10BCE29C20BCE2900323D009D
:1003A800921201302100A0070030A13D74292100DC
:1003B8002603031D482AA201A3012308803A20002E
:1003C800C10080304102031DEC29400821002202AF
:1003D800031808003D009216ED302000C1000032DD
:1003E8000000C10BF32900003D0092121A302000D2
:1003F800C200F830C100C10BFF29C20BFF29000061
:100408003D00921606302000C2008D30C100C10B9D
:100418000B2AC20B0B2A00323D0092121730200023
:10042800C2004230C100C10B172AC20B172A0000B4
:100438003D00921606302000C2008D30C100C10B6D
:10044800232AC20B232A00323D00921217302000C3
:10045800C2004230C100C10B2F2AC20B2F2A000054
:100468003D0092161C302000C200D130C100C10BE3
:100478003B2AC20B3B2A00323D0092120130210078
:10048800A2070030A33DE1292100A401A501250808
:10049800803A2000C10080304102031D562A4008DE
:1004A80021002402031808003D009216ED302000B8
:1004B800C10000320000C10B5D2A00003D0092120D
:1004C8001A302000C200F830C100C10B692AC20BE3
:1004D800692A00003D00921608302000C2006930E9
:1004E800C100C10B752AC20B752A00323D00921259
:1004F80015302000C2006630C100C10B812AC20B32
:10050800812A00003D00921608302000C2006930A0
:10051800C100C10B8D2AC20B8D2A00323D009212F8
:1005280015302000C2006630C100C10B992AC20BE9
:10053800992A00003D0092161C302000C200D130DC
:10054800C100C10BA52AC20BA52A00323D00921298
:1005580001302100A4070030A53D4B2A20002008C7
:10056800A6002108A7002208A8000310270D280DBF
:10057800A9002908AA002A08031DC92A0030A000DA
:100588000030A1000030A20008002308A6002408BB
:10059800A7002508A8000310270D280DA900290881
:1005A800AF002F08031DDF2A0030A0000030A10093
:1005B8000030A20008002F087B3EA6002608AA07E4
:1005C8002008A6002108A7002208A8001030A83695
:1005D800A70CA60C890BEB2A2608A9002908AF004E
:1005E8002308A6002408A7002508A8001030A8366C
:1005F800A70CA60C890BFB2A2608A9002908AF0618
:100608008030A6002608AF05A117A417FF30A30560
:10061800FF30A4050030A5050030AB000030AC0069
:100628000030AD000730A6002608AE00201C222BA3
:100638002308AB072408AC3D2508AD3D0130A236A0
:10064800A10CA00C890B232B0130A335A40DA50DFB
:10065800890B292B0130AE02031D1A2B0930A60085
:100668002608AE00201C3E2B2308AB072408AC3D0F
:100678002508AD3D0130A236A10CA00C890B3F2BFB
:100688000130AD36AC0CAB0C890B452B0130AE02FA
:10069800031D362B2B08F0002C08F1002D08F20062
:1006A8002A08A6002608F3002F08A7002708F40048
:1006B8008431702470082000A0007108A10072081D
:1006C800A200080020003008B4003108B500320844
:1006D800B6000310350D360DB7003708BD003D08CC
:1006E800031D7F2B0030B3000030B2000030B10092
:1006F8000030B00008003008B4003108B5003208F6
:10070800B6001730B636B50CB40C890B862B3408F6
:10071800B7003708B800B117FF30B005FF30B10592
:100728000030B2053008B9003108BA003208BB0001
:10073800BC018E30BD02BD1FBD2B3D08803A8F3EE7
:100748000318AF2B0030B3000030B2000030B10006
:100758000030B00008000130BC36BB0CBA0CB90C34
:10076800890BB02B0130B4003408BD070319D62B10
:10077800AF2B18303D02031CD32B0030B3000030E0
:10078800B2000030B1000030B00008000130B935C7
:10079800BA0DBB0DBC0D890BCB2B0130BD023D083A
:1007A800031DCA2B38080319E42BB909BA09BB0978
:1007B800BC09B90A0319BA0A0319BB0A0319BC0A06
:1007C8003C08B3003B08B2003A08B1003908B00051
:1007D80008000A340D3447346F346F3464342034DD
:1007E8006A346F3462342E34203459346F3475349B
:1007F80020346B346E346F347734203468346F347B
:100808007734203474346F3420347234653461346E
:100818006434203469346E34733474347234753407
:100828006334743469346F346E3473342E340A3458
:100838000A34003450346C346534613473346534AC
:10084800203465346E34743465347234203474342E
:100858006834653420346334683461347234613404
:100868006334743465347234203441343A34203477
:1008780000340A340D34573472346F346E346734AC
:1008880020346B34653479342E3420345434723443
:100898007934203461346734613469346E342E34E9
:1008A8000A340D3400340A340D344D34613469345B
:1008B8006E3420344C346F346F34703420344934FF
:1008C8006E3464346934763469346434753461342C
:1008D8006C340A340D34003473080319782C720808
:1008E80071047004031D892C0030F0000030F10001
:1008F8000030F20008000130F5007508F3070130F8
:10090800F236F10CF00C890B842CFE3072050319B9
:10091800A22C7F2C0130F5007508F3070130F00791
:10092800003003180130F107003003180130F207D6
:100938000130F236F10CF00C890B9D2CFF3072055A
:100948000319AF2C8E2C0130F3020130F035F10D74
:10095800F20D890BAA2CF11BB52C02307302031877
:10096800A72C7318BD2CFF30F0057F30F105FF3040
:10097800F2050310F30C7308F500F601F7011030C7
:10098800F535F60DF70D890BC42C7508F0047608BB
:10099800F1047708F204740803190800F217080034
:1009A800F601F11FDE2CF009F109F00A0319F10A2A
:1009B800F601F60AF31FE92CF209F309F20A031902
:1009C800F30A0130F4007408F606F701F80170081C
:1009D80071040319182DF501F50AF11BFD2C0130DE
:1009E800F035F10D890BF42C0130F4007408F5078B
:1009F800F12C0130F735F80D890BFE2C71087302C4
:100A0800031D082D70087202031C0F2D7008F202D6
:100A18007108F33B77140130F136F00C890B102D77
:100A28000130F502031DFD2C76080319202DF70966
:100A3800F809F70A0319F80A7808F1007708F000AE
:100A480008002000B21F3C2D3009B6003109B7005C
:100A58003209B800B60A0319B70A0319B80A0030F0
:100A68003607B0000030373DB1008030383DB20065
:100A7800B51F522D3309B6003409B7003509B8003F
:100A8800B60A0319B70A0319B80A00303607B300C3
:100A98000030373DB4008030383DB5008030B206B4
:100AA8008030B50635083202031D080034083102CB
:100AB800031D0800330830020800F7302000C0008A
:100AC800400821008E053D0091018030920093017D
:100AD8009401960197019801990101309A0001301B
:100AE8009B0001309C009D0108309E009F01A201DF
:100AF800A1010130A4006A30A3000230A6003A30F8
:100B0800A500A901AA01AD01AB01AC010830AE00F6
:100B1800AF01A0010830950080309100EE30200030
:100B2800C0004008210094051408080021002B0883
:100B3800A7002C08A8002D08A900AA018531F725CF
:100B4800853105302000C5000F30C400F430C300E3
:100B5800C30BAC2DC40BAC2DC50BAC2D8531612559
:100B6800853186310D2685318531E82585318631F7
:100B78000526853105302000C3004308C000003039
:100B880081316D218531BB2DFD01F91FD22DF80969
:100B9800F909F80A0319F90AFD01FD0A7808F000B5
:100BA8007908F100F2018E30FB007B08F3007D0824
:100BB800FC007C08F400843170247008F800710887
:100BC800F9007208FA000800D8308B0027001108D5
:100BD8001038910012081038920031302000980027
:100BE80021000C16080023008C018D01F330210030
:100BF8008D00F8302000C0004008210099048B17B0
:100C0800080020004F08031D0B2E0E1608000E12B8
:100C180008008F302000C000400821008E05080021
:020C2800053491
:020000040001F9
:04000E00E4F9FFDE34
:00000001FF
