:08000000803102288731F42F42
:100180000800323420003B0808002000911EC528DA
:10019000230019080800F0012000911ECC2823003C
:1001A00019080800F00023009E1CD32870089A004C
:1001B0000800F2302000A0008A30A1008131FE2129
:1001C00008009F302000A0008B30A1008131FE216B
:1001D00008008B302000A0008B30A1008131FE216F
:1001E0000800F830F000700821009904F730F000A2
:1001F00070088D058B1708008031CB208031F1000D
:100200007108F20073307206031D082901300800DE
:10021000720808008730F000700821008E058E17E4
:10022000333023009B001E119F111E129D179E1636
:100230001D162100911608002000AE002E08031D97
:1002400028293130A0008930A1008131FE21080029
:1002500020002E03031D0800B530A0008930A10046
:100260008131FE2108002000AE002E08031D3F2929
:100270009430A0008A30A1008131FE2108002000C6
:100280002E03031D08007230A0008A30A1008131C6
:10029000FE210800F1000530F0007108860087019A
:1002A000700881000A30F000710A8600870170082A
:1002B00081000F30F0007108023E8600870170084F
:1002C000810008007808790403198929FD01FD0AD5
:1002D000F91B74290130F835F90D890B6B290130B0
:1002E000FC007C08FD07682979087B02031D7A2938
:1002F00078087A02031C80297808FA027908FB3B07
:100300000130F936F80C890B81290130FD02031DFB
:1003100074297B08F9007A08F8000800F501F60155
:10032000700871040319BD29F701F70AF11BA2290E
:100330000130F035F10D890B99290130F400740872
:10034000F70796290130F535F60D890BA3297108B9
:100350007302031DAD2970087202031CB4297008D2
:10036000F2027108F33B75140130F136F00C890B81
:10037000B5290130F702031DA2297608F10075089E
:10038000F00008004E302000A0008A30A10081312A
:10039000FE2181313D0091018030920093010130B6
:1003A00094009601970180309800803099000130C8
:1003B0009A0001309B0001309C009D0110309E008E
:1003C0009F01A201A1010230A4003030A30004303B
:1003D000A6007630A500A901AA01AD01AB01AC01D0
:1003E000AE01AF01A00195018A309100EE302000EE
:1003F000AE002E08210094051408080022302000C9
:10040000A4002408A80020002108A5002008A400BA
:10041000A00A0319A10A2408840025088500000801
:10042000A6002608AD002D080319080025302D066A
:1004300003191F2A2D088031D2208131032A200080
:10044000A9012108A5002008A400A00A0319A10AF7
:1004500024088400250885000008AD00003A03192F
:10046000B42A643A0319382A0D3A0319382A032AA0
:10047000280886008701403FAB00413FAC000230B6
:10048000A4002408A807AC1F4E2A0330A4002408A7
:10049000A904AB09AC09AB0A0319AC0AAD01AD0A5A
:1004A00005302D060319732A2D08A400A501A435D3
:1004B000A50D0030240784008830253D8500003FCD
:1004C000A600013FA70027082C02031D692A260861
:1004D0002B02031C732A0130A4002408AD07053049
:1004E0002D06031D542A2908033903197B2A2D30B0
:1004F0008031D220813120002D08A4002408AA00D8
:10050000FF302000A4002408AA072A0A0319032A9E
:100510000A30F8000030F9002A08A400A501A4352B
:10052000A50D0030240784008830253D8500003F5C
:10053000F000013FF1002C08F3002B08F20081319C
:100540008E2181317108FB007008FA00813162212F
:1005500081317808303E2000A6002608AD002D0825
:100560008031D2208131802A0800F9007908031DEA
:10057000182BF301F4017408803AF1008030710205
:10058000031DC42A70087302031808003D00921668
:10059000ED30F10000320000F10BCA2A00003D00EE
:1005A00092121A30F200F830F100F10BD52AF20B5A
:1005B000D52A00003D0092160430F200B430F1005C
:1005C000F10BE02AF20BE02A00003D0092121930F4
:1005D000F2001B30F100F10BEB2AF20BEB2A003298
:1005E0003D0092160430F200B430F100F10BF62A0F
:1005F000F20BF62A00003D0092121930F2001B3077
:10060000F100F10B012BF20B012B00323D00921691
:100610001C30F200D130F100F10B0C2BF20B0C2B43
:1006200000323D0092120130F3070030F43DBB2A46
:100630007903031D7A2BF501F6017608803AF10063
:1006400080307102031D262B700875020318080004
:100650003D009216ED30F10000320000F10B2C2B22
:1006600000003D0092121A30F200F830F100F10B58
:10067000372BF20B372B00003D0092160630F200AC
:100680008D30F100F10B422BF20B422B00323D007A
:1006900092121730F2004230F100F10B4D2BF20BA9
:1006A0004D2B00003D0092160630F2008D30F10017
:1006B000F10B582BF20B582B00323D0092121730E1
:1006C000F2004230F100F10B632BF20B632B0000C0
:1006D0003D0092161C30F200D130F100F10B6E2B70
:1006E000F20B6E2B00323D0092120130F507003004
:1006F000F63D1D2BF701F8017808803AF1008030B3
:100700007102031D852B70087702031808003D0055
:100710009216ED30F10000320000F10B8B2B00003F
:100720003D0092121A30F200F830F100F10B962BD6
:10073000F20B962B00003D0092160830F200693053
:10074000F100F10BA12BF20BA12B00323D00921214
:100750001530F2006630F100F10BAC2BF20BAC2B34
:1007600000003D0092160830F2006930F100F10BF4
:10077000B72BF20BB72B00323D0092121530F2006E
:100780006630F100F10BC22BF20BC22B00003D00D2
:1007900092161C30F200D130F100F10BCD2BF20B90
:1007A000CD2B00323D0092120130F7070030F83DAA
:1007B0007C2B20003708B2003808B3003908B40099
:1007C0002030AF002F08B600B5018031F120833111
:1007D00081310A21833105302000B1000F30B00093
:1007E000F430AF00AF0BF22BB00BF22BB10BF22BAE
:1007F00020008D158D30A0008830A1008131FE21B0
:1008000083318131C22183318031D92083318031DC
:10081000E92083318031E12083314C302000A00079
:100820008830A1008131FE21833105302000A000F5
:100830008A30482C62303606031D272CC830A000B1
:100840008B30A1008131FE2183310230402C643095
:100850003606031D342CCC30A0008B30A100813132
:10086000FE2183310330402C67303606031D452CB2
:10087000D030A0008B30A1008131FE2183310430C3
:100880002000AF002F08BA00612C0F30A0008B3081
:10089000A1008131FE2183318031C52083312000C8
:1008A000AF002F08B60061303606031D1A2CC43085
:1008B000A0008B30A1008131FE2183312000BA01DC
:1008C000BA0ADF302000A0008930772C6E3036065F
:1008D000031D742CD430A0008B30A1008131FE2187
:1008E00083312000BB01902C0F30A0008B30A10081
:1008F0008131FE2183318031C52083312000AF005A
:100900002F08B60079303606031D662CD830A000BB
:100910008B30A1008131FE2183312000BB01BB0A55
:10092000CB302000A0008830A1008131FE2183312E
:100930000A302000A0008830A1008131FE218331DF
:100940002A302000A0008A30A1008131FE218331AD
:1009500020003A03031D962D2F2D0130742D643095
:1009600020003606031DCF2C8031C2208331003A8F
:10097000031DCF2C20003D080319C02C0A30BD02F6
:100980006030A0008930A1003D08AF00B0012F0801
:10099000A2003008A3008131FE218331772D683019
:1009A00020003606031DF22C8031C2208331003A2C
:1009B000031DF22C323020003D020318E32C0A30D4
:1009C000AF002F08BD078B30A0008930A1003D0883
:1009D000AF00B0012F08A2003008A3008131FE2132
:1009E0008331772D743020003606031D0A2D8031A7
:1009F000C2208331003A031D0A2D0A302000AF00C7
:100A00002F08BC07D430A0008A30A1008131FE211C
:100A10008331772D6F3020003606031D2A2D80315B
:100A2000C2208331003A031D202D2000BB01BB0AE8
:100A30007530A0008B30A1008131FE218331772DEC
:100A40002000BB015E30A0008B30A1008131FE216F
:100A50008331772D20302000AF002F08B6003230D0
:100A60008031C02083318031FC2083312000AF00F1
:100A70002F08B6003603031DAF2C3D080319AF2C19
:100A8000B230A0008B30A1008131FE218331803152
:100A9000C2208331003A031DAD2C323081314A210E
:100AA00083312000B501033035020318732D35085A
:100AB000323E86008701010803196A2D3508323E4F
:100AC000860087010108AF002F08F0003508823149
:100AD000B522833101302000AF002F08B507033065
:100AE0003502031C572D003081311C2183318B13BB
:100AF0008B2D8B1705302000B1000F30B000F43083
:100B0000AF00AF0B812DB00B812DB10B812D8B135D
:100B100001302000BC0220003C080319952D8031D3
:100B2000C2208331003A0319792D8B17023020003F
:100B30003A06031D132EC72D013081313321833135
:100B40000130102E6F3020003606031DC22D80317B
:100B5000C2208331003A031DB82D2000BB01BB0A1F
:100B60007530A0008B30A1008131FE218331132E1E
:100B70002000BB015E30A0008B30A1008131FE213E
:100B80008331132E20302000AF002F08B600323002
:100B90008031C02083318031FC2083312000AF00C0
:100BA0002F08B6003603031DA22D3D080319A22D00
:100BB000B230A0008B30A1008131FE218331803121
:100BC000C2208331003A031D9C2D323081314A21ED
:100BD00083312000B5010330350203180B2E350890
:100BE000323E8600870101080319022E3508323E85
:100BF000860087010108AF002F08F0003508823118
:100C0000B522833101302000AF002F08B507033033
:100C10003502031CEF2D0030813133218331003048
:100C200081311C21833120003603031D012F3D0833
:100C30000319012F9D2E0130DF2E6430200036066F
:100C4000031D3D2E8031C2208331003A031D3D2E0D
:100C500020003D0803192E2E0A30BD026030A0008E
:100C60008930A1003D08AF00B0012F08A200300874
:100C7000A3008131FE218331E22E68302000360648
:100C8000031D602E8031C2208331003A031D602E87
:100C9000323020003D020318512E0A30AF002F08D9
:100CA000BD078B30A0008930A1003D08AF00B00126
:100CB0002F08A2003008A3008131FE218331E22EEB
:100CC000743020003606031D782E8031C220833117
:100CD000003A031D782E0A302000AF002F08BC0711
:100CE000D430A0008A30A1008131FE218331E22E70
:100CF0006F3020003606031D982E8031C2208331CC
:100D0000003A031D8E2E2000BB01BB0A7530A000E7
:100D10008B30A1008131FE218331E22E2000BB0106
:100D20005E30A0008B30A1008131FE218331E22EA4
:100D300020302000AF002F08B60032308031C020B4
:100D400083318031FC2083312000AF002F08B600B2
:100D50003603031D1D2EB230A0008B30A10081315F
:100D6000FE218331323081314A2183312000B501A7
:100D7000033035020318D82E3508323E860087012D
:100D800001080319CF2E3508323E8600870101087D
:100D9000AF002F08F00035088231B52283310130D1
:100DA0002000AF002F08B50703303502031CBC2E0E
:100DB0008031C2208331003A031D1B2E0030813167
:100DC0001C2183318B13F62E8B1705302000B100C8
:100DD0000F30B000F430AF00AF0BEC2EB00BEC2EA8
:100DE000B10BEC2E8B1301302000BC0220003C081C
:100DF0000319002F8031C2208331003A0319E42EF9
:100E00008B1720003603031DEF2F3D080319EF2F2A
:100E10008B2F0130CD2F643020003606031D2B2F81
:100E20008031C2208331003A031D2B2F20003D0862
:100E300003191C2F0A30BD026030A0008930A100C8
:100E40003D08AF00B0012F08A2003008A300813197
:100E5000FE218331D02F683020003606031D4E2F2F
:100E60008031C2208331003A031D4E2F32302000E2
:100E70003D0203183F2F0A30AF002F08BD078B300B
:100E8000A0008930A1003D08AF00B0012F08A200EA
:100E90003008A3008131FE218331D02F743020002F
:100EA0003606031D662F8031C2208331003A031DB0
:100EB000662F0A302000AF002F08BC07D430A000F6
:100EC0008A30A1008131FE218331D02F6F30200084
:100ED0003606031D862F8031C2208331003A031D60
:100EE0007C2F2000BB01BB0A7530A0008B30A10015
:100EF0008131FE218331D02F2000BB015E30A00064
:100F00008B30A1008131FE218331D02F2030200091
:100F1000AF002F08B60032308031C02083318031DD
:100F2000FC2083312000AF002F08B6003603031DDC
:100F30000B2FB230A0008B30A1008131FE21833114
:100F40008031C2208331003A031D092F32308131B4
:100F50004A2183312000B501033035020318CC2F1C
:100F60003508323E8600870101080319C32F350872
:100F7000323E860087010108AF002F08F0003508D7
:100F80008231B522833101302000AF002F08B50730
:100F900003303502031CB02F003081311C21833116
:100FA0008B13E42F8B1705302000B1000F30B000F9
:100FB000F430AF00AF0BDA2FB00BDA2FB10BDA2F12
:100FC0008B1301302000BC0220003C080319EE2FD7
:100FD0008031C2208331003A0319D22F8B174B3056
:100FE0002000A0008A30A42CB701B801B901BA01D1
:100FF000BB01BC018031C120BD0020008331D92B51
:10100000013400340A34003464340034E8340334E6
:1010100010342734503472346534733473342034CC
:101020002734643427342C3420342734683427346C
:101030002C3420346F347234203427347434273401
:10104000203474346F342034733465346E34643433
:101050002034643461346D346134673465342C3445
:1010600020346834653461346C34743468342C341E
:1010700020346F34723420347334743475346E34E5
:1010800020347034613463346B34653474347334B5
:101090002E340A340D3400340A340D345734683495
:1010A000693463346834203462346C3461346434B9
:1010B0006534203477346F3475346C3464342034C0
:1010C00079346F34753420346C3469346B3465345E
:1010D000203474346F34203474346534733474348D
:1010E0003F34203445346E347434653472342034E3
:1010F0006134203466346F347234203441346C34BB
:101100007034683461342C342034623420346634D2
:101110006F3472340A340D3400340A340D343D34E3
:101120003D343D343D343D343D343D343D343D3437
:101130003D343D343D343D343D343D343D343D3427
:101140003D343D343D343D343D343D343D343D3417
:101150003D343D343D343D343D343D343D343D3407
:101160003D343D343D343D343D343D343D343D34F7
:101170003D343D343D343D343D343D343D343D34E7
:101180003D343D343D343D343D343D343D343D34D7
:101190000A340D340034503472346534733473348B
:1011A0002034273473342734203474346F3420349B
:1011B0007334773469346E3467342034743468346B
:1011C00065342034733477346F34723464342034AB
:1011D00061346E34643420347334653465342034BF
:1011E0007734683461347434203468346134703452
:1011F000703465346E34733421340A340D34003461
:101200000A340D3447346F346F34643420346A3414
:101210006F3462342E34203459346F3475342034B2
:101220006B346E346F347734203468346F347734F1
:10123000203474346F34203472346534613464344F
:10124000203469346E3473347434723475346334D6
:10125000743469346F346E3473342E340A340A347F
:10126000003444346934733470346C346134793408
:1012700065346434203469346E34643469347634CB
:1012800069346434753461346C34203473347734A5
:101290006F347234643420347334773469346E3488
:1012A000673420346C3469346734683474342034DF
:1012B000733468346F3477342E340A340D34003488
:1012C000543468346534203462346C3461346434AA
:1012D00065342034683461347334203462346534C6
:1012E00065346E342034643461346D346134673471
:1012F000653464342E3420344834653461346C34BD
:101300007434683420343D342034253464342E342D
:101310000A340D3400345434683465342034623473
:101320006C3461346434653420346834613473342B
:1013300020346234653465346E3420346834653466
:1013400061346C34653464342E342034483465346C
:1013500061346C347434683420343D3420342534A2
:1013600064342E340A340D34003444346934733414
:1013700070346C34613479346534643420344F34DF
:101380006D34653467346134203462346C346134D4
:101390006434653420347334773469346E3467349C
:1013A00020346C34693467346834743420347334D2
:1013B00068346F3477342E340A340D3400344134B9
:1013C00072346534203474346834653420346234C3
:1013D0006C346134643465347334203469346E346D
:1013E00020346F346D3465346734613420346D34A7
:1013F0006F34643465343F342034283479342F34E6
:101400006E3429340A340D34003442346534743473
:1014100061342C3420346434203466346F347234B4
:101420002034443465346C34743461342C342034C6
:101430006F34723420346734203466346F3472343D
:101440002034473461346D346D3461342E340A34C1
:101450000D340034503472346534733473342034B2
:1014600027346F342734203474346F342034743488
:101470006F34673467346C34653420344F346D34E2
:1014800065346734613420346D346F3464346534CA
:101490002E340A340D340A340D34003449346E3499
:1014A00069347434693461346C3469347A34653441
:1014B00064342034493452342034733465346E3407
:1014C00064342F347234653463346534693476346B
:1014D0006534203463346F34643465342E340A3414
:1014E0000D34003450346C346134793465346434F0
:1014F00020344F346D3465346734613420346234C1
:101500006C34613464346534203473347734693432
:101510006E346734203473346F3475346E3464340D
:101520002E340A340D34003450346C346134793440
:101530006534643420344234653474346134203486
:1015400062346C34613464346534203473347734F9
:1015500069346E346734203473346F3475346E34C8
:1015600064342E340A340D34003450346C34653411
:10157000613473346534203465346E3474346534C6
:1015800072342034743468346534203463346834FD
:1015900061347234613463347434653472342034A9
:1015A00041343A34203400345434683465342034BF
:1015B00062346C34613464346534203468346134AA
:1015C000733420346234653465346E3420347334BB
:1015D000743475346E346E34653464342E340A34A5
:1015E0000D34003449346E346934743469346134F0
:1015F0006C3469347A34653464342034613463344F
:10160000633465346C34653472346F346D346534EE
:101610007434653472342E340A340D340034493451
:101620006E34763461346C34693464342034693413
:101630006E347034753474342E342034543472342F
:101640007934203461346734613469346E342E3433
:101650000A340D3400340A340D34573472346F3484
:101660006E34673420346B34653479342E3420344E
:1016700054347234793420346134673461346934D9
:101680006E342E340A340D3400340A340D344D34A3
:10169000613469346E3420344C346F346F347034B8
:1016A000203449346E3464346934763469346434B3
:1016B000753461346C340A340D3400344F346D3475
:1016C00065346734613420346D346F346434653488
:1016D0002034643469347334613462346C34653476
:1016E00064342E340A340D3400344F346D34653490
:1016F0006734613420346D346F346434653420349D
:1017000065346E34613462346C34653464342E3440
:101710000A340D34003449346E3469347434693415
:1017200061346C3469347A346534643420344C3434
:101730004534443473342E340A340D34003449347F
:101740006E3469347434693461346C3469347A3495
:101750006534643420344934533452342E340A34DA
:101760000D340034533477346F347234643420349D
:1017700077346134733420347334773475346E3491
:1017800067340A340D34003431340A340D340034F3
:1017900032340A340D34003433340A340D34003416
:1017A00034340A340D3400346E340A340D340034C9
:0817B00079340A340D340034D1
:020000040001F9
:04000E00E4F9FFDE34
:00000001FF
