:08000000803102288731F42F42
:1003AE000800323420003E0808002000911EDC298F
:1003BE00230019080800F0012000911EE3292300F4
:1003CE0019080800F00023009E1CEA2970089A0004
:1003DE000800F2302000A0008A30A10083310F23E4
:1003EE0008004E302000A0008A30A10083310F2378
:1003FE0008009F302000A0008B30A10083310F2316
:10040E0008008B302000A0008B30A10083310F2319
:10041E000800F830F000700821009904F730F00061
:10042E0070088D058B1708008131E2218231F100B1
:10043E007108F20073307206031D272A013008007E
:10044E00720808008730F000700821008E058E17A4
:10045E00333023009B001E119F111E129D179E16F6
:10046E001D162100911608002000AE002E08031D57
:10047E00472A3130A0008930A10083310F230800B4
:10048E0020002E03031D0800B530A0008930A10006
:10049E0083310F2308002000AE002E08031D5E2AB4
:1004AE009430A0008A30A10083310F230800200071
:1004BE002E03031D08007230A0008A30A100833184
:1004CE000F230800F1000530F00071088600870147
:1004DE00700881000A30F000710A860087017008EA
:1004EE0081000F30F0007108023E8600870170080F
:1004FE0081000800780879040319A82AFD01FD0A75
:10050E00F91B932A0130F835F90D890B8A2A01302F
:10051E00FC007C08FD07872A79087B02031D992AB7
:10052E0078087A02031C9F2A7808FA027908FB3BA6
:10053E000130F936F80C890BA02A0130FD02031D9B
:10054E00932A7B08F9007A08F80008002000B10011
:10055E00D830A0008B30A1002E08AF00B0012F08BC
:10056E00A2003008A30083310F238231200031080E
:10057E00031DC82AC430A0008B30A10083310F2385
:10058E00080020003103031DD32ACE30A0008B308B
:10059E00A10083310F230800E1302000A0008B3032
:1005AE00A10083310F230800F501F60170087104D4
:1005BE0003190A2BF701F70AF11BEF2A0130F03568
:1005CE00F10D890BE62A0130F4007408F707E32ACF
:1005DE000130F535F60D890BF02A71087302031DF3
:1005EE00FA2A70087202031C012B7008F2027108BD
:1005FE00F33B75140130F136F00C890B022B0130F0
:10060E00F702031DEF2A7608F1007508F0000800C6
:10061E0022302000A4002408A80020002108A500F4
:10062E002008A400A00A0319A10A240884002508A2
:10063E0085000008A6002608AD002D080319080045
:10064E0025302D060319302B2D088131E9218331F8
:10065E00142B2000A9012108A5002008A400A00A3F
:10066E000319A10A24088400250885000008AD009E
:10067E00003A0319C52B643A0319492B0D3A031995
:10068E00492B142B280886008701403FAB00413FC1
:10069E00AC000230A4002408A807AC1F5F2B033067
:1006AE00A4002408A904AB09AC09AB0A0319AC0ACF
:1006BE00AD01AD0A05302D060319842B2D08A400BB
:1006CE00A501A435A50D0030240784008830253DF2
:1006DE008500003FA600013FA70027082C02031D3E
:1006EE007A2B26082B02031C842B0130A40024082D
:1006FE00AD0705302D06031D652B29080339031997
:10070E008C2B2D308131E921833120002D08A4005E
:10071E002408AA00FF302000A4002408AA072A0AF1
:10072E000319142B0A30F8000030F9002A08A4002F
:10073E00A501A435A50D0030240784008830253D81
:10074E008500003FF000013FF1002C08F3002B085C
:10075E00F2008231DB2283317108FB007008FA004F
:10076E008231812283317808303E2000A60026088F
:10077E00AD002D088131E9218331912B0800200035
:10078E003A08B5003B08B6003C08B7002030B2006E
:10079E003208B900B8018231102283318231292208
:1007AE00833105302000B4000F30B300F430B200B6
:1007BE00B20BDF2BB30BDF2BB40BDF2B20008D1511
:1007CE008D30A0008830A10083310F238331813119
:1007DE00F82183318131F021833182310822833136
:1007EE008231002283314C302000A0008830A100DD
:1007FE0083310F23833105302000A0008A30352C41
:10080E0062303906031D142CED30A0008B30A10090
:10081E0083310F23833102302D2C64303906031DB2
:10082E00212CF130A0008B30A10083310F238331B6
:10083E0003302D2C67303906031D322CF530A00005
:10084E008B30A10083310F23833104302000B2009E
:10085E003208BD004E2C0F30A0008B30A10083312A
:10086E000F2383318131DC2183312000B200320825
:10087E00B90061303906031D072CE930A0008B301A
:10088E00A10083310F2383312000BD01BD0ADF306B
:10089E002000A0008930642C6E303906031D612CB7
:1008AE00F930A0008B30A10083310F23833120005B
:1008BE00BE017D2C0F30A0008B30A10083310F23A1
:1008CE0083318131DC2183312000B2003208B9003E
:1008DE0079303906031D532CFD30A0008B30A1005A
:1008EE0083310F2383312000BE01BE0ACB3020009E
:1008FE00A0008830A10083310F2383310A302000FD
:10090E00A0008830A10083310F2383312A302000CC
:10091E00A0008A30A10083310F23833120003D03D4
:10092E00031D892D1C2D0130672D643020003906E2
:10093E00031DBC2C8131D9218331003A031DBC2CFF
:10094E00200040080319AD2C0A30C0026030A00010
:10095E008930A1004008B200B3013208A20033086A
:10096E00A30083310F2383316A2D683020003906AE
:10097E00031DDF2C8131D9218331003A031DDF2C79
:10098E003230200040020318D02C0A30B200320858
:10099E00C0078B30A0008930A1004008B200B3011F
:1009AE003208A2003308A30083310F2383316A2D4E
:1009BE00743020003906031DF72C8131D921833183
:1009CE00003A031DF72C0A302000B2003208BF0790
:1009DE00D430A0008A30A10083310F2383316A2DD9
:1009EE006F3020003906031D172D8131D921833137
:1009FE00003A031D0D2D2000BE01BE0A7530A00069
:100A0E008B30A10083310F2383316A2D2000BE016C
:100A1E005E30A0008B30A10083310F2383316A2D0D
:100A2E0020302000B2003208B9008131D721833145
:100A3E0082311B2283312000B2003208B900390303
:100A4E00031D9C2C4008031D322D8131D921833189
:100A5E00003A03199C2CB2302000A0008B30A1006C
:100A6E0083310F2383318131D9218331003A031D24
:100A7E009A2C35308231692283312000B80103303F
:100A8E0038020318662D3808353E860087010108A6
:100A9E0003195D2D3808353E860087010108B20026
:100AAE003208AE0038088231AD2283310130200089
:100ABE00B2003208B80703303802031C4A2D00304A
:100ACE0082313B2283318B137E2D8B170530200014
:100ADE00B4000F30B300F430B200B20B742DB30B70
:100AEE00742DB40B742D8B1301302000BF02200027
:100AFE003F080319EE2F8131D9218331003A0319B2
:100B0E006C2DEE2F023020003D06031D062E813186
:100B1E00D721833182311B2283312000B20032086B
:100B2E00B9003903031DE02DB230A0008B30A100B7
:100B3E0083310F2383318131D9218331003A031D53
:100B4E00D72D35308231692283312000B801033030
:100B5E0038020318CE2D3808353E8600870101086D
:100B6E000319C52D3808353E860087010108B200ED
:100B7E003208AE0038088231AD22833101302000B8
:100B8E00B2003208B80703303802031CB22D003011
:100B9E00823152228331003082313B228331EF2F5A
:100BAE000130823152228331013082313B22833136
:100BBE00EF2F6F3020003906031D002E8131D92111
:100BCE008331003A031DF62D2000BE01BE0A75309A
:100BDE00A0008B30A10083310F238331EF2F200033
:100BEE00BE015E30A0008B30A10083310F23833114
:100BFE00EF2F20302000B2003208B9008E2D0330C6
:100C0E003D06031DFA2E8D2E0130D82E64302000A5
:100C1E003906031D2D2E8131D9218331003A031D52
:100C2E002D2E2000400803191E2E0A30C0026030FF
:100C3E00A0008930A1004008B200B3013208A20022
:100C4E003308A30083310F238331DB2E683020005D
:100C5E003906031D502E8131D9218331003A031DEF
:100C6E00502E3230200040020318412E0A30B200BE
:100C7E003208C0078B30A0008930A1004008B200B6
:100C8E00B3013208A2003308A30083310F2383314E
:100C9E00DB2E743020003906031D682E8131D921D8
:100CAE008331003A031D682E0A302000B20032084C
:100CBE00BF07D430A0008A30A10083310F238331C7
:100CCE00DB2E6F3020003906031D882E8131D9218D
:100CDE008331003A031D7E2E2000BE01BE0A753000
:100CEE00A0008B30A10083310F238331DB2E200037
:100CFE00BE015E30A0008B30A10083310F23833103
:100D0E00DB2E20302000B2003208B9008131D7210D
:100D1E00833182311B2283312000B2003208B900A8
:100D2E003903031D0D2E4008031DA32E8131D92139
:100D3E008331003A03190D2EB2302000A0008B3003
:100D4E00A10083310F238331353082316922833103
:100D5E002000B801033038020318D12E3808353E72
:100D6E008600870101080319C82E3808353E860013
:100D7E0087010108B2003208AE0038088231AD2278
:100D8E00833101302000B2003208B8070330380238
:100D9E00031CB52E8131D9218331003A031D0B2E50
:100DAE00003082313B2283318B13EF2E8B170530AF
:100DBE002000B4000F30B300F430B200B20BE52EB9
:100DCE00B30BE52EB40BE52E8B1301302000BF02C2
:100DDE0020003F080319EE2F8131D9218331003ACB
:100DEE000319DD2EEE2F043020003D06031DEF2FDC
:100DFE00822F0130CD2F643020003906031D222FA3
:100E0E008131D9218331003A031D222F2000400861
:100E1E000319132F0A30C0026030A0008930A100E0
:100E2E004008B200B3013208A2003308A300833198
:100E3E000F238331D02F683020003906031D452F34
:100E4E008131D9218331003A031D452F32302000E4
:100E5E0040020318362F0A30B2003208C0078B301A
:100E6E00A0008930A1004008B200B3013208A200F0
:100E7E003308A30083310F238331D02F7430200029
:100E8E003906031D5D2F8131D9218331003A031DAF
:100E9E005D2F0A302000B2003208BF07D430A00008
:100EAE008A30A10083310F238331D02F6F30200081
:100EBE003906031D7D2F8131D9218331003A031D5F
:100ECE00732F2000BE01BE0A7530A0008B30A1002A
:100EDE0083310F238331D02F2000BE015E30A0005E
:100EEE008B30A10083310F238331D02F203020008F
:100EFE00B2003208B9008131D721833182311B22F1
:100F0E0083312000B2003208B9003903031D022FCD
:100F1E004008031D982F8131D9218331003A0319DE
:100F2E00022FB2302000A0008B30A10083310F239E
:100F3E0083318131D9218331003A031D002F3530A1
:100F4E008231692283312000B80103303802031840
:100F5E00CC2F3808353E8600870101080319C32FB0
:100F6E003808353E860087010108B2003208AE000F
:100F7E0038088231AD22833101302000B2003208B0
:100F8E00B80703303802031CB02F003082313B22E9
:100F9E0083318B13E42F8B1705302000B4000F30F4
:100FAE00B300F430B200B20BDA2FB30BDA2FB40B5E
:100FBE00DA2F8B1301302000BF0220003F080319E7
:100FCE00EE2F8131D9218331003A0319D22F8B179D
:100FDE004B302000A0008A30912CBA01BB01BC011D
:100FEE00BD01BE01BF018131D821C0002000833177
:100FFE00C62B013400340A34003464340034E8342F
:10100E0003341034273450347234653473347334EB
:10101E0020342734643427342C3420342734683475
:10102E0027342C3420346F34723420342734743403
:10103E002734203474346F342034733465346E3472
:10104E0064342034643461346D346134673465340F
:10105E002C3420346834653461346C347434683420
:10106E002C3420346F347234203473347434753429
:10107E006E3420347034613463346B3465347434BC
:10108E0073342E340A340D3400340A340D3457348C
:10109E006834693463346834203462346C346134B7
:1010AE0064346534203477346F3475346C3464347E
:1010BE00203479346F34753420346C3469346B34A5
:1010CE006534203474346F3420347434653473349E
:1010DE0074343F34203445346E3474346534723491
:1010EE0020346134203466346F3472342034413409
:1010FE006C347034683461342C34203462342034CF
:10110E0066346F3472340A340D3400340A340D34BC
:10111E003D343D343D343D343D343D343D343D3439
:10112E003D343D343D343D343D343D343D343D3429
:10113E003D343D343D343D343D343D343D343D3419
:10114E003D343D343D343D343D343D343D343D3409
:10115E003D343D343D343D343D343D343D343D34F9
:10116E003D343D343D343D343D343D343D343D34E9
:10117E003D343D343D343D343D343D343D343D34D9
:10118E003D340A340D3400345034723465347334C3
:10119E0073342034273473342734203474346F344A
:1011AE0020347334773469346E34673420347434B5
:1011BE00683465342034733477346F347234643465
:1011CE00203461346E3464342034733465346534C1
:1011DE0020347734683461347434203468346134A4
:1011EE007034703465346E34733421340A340D34F3
:1011FE0000340A340D3447346F346F346434203481
:10120E006A346F3462342E34203459346F3475346A
:10121E0020346B346E346F347734203468346F344A
:10122E007734203474346F3420347234653461343E
:10123E006434203469346E347334743472347534D7
:10124E006334743469346F346E3473342E340A3428
:10125E000A34003444346934733470346C34613479
:10126E00793465346434203469346E3464346934CA
:10127E00763469346434753461346C3420347334A8
:10128E0077346F3472346434203473347734693481
:10129E006E34673420346C34693467346834743493
:1012AE002034733468346F3477342E340A340D346A
:1012BE000034543468346534203462346C34613410
:1012CE0064346534203468346134733420346234C9
:1012DE00653465346E342034643461346D34613475
:1012EE006734653464342E342034483465346134C4
:1012FE006C347434683420343D34203425346434F2
:10130E002E340A340D3400345434683465342034A9
:10131E0062346C346134643465342034683461343E
:10132E00733420346234653465346E34203468345A
:10133E00653461346C34653464342E34203448346E
:10134E00653461346C347434683420343D34203464
:10135E00253464342E340A340D3400344434693464
:10136E00733470346C3461347934653464342034BD
:10137E004F346D34653467346134203462346C34E8
:10138E0061346434653420347334773469346E34A4
:10139E00673420346C3469346734683474342034E0
:1013AE00733468346F3477342E340A340D34003489
:1013BE0041347234653420347434683465342034E6
:1013CE0062346C346134643465347334203469347B
:1013DE006E3420346F346D346534673461342034A8
:1013EE006D346F34643465343F34203428347934AA
:1013FE002F346E3429340A340D34003442346534BB
:10140E00743461342C3420346434203466346F34B4
:10141E0072342034443465346C34743461342C3476
:10142E0020346F34723420346734203466346F3491
:10143E0072342034473461346D346D3461342E345B
:10144E000A340D34003450347234653473347334CA
:10145E00203427346F342734203474346F342034DE
:10146E0074346F34673467346C34653420344F34DD
:10147E006D3465346734613420346D346F346434C4
:10148E0065342E340A340D340A340D3400344934A4
:10149E006E3469347434693461346C3469347A343A
:1014AE006534643420344934523420347334653412
:1014BE006E3464342F347234653463346534693475
:1014CE0076346534203463346F34643465342E34AA
:1014DE000A340D34003450346C346134793465344C
:1014EE00643420344F346D346534673461342034C1
:1014FE0062346C346134643465342034733477343C
:10150E0069346E346734203473346F3475346E340A
:10151E0064342E340A340D34003450346C34613457
:10152E00793465346434203442346534743461342F
:10153E00203462346C346134643465342034733452
:10154E00773469346E346734203473346F347534C1
:10155E006E3464342E340A340D34003450346C340A
:10156E006534613473346534203465346E347434C8
:10157E006534723420347434683465342034633402
:10158E006834613472346134633474346534723463
:10159E00203441343A3420340034543468346534C1
:1015AE00203462346C3461346434653420346834ED
:1015BE006134733420346234653465346E342034CF
:1015CE007334743475346E346E34653464342E343E
:1015DE000A340D34003449346E3469347434693449
:1015EE0061346C3469347A34653464342034613453
:1015FE006334633465346C34653472346F346D34F3
:10160E0065347434653472342E340A340D34003437
:10161E0049346E34763461346C3469346434203435
:10162E0069346E347034753474342E34203454343A
:10163E0072347934203461346734613469346E34F1
:10164E002E340A340D3400340A340D3457347234C7
:10165E006F346E34673420346B34653479342E3401
:10166E002034543472347934203461346734613424
:10167E0069346E342E340A340D3400340A340D3489
:10168E004D34613469346E3420344C346F346F34DD
:10169E007034203449346E346434693476346934A9
:1016AE006434753461346C340A340D3400344F3480
:1016BE006D3465346734613420346D346F34643482
:1016CE0065342034643469347334613462346C3478
:1016DE00653464342E340A340D3400344F346D3492
:1016EE0065346734613420346D346F34643465345A
:1016FE00203465346E34613462346C346534643451
:10170E002E340A340D34003449346E346934743452
:10171E00693461346C3469347A3465346434203419
:10172E004C344534443473342E340A340D3400347E
:10173E0049346E3469347434693461346C346934C8
:10174E007A346534643420344934533452342E346C
:10175E000A340D340034533477346F3472346434B5
:10176E0020347734613473342034733477347534E1
:10177E006E3467340A340D340034643461346D349D
:10178E006134673465342E340A340D3400346834D1
:10179E00653461346C34743468342E340A340D3448
:1017AE000034533465346E34743420342534643448
:1017BE00203400347334743475346E342E340A3459
:1017CE000D34003431340A340D34003432340A34DA
:1017DE000D34003433340A340D34003434340A34C6
:1017EE000D3400346E340A340D34003479340A3436
:0417FE000D34003472
:020000040001F9
:04000E00E4F9FFDE34
:00000001FF
