:0400000081317329AE
:100008007E14803120007F08BF00960197012700E9
:10001800931C1D28931032302000BE003E0821009A
:10002800C50092318E22803102308431BF24803164
:100038006E29131E6E29EF302000BE003E082700EF
:10004800930520000C1E31280A3020001702763054
:100058000319160203186E292528960197010C1A10
:100068003D280A30170276300319160203186E2944
:100078003328960197010C1E49280A30170276305A
:100088000319160203186E293F281708C900160815
:10009800C800960197010C1A59280A3017027630C1
:1000A8000319160203186E294F28960197010C1E92
:1000B80065280A30170276300319160203186E29CC
:1000C8005B281708CB001608CA00CD30A0008C307A
:1000D800A1003F30A2004B08F9004A08F80090310F
:1000E800BD20803178082000A3007908A4007A0890
:1000F800A5008C310924803120002008B000210897
:10010800B1002208B2004908F9004808F800903107
:10011800BD20803178082000B3007908B4007A083F
:10012800B500913116218031031C6E29CD30200095
:10013800A0008C30A1003F30A2004908F90048080F
:10014800F8009031BD20803178082000A30079089C
:10015800A4007A08A5008C310924803120002008E9
:10016800B0002108B1002208B2004B08F9004A0883
:10017800F8009031BD20803178082000B30079085C
:10018800B4007A08B500913116218031031C6E291C
:100198000230F0000030F10020004A084807F20061
:1001A8004B08493DF30091315221803171082000FC
:1001B800CD007008CC004D08F9004C08F8009031CB
:1001C800BD20803178082000A3007908A4007A08AF
:1001D800A500CD30A0008E30A1004130A2008C31A6
:1001E8000924803120002008B0002108B10022082D
:1001F800B20092310722803120003108CF00300848
:10020800CE004F08803ABE0097303E02031D0E29EB
:1002180070304E02031C2C2920004F08803ABE0083
:100228009D303E02031D1A294C304E0203182C291A
:100238002100450803196E29903167208031003A62
:10024800031D6E2901302100C502C301C30A6E29AE
:1002580020004F08803ABE00A7303E02031D362911
:1002680010304E02031C502920004F08803ABE006F
:10027800AE303E02031D4229E0304E0203185029D9
:1002880032302100450203186E2901302000BE00DB
:100298003E082100C5076E2920004F08803ABE009D
:1002A800B2303E02031D5A29C8304E02031C6E2983
:1002B80020004F08803ABE00BA303E02031D66296E
:1002C80098304E0203186E2901302000BE003E0807
:1002D8002100C40720003F08FF007E10090081317B
:1002E8007529C801C901CA01CB01CC01CD01CE01D4
:1002F800CF012100C001C101C201C301C40187317E
:10030800FF27C5007E1020008C31BD2C2100B200D3
:10031800B401B501B601FF30A5002508B300B4014A
:10032800B501FF30A5002508B6003208031D3203C9
:10033800031D972A3408A50025082000C3002100C2
:100348003508A60026082000C40021003608A700AA
:1003580027082000C500210033088831AD208131ED
:1003680003302100A7000830A6007830A500A50BAF
:10037800BB29A60BBB29A70BBB2921003408A50064
:1003880025082000C30021003508A6002608200003
:10039800C40021003608A70027082000C500210056
:1003A800330889315921813103302100A7000830F1
:1003B800A6007830A500A50BDF29A60BDF29A70B1F
:1003C800DF2921003408A50025082000C3002100EA
:1003D8003508A60026082000C40021003608A7001A
:1003E80027082000C500210033088A310522813101
:1003F80003302100A7000830A6007830A500A50B1F
:10040800032AA60B032AA70B032A21003408A500F8
:1004180025082000C30021003508A6002608200072
:10042800C40021003608A70027082000C5002100C5
:1004380033088A31B122813103302100A700083006
:10044800A6007830A500A50B272AA60B272AA70BFC
:10045800272A21003408A50025082000C300210010
:100468003508A60026082000C40021003608A70089
:1004780027082000C500210033088B315D23813116
:1004880003302100A7000830A6007830A500A50B8E
:100498004B2AA60B4B2AA70B4B2A2100B00104308C
:1004A80030020318BC2C3408A50025082000C3001E
:1004B80021003508A60026082000C40021003608BF
:1004C800A70027082000C500210033088B315D23D1
:1004D800813102302100A7000430A600BA30A500FF
:1004E800A50B742AA60B742AA70B742A00002000F7
:1004F800C301C401C501FF308B315D238131023056
:100508002100A7000430A600BA30A500A50B8A2A4E
:10051800A60B8A2AA70B8A2A000001302100A50011
:100528002508B007532A02303206031DFE2BB701F7
:10053800370A03194D2BA801A9012908803AA500FB
:1005480080302502031DAA2A043028020318C02A75
:10055800003090319720813101302100A807003008
:10056800A93D2908803AA50080302502031DBE2A2E
:1005780004302802031CAC2AFF30903197208131C7
:1005880000309031972081310030903197208131AF
:1005980021003708903197208131FF309031972022
:1005A800813100309031972081310030903197208F
:1005B800813121003703FF3AFF3E90319720813186
:1005C800FF30903197208131003090319720813170
:1005D80000309031972081312100370890319720E1
:1005E8008131FF3090319720813100309031972050
:1005F8008131003090319720813121003703FF3A53
:10060800FF3E903197208131FF3090319720813122
:10061800003090319720813100309031972081311E
:10062800210037089031972081312100AA01AB01C0
:100638002B08803AA50080302502031D252B0430A5
:100648002A0203183B2BFF3090319720813101306B
:100658002100AA070030AB3D2B08803AA500803066
:100668002502031D392B04302A02031C272BD03006
:100678002100A600C930A500A50B402BA60B402BD6
:10068800003205302100A5002508B707370A031DE9
:100698009F2AFF30A5002508B80038080319BC2C8C
:1006A800AC01AD012D08803AA50080302502031D5C
:1006B8005F2B04302C020318752B003090319720E3
:1006C800813101302100AC070030AD3D2D08803A62
:1006D800A50080302502031D732B04302C02031C57
:1006E800612BFF3090319720813100309031972075
:1006F80081310030903197208131210038089031C4
:1007080097208131FF30903197208131003090312E
:1007180097208131003090319720813121003803B2
:10072800FF3AFF3E903197208131FF30903197207A
:1007380081310030903197208131003090319720FD
:10074800813121003808903197208131FF30903174
:1007580097208131003090319720813100309031DD
:100768009720813121003803FF3AFF3E90319720CE
:100778008131FF30903197208131003090319720BE
:100788008131003090319720813121003808903133
:10079800972081312100AE01AF012F08803AA500D2
:1007A80080302502031DDA2B04302E020318F02BAB
:1007B800FF3090319720813101302100AE070030A1
:1007C800AF3D2F08803AA50080302502031DEE2B8F
:1007D80004302E02031CDC2BD0302100A600C930C7
:1007E800A500A50BF52BA60BF52B00320530210033
:1007F800B802512B03303206031DBC2CFF30A50074
:1008080025082000C300C401C501FF308B315D23DA
:10081800813103302100A7000830A6007830A500F8
:10082800A50B142CA60B142CA70B142CFF3021009D
:10083800A50025082000C300C401C501FF308A3186
:10084800B122813103302100A7000830A60078309A
:10085800A500A50B2D2CA60B2D2CA70B2D2CFF309E
:100868002100A50025082000C300C401C501FF30F0
:100878008A310522813103302100A7000830A60003
:100888007830A500A50B462CA60B462CA70B462CAA
:10089800FF302100A50025082000C300C401C501C0
:1008A800FF3089315921813103302100A7000830F8
:1008B800A6007830A500A50B5F2CA60B5F2CA70B14
:1008C8005F2CFF302100A50025082000C300C401CB
:1008D800C501FF308831AD20813103302100A700E8
:1008E8000830A6007830A500A50B782CA60B782C2C
:1008F800A70B782C2100B101043031020318BC2C5D
:10090800FF30A50025082000C300C401C501FF3041
:100918008831AD20813102302100A7000430A600C3
:10092800BA30A500A50B962CA60B962CA70B962CD7
:1009380000002000C301C401C501FF308831AD208B
:10094800813102302100A7000430A600BA30A5008A
:10095800A50BAC2CA60BAC2CA70BAC2C00000130C3
:100968002100A5002508B10704303102031C842C9E
:100978009731592708002000A300AF01B001B10149
:10098800FF30A0002008AE00AF01B001FF30A0008A
:100998002008B1002308031D2303031DA72D2F08DA
:1009A800A0002008F3003008A1002108F400310855
:1009B800A2002208F5002E08943152248431033015
:1009C8002000A2000830A1007830A000A00BEA2C7B
:1009D800A10BEA2CA20BEA2C20002F08A00020086B
:1009E800F3003008A1002108F4003108A200220811
:1009F800F5002E089431ED24843103302000A20044
:100A08000830A1007830A000A00B082DA10B082DFC
:100A1800A20B082D20002F08A0002008F3003008A2
:100A2800A1002108F4003108A2002208F5002E08D0
:100A380095318825843103302000A2000830A100B8
:100A48007830A000A00B262DA10B262DA20B262D59
:100A580020002F08A0002008F3003008A10021087A
:100A6800F4003108A2002208F5002E08963123264A
:100A7800843103302000A2000830A1007830A000A3
:100A8800A00B442DA10B442DA20B442D20002F08B0
:100A9800A0002008F3003008A1002108F400310864
:100AA800A2002208F5002E089631BE2684310330B4
:100AB8002000A2000830A1007830A000A00B622D11
:100AC800A10B622DA20B622D2000AC0104302C0278
:100AD8000318C52F2F08A0002008F3003008A10034
:100AE8002108F4003108A2002208F5002E089631EA
:100AF800BE26843102302000A2000430A100BA30A2
:100B0800A000A00B852DA10B852DA20B852D000023
:100B1800F301F401F501FF309631BE26843102302D
:100B28002000A2000430A100BA30A000A00B9A2D2A
:100B3800A10B9A2DA20B9A2D000001302000A000D5
:100B48002008AC076A2D02302306031D0E2FB201C0
:100B5800320A03195D2EA401A5012508803AA000D8
:100B680080302002031DBA2D043024020318D02D32
:100B7800003090318720843101302000A4070030F4
:100B8800A53D2508803AA00080302002031DCE2D07
:100B980004302402031CBC2DFF309031872084319F
:100BA80000309031872084310030903187208431A3
:100BB80020003208903187208431FF30903187201F
:100BC8008431003090318720843100309031872083
:100BD800843120003203FF3AFF3E90318720843170
:100BE800FF30903187208431003090318720843164
:100BF80000309031872084312000320890318720DE
:100C08008431FF3090318720843100309031872043
:100C18008431003090318720843120003203FF3A3C
:100C2800FF3E903187208431FF3090318720843116
:100C38000030903187208431003090318720843112
:100C4800200032089031872084312000A601A701B6
:100C58002708803AA00080302002031D352E04307A
:100C6800260203184B2EFF30903187208431013043
:100C78002000A6070030A73D2708803AA000803052
:100C88002002031D492E04302602031C372ED030C3
:100C98002000A100C930A000A00B502EA10B502E9F
:100CA800003205302000A0002008B207320A031DD8
:100CB800AF2DFF30A0002008B30033080319C52F5B
:100CC800A801A9012908803AA00080302002031D4C
:100CD8006F2E043028020318852E003090318720AB
:100CE800843101302000A8070030A93D2908803A46
:100CF800A00080302002031D832E04302802031C2C
:100D0800712EFF3090318720843100309031872058
:100D180084310030903187208431200033089031AD
:100D280087208431FF309031872084310030903122
:100D380087208431003090318720843120003303AC
:100D4800FF3AFF3E903187208431FF309031872071
:100D580084310030903187208431003090318720F1
:100D6800843120003308903187208431FF3090315E
:100D780087208431003090318720843100309031D1
:100D88008720843120003303FF3AFF3E90318720CB
:100D98008431FF30903187208431003090318720B2
:100DA800843100309031872084312000330890311D
:100DB800872084312000AA01AB012B08803AA000CB
:100DC80080302002031DEA2E04302A020318002F67
:100DD800FF3090318720843101302000AA0700308D
:100DE800AB3D2B08803AA00080302002031DFE2E68
:100DF80004302A02031CEC2ED0302000A100C93098
:100E0800A000A00B052FA10B052F003205302000F4
:100E1800B302612E03302306031DC52FFF30A00047
:100E28002008F300F401F501FF309631BE26843125
:100E380003302000A2000830A1007830A000A00BE9
:100E4800232FA10B232FA20B232FFF302000A0005C
:100E58002008F300F401F501FF3096312326843190
:100E680003302000A2000830A1007830A000A00BB9
:100E78003B2FA10B3B2FA20B3B2FFF302000A000E4
:100E88002008F300F401F501FF30953188258431FD
:100E980003302000A2000830A1007830A000A00B89
:100EA800532FA10B532FA20B532FFF302000A0006C
:100EB8002008F300F401F501FF309431ED2484316A
:100EC80003302000A2000830A1007830A000A00B59
:100ED8006B2FA10B6B2FA20B6B2FFF302000A000F4
:100EE8002008F300F401F501FF30943152248431D5
:100EF80003302000A2000830A1007830A000A00B29
:100F0800832FA10B832FA20B832F2000AD01043068
:100F18002D020318C52FFF30A0002008F300F401AC
:100F2800F501FF3094315224843102302000A200B0
:100F38000430A100BA30A000A00BA02FA10BA02F55
:100F4800A20BA02F0000F301F401F501FF3094314A
:100F58005224843102302000A2000430A100BA30AB
:100F6800A000A00BB52FA10BB52FA20BB52F000029
:100F780001302000A0002008AD0704302D02031C1A
:100F88008F2F9331B82308002000C1008731FA273A
:100F98008731003A0319E52F16302000C0004108B8
:100FA8008600870140088100410A86008701810187
:100FB8000F30C0004108023E8600870140088100CA
:100FC800080005302000C00041088600870140085D
:100FD8008100410A8600870181010530C00041086F
:100FE800023E86008701400881000800003020008A
:100FF8008C1801300800323421008C1408008F301E
:101008002000C500450821008E058D138D123D0076
:10101800B101B201B301B401B601B701B801B90118
:101028000130BA000130BB000130BC00BD01013005
:10103800BE00BF01C201C1010130C400F430C300C9
:101048000330C600E730C500C901CA01CD01CB0194
:10105800CC010130CE00CF01C0010130B500803095
:10106800B100DD302000C5004508210094051408B2
:101078003D00D101D2010230D300D401D601D701FD
:10108800D801D9010130DA000130DB000130DC0081
:10109800DD010130DE00DF01E201E1010130E400A1
:1010A800F430E3000330E600E730E500E901EA0147
:1010B800ED01EB01EC010130EE00EF01E001013040
:1010C800D5008030D100BB302000C5004508210084
:1010D800940514083E009101920102309300940196
:1010E800960197019801990101309A0001309B00FF
:1010F80001309C009D0102309E009F01A201A101C8
:101108000130A400F430A3000330A600E730A500A6
:10111800A901AA01AD01AB01AC010230AE00AF01DB
:10112800A001023095008030910077302000C50082
:1011380045082100940514082400951220309500D4
:1011480022001D169D169D152400951697315927C6
:1011580008002100A000A101A2012208803A200075
:10116800C60080304602031DBC280430210021023D
:101178000318D4280030903197208831013021009D
:10118800A1070030A23D2208803A2000C600803026
:101198004602031DD228043021002102031CBE2868
:1011A800210020089031972088312000450890318F
:1011B80097208831200044089031972088312000FA
:1011C8004308903197208831FF309031972088313B
:1011D8000030903197208831003090319720883145
:1011E8000030903197208831FF3090319720883136
:1011F8000030903197208831003090319720883125
:101208000030903197208831FF3090319720883115
:101218000030903197208831003090319720883104
:101228000030903197208831FF30903197208831F5
:1012380000309031972088310030903197208831E4
:1012480000309031972088312100A301A40124089F
:10125800803A2000C60080304602031D362904303B
:101268002100230203184E29FF309031972088313E
:1012780001302100A3070030A43D2408803A200053
:10128800C60080304602031D4C2904302100230289
:10129800031C3829D0302000C700C930C600C60B4F
:1012A8005329C70B5329003208002100A000A101CF
:1012B800A2012208803A2000C60080304602031DA1
:1012C8006829043021002102031880290030903158
:1012D8009720893101302100A1070030A23D220862
:1012E800803A2000C60080304602031D7E29043063
:1012F80021002102031C6A29FF309031972089318F
:101308000030903197208931003090319720893111
:1013180000309031972089312100200890319720A2
:1013280089312000450890319720893120004408F0
:1013380090319720893120004308903197208931D6
:10134800FF309031972089310030903197208931D2
:1013580000309031972089310030903197208931C1
:10136800FF309031972089310030903197208931B2
:1013780000309031972089310030903197208931A1
:10138800FF30903197208931003090319720893192
:101398000030903197208931003090319720893181
:1013A8002100A301A4012408803A2000C60080304F
:1013B8004602031DE2290430210023020318FA29FA
:1013C800FF3090319720893101302100A307003088
:1013D800A43D2408803A2000C60080304602031D40
:1013E800F829043021002302031CE429D03020000E
:1013F800C700C930C600C60BFF29C70BFF2900323A
:1014080008002100A000A101A2012208803A2000C2
:10141800C60080304602031D142A04302100210230
:1014280003182C2A0030903197208A31013021008E
:10143800A1070030A23D2208803A2000C600803073
:101448004602031D2A2A043021002102031C162A01
:10145800FF30903197208A310030903197208A31BF
:101468000030903197208A310030903197208A31AE
:10147800FF30903197208A310030903197208A319F
:101488000030903197208A310030903197208A318E
:1014980021002008903197208A312000450890319A
:1014A80097208A3120004408903197208A31200003
:1014B8004308903197208A31FF30903197208A3144
:1014C8000030903197208A310030903197208A314E
:1014D8000030903197208A31FF30903197208A313F
:1014E8000030903197208A310030903197208A312E
:1014F8000030903197208A312100A301A4012408EB
:10150800803A2000C60080304602031D8E2A04302F
:10151800210023020318A62AFF30903197208A3130
:1015280001302100A3070030A43D2408803A2000A0
:10153800C60080304602031DA42A0430210023027D
:10154800031C902AD0302000C700C930C600C60B43
:10155800AB2AC70BAB2A003208002100A000A1016A
:10156800A2012208803A2000C60080304602031DEE
:10157800C02A0430210021020318D82A00309031F3
:1015880097208A3101302100A1070030A23D2208AE
:10159800803A2000C60080304602031DD62A043057
:1015A80021002102031CC22AFF30903197208A3182
:1015B8000030903197208A310030903197208A315D
:1015C8000030903197208A31FF30903197208A314E
:1015D8000030903197208A310030903197208A313D
:1015E8000030903197208A31FF30903197208A312E
:1015F8000030903197208A310030903197208A311D
:101608000030903197208A312100200890319720AE
:101618008A3120004508903197208A3120004408FB
:10162800903197208A3120004308903197208A31E1
:10163800FF30903197208A310030903197208A31DD
:101648000030903197208A310030903197208A31CC
:101658002100A301A4012408803A2000C60080309C
:101668004602031D3A2B0430210023020318522B93
:10167800FF30903197208A3101302100A3070030D4
:10168800A43D2408803A2000C60080304602031D8D
:10169800502B043021002302031C3C2BD0302000A7
:1016A800C700C930C600C60B572BC70B572B0032D3
:1016B80008002100A000A101A2012208803A200010
:1016C800C60080304602031D6C2B04302100210225
:1016D8000318842B0030903197208B310130210082
:1016E800A1070030A23D2208803A2000C6008030C1
:1016F8004602031D822B043021002102031C6E2B9D
:10170800FF30903197208B310030903197208B310A
:101718000030903197208B310030903197208B31F9
:10172800FF30903197208B310030903197208B31EA
:101738000030903197208B310030903197208B31D9
:10174800FF30903197208B310030903197208B31CA
:101758000030903197208B310030903197208B31B9
:10176800FF30903197208B310030903197208B31AA
:101778000030903197208B310030903197208B3199
:1017880021002008903197208B31200045089031A6
:1017980097208B3120004408903197208B3120000E
:1017A8004308903197208B312100A301A40124081C
:1017B800803A2000C60080304602031DE62B043024
:1017C800210023020318FE2BFF30903197208B3124
:1017D80001302100A3070030A43D2408803A2000EE
:1017E800C60080304602031DFC2B04302100230272
:1017F800031CE82BD0302000C700C930C600C60B38
:10180800032CC70B032C0032080020002008A60078
:101818002108A7002208A8000310270D280DA900F9
:101828002908AA002A08031D202C0030A000003037
:10183800A1000030A20008002308A6002408A70081
:101848002508A8000310270D280DA9002908AF00B6
:101858002F08031D362C0030A0000030A1000030F6
:10186800A20008002F087B3EA6002608AA07200829
:10187800A6002108A7002208A8001030A836A70C47
:10188800A60C890B422C2608A9002908AF002308BA
:10189800A6002408A7002508A8001030A836A70C21
:1018A800A60C890B522C2608A9002908AF068030FF
:1018B800A6002608AF05A117A417FF30A305FF301F
:1018C800A4050030A5050030AB000030AC000030A6
:1018D800AD000730A6002608AE00201C792C23088E
:1018E800AB072408AC3D2508AD3D0130A236A10C5C
:1018F800A00C890B7A2C0130A335A40DA50D890BFA
:10190800802C0130AE02031D712C0930A600260878
:10191800AE00201C952C2308AB072408AC3D2508F5
:10192800AD3D0130A236A10CA00C890B962C0130DC
:10193800AD36AC0CAB0C890B9C2C0130AE02031DF0
:101948008D2C2B08F0002C08F1002D08F2002A0835
:10195800A6002608F3002F08A7002708F4009131F5
:10196800A32170082000A0007108A1007208A2003D
:10197800080021004008BC004108BD004208BE0024
:10198800BF019031AA208C3105302100BB000F30F7
:10199800BA00F430B900B90BCF2CBA0BCF2CBB0B63
:1019A800CF2C9031DD208C3190316C208C318831F6
:1019B80003208C31903178208C31883100208C3193
:1019C800933122238C31210043080319F12C033071
:1019D80081318A218C312100C3018D318F258C31D1
:1019E800003A0319372D21004508031D012D8731C1
:1019F800FA278C31003A0319372D8731FA278C31B1
:101A0800003A031D092D00300A2D013081318A2149
:101A18008C31BC308731C8278C3103302100B900A4
:101A28003908BF003F0803198D2D3F08FF3EBC3E13
:101A38008600870101080319332D8B133F08FF3EE9
:101A4800BC3E860087010108B90039082000C000A3
:101A580021003F08FF3E8E31BB268C318B170130A9
:101A68002100BF02162D8B13812D8B173D00C40159
:101A7800C3013117FF30E400FF30E30051173E0087
:101A8800A401FF30A30011173D00311751173E0084
:101A9800111703302100BB000830BA007830B900B4
:101AA800B90B542DBA0B542DBB0B542DFF303D00F0
:101AB800C400FF30C3003117FF30E400FF30E300FB
:101AC8005117FF303E00A400FF30A30011173D005E
:101AD800311751173E00111703302100BB000830A1
:101AE800BA007830B900B90B772DBA0B772DBB0B3C
:101AF800772D8B1301302100C402210044080319FB
:101B08008B2D8731FA278C31003A0319392D8B1721
:101B1800E42C8131732920008E1F942D0130080098
:101B28002100AD01AE01AF01B0010230B1000030BB
:101B3800B200A4018731FA278D31003A0319B32D79
:101B480001302100A5000030A6005030A700003069
:101B5800A8000130A9000030AA00AA30C12D013028
:101B68002100A5000030A6004B30A7000030A800D7
:101B78000130A9000030AA00AF30AB000030AC0043
:101B88008F309D00A001A1010B2E21009D18072E6A
:101B98009D142A08803A803C031DD42D29081C0274
:101BA800031CE02D21002C08803A803C031DDE2D0B
:101BB8002B081B020318FC2D21002608803A200060
:101BC800C00080304002031DEC2D21001C082502B6
:101BD800031C042E21002808803A2000C000803011
:101BE8004002031DFA2D21001B082702031C042EA6
:101BF80021002F08013EAF000030303DB000072E15
:101C08002100AF01B0010130A0070030A13D21083B
:101C1800803A2000C00083304002031D162EE830B1
:101C2800210020020318292E21003008803A2000C4
:101C3800C00021003208803A20004002031D272EF0
:101C4800210031082F02031CC92D8B3021009D0073
:101C5800A201A301712E21009D186D2E2A08803A39
:101C6800803C031D392E29081C02031C452E210027
:101C78002C08803A803C031D432E2B081B020318B6
:101C8800612E21002608803A2000C00080304002E2
:101C9800031D512E21001C082502031C692E21005A
:101CA8002808803A2000C00080304002031D5F2EC3
:101CB80021001B082702031C692E21002D08013E64
:101CC800AD0000302E3DAE006C2E2100AD01AE01FE
:101CD8009D140130A2070030A33D2308803A20005C
:101CE800C00083304002031D7C2EE8302100220210
:101CF80003188F2E21002E08803A2000C0002100F2
:101D08003208803A20004002031D8D2E2100310840
:101D18002D02031C2F2E21002E08803A2000C0001F
:101D280021003208803A20004002031D9E2E210027
:101D380031082D02031CB82E21003008803A2000FB
:101D4800C00021003208803A20004002031DAF2E57
:101D5800210031082F02031CB82E2100A401A40A77
:101D6800AD01AE01AF01B001210024080800210037
:101D7800A6002608031D292FA001A1012108803AE9
:101D88002000C10080304102031DCD2E40082100F3
:101D98002002031808003D009216ED302000C10013
:101DA80000320000C10BD42E00003D0092121A3000
:101DB8002000C200F830C100C10BE02EC20BE02E9B
:101DC80000003D00921604302000C200B430C1006B
:101DD800C10BEC2EC20BEC2E00003D009212193004
:101DE8002000C2001B30C100C10BF82EC20BF82E18
:101DF80000323D00921604302000C200B430C10009
:101E0800C10B042FC20B042F00003D0092121930A1
:101E18002000C2001B30C100C10B102FC20B102FB5
:101E280000323D0092161C302000C200D130C100A3
:101E3800C10B1C2FC20B1C2F00323D009212013027
:101E48002100A0070030A13DC22E21002603031D5A
:101E5800962FA201A3012308803A2000C1008030F8
:101E68004102031D3A2F40082100220203180800EE
:101E78003D009216ED302000C10000320000C10B79
:101E8800412F00003D0092121A302000C200F830A5
:101E9800C100C10B4D2FC20B4D2F00003D00921603
:101EA80006302000C2008D30C100C10B592FC20B73
:101EB800592F00323D00921217302000C2004230E4
:101EC800C100C10B652FC20B652F00003D009216A3
:101ED80006302000C2008D30C100C10B712FC20B2B
:101EE800712F00323D00921217302000C20042309C
:101EF800C100C10B7D2FC20B7D2F00003D00921643
:101F08001C302000C200D130C100C10B892FC20B88
:101F1800892F00323D00921201302100A2070030C3
:101F2800A33D2F2F2100A401A5012508803A2000F8
:101F3800C10080304102031DA42F40082100240263
:101F4800031808003D009216ED302000C100003251
:101F58000000C10BAB2F00003D0092121A30200088
:101F6800C200F830C100C10BB72FC20BB72F000059
:101F78003D00921608302000C2006930C100C10B34
:101F8800C32FC20BC32F00323D0092121530200020
:101F9800C2006630C100C10BCF2FC20BCF2F00008B
:101FA8003D00921608302000C2006930C100C10B04
:101FB800DB2FC20BDB2F00323D00921215302000C0
:101FC800C2006630C100C10BE72FC20BE72F00002B
:101FD8003D0092161C302000C200D130C100C10B58
:101FE800F32FC20BF32F00323D0092120130210073
:081FF800A4070030A53D992F5C
:1020CE00003020008C180130080021000C158C15F2
:1020DE0023000C158C15F03021009E000F309F0050
:1020EE000800D8308B002700110812389100120812
:1020FE001038920031302000980021000C16080094
:10210E00F20024001108F0007008F1002000911177
:10211E00240095137208910020009119080093284D
:10212E002000C200240011082000C0004008C10099
:10213E0091112400951320004208240091002000E4
:10214E0091190800A62823008C018D01F330200080
:10215E00C000400821008D0520000D158D15F830AA
:10216E00C0004008210099048B170800FD01F91FDB
:10217E00C728F809F909F80A0319F90AFD01FD0A39
:10218E007808F0007908F100F2018E30FB007B0830
:10219E00F3007D08FC007C08F4009131A321700847
:1021AE00F8007108F9007208FA000800F7302000F4
:1021BE00C000400821008E053D0091018030920044
:1021CE0093019401960197019801990101309A00AB
:1021DE0001309B0001309C009D0108309E009F0144
:1021EE00A201A1010130A4006A30A3000230A600B2
:1021FE003A30A500A901AA01AD01AB01AC0108302E
:10220E00AE00AF01A0010830950080309100EE3095
:10221E002000C0004008210094051408080020008A
:10222E00B21F2D293009B6003109B7003209B800A6
:10223E00B60A0319B70A0319B80A00303607B000F8
:10224E000030373DB1008030383DB200B51F432914
:10225E003309B6003409B7003509B800B60A0319B8
:10226E00B70A0319B80A00303607B3000030373DFD
:10227E00B4008030383DB5008030B2068030B506EF
:10228E0035083202031D080034083102031D080010
:10229E00330830020800F601F11F5C29F009F1093C
:1022AE00F00A0319F10AF601F60AF31F6729F2097B
:1022BE00F309F20A0319F30A0130F4007408F60662
:1022CE00F701F8017008710403199629F501F50A52
:1022DE00F11B7B290130F035F10D890B722901308C
:1022EE00F4007408F5076F290130F735F80D890BE6
:1022FE007C2971087302031D862970087202031C63
:10230E008D297008F2027108F33B77140130F13613
:10231E00F00C890B8E290130F502031D7B297608FE
:10232E0003199E29F709F809F70A0319F80A78081C
:10233E00F1007708F000080073080319AB29720842
:10234E0071047004031DBC290030F0000030F10050
:10235E000030F20008000130F5007508F307013077
:10236E00F236F10CF00C890BB729FE307205031909
:10237E00D529B2290130F5007508F3070130F007B1
:10238E00003003180130F107003003180130F20756
:10239E000130F236F10CF00C890BD029FF307205AA
:1023AE000319E229C1290130F3020130F035F10D94
:1023BE00F20D890BDD29F11BE82902307302031897
:1023CE00DA297318F029FF30F0057F30F105FF3060
:1023DE00F2050310F30C7308F500F601F701103047
:1023EE00F535F60DF70D890BF7297508F00476080B
:1023FE00F1047708F204740803190800F2170800B4
:10240E0020003008B4003108B5003208B6000310C1
:10241E00350D360DB7003708BD003D08031D202AC7
:10242E000030B3000030B2000030B1000030B00018
:10243E0008003008B4003108B5003208B600173075
:10244E00B636B50CB40C890B272A3408B7003708FA
:10245E00B800B117FF30B005FF30B1050030B2053E
:10246E003008B9003108BA003208BB00BC018E300A
:10247E00BD02BD1F5E2A3D08803A8F3E0318502ACA
:10248E000030B3000030B2000030B1000030B000B8
:10249E0008000130BC36BB0CBA0CB90C890B512AA2
:1024AE000130B4003408BD070319772A502A1830BA
:1024BE003D02031C742A0030B3000030B20000301D
:1024CE00B1000030B00008000130B935BA0DBB0DB7
:1024DE00BC0D890B6C2A0130BD023D08031D6B2A11
:1024EE0038080319852AB909BA09BB09BC09B90A02
:1024FE000319BA0A0319BB0A0319BC0A3C08B30034
:10250E003B08B2003A08B1003908B00008002100BB
:10251E004508031DD72AFF303D00C400FF30C3001D
:10252E003117FF30E400FF30E30051173E00A401E5
:10253E00A30111173D00311751173E001117153029
:10254E00F2004B30F100D130F000F00BAC2AF10B61
:10255E00AC2AF20BAC2A0000FF303D00C400FF3065
:10256E00C3003117FF30E400FF30E3005117FF3096
:10257E003E00A400FF30A30011173D003117511784
:10258E003E0011171530F2004B30F100D130F00043
:10259E00F00BCF2AF10BCF2AF20BCF2A00008E2A96
:1025AE000B3045020318F02AFF303D00C400FF3007
:1025BE00C3003117FF30E400FF30E30051173E0037
:1025CE00A401A30111173D00311751173E00111739
:1025DE0008000B3021004502031C0D2B2330450251
:1025EE0003180D2B3D00C401C3013117FF30E40069
:1025FE00FF30E30051173E00A401FF30A300111776
:10260E003D00311751173E00111708003D00C4015F
:10261E00C3013117FF30E400FF30E3005117FF30E4
:10262E003E00A400FF30A30011173D0031175117D3
:10263E003E001117080021004508031D6D2BFF30C9
:10264E003D00C400FF30C3003117FF30E400FF30FF
:10265E00E30051173E00A401A30111173D003117ED
:10266E0051173E00111715302000C2004B30C1002B
:10267E00D130C000C00B412BC10B412BC20B412BE3
:10268E000000FF303D00C400FF30C3003117FF30A3
:10269E00E400FF30E3005117FF303E00A400FF308E
:1026AE00A30011173D00311751173E0011171530B9
:1026BE002000C2004B30C100D130C000C00B652BD2
:1026CE00C10B652BC20B652B0000222B0B30450274
:1026DE000318862BFF303D00C400FF30C3003117B6
:1026EE00FF30E400FF30E30051173E00A401A301C8
:1026FE0011173D00311751173E00111708000B300E
:10270E0021004502031CA32B233045020318A32BE3
:10271E003D00C401C3013117FF30E400FF30E30078
:10272E0051173E00A401FF30A30011173D003117D1
:10273E0051173E00111708003D00C401C3013117A7
:10274E00FF30E400FF30E3005117FF303E00A400DD
:10275E00FF30A30011173D00311751173E0011171E
:10276E000800F501F6017608803AF3008030730216
:10277E00031DC32B043075020318D82B0030903183
:10278E00872093310130F5070030F63D7608803A08
:10279E00F30080307302031DD62B04307502031C28
:1027AE00C52BFF3090318720933100309031872038
:1027BE009331003090318720933100309031872053
:1027CE009331FF3090318720933100309031872044
:1027DE009331003090318720933100309031872033
:1027EE009331FF3090318720933100309031872024
:1027FE009331003090318720933100309031872013
:10280E009331FF3090318720933100309031872003
:10281E0093310030903187209331003090318720F2
:10282E009331FF30903187209331003090318720E3
:10283E0093310030903187209331003090318720D2
:10284E009331F701F8017808803AF3008030730273
:10285E00031D332C043077020318482CFF309031BF
:10286E00872093310130F7070030F83D7808803A21
:10287E00F30080307302031D462C04307702031CD4
:10288E00352CD030F400C930F300F30B4C2CF40B84
:10289E004C2C00320800F800F901FA017A08803A4F
:1028AE00F60080307602031D5E2C04307902031888
:1028BE00732C00309031872094310130F9070030AD
:1028CE00FA3D7A08803AF60080307602031D712CAC
:1028DE0004307902031C602C7808903187209431E3
:1028EE007508903187209431740890318720943187
:1028FE007308903187209431FF30903187209431C6
:10290E0000309031872094310030903187209431FF
:10291E000030903187209431FF30903187209431F0
:10292E0000309031872094310030903187209431DF
:10293E000030903187209431FF30903187209431D0
:10294E0000309031872094310030903187209431BF
:10295E000030903187209431FF30903187209431B0
:10296E00003090318720943100309031872094319F
:10297E000030903187209431FB01FC017C08803AB5
:10298E00F60080307602031DCE2C04307B02031835
:10299E00E32CFF309031872094310130FB0700305B
:1029AE00FC3D7C08803AF60080307602031DE12C57
:1029BE0004307B02031CD02CD030F700C930F60057
:1029CE00F60BE72CF70BE72C00320800F800F901A4
:1029DE00FA017A08803AF60080307602031DF92C4F
:1029EE000430790203180E2D003090318720943177
:1029FE000130F9070030FA3D7A08803AF60080304F
:102A0E007602031D0C2D04307902031CFB2CFF30C3
:102A1E0090318720943100309031872094310030EE
:102A2E00903187209431003090318720943178088E
:102A3E009031872094317508903187209431740835
:102A4E009031872094317308903187209431FF3074
:102A5E0090318720943100309031872094310030AE
:102A6E009031872094310030903187209431FF309F
:102A7E00903187209431003090318720943100308E
:102A8E009031872094310030903187209431FF307F
:102A9E00903187209431003090318720943100306E
:102AAE009031872094310030903187209431FB0192
:102ABE00FC017C08803AF60080307602031D692DF9
:102ACE0004307B0203187E2DFF3090318720943125
:102ADE000130FB070030FC3D7C08803AF600803068
:102AEE007602031D7C2D04307B02031C6B2DD0302F
:102AFE00F700C930F600F60B822DF70B822D00324F
:102B0E000800F800F901FA017A08803AF6008030E0
:102B1E007602031D942D043079020318A92D00307E
:102B2E009031872095310130F9070030FA3D7A084F
:102B3E00803AF60080307602031DA72D043079020C
:102B4E00031C962DFF309031872095310030903147
:102B5E0087209531003090318720953100309031AB
:102B6E0087209531FF30903187209531003090319C
:102B7E00872095310030903187209531003090318B
:102B8E0087209531780890318720953175089031DE
:102B9E0087209531740890318720953173089031D4
:102BAE0087209531FF30903187209531003090315C
:102BBE00872095310030903187209531003090314B
:102BCE0087209531FF30903187209531003090313C
:102BDE00872095310030903187209531003090312B
:102BEE0087209531FB01FC017C08803AF60080308D
:102BFE007602031D042E04307B020318192EFF30BB
:102C0E009031872095310130FB070030FC3D7C0868
:102C1E00803AF60080307602031D172E04307B02B8
:102C2E00031C062ED030F700C930F600F60B1D2E11
:102C3E00F70B1D2E00320800F800F901FA017A0890
:102C4E00803AF60080307602031D2F2E0430790272
:102C5E000318442E00309031872096310130F90749
:102C6E000030FA3D7A08803AF60080307602031D75
:102C7E00422E04307902031C312EFF309031872012
:102C8E009631003090318720963100309031872078
:102C9E0096310030903187209631FF309031872069
:102CAE009631003090318720963100309031872058
:102CBE0096310030903187209631FF309031872049
:102CCE009631003090318720963100309031872038
:102CDE0096310030903187209631780890318720D8
:102CEE00963175089031872096317408903187207F
:102CFE0096317308903187209631FF3090318720BE
:102D0E0096310030903187209631003090318720F7
:102D1E0096310030903187209631FB01FC017C0802
:102D2E00803AF60080307602031D9F2E04307B021F
:102D3E000318B42EFF309031872096310130FB07F7
:102D4E000030FC3D7C08803AF60080307602031D90
:102D5E00B22E04307B02031CA12ED030F700C930F6
:102D6E00F600F60BB82EF70BB82E00320800F8005E
:102D7E00F901FA017A08803AF60080307602031DD6
:102D8E00CA2E043079020318DF2E003090318720CE
:102D9E0096310130F9070030FA3D7A08803AF60094
:102DAE0080307602031DDD2E04307902031CCC2EFA
:102DBE00FF30903187209631003090318720963148
:102DCE000030903187209631003090318720963137
:102DDE00FF30903187209631003090318720963128
:102DEE000030903187209631003090318720963117
:102DFE00FF30903187209631003090318720963108
:102E0E0000309031872096310030903187209631F6
:102E1E00FF309031872096310030903187209631E7
:102E2E0000309031872096310030903187209631D6
:102E3E007808903187209631750890318720963129
:102E4E00740890318720963173089031872096311F
:102E5E00FB01FC017C08803AF60080307602031DEF
:102E6E003A2F04307B0203184F2FFF30903187200A
:102E7E0096310130FB070030FC3D7C08803AF600AD
:102E8E0080307602031D4D2F04307B02031C3C2F35
:102E9E00D030F700C930F600F60B532FF70B532F37
:102EAE00003208002100A001A1012108803A200073
:102EBE00C30080304302031D672F0430210020021F
:102ECE0003187F2F00309031972097310130210069
:102EDE00A0070030A13D2108803A2000C3008030B9
:102EEE004302031D7D2F043021002002031C692F95
:102EFE00FF309031972097310030903197209731E5
:102F0E0000309031972097310030903197209731D3
:102F1E00FF309031972097310030903197209731C4
:102F2E0000309031972097310030903197209731B3
:102F3E00FF309031972097310030903197209731A4
:102F4E000030903197209731003090319720973193
:102F5E00FF30903197209731003090319720973184
:102F6E000030903197209731003090319720973173
:102F7E00FF30903197209731003090319720973164
:102F8E000030903197209731003090319720973153
:102F9E002100A201A3012308803A2000C300803043
:102FAE004302031DDD2F0430210022020318F52FEA
:102FBE00FF3090319720973101302100A207003069
:102FCE00A33D2308803A2000C30080304302031D36
:102FDE00F32F043021002202031CDF2FD0302000FB
:102FEE00C400C930C300C30BFA2FC40BFA2F003232
:102FFE0008000A340D3447346F346F34643420348F
:10300E006A346F3462342E34203459346F3475344C
:10301E0020346B346E346F347734203468346F342C
:10302E007734203474346F34203472346534613420
:10303E006434203469346E347334743472347534B9
:10304E006334743469346F346E3473342E340A340A
:10305E000A34003450346C3465346134733465345E
:10306E00203465346E3474346534723420347434E0
:10307E0068346534203463346834613472346134B6
:10308E006334743465347234203441343A34203429
:10309E0000340A340D34573472346F346E3467345E
:1030AE0020346B34653479342E34203454347234F5
:1030BE007934203461346734613469346E342E349B
:1030CE000A340D3400340A340D344D34613469340D
:1030DE006E3420344C346F346F34703420344934B1
:1030EE006E346434693476346934643475346134DE
:0830FE006C340A340D34003477
:020000040001F9
:04000E00E4F9FFDE34
:00000001FF
