:0400000081317329AE
:100008007E14803120007F08BF00960197012700E9
:10001800931C1D28931032302000BE003E0821009A
:10002800CA0092317F22803102308431BF2480316E
:100038006E29131E6E29EF302000BE003E082700EF
:10004800930520000C1E31280A3020001702763054
:100058000319160203186E292528960197010C1A10
:100068003D280A30170276300319160203186E2944
:100078003328960197010C1E49280A30170276305A
:100088000319160203186E293F281708C900160815
:10009800C800960197010C1A59280A3017027630C1
:1000A8000319160203186E294F28960197010C1E92
:1000B80065280A30170276300319160203186E29CC
:1000C8005B281708CB001608CA00CD30A0008C307A
:1000D800A1003F30A2004B08F9004A08F80090310F
:1000E8008520803178082000A3007908A4007A08C8
:1000F800A5008B31FB23803120002008B0002108A7
:10010800B1002208B2004908F9004808F800903107
:100118008520803178082000B3007908B4007A0877
:10012800B500913107218031031C6E29CD302000A4
:10013800A0008C30A1003F30A2004908F90048080F
:10014800F80090318520803178082000A3007908D4
:10015800A4007A08A5008B31FB23803120002008F9
:10016800B0002108B1002208B2004B08F9004A0883
:10017800F80090318520803178082000B300790894
:10018800B4007A08B500913107218031031C6E292B
:100198000230F0000030F10020004A084807F20061
:1001A8004B08493DF300913143218031710820000B
:1001B800CD007008CC004D08F9004C08F8009031CB
:1001C8008520803178082000A3007908A4007A08E7
:1001D800A500CD30A0008E30A1004130A2008B31A7
:1001E800FB23803120002008B0002108B10022083C
:1001F800B2009131F821803120003108CF00300859
:10020800CE004F08803ABE0097303E02031D0E29EB
:1002180070304E02031C2C2920004F08803ABE0083
:100228009D303E02031D1A294C304E0203182C291A
:1002380021004A0803196E298731FA278031003ACC
:10024800031D6E2901302100CA02C801C80A6E299F
:1002580020004F08803ABE00A7303E02031D362911
:1002680010304E02031C502920004F08803ABE006F
:10027800AE303E02031D4229E0304E0203185029D9
:10028800323021004A0203186E2901302000BE00D6
:100298003E082100CA076E2920004F08803ABE0098
:1002A800B2303E02031D5A29C8304E02031C6E2983
:1002B80020004F08803ABE00BA303E02031D66296E
:1002C80098304E0203186E2901302000BE003E0807
:1002D8002100C90720003F08FF007E100900813176
:1002E8007529C801C901CA01CB01CC01CD01CE01D4
:1002F800CF012100C501C601C701C801C901873165
:10030800FF27CA007E1020008C31AF2C2100B200DC
:10031800B401B501B601FF30A5002508B300FF30D0
:10032800A5002508B400B501B6013208031D320343
:10033800031D972A3408A50025082000C3002100C2
:100348003508A60026082000C40021003608A700AA
:1003580027082000C5002100330888319F208131FB
:1003680003302100A7000830A6007830A500A50BAF
:10037800BB29A60BBB29A70BBB2921003408A50064
:1003880025082000C30021003508A6002608200003
:10039800C40021003608A70027082000C500210056
:1003A800330889314B21813103302100A7000830FF
:1003B800A6007830A500A50BDF29A60BDF29A70B1F
:1003C800DF2921003408A50025082000C3002100EA
:1003D8003508A60026082000C40021003608A7001A
:1003E80027082000C500210033088931F721813111
:1003F80003302100A7000830A6007830A500A50B1F
:10040800032AA60B032AA70B032A21003408A500F8
:1004180025082000C30021003508A6002608200072
:10042800C40021003608A70027082000C5002100C5
:1004380033088A31A322813103302100A700083014
:10044800A6007830A500A50B272AA60B272AA70BFC
:10045800272A21003408A50025082000C300210010
:100468003508A60026082000C40021003608A70089
:1004780027082000C500210033088B314F23813124
:1004880003302100A7000830A6007830A500A50B8E
:100498004B2AA60B4B2AA70B4B2A2100B00104308C
:1004A80030020318BC2C3408A50025082000C3001E
:1004B80021003508A60026082000C40021003608BF
:1004C800A70027082000C500210033088B314F23DF
:1004D800813102302100A7000430A600BA30A500FF
:1004E800A50B742AA60B742AA70B742A00002000F7
:1004F800C301C401C501FF308B314F238131023064
:100508002100A7000430A600BA30A500A50B8A2A4E
:10051800A60B8A2AA70B8A2A000001302100A50011
:100528002508B007532A02303206031DFE2BB701F7
:10053800370A03194D2BA801A9012908803AA500FB
:1005480080302502031DAA2A043028020318C02A75
:10055800003090315D20813101302100A807003042
:10056800A93D2908803AA50080302502031DBE2A2E
:1005780004302802031CAC2AFF3090315D20813101
:10058800003090315D208131003090315D20813123
:100598002100370890315D208131FF3090315D2096
:1005A8008131003090315D208131003090315D2003
:1005B800813121003703FF3AFF3E90315D208131C0
:1005C800FF3090315D208131003090315D208131E4
:1005D800003090315D2081312100370890315D2055
:1005E8008131FF3090315D208131003090315D20C4
:1005F8008131003090315D20813121003703FF3A8D
:10060800FF3E90315D208131FF3090315D20813196
:10061800003090315D208131003090315D20813192
:100628002100370890315D2081312100AA01AB01FA
:100638002B08803AA50080302502031D252B0430A5
:100648002A0203183B2BFF3090315D2081310130A5
:100658002100AA070030AB3D2B08803AA500803066
:100668002502031D392B04302A02031C272BD03006
:100678002100A600C930A500A50B402BA60B402BD6
:10068800003205302100A5002508B707370A031DE9
:100698009F2AFF30A5002508B80038080319BC2C8C
:1006A800AC01AD012D08803AA50080302502031D5C
:1006B8005F2B04302C020318752B003090315D201D
:1006C800813101302100AC070030AD3D2D08803A62
:1006D800A50080302502031D732B04302C02031C57
:1006E800612BFF3090315D208131003090315D20E9
:1006F8008131003090315D208131210038089031FE
:100708005D208131FF3090315D20813100309031A2
:100718005D208131003090315D2081312100380326
:10072800FF3AFF3E90315D208131FF3090315D20EE
:100738008131003090315D208131003090315D2071
:1007480081312100380890315D208131FF309031AE
:100758005D208131003090315D2081310030903151
:100768005D20813121003803FF3AFF3E90315D2042
:100778008131FF3090315D208131003090315D2032
:100788008131003090315D2081312100380890316D
:100798005D2081312100AE01AF012F08803AA5000C
:1007A80080302502031DDA2B04302E020318F02BAB
:1007B800FF3090315D20813101302100AE070030DB
:1007C800AF3D2F08803AA50080302502031DEE2B8F
:1007D80004302E02031CDC2BD0302100A600C930C7
:1007E800A500A50BF52BA60BF52B00320530210033
:1007F800B802512B03303206031DBC2CFF30A50074
:1008080025082000C300C401C501FF308B314F23E8
:10081800813103302100A7000830A6007830A500F8
:10082800A50B142CA60B142CA70B142CFF3021009D
:10083800A50025082000C300C401C501FF308A3186
:10084800A322813103302100A7000830A6007830A8
:10085800A500A50B2D2CA60B2D2CA70B2D2CFF309E
:100868002100A50025082000C300C401C501FF30F0
:100878008931F721813103302100A7000830A60013
:100888007830A500A50B462CA60B462CA70B462CAA
:10089800FF302100A50025082000C300C401C501C0
:1008A800FF3089314B21813103302100A700083006
:1008B800A6007830A500A50B5F2CA60B5F2CA70B14
:1008C8005F2CFF302100A50025082000C300C401CB
:1008D800C501FF3088319F20813103302100A700F6
:1008E8000830A6007830A500A50B782CA60B782C2C
:1008F800A70B782C2100B101043031020318BC2C5D
:10090800FF30A50025082000C300C401C501FF3041
:1009180088319F20813102302100A7000430A600D1
:10092800BA30A500A50B962CA60B962CA70B962CD7
:1009380000002000C301C401C501FF3088319F2099
:10094800813102302100A7000430A600BA30A5008A
:10095800A50BAC2CA60BAC2CA70BAC2C00000130C3
:100968002100A5002508B10704303102031C842C9E
:100978009631AF2608002000A300AF01B001B101F5
:10098800FF30A0002008AE00FF30A0002008AF0014
:10099800B001B1012308031D2303031DA72D2F0850
:1009A800A0002008F3003008A1002108F400310855
:1009B800A2002208F5002E08943143248431033024
:1009C8002000A2000830A1007830A000A00BEA2C7B
:1009D800A10BEA2CA20BEA2C20002F08A00020086B
:1009E800F3003008A1002108F4003108A200220811
:1009F800F5002E089431DE24843103302000A20053
:100A08000830A1007830A000A00B082DA10B082DFC
:100A1800A20B082D20002F08A0002008F3003008A2
:100A2800A1002108F4003108A2002208F5002E08D0
:100A380095317925843103302000A2000830A100C7
:100A48007830A000A00B262DA10B262DA20B262D59
:100A580020002F08A0002008F3003008A10021087A
:100A6800F4003108A2002208F5002E089631142659
:100A7800843103302000A2000830A1007830A000A3
:100A8800A00B442DA10B442DA20B442D20002F08B0
:100A9800A0002008F3003008A1002108F400310864
:100AA800A2002208F5002E08883104208431033082
:100AB8002000A2000830A1007830A000A00B622D11
:100AC800A10B622DA20B622D2000AC0104302C0278
:100AD8000318C52F2F08A0002008F3003008A10034
:100AE8002108F4003108A2002208F5002E088831F8
:100AF8000420843102302000A2000430A100BA3062
:100B0800A000A00B852DA10B852DA20B852D000023
:100B1800F301F401F501FF308831042084310230FB
:100B28002000A2000430A100BA30A000A00B9A2D2A
:100B3800A10B9A2DA20B9A2D000001302000A000D5
:100B48002008AC076A2D02302306031D0E2FB201C0
:100B5800320A03195D2EA401A5012508803AA000D8
:100B680080302002031DBA2D043024020318D02D32
:100B7800003090314D20843101302000A40700302E
:100B8800A53D2508803AA00080302002031DCE2D07
:100B980004302402031CBC2DFF3090314D208431D9
:100BA800003090314D208431003090314D20843117
:100BB8002000320890314D208431FF3090314D2093
:100BC8008431003090314D208431003090314D20F7
:100BD800843120003203FF3AFF3E90314D208431AA
:100BE800FF3090314D208431003090314D208431D8
:100BF800003090314D2084312000320890314D2052
:100C08008431FF3090314D208431003090314D20B7
:100C18008431003090314D20843120003203FF3A76
:100C2800FF3E90314D208431FF3090314D2084318A
:100C3800003090314D208431003090314D20843186
:100C48002000320890314D2084312000A601A701F0
:100C58002708803AA00080302002031D352E04307A
:100C6800260203184B2EFF3090314D20843101307D
:100C78002000A6070030A73D2708803AA000803052
:100C88002002031D492E04302602031C372ED030C3
:100C98002000A100C930A000A00B502EA10B502E9F
:100CA800003205302000A0002008B207320A031DD8
:100CB800AF2DFF30A0002008B30033080319C52F5B
:100CC800A801A9012908803AA00080302002031D4C
:100CD8006F2E043028020318852E003090314D20E5
:100CE800843101302000A8070030A93D2908803A46
:100CF800A00080302002031D832E04302802031C2C
:100D0800712EFF3090314D208431003090314D20CC
:100D18008431003090314D208431200033089031E7
:100D28004D208431FF3090314D2084310030903196
:100D38004D208431003090314D2084312000330320
:100D4800FF3AFF3E90314D208431FF3090314D20E5
:100D58008431003090314D208431003090314D2065
:100D680084312000330890314D208431FF30903198
:100D78004D208431003090314D2084310030903145
:100D88004D20843120003303FF3AFF3E90314D203F
:100D98008431FF3090314D208431003090314D2026
:100DA8008431003090314D20843120003308903157
:100DB8004D2084312000AA01AB012B08803AA00005
:100DC80080302002031DEA2E04302A020318002F67
:100DD800FF3090314D20843101302000AA070030C7
:100DE800AB3D2B08803AA00080302002031DFE2E68
:100DF80004302A02031CEC2ED0302000A100C93098
:100E0800A000A00B052FA10B052F003205302000F4
:100E1800B302612E03302306031DC52FFF30A00047
:100E28002008F300F401F501FF30883104208431F3
:100E380003302000A2000830A1007830A000A00BE9
:100E4800232FA10B232FA20B232FFF302000A0005C
:100E58002008F300F401F501FF309631142684319F
:100E680003302000A2000830A1007830A000A00BB9
:100E78003B2FA10B3B2FA20B3B2FFF302000A000E4
:100E88002008F300F401F501FF309531792584310C
:100E980003302000A2000830A1007830A000A00B89
:100EA800532FA10B532FA20B532FFF302000A0006C
:100EB8002008F300F401F501FF309431DE24843179
:100EC80003302000A2000830A1007830A000A00B59
:100ED8006B2FA10B6B2FA20B6B2FFF302000A000F4
:100EE8002008F300F401F501FF30943143248431E4
:100EF80003302000A2000830A1007830A000A00B29
:100F0800832FA10B832FA20B832F2000AD01043068
:100F18002D020318C52FFF30A0002008F300F401AC
:100F2800F501FF3094314324843102302000A200BF
:100F38000430A100BA30A000A00BA02FA10BA02F55
:100F4800A20BA02F0000F301F401F501FF3094314A
:100F58004324843102302000A2000430A100BA30BA
:100F6800A000A00BB52FA10BB52FA20BB52F000029
:100F780001302000A0002008AD0704302D02031C1A
:100F88008F2F9331A923080023008C018D012200A3
:100F98000D158D1520000D158D1524000D158D15B9
:100FA800F8302000C00040082100990405302000D6
:100FB800C2000F30C100F430C000C00BE12FC10BDC
:100FC800E12FC20BE12FF3302000C00040082100C0
:100FD8008D0520000D158D150D198D1D01008B1720
:100FE8000800003020008C18013008000030200074
:080FF8008C18013008003234AE
:1010020021008C140800F800F901FA017A08803AEC
:10101200F60080307602031D10280430790203188E
:101022002528003090314D2088310130F9070030F9
:10103200FA3D7A08803AF60080307602031D2328B2
:1010420004307902031C1228FF3090314D20883180
:10105200003090314D208831003090314D20883160
:10106200003090314D208831FF3090314D20883151
:10107200003090314D208831003090314D20883140
:10108200003090314D208831FF3090314D20883131
:10109200003090314D208831003090314D20883120
:1010A200003090314D208831FF3090314D20883111
:1010B200003090314D208831003090314D20883100
:1010C200003090314D208831780890314D208831A0
:1010D200750890314D208831740890314D20883147
:1010E200730890314D208831FB01FC017C08803A65
:1010F200F60080307602031D802804307B0203183C
:101102009528FF3090314D2088310130FB070030A7
:10111200FC3D7C08803AF60080307602031D93285D
:1011220004307B02031C8228D030F700C930F6005D
:10113200F60B9928F70B9928003208002100A0002D
:10114200A101A2012208803A2000C6008030460296
:10115200031DAE280430210021020318C6280030E6
:1011620090315D20883101302100A1070030A23D7D
:101172002208803A2000C60080304602031DC4289F
:10118200043021002102031CB028210020089031E4
:101192005D2088312000450890315D208831200093
:1011A200440890315D2088312000430890315D2051
:1011B2008831FF3090315D208831003090315D20E0
:1011C2008831003090315D208831003090315D20CF
:1011D2008831FF3090315D208831003090315D20C0
:1011E2008831003090315D208831003090315D20AF
:1011F2008831FF3090315D208831003090315D20A0
:101202008831003090315D208831003090315D208E
:101212008831FF3090315D208831003090315D207F
:101222008831003090315D208831003090315D206E
:1012320088312100A301A4012408803A2000C600BD
:1012420080304602031D282904302100230203189E
:101252004029FF3090315D20883101302100A30701
:101262000030A43D2408803A2000C60080304602A7
:10127200031D3E29043021002302031C2A29D030F9
:101282002000C700C930C600C60B4529C70B452937
:10129200003208002100A000A101A2012208803A28
:1012A2002000C60080304602031D5A290430210066
:1012B200210203187229003090315D2089310130FA
:1012C2002100A1070030A23D2208803A2000C6007A
:1012D20080304602031D7029043021002102031CC4
:1012E2005C29FF3090315D208931003090315D20E2
:1012F2008931003090315D208931003090315D209C
:1013020089312100200890315D2089312000450873
:1013120090315D2089312000440890315D2089316F
:101322002000430890315D208931FF3090315D20EB
:101332008931003090315D208931003090315D205B
:101342008931003090315D208931FF3090315D204C
:101352008931003090315D208931003090315D203B
:101362008931003090315D208931FF3090315D202C
:101372008931003090315D208931003090315D201B
:101382008931003090315D2089312100A301A4010F
:101392002408803A2000C60080304602031DD4296A
:1013A2000430210023020318EC29FF3090315D2024
:1013B200893101302100A3070030A43D2408803A7E
:1013C2002000C60080304602031DEA2904302100B5
:1013D2002302031CD629D0302000C700C930C60022
:1013E200C60BF129C70BF129003208002100A00029
:1013F200A101A2012208803A2000C60080304602E4
:10140200031D062A04302100210203181E2A00307F
:1014120090315D20893101302100A1070030A23DC9
:101422002208803A2000C60080304602031D1C2A92
:10143200043021002102031C082AFF3090315D2074
:101442008931003090315D208931003090315D204A
:101452008931003090315D208931FF3090315D203B
:101462008931003090315D208931003090315D202A
:101472008931003090315D2089312100200890317E
:101482005D2089312000450890315D20893120009E
:10149200440890315D2089312000430890315D205D
:1014A2008931FF3090315D208931003090315D20EB
:1014B2008931003090315D208931003090315D20DA
:1014C2008931FF3090315D208931003090315D20CB
:1014D2008931003090315D208931003090315D20BA
:1014E20089312100A301A4012408803A2000C6000A
:1014F20080304602031D802A043021002302031893
:10150200982AFF3090315D20893101302100A307F4
:101512000030A43D2408803A2000C60080304602F4
:10152200031D962A043021002302031C822AD03094
:101532002000C700C930C600C60B9D2AC70B9D2AD2
:10154200003208002100A000A101A2012208803A75
:101552002000C60080304602031DB22A043021005A
:1015620021020318CA2A003090315D208A310130ED
:101572002100A1070030A23D2208803A2000C600C7
:1015820080304602031DC82A043021002102031CB8
:10159200B42AFF3090315D208A31003090315D20D5
:1015A2008A31003090315D208A31003090315D20E7
:1015B2008A31FF3090315D208A31003090315D20D8
:1015C2008A31003090315D208A31003090315D20C7
:1015D2008A31FF3090315D208A31003090315D20B8
:1015E2008A31003090315D208A31003090315D20A7
:1015F2008A312100200890315D208A31200045087F
:1016020090315D208A312000440890315D208A317A
:101612002000430890315D208A31FF3090315D20F7
:101622008A31003090315D208A31003090315D2066
:101632008A31003090315D208A312100A301A4015A
:101642002408803A2000C60080304602031D2C2B5D
:101652000430210023020318442BFF3090315D2017
:101662008A3101302100A3070030A43D2408803ACA
:101672002000C60080304602031D422B04302100A8
:101682002302031C2E2BD0302000C700C930C60015
:10169200C60B492BC70B492B003208002100A000C2
:1016A200A101A2012208803A2000C6008030460231
:1016B200031D5E2B0430210021020318762B00301B
:1016C20090315D208B3101302100A1070030A23D15
:1016D2002208803A2000C60080304602031D742B87
:1016E200043021002102031C602BFF3090315D2069
:1016F2008B31003090315D208B31003090315D2094
:101702008B31003090315D208B31FF3090315D2084
:101712008B31003090315D208B31003090315D2073
:101722008B31003090315D208B31FF3090315D2064
:101732008B31003090315D208B31003090315D2053
:101742008B31003090315D208B31FF3090315D2044
:101752008B31003090315D208B31003090315D2033
:101762008B31003090315D208B3121002008903187
:101772005D208B312000450890315D208B312000A7
:10178200440890315D208B312000430890315D2068
:101792008B312100A301A4012408803A2000C60055
:1017A20080304602031DD82B043021002302031887
:1017B200F02BFF3090315D208B3101302100A307E7
:1017C2000030A43D2408803A2000C6008030460242
:1017D200031DEE2B043021002302031CDA2BD03030
:1017E2002000C700C930C600C60BF52BC70BF52B6E
:1017F2000032080020002008A6002108A7002208C5
:10180200A8000310270D280DA9002908AA002A08FC
:10181200031D122C0030A0000030A1000030A200F5
:1018220008002308A6002408A7002508A800031022
:10183200270D280DA9002908AF002F08031D282C09
:101842000030A0000030A1000030A20008002F08E4
:101852007B3EA6002608AA072008A6002108A700AA
:101862002208A8001030A836A70CA60C890B342C2D
:101872002608A9002908AF002308A6002408A7000B
:101882002508A8001030A836A70CA60C890B442CFA
:101892002608A9002908AF068030A6002608AF0551
:1018A200A117A417FF30A305FF30A4050030A5053A
:1018B2000030AB000030AC000030AD000730A600B5
:1018C2002608AE00201C6B2C2308AB072408AC3D75
:1018D2002508AD3D0130A236A10CA00C890B6C2C61
:1018E2000130A335A40DA50D890B722C0130AE0277
:1018F200031D632C0930A6002608AE00201C872C8D
:101902002308AB072408AC3D2508AD3D0130A236C3
:10191200A10CA00C890B882C0130AD36AC0CAB0CA1
:10192200890B8E2C0130AE02031D7F2C2B08F00098
:101932002C08F1002D08F2002A08A6002608F30060
:101942002F08A7002708F400913194217008200085
:10195200A0007108A1007208A20008002100450839
:10196200C1004608C2004708C300C4018731C82726
:101972008C319031CE208C31903170208C31973166
:1019820056278C3190313E208C31883101208C31A8
:10199200933113238C31210048080319D62C0330CC
:1019A20081318A218C312100C8018E31B9268C31D6
:1019B200003A03191E2D21004A08031DE62C873127
:1019C200F5278C31003A03191E2D8731F5278C310A
:1019D200003A031D1A2D003081318A218C31C13029
:1019E2009031A5208C3103302100BE003E08C40096
:1019F200440803191E2D4408FF3EC13E860087019C
:101A020001080319162D8B134408FF3EC13E8600C0
:101A120087010108BE003E082000C00021004408E2
:101A2200FF3E8D3174258C318B1701302100C402A9
:101A3200F92C013081318A218C318B13682D8B175F
:101A42003D00C401C3013117FF30E400FF30E30061
:101A520051173E00A401FF30A30011173D003117BA
:101A620051173E00111703302100C0000830BF009B
:101A72007830BE00BE0B3B2DBF0B3B2DC00B3B2D68
:101A8200FF303D00C400FF30C3003117FF30E400D7
:101A9200FF30E3005117FF303E00A400FF30A300E7
:101AA20011173D00311751173E0011170330210065
:101AB200C0000830BF007830BE00BE0B5E2DBF0BE9
:101AC2005E2DC00B5E2D8B1301302100C902210057
:101AD20049080319722D8731F5278C31003A031911
:101AE200202D8B17C92C2100A6002608031DE22DEC
:101AF200A001A1012108803A2000C10080304102EA
:101B0200031D862D400821002002031808003D0015
:101B12009216ED302000C10000320000C10B8D2D65
:101B220000003D0092121A302000C200F830C100BD
:101B3200C10B992DC20B992D00003D009216043065
:101B42002000C200B430C100C10BA52DC20BA52DCF
:101B520000003D00921219302000C2001B30C1006B
:101B6200C10BB12DC20BB12D00323D0092160430D3
:101B72002000C200B430C100C10BBD2DC20BBD2D6F
:101B820000003D00921219302000C2001B30C1003B
:101B9200C10BC92DC20BC92D00323D0092161C305B
:101BA2002000C200D130C100C10BD52DC20BD52DF2
:101BB20000323D00921201302100A0070030A13D09
:101BC2007B2D21002603031D4F2EA201A301230812
:101BD200803A2000C10080304102031DF32D4008ED
:101BE20021002202031808003D009216ED30200069
:101BF200C10000320000C10BFA2D00003D0092121C
:101C02001A302000C200F830C100C10B062EC20BF0
:101C1200062E00003D00921606302000C2008D30D4
:101C2200C100C10B122EC20B122E00323D009212C5
:101C320017302000C2004230C100C10B1E2EC20B61
:101C42001E2E00003D00921606302000C2008D308C
:101C5200C100C10B2A2EC20B2A2E00323D00921265
:101C620017302000C2004230C100C10B362EC20B19
:101C7200362E00003D0092161C302000C200D130EA
:101C8200C100C10B422EC20B422E00323D00921205
:101C920001302100A2070030A33DE82D2100A4015C
:101CA200A5012508803A2000C10080304102031DB1
:101CB2005D2E400821002402031808003D00921600
:101CC200ED302000C10000320000C10B642E000084
:101CD2003D0092121A302000C200F830C100C10B40
:101CE200702EC20B702E00003D00921608302000AC
:101CF200C2006930C100C10B7C2EC20B7C2E0032A7
:101D02003D00921215302000C2006630C100C10BA6
:101D1200882EC20B882E00003D009216083020004B
:101D2200C2006930C100C10B942EC20B942E003246
:101D32003D00921215302000C2006630C100C10B76
:101D4200A02EC20BA02E00003D0092161C302000D7
:101D5200C200D130C100C10BAC2EC20BAC2E00327E
:101D62003D00921201302100A4070030A53D522E01
:101D720020008E1FBE2E013008002100A201A30107
:101D8200A401A501A601A701B801B901BA01BB01CD
:101D9200BC01BD01A801A901AA01AB01AC01AD01C1
:101DA200AE01AF01B001B101B201B3010E30B40016
:101DB2000630B500F230B600F930B7005130A0005D
:101DC2000130A100DC30A8000530A9002430AA00AF
:101DD200FA30AB00DC30AC000530AD002430AE0090
:101DE200FA30AF00DC30B0000530B1002430B20070
:101DF200FA30B30009309D00C7302000C000000057
:101E0200C00B002F0032000021009D149D18072FE7
:101E12001C08B9001B08B8000D309D00C730200017
:101E2200C0000000C00B122F0032000021009D14E0
:101E32009D18192F1C08BB001B08BA0015309D0005
:101E4200C7302000C0000000C00B242F0032000069
:101E520021009D149D182B2F1C08BD001B08BC00DF
:101E62002908803A2000C00021003908803A200069
:101E72004002031D3F2F210038082802031C962F21
:101E820021003908803A2000C00021002B08803A46
:101E920020004002031D502F21002A083802031C93
:101EA200962F21002D08803A2000C00021003B0817
:101EB200803A20004002031D612F21003A082C02C3
:101EC200031C962F21003B08803A2000C00021000D
:101ED2002F08803A20004002031D722F21002E0895
:101EE2003A02031C962F21003108803A2000C000DC
:101EF20021003D08803A20004002031D832F21006B
:101F02003C083002031C962F21003D08803A200035
:101F1200C00021003308803A20004002031D942FA4
:101F2200210032083C020318FE2F21003908803AB2
:101F32002000C00021003508803A20004002031D25
:101F4200A52F2100340838020318FE2F210037087C
:101F5200803A2000C00021003908803A2000400267
:101F6200031DB62F2100380836020318FE2F210068
:101F72003B08803A2000C00021003508803A20004A
:101F82004002031DC72F210034083A020318FE2F16
:101F920021003708803A2000C00021003B08803A27
:101FA20020004002031DD82F21003A0836020318F0
:101FB200FE2F21003D08803A2000C0002100350894
:101FC200803A20004002031DE92F210034083C0220
:101FD2000318FE2F21003708803A2000C00021009C
:101FE2003D08803A20004002031DFA2F21003C08E0
:0E1FF20036020318FE2F0130080000300800F0
:10207C00D8308B0027001108123891001208103844
:10208C00920031302000980021000C160800F2005C
:10209C0024001108F0007008F100200091112400B8
:1020AC0095137208910020009119080059282000FE
:1020BC00C200240011082000C0004008C10091118A
:1020CC00240095132000420824009100200091194F
:1020DC0008006C2821009D0180309E000F309F006D
:1020EC002C302000C000400821008C042C30200033
:1020FC00C000400823008C0421008E170800FD014D
:10210C00F91F8F28F809F909F80A0319F90AFD01D2
:10211C00FD0A7808F0007908F100F2018E30FB001E
:10212C007B08F3007D08FC007C08F40091319421BD
:10213C007008F8007108F9007208FA000800200015
:10214C00C1008731F5279031003A0319BC282000D3
:10215C004108860087018101410A860087018101BF
:10216C004108023E86008701810108000F302000E3
:10217C00C00041088600870140088100410A8600A2
:10218C00870181014108023E860087018101080018
:10219C00F7302000C000400821008E053D00910161
:1021AC008030920093019401960197019801990156
:1021BC0001309A0001309B0001309C009D010830D9
:1021CC009E009F01A201A1010130A4006A30A3006E
:1021DC000230A6003A30A500A901AA01AD01AB015D
:1021EC00AC010830AE00AF01A00108309500803082
:1021FC009100EE302000C000400821009405140826
:10220C0008002000B21F1E293009B6003109B700A2
:10221C003209B800B60A0319B70A0319B80A003014
:10222C003607B0000030373DB1008030383DB20089
:10223C00B51F34293309B6003409B7003509B80085
:10224C00B60A0319B70A0319B80A00303607B300E7
:10225C000030373DB4008030383DB5008030B206D8
:10226C008030B50635083202031D080034083102EF
:10227C00031D0800330830020800F601F11F4D2938
:10228C00F009F109F00A0319F10AF601F60AF31F35
:10229C005829F209F309F20A0319F30A0130F40080
:1022AC007408F606F701F801700871040319872900
:1022BC00F501F50AF11B6C290130F035F10D890B94
:1022CC0063290130F4007408F50760290130F735F3
:1022DC00F80D890B6D2971087302031D772970089D
:1022EC007202031C7E297008F2027108F33B77140A
:1022FC000130F136F00C890B7F290130F502031DFA
:10230C006C29760803198F29F709F809F70A0319BC
:10231C00F80A7808F1007708F00008007308031930
:10232C009C29720871047004031DAD290030F00063
:10233C000030F1000030F20008000130F5007508A3
:10234C00F3070130F236F10CF00C890BA829FE30A2
:10235C0072050319C629A3290130F5007508F30786
:10236C000130F007003003180130F107003003187A
:10237C000130F2070130F236F10CF00C890BC12957
:10238C00FF3072050319D329B2290130F302013051
:10239C00F035F10DF20D890BCE29F11BD929023044
:1023AC0073020318CB297318E129FF30F0057F3035
:1023BC00F105FF30F2050310F30C7308F500F6017C
:1023CC00F7011030F535F60DF70D890BE829750876
:1023DC00F0047608F1047708F20474080319080075
:1023EC00F217080020003008B4003108B50032089C
:1023FC00B6000310350D360DB7003708BD003D088B
:10240C00031D112A0030B3000030B2000030B100BF
:10241C000030B00008003008B4003108B5003208B4
:10242C00B6001730B636B50CB40C890B182A340824
:10243C00B7003708B800B117FF30B005FF30B10551
:10244C000030B2053008B9003108BA003208BB00C0
:10245C00BC018E30BD02BD1F4F2A3D08803A8F3E15
:10246C000318412A0030B3000030B2000030B10034
:10247C000030B00008000130BC36BB0CBA0CB90CF3
:10248C00890B422A0130B4003408BD070319682AAD
:10249C00412A18303D02031C652A0030B30000307D
:1024AC00B2000030B1000030B00008000130B93586
:1024BC00BA0DBB0DBC0D890B5D2A0130BD023D0868
:1024CC00031D5C2A38080319762AB909BA09BB0915
:1024DC00BC09B90A0319BA0A0319BB0A0319BC0AC5
:1024EC003C08B3003B08B2003A08B1003908B00010
:1024FC00080021004A08031DC82AFF303D00C40013
:10250C00FF30C3003117FF30E400FF30E3005117F8
:10251C003E00A401A30111173D00311751173E00D5
:10252C0011171530F2004B30F100D130F000F00BE8
:10253C009D2AF10B9D2AF20B9D2A0000FF303D00D5
:10254C00C400FF30C3003117FF30E400FF30E3005C
:10255C005117FF303E00A400FF30A30011173D00BF
:10256C00311751173E0011171530F2004B30F100A6
:10257C00D130F000F00BC02AF10BC02AF20BC02AAC
:10258C0000007F2A0B304A020318E12AFF303D007D
:10259C00C400FF30C3003117FF30E400FF30E3000C
:1025AC0051173E00A401A30111173D00311751171B
:1025BC003E00111708000B3021004A02031CFE2AB2
:1025CC0023304A020318FE2A3D00C401C30131170F
:1025DC00FF30E400FF30E30051173E00A401FF3050
:1025EC00A30011173D00311751173E0011170800B9
:1025FC003D00C401C3013117FF30E400FF30E3009C
:10260C005117FF303E00A400FF30A30011173D000E
:10261C00311751173E001117080021004A08031DFD
:10262C005E2BFF303D00C400FF30C3003117FF307C
:10263C00E400FF30E30051173E00A401A301111781
:10264C003D00311751173E00111715302000C20004
:10265C004B30C100D130C000C00B322BC10B322B20
:10266C00C20B322B0000FF303D00C400FF30C30012
:10267C003117FF30E400FF30E3005117FF303E000C
:10268C00A400FF30A30011173D00311751173E0075
:10269C00111715302000C2004B30C100D130C000E2
:1026AC00C00B562BC10B562BC20B562B0000132BF9
:1026BC000B304A020318772BFF303D00C400FF306B
:1026CC00C3003117FF30E400FF30E30051173E0028
:1026DC00A401A30111173D00311751173E0011172A
:1026EC0008000B3021004A02031C942B23304A02B1
:1026FC000318942B3D00C401C3013117FF30E400D3
:10270C00FF30E30051173E00A401FF30A300111766
:10271C003D00311751173E00111708003D00C40150
:10272C00C3013117FF30E400FF30E3005117FF30D5
:10273C003E00A400FF30A30011173D0031175117C4
:10274C003E0011170800F501F6017608803AF300F7
:10275C0080307302031DB42B043075020318C92B8F
:10276C00003090314D2093310130F5070030F63DAB
:10277C007608803AF30080307302031DC72B0430B7
:10278C007502031CB62BFF3090314D209331003075
:10279C0090314D209331003090314D2093310030E9
:1027AC0090314D209331FF3090314D2093310030DA
:1027BC0090314D209331003090314D2093310030C9
:1027CC0090314D209331FF3090314D2093310030BA
:1027DC0090314D209331003090314D2093310030A9
:1027EC0090314D209331FF3090314D20933100309A
:1027FC0090314D209331003090314D209331003089
:10280C0090314D209331FF3090314D209331003079
:10281C0090314D209331003090314D209331003068
:10282C0090314D209331F701F8017808803AF3008C
:10283C0080307302031D242C043077020318392CCA
:10284C00FF3090314D2093310130F7070030F83DC7
:10285C007808803AF30080307302031D372C043063
:10286C007702031C262CD030F400C930F300F30B94
:10287C003D2CF40B3D2C00320800F800F901FA0154
:10288C007A08803AF60080307602031D4F2C043013
:10289C0079020318642C003090314D2094310130B2
:1028AC00F9070030FA3D7A08803AF600803076025B
:1028BC00031D622C04307902031C512C78089031D2
:1028CC004D209431750890314D209431740890311D
:1028DC004D209431730890314D209431FF3090315C
:1028EC004D209431003090314D2094310030903196
:1028FC004D209431003090314D209431FF30903187
:10290C004D209431003090314D2094310030903175
:10291C004D209431003090314D209431FF30903166
:10292C004D209431003090314D2094310030903155
:10293C004D209431003090314D209431FF30903146
:10294C004D209431003090314D2094310030903135
:10295C004D209431003090314D209431FB01FC011D
:10296C007C08803AF60080307602031DBF2C0430C0
:10297C007B020318D42CFF3090314D209431013060
:10298C00FB070030FC3D7C08803AF6008030760274
:10299C00031DD22C04307B02031CC12CD030F70059
:1029AC00C930F600F60BD82CF70BD82C00320800E7
:1029BC00F800F901FA017A08803AF60080307602C4
:1029CC00031DEA2C043079020318FF2C00309031DF
:1029DC004D2094310130F9070030FA3D7A08803AE5
:1029EC00F60080307602031DFD2C04307902031CA6
:1029FC00EC2CFF3090314D209431003090314D2033
:102A0C009431003090314D209431003090314D2074
:102A1C009431780890314D209431750890314D20C7
:102A2C009431740890314D209431730890314D20BD
:102A3C009431FF3090314D209431003090314D2045
:102A4C009431003090314D209431003090314D2034
:102A5C009431FF3090314D209431003090314D2025
:102A6C009431003090314D209431003090314D2014
:102A7C009431FF3090314D209431003090314D2005
:102A8C009431003090314D209431003090314D20F4
:102A9C009431FB01FC017C08803AF6008030760210
:102AAC00031D5A2D04307B0203186F2DFF3090311B
:102ABC004D2094310130FB070030FC3D7C08803AFE
:102ACC00F60080307602031D6D2D04307B02031C52
:102ADC005C2DD030F700C930F600F60B732DF70BD8
:102AEC00732D00320800F800F901FA017A08803AD7
:102AFC00F60080307602031D852D04307902031810
:102B0C009A2D003090314D2095310130F90700306D
:102B1C00FA3D7A08803AF60080307602031D982D33
:102B2C0004307902031C872DFF3090314D209531F4
:102B3C00003090314D209531003090314D20953141
:102B4C00003090314D209531FF3090314D20953132
:102B5C00003090314D209531003090314D20953121
:102B6C00003090314D209531780890314D209531C1
:102B7C00750890314D209531740890314D20953168
:102B8C00730890314D209531FF3090314D209531A7
:102B9C00003090314D209531003090314D209531E1
:102BAC00003090314D209531FF3090314D209531D2
:102BBC00003090314D209531003090314D209531C1
:102BCC00003090314D209531FB01FC017C08803A9E
:102BDC00F60080307602031DF52D04307B020318BD
:102BEC000A2EFF3090314D2095310130FB0700301B
:102BFC00FC3D7C08803AF60080307602031D082EDE
:102C0C0004307B02031CF72DD030F700C930F600DE
:102C1C00F60B0E2EF70B0E2E00320800F800F90101
:102C2C00FA017A08803AF60080307602031D202ED5
:102C3C00043079020318352E003090314D20963136
:102C4C000130F9070030FA3D7A08803AF6008030FE
:102C5C007602031D332E04307902031C222EFF3022
:102C6C0090314D209631003090314D20963100300E
:102C7C0090314D209631003090314D209631FF30FF
:102C8C0090314D209631003090314D2096310030EE
:102C9C0090314D209631003090314D209631FF30DF
:102CAC0090314D209631003090314D2096310030CE
:102CBC0090314D209631003090314D20963178086E
:102CCC0090314D209631750890314D209631740815
:102CDC0090314D209631730890314D209631FF3054
:102CEC0090314D209631003090314D20963100308E
:102CFC0090314D209631003090314D209631FB01B2
:102D0C00FC017C08803AF60080307602031D902E80
:102D1C0004307B020318A52EFF3090314D209631E4
:102D2C000130FB070030FC3D7C08803AF600803017
:102D3C007602031DA32E04307B02031C922ED0308E
:102D4C00F700C930F600F60BA92EF70BA92E0032AE
:102D5C0008002100A001A1012108803A2000C30035
:102D6C0080304302031DBD2E0430210020020318C5
:102D7C00D52E003090315D20963101302100A00716
:102D8C000030A13D2108803A2000C300803043026E
:102D9C00031DD32E043021002002031CBF2EFF3054
:102DAC0090315D209631003090315D2096310030AD
:102DBC0090315D209631003090315D209631FF309E
:102DCC0090315D209631003090315D20963100308D
:102DDC0090315D209631003090315D209631FF307E
:102DEC0090315D209631003090315D20963100306D
:102DFC0090315D209631003090315D209631FF305E
:102E0C0090315D209631003090315D20963100304C
:102E1C0090315D209631003090315D209631FF303D
:102E2C0090315D209631003090315D20963100302C
:102E3C0090315D209631003090315D20963121002B
:102E4C00A201A3012308803A2000C3008030430272
:102E5C00031D332F04302100220203184B2FFF30A7
:102E6C0090315D20963101302100A2070030A33D46
:102E7C002308803A2000C30080304302031D492FF1
:102E8C00043021002202031C352FD0302000C40056
:102E9C00C930C300C30B502FC40B502F0032080095
:102EAC008F302000C500450821008E058D138D1232
:102EBC003D00B101B201B301B401B601B701B801D3
:102ECC00B9010130BA000130BB000130BC00BD01BA
:102EDC000130BE00BF01C201C1010130C400F43099
:102EEC00C3000330C600E730C500C901CA01CD01DB
:102EFC00CB01CC010130CE00CF01C0010130B500B7
:102F0C008030B100DD302000C5004508210094055B
:102F1C0014083D00D101D2010230D300D401D601F6
:102F2C00D701D801D9010130DA000130DB000130C2
:102F3C00DC00DD010130DE00DF01E201E1010130E6
:102F4C00E400F430E3000330E600E730E500E9018B
:102F5C00EA01ED01EB01EC010130EE00EF01E001C3
:102F6C000130D5008030D100BB302000C5004508B1
:102F7C002100940514083E00910192010230930047
:102F8C009401960197019801990101309A00013042
:102F9C009B0001309C009D0102309E009F01A2010C
:102FAC00A1010130A400F430A3000330A600E730E7
:102FBC00A500A901AA01AD01AB01AC010230AE0024
:102FCC00AF01A001023095008030910077302000D5
:102FDC00C5004508210094051408240095122030E2
:102FEC00950022001D169D169D15240095169631F0
:102FFC00AF2608000A340D3447346F346F34643410
:10300C0020346A346F3462342E34203459346F34A3
:10301C00753420346B346E346F3477342034683428
:10302C006F347734203474346F3420347234653414
:10303C0061346434203469346E34733474347234CF
:10304C0075346334743469346F346E3473342E34A1
:10305C000A340A34003450346C34653461347334BB
:10306C006534203465346E347434653472342034F1
:10307C0074346834653420346334683461347234A5
:10308C0061346334743465347234203441343A34EA
:10309C00203400340A340D34573472346F346E34A7
:1030AC00673420346B34653479342E342034543402
:1030BC0072347934203461346734613469346E3459
:1030CC002E340A340D3400340A340D344D3461344A
:1030DC0069346E3420344C346F346F347034203493
:1030EC0049346E34643469347634693464347534F8
:0A30FC0061346C340A340D340034E2
:020000040001F9
:04000E00E4F9FFDE34
:00000001FF
