:08000000803102288731F42F42
:10043A00323420003E0808002000911E212A2300A1
:10044A0019080800F0012000911E282A2300190823
:10045A000800F00023009E1C2F2A70089A0008004A
:10046A00F2302000A0008A30A10083315423080012
:10047A004E302000A0008A30A100833154230800A6
:10048A009F302000A0008B30A10083315423080044
:10049A008B302000A0008B30A10083315423080048
:1004AA00F830F000700821009904F730F000700865
:1004BA008D058B170800823127228231F1007108DD
:1004CA00F20073307206031D6C2A013008007208AC
:1004DA0008008730F000700821008E058E1733302F
:1004EA0023009B001E119F111E129D179E161D169A
:1004FA002100911608002000AE002E08031D8C2A48
:10050A003130A0008930A100833154230800200033
:10051A002E03031D0800B530A0008930A1008331E5
:10052A00542308002000AE002E08031DA32A94308D
:10053A00A0008A30A10083315423080020002E0332
:10054A00031D08007230A0008A30A10083315423B1
:10055A000800F1000530F000710886008701700874
:10056A0081000A30F000710A860087017008810054
:10057A000F30F0007108023E860087017008810082
:10058A000800780879040319ED2AFD01FD0AF91B10
:10059A00D82A0130F835F90D890BCF2A0130FC0031
:1005AA007C08FD07CC2A79087B02031DDE2A78081D
:1005BA007A02031CE42A7808FA027908FB3B013024
:1005CA00F936F80C890BE52A0130FD02031DD82AF9
:1005DA007B08F9007A08F80008002000B100D8303A
:1005EA00A0008B30A1002E08AF00B0012F08A20096
:1005FA003008A30083315423823120003108031DBF
:10060A000D2BC430A0008B30A10083315423080085
:10061A0020003103031D182BCE30A0008B30A1001F
:10062A00833154230800E1302000A0008B30A10060
:10063A00833154230800F501F60170087104031987
:10064A004F2BF701F70AF11B342B0130F035F10D6E
:10065A00890B2B2B0130F4007408F707282B013083
:10066A00F535F60D890B352B71087302031D3F2BE7
:10067A0070087202031C462B7008F2027108F33BE1
:10068A0075140130F136F00C890B472B0130F70253
:10069A00031D342B7608F1007508F000080022309B
:1006AA002000A4002408A80020002108A500200892
:1006BA00A400A00A0319A10A2408840025088500B9
:1006CA000008A6002608AD002D08031908002530E9
:1006DA002D060319752B2D0882312E228331592BB1
:1006EA002000A9012108A5002008A400A00A0319D6
:1006FA00A10A24088400250885000008AD00003AF4
:10070A0003190A2C643A03198E2B0D3A03198E2BFE
:10071A00592B280886008701403FAB00413FAC00B7
:10072A000230A4002408A807AC1FA42B0330A4009D
:10073A002408A904AB09AC09AB0A0319AC0AAD0138
:10074A00AD0A05302D060319C92B2D08A400A501F1
:10075A00A435A50D0030240784008830253D850086
:10076A00003FA600013FA70027082C02031DBF2B4C
:10077A0026082B02031CC92B0130A4002408AD074C
:10078A0005302D06031DAA2B290803390319D12B7D
:10079A002D3082312E22833120002D08A400240816
:1007AA00AA00FF302000A4002408AA072A0A031975
:1007BA00592B0A30F8000030F9002A08A400A501D4
:1007CA00A435A50D0030240784008830253D850016
:1007DA00003FF000013FF1002C08F3002B08F20063
:1007EA008331202383317108FB007008FA008231BB
:1007FA00C62283317808303E2000A6002608AD00C4
:10080A002D0882312E228331D62B080020003A0887
:10081A00B5003B08B6003C08B7002030B2003208E9
:10082A00B900B80182315522843182316E22843175
:10083A0005302000B4000F30B300F430B200B20B20
:10084A00242CB30B242CB40B242C20008D158D30B2
:10085A00A0008830A10083315423843182313D22A3
:10086A00843182313522843182314D228431823180
:10087A00452284314C302000A0008830A100833109
:10088A005423843105302000A0008A307A2C62304B
:10089A003906031D592CED30A0008B30A10083319D
:1008AA00542384310230722C64303906031D662CBD
:1008BA00F130A0008B30A1008331542384310330FE
:1008CA00722C67303906031D772CF530A0008B3067
:1008DA00A10083315423843104302000B20032084D
:1008EA00BD00932C0F30A0008B30A100833154231C
:1008FA0084318231212284312000B2003208B900C9
:10090A0061303906031D4C2CE930A0008B30A10060
:10091A008331542384312000BD01BD0ADF30200019
:10092A00A0008930A92C6E303906031DA62CF93097
:10093A00A0008B30A1008331542384312000BE01F2
:10094A00C22C0F30A0008B30A10083315423843194
:10095A008231212284312000B2003208B900793074
:10096A003906031D982CFD30A0008B30A10083317D
:10097A00542384312000BE01BE0ACB302000A000DF
:10098A008830A1008331542384310A302000A0002A
:10099A008830A1008331542384312A302000A000FA
:1009AA008A30A10083315423843120003D03031D82
:1009BA00BA2D612D01309F2D643020003906031DA8
:1009CA00012D82311E228431003A031D012D20009F
:1009DA0040080319F22C0A30C0026030A0008930A6
:1009EA00A1004008B200B3013208A2003308A300F4
:1009FA00833154238431A22D683020003906031D27
:100A0A00242D82311E228431003A031D242D3230D6
:100A1A00200040020318152D0A30B2003208C00720
:100A2A008B30A0008930A1004008B200B30132081F
:100A3A00A2003308A300833154238431A22D7430D9
:100A4A0020003906031D3C2D82311E228431003AD2
:100A5A00031D3C2D0A302000B2003208BF07D430F3
:100A6A00A0008A30A100833154238431A22D6F3033
:100A7A0020003906031D5C2D82311E228431003A82
:100A8A00031D522D2000BE01BE0A7530A0008B3016
:100A9A00A100833154238431A22D2000BE015E308F
:100AAA00A0008B30A100833154238431A22D203041
:100ABA002000B2003208B90082316022843120005D
:100ACA00B2003208B9003903031DE12CB230A0008C
:100ADA008B30A10083315423843182311E22843128
:100AEA00003A031DDF2C35308231AE2284312000DA
:100AFA00B8010330380203189E2D3808353E8600A7
:100B0A00870101080319952D3808353E86008701AB
:100B1A000108B2003208AE0038088231F22284316C
:100B2A0001302000B2003208B80703303802031C33
:100B3A00822D00308231802284318B1320003F08BD
:100B4A000319B92D8B170530B4000F30B300F430F8
:100B5A00B200B20BAE2DB30BAE2DB40BAE2D8B1370
:100B6A0001302000BF02A32D8B1702303D06031D62
:100B7A002F2EEA2D013082319722843101302C2E1A
:100B8A006F3020003906031DE52D82311E22843183
:100B9A00003A031DDB2D2000BE01BE0A7530A000FD
:100BAA008B30A1008331542384312F2E2000BE01C3
:100BBA005E30A0008B30A1008331542384312F2E64
:100BCA0020302000B2003208B9008231602284311C
:100BDA002000B2003208B9003903031DC52DB23016
:100BEA00A0008B30A10083315423843182311E222C
:100BFA008431003A031DBF2D35308231AE22843153
:100C0A002000B801033038020318272E3808353E71
:100C1A0086008701010803191E2E3808353E860012
:100C2A0087010108B2003208AE0038088231F22288
:100C3A00843101302000B2003208B807033038028C
:100C4A00031C0B2E0030823197228431003082310E
:100C5A0080228431033020003D06031D102FB72E59
:100C6A000130F52E643020003906031D572E8231DB
:100C7A001E228431003A031D572E20004008031912
:100C8A00482E0A30C0026030A0008930A100400816
:100C9A00B200B3013208A2003308A30083315423FF
:100CAA008431F82E683020003906031D7A2E8231ED
:100CBA001E228431003A031D7A2E3230200040026F
:100CCA0003186B2E0A30B2003208C0078B30A0001E
:100CDA008930A1004008B200B3013208A2003308EB
:100CEA00A300833154238431F82E7430200039064E
:100CFA00031D922E82311E228431003A031D922E48
:100D0A000A302000B2003208BF07D430A0008A306F
:100D1A00A100833154238431F82E6F302000390624
:100D2A00031DB22E82311E228431003A031DA82EE1
:100D3A002000BE01BE0A7530A0008B30A1008331AD
:100D4A0054238431F82E2000BE015E30A0008B307F
:100D5A00A100833154238431F82E20302000B200C0
:100D6A003208B9008231602284312000B200320890
:100D7A00B9003903031D372EB230A0008B30A10011
:100D8A0083315423843135308231AE2284312000BC
:100D9A00B801033038020318EE2E3808353E8600B3
:100DAA00870101080319E52E3808353E86008701B8
:100DBA000108B2003208AE0038088231F2228431CA
:100DCA0001302000B2003208B80703303802031C91
:100DDA00D22E82311E228431003A031D352E003074
:100DEA008231802284318B1320003F0803190F2F90
:100DFA008B170530B4000F30B300F430B200B20BD9
:100E0A00042FB30B042FB40B042F8B1301302000D3
:100E1A00BF02F92E8B1704303D06031DF02F972FC2
:100E2A000130D52F643020003906031D372F823157
:100E3A001E228431003A031D372F2000400803196F
:100E4A00282F0A30C0026030A0008930A100400873
:100E5A00B200B3013208A2003308A300833154233D
:100E6A008431D82F683020003906031D5A2F823169
:100E7A001E228431003A031D5A2F323020004002CC
:100E8A0003184B2F0A30B2003208C0078B30A0007B
:100E9A008930A1004008B200B3013208A200330829
:100EAA00A300833154238431D82F743020003906AB
:100EBA00031D722F82311E228431003A031D722FC4
:100ECA000A302000B2003208BF07D430A0008A30AE
:100EDA00A100833154238431D82F6F302000390682
:100EEA00031D922F82311E228431003A031D882F5E
:100EFA002000BE01BE0A7530A0008B30A1008331EC
:100F0A0054238431D82F2000BE015E30A0008B30DC
:100F1A00A100833154238431D82F20302000B2001D
:100F2A003208B9008231602284312000B2003208CE
:100F3A00B9003903031D172FB230A0008B30A1006E
:100F4A0083315423843182311E228431003A031DB5
:100F5A00152F35308231AE2284312000B80103309A
:100F6A0038020318D42F3808353E86008701010855
:100F7A000319CB2F3808353E860087010108B200D5
:100F8A003208AE0038088231F22284310130200062
:100F9A00B2003208B80703303802031CB82F0030F9
:100FAA008231802284318B1320003F080319EF2FEE
:100FBA008B170530B4000F30B300F430B200B20B17
:100FCA00E42FB30BE42FB40BE42F8B130130200072
:100FDA00BF02D92F8B174B30A0008A30D62CBA010A
:100FEA00BB01BC01BD01BE01BF0182311D22C0008F
:100FFA00200084310B2C013400340A340034643468
:10100A000034E834033410342734503472346534ED
:10101A007334733420342734643427342C34203422
:10102A002734683427342C3420346F347234203413
:10103A00273474342734203474346F3420347334AE
:10104A0065346E3464342034643461346D3461340C
:10105A00673465342C3420346834653461346C3434
:10106A00743468342C3420346F347234203473343A
:10107A00743475346E3420347034613463346B34B0
:10108A006534743473342E340A340D3400340A341B
:10109A000D34573468346934633468342034623424
:1010AA006C34613464346534203477346F34753485
:1010BA006C346434203479346F34753420346C34AD
:1010CA0069346B346534203474346F3420347434A6
:1010DA006534733474343F34203445346E34743494
:1010EA006534723420346134203466346F34723497
:1010FA00203441346C347034683461342C342034F4
:10110A006234203466346F3472340A340D34003455
:10111A000A340D343D343D343D343D343D343D34A0
:10112A003D343D343D343D343D343D343D343D342D
:10113A003D343D343D343D343D343D343D343D341D
:10114A003D343D343D343D343D343D343D343D340D
:10115A003D343D343D343D343D343D343D343D34FD
:10116A003D343D343D343D343D343D343D343D34ED
:10117A003D343D343D343D343D343D343D343D34DD
:10118A003D343D343D340A340D3400345034723425
:10119A006534733473342034273473342734203459
:1011AA0074346F3420347334773469346E3467346A
:1011BA0020347434683465342034733477346F34AB
:1011CA0072346434203461346E34643420347334B9
:1011DA0065346534203477346834613474342034A7
:1011EA00683461347034703465346E347334213445
:1011FA000A340D3400340A340D3447346F346F34F2
:10120A00643420346A346F3462342E3420345934CE
:10121A006F34753420346B346E346F347734203441
:10122A0068346F347734203474346F342034723431
:10123A00653461346434203469346E3473347434FC
:10124A00723475346334743469346F346E3473347D
:10125A002E340A340A340034443469347334703412
:10126A006C346134793465346434203469346E34CE
:10127A0064346934763469346434753461346C3472
:10128A002034733477346F347234643420347334D2
:10129A00773469346E34673420346C346934673493
:1012AA00683474342034733468346F3477342E34A9
:1012BA000A340D34003454346834653420346234CA
:1012CA006C34613464346534203468346134733482
:1012DA0020346234653465346E34203464346134C5
:1012EA006D3461346734653464342E3420344834C0
:1012FA00653461346C347434683420343D342034B9
:10130A00253464342E340A340D34003454346834A9
:10131A006534203462346C34613464346534203486
:10132A0068346134733420346234653465346E341D
:10133A0020346834653461346C34653464342E3452
:10134A0020344834653461346C347434683420345D
:10135A003D342034253464342E340A340D340034B8
:10136A0044346934733470346C3461347934653498
:10137A00643420344F346D34653467346134203436
:10138A0062346C34613464346534203473347734B1
:10139A0069346E34673420346C34693467346834A1
:1013AA0074342034733468346F3477342E340A3406
:1013BA000D34003441347234653420347434683462
:1013CA006534203462346C34613464346534733483
:1013DA00203469346E3420346F346D3465346734A4
:1013EA00613420346D346F34643465343F342034CE
:1013FA00283479342F346E3429340A340D340034C5
:10140A0042346534743461342C34203464342034E6
:10141A0066346F3472342034443465346C34743432
:10142A0061342C3420346F347234203467342034DD
:10143A0066346F3472342034473461346D346D3419
:10144A0061342E340A340D34003450347234653425
:10145A0073347334203427346F342734203474348B
:10146A006F34203474346F34673467346C346534C1
:10147A0020344F346D3465346734613420346D342C
:10148A006F34643465342E340A340D340A340D341E
:10149A00003449346E3469347434693461346C34D8
:1014AA0069347A346534643420344934523420340B
:1014BA00733465346E3464342F347234653463346F
:1014CA006534693476346534203463346F34643473
:1014DA0065342E340A340D34003450346C3461349B
:1014EA0079346534643420344F346D346534673468
:1014FA006134203462346C346134643465342034A9
:10150A007334773469346E346734203473346F3407
:10151A0075346E3464342E340A340D340034503445
:10152A006C3461347934653464342034423465343B
:10153A0074346134203462346C3461346434653414
:10154A0020347334773469346E3467342034733416
:10155A006F3475346E3464342E340A340D340034E6
:10156A0050346C34653461347334653420346534F2
:10157A006E347434653472342034743468346534A7
:10158A0020346334683461347234613463347434BB
:10159A0065347234203441343A34203400345434BB
:1015AA0068346534203462346C34613464346534AC
:1015BA0020346834613473342034623465346534D9
:1015CA006E3420347334743475346E346E34653446
:1015DA0064342E340A340D34003449346E34693498
:1015EA007434693461346C3469347A3465346434FB
:1015FA00203461346334633465346C346534723452
:10160A006F346D3465347434653472342E340A346C
:10161A000D34003449346E34763461346C346934B0
:10162A006434203469346E347034753474342E342E
:10163A002034543472347934203461346734613458
:10164A0069346E342E340A340D3400340A340D34BD
:10165A00573472346F346E34673420346B346534E3
:10166A0079342E3420345434723479342034613449
:10167A006734613469346E342E340A340D340034DC
:10168A000A340D344D34613469346E3420344C34A8
:10169A006F346F347034203449346E3464346934AE
:1016AA00763469346434753461346C340A340D34F4
:1016BA0000344F346D3465346734613420346D340A
:1016CA006F34643465342034643469347334613477
:1016DA0062346C34653464342E340A340D34003484
:1016EA004F346D3465346734613420346D346F346B
:1016FA0064346534203465346E34613462346C3455
:10170A00653464342E340A340D34003449346E346A
:10171A0069347434693461346C3469347A346534C4
:10172A00643420344C344534443473342E340A340B
:10173A000D34003449346E34693474346934613494
:10174A006C3469347A34653464342034493453341B
:10175A0052342E340A340D340034533477346F340F
:10176A0072346434203477346134733420347334FB
:10177A00773475346E3467340A340D340034643483
:10178A0061346D346134673465342E340A340D346F
:10179A0000346834653461346C34743468342E34FB
:1017AA000A340D340034533465346E3474342034BE
:1017BA0025346434203400347334743475346E340C
:1017CA002E340A340D34003431340A340D340034E2
:1017DA0032340A340D34003433340A340D340034CC
:1017EA0034340A340D3400346E340A340D3400347F
:0817FA0079340A340D34003487
:020000040001F9
:04000E00E4F9FFDE34
:00000001FF
