:0400000081316129C0
:100008007E14803120007F08BF00960197012700E9
:10001800931C1428931002308231F92280315C2914
:10002800131E5C29EF302000BE003E082700930510
:1000380020000C1E28280A302000170276300319E9
:10004800160203185C291C28960197010C1A3428FB
:100058000A30170276300319160203185C292A2879
:10006800960197010C1E40280A30170276300319B2
:10007800160203185C2936281708C9001608C80094
:10008800960197010C1A50280A3017027630031986
:10009800160203185C294628960197010C1E5C2855
:1000A8000A30170276300319160203185C29522801
:1000B8001708CB001608CA00CD30A0008C30A1006C
:1000C8003F30A2004B08F9004A08F8008D3194250A
:1000D800803178082000A3007908A4007A08A500D8
:1000E8008531AB25803120002008B0002108B100FF
:1000F8002208B2004908F9004808F8008D31942513
:10010800803178082000B3007908B4007A08B50077
:100118008E3116268031031C5C29CD302000A000CA
:100128008C30A1003F30A2004908F9004808F800C7
:100138008D319425803178082000A3007908A40027
:100148007A08A5008531AB25803120002008B00051
:100158002108B1002208B2004B08F9004A08F8004B
:100168008D319425803178082000B3007908B400D7
:100178007A08B5008E3116268031031C5C290230BE
:10018800F0000030F10020004A084807F2004B0850
:10019800493DF3008E319F26803171082000CD0043
:1001A8007008CC004D08F9004C08F8008D319425F2
:1001B800803178082000A3007908A4007A08A500F7
:1001C800CD30A0008E30A1004130A2008531AB2592
:1001D800803120002008B0002108B1002208B200B8
:1001E8008E31F026803120003108CF003008CE0053
:1001F8004F08803ABE0097303E02031D0529703033
:100208004E02031C1A2920004F08803ABE009D3078
:100218003E02031D11294C304E0203181A292100F1
:10022800340803195C290130B4025C2920004F0806
:10023800803ABE00A7303E02031D242910304E022A
:10024800031C3E2920004F08803ABE00AE303E0213
:10025800031D3029E0304E0203183E2932302100B8
:10026800340203185C2901302000BE003E0821003A
:10027800B4075C2920004F08803ABE00B2303E0225
:10028800031D4829C8304E02031C5C2920004F0872
:10029800803ABE00BA303E02031D542998304E02FF
:1002A80003185C2901302000BE003E082100B30776
:1002B80020003F08FF007E10090081316329C80132
:1002C800C901CA01CB01CC01CD01CE01CF0121006A
:1002D800B001B101B201B3018731FE27B4007E102D
:1002E80020008731072F2100A80028080319832937
:1002F80028030319832902302806031D0800A901D1
:10030800290A03193E2AA001A1012108803A2000E8
:10031800C30080304302031D9429043021002002C9
:100328000318AC2900308D316D2581310130210051
:10033800A0070030A13D2108803A2000C30080308A
:100348004302031DAA29043021002002031C962918
:10035800FF308D316D25813100308D316D25813132
:1003680000308D316D258131210029088D316D25B1
:100378008131FF308D316D25813100308D316D2512
:10038800813100308D316D25813121002903FF3AFB
:10039800FF3E8D316D258131FF308D316D258131E5
:1003A80000308D316D25813100308D316D258131E1
:1003B800210029088D316D258131FF308D316D2562
:1003C800813100308D316D25813100308D316D25C1
:1003D800813121002903FF3AFF3E8D316D2581319E
:1003E800FF308D316D25813100308D316D258131A2
:1003F80000308D316D258131210029088D316D2521
:1004080081312100A201A3012308803A2000C30002
:1004180080304302031D132A0430210022020318EE
:100428002B2AFF308D316D25813101302100A20743
:100438000030A33D2308803A2000C30080304302E7
:10044800031D292A043021002202031C152AD0305A
:100458002000C400C930C300C30B302AC40B302AA3
:10046800003205302000C30043082100A907290AEB
:10047800031D8729FF302000C30043082100AA007C
:100488002A0803190800A401A5012508803A2000BC
:10049800C30080304302031D542A04302100240283
:1004A80003186C2A00308D316D258131013021000F
:1004B800A4070030A53D2508803A2000C3008030FD
:1004C8004302031D6A2A043021002402031C562A11
:1004D800FF308D316D25813100308D316D258131B1
:1004E80000308D316D25813121002A088D316D252F
:1004F8008131FF308D316D25813100308D316D2591
:10050800813100308D316D25813121002A03FF3A78
:10051800FF3E8D316D258131FF308D316D25813163
:1005280000308D316D25813100308D316D2581315F
:1005380021002A088D316D258131FF308D316D25DF
:10054800813100308D316D25813100308D316D253F
:10055800813121002A03FF3AFF3E8D316D2581311B
:10056800FF308D316D25813100308D316D25813120
:1005780000308D316D25813121002A088D316D259E
:1005880081312100A601A7012708803A2000C30075
:1005980080304302031DD32A0430210026020318A9
:1005A800EB2AFF308D316D25813101302100A607FE
:1005B8000030A73D2708803A2000C300803043025E
:1005C800031DE92A043021002602031CD52AD03055
:1005D8002000C400C930C300C30BF02AC40BF02AA2
:1005E800003205302100AA02442A2000A000200879
:1005F8000319052B20030319052B02302006031DC0
:100608000800A901290A0319B62BA101A201220891
:10061800803AF30080307302031D142B043021024A
:1006280003182A2B00308D314C25823101302000EF
:10063800A1070030A23D2208803AF30080307302FF
:10064800031D282B04302102031C162BFF308D318B
:100658004C25823100308D314C25823100308D316E
:100668004C258231200029088D314C258231FF30FC
:100678008D314C25823100308D314C25823100304E
:100688008D314C25823120002903FF3AFF3E8D3100
:100698004C258231FF308D314C25823100308D312F
:1006A8004C25823100308D314C25823120002908BB
:1006B8008D314C258231FF308D314C25823100300F
:1006C8008D314C25823100308D314C25823120000E
:1006D8002903FF3AFF3E8D314C258231FF308D31A1
:1006E8004C25823100308D314C25823100308D31DE
:1006F8004C258231200029088D314C25823120007B
:10070800A301A4012408803AF30080307302031D7A
:100718008F2B043023020318A52BFF308D314C2575
:10072800823101302000A3070030A43D2408803A1C
:10073800F30080307302031DA32B04302302031C33
:10074800912BD030F400C930F300F30BA92BF40B34
:10075800A92B00320530F30073082000A907290AE5
:10076800031D092BFF30F3007308AA002A08031998
:100778000800A501A6012608803AF300803073021C
:10078800031DC82B043025020318DE2B00308D31E1
:100798004C25823101302000A5070030A63D2608EF
:1007A800803AF30080307302031DDC2B04302502ED
:1007B800031CCA2BFF308D314C25823100308D311E
:1007C8004C25823100308D314C25823120002A0899
:1007D8008D314C258231FF308D314C2582310030EE
:1007E8008D314C25823100308D314C2582312000ED
:1007F8002A03FF3AFF3E8D314C258231FF308D317F
:100808004C25823100308D314C25823100308D31BC
:100818004C25823120002A088D314C258231FF3049
:100828008D314C25823100308D314C25823100309C
:100838008D314C25823120002A03FF3AFF3E8D314D
:100848004C258231FF308D314C25823100308D317D
:100858004C25823100308D314C25823120002A0808
:100868008D314C2582312000A701A8012808803A43
:10087800F30080307302031D432C04302702031851
:10088800592CFF308D314C25823101302000A707CB
:100898000030A83D2808803AF30080307302031D19
:1008A800572C04302702031C452CD030F400C930E3
:1008B800F300F30B5D2CF40B5D2C003205302000A7
:1008C800AA02BA2B2100A6002608031DD42CA001D9
:1008D800A1012108803A2000C10080304102031D97
:1008E800782C400821002002031808003D009216C9
:1008F800ED302000C10000320000C10B7F2C000049
:100908003D0092121A302000C200F830C100C10B1D
:100918008B2CC20B8B2C00003D009216043020005B
:10092800C200B430C100C10B972CC20B972C000039
:100938003D00921219302000C2001B30C100C10BCB
:10094800A32CC20BA32C00323D00921604302000C9
:10095800C200B430C100C10BAF2CC20BAF2C0000D9
:100968003D00921219302000C2001B30C100C10B9B
:10097800BB2CC20BBB2C00323D0092161C30200051
:10098800C200D130C100C10BC72CC20BC72C00322A
:100998003D00921201302100A0070030A13D6D2CCE
:1009A80021002603031D412DA201A3012308803A3B
:1009B8002000C10080304102031DE52C40082100C1
:1009C8002202031808003D009216ED302000C100F5
:1009D80000320000C10BEC2C00003D0092121A30CE
:1009E8002000C200F830C100C10BF82CC20BF82C53
:1009F80000003D00921606302000C2008D30C10074
:100A0800C10B042DC20B042D00323D009212173089
:100A18002000C2004230C100C10B102DC20B102DA6
:100A280000003D00921606302000C2008D30C10043
:100A3800C10B1C2DC20B1C2D00323D009212173029
:100A48002000C2004230C100C10B282DC20B282D46
:100A580000003D0092161C302000C200D130C100B9
:100A6800C10B342DC20B342D00323D0092120130DF
:100A78002100A2070030A33DDA2C2100A401A50122
:100A88002508803A2000C10080304102031D4F2D07
:100A9800400821002402031808003D009216ED309A
:100AA8002000C10000320000C10B562D00003D009F
:100AB80092121A302000C200F830C100C10B622D1A
:100AC800C20B622D00003D00921608302000C200C3
:100AD8006930C100C10B6E2DC20B6E2D00323D0076
:100AE800921215302000C2006630C100C10B7A2D69
:100AF800C20B7A2D00003D00921608302000C2007B
:100B08006930C100C10B862DC20B862D00323D0015
:100B1800921215302000C2006630C100C10B922D20
:100B2800C20B922D00003D0092161C302000C2001E
:100B3800D130C100C10B9E2DC20B9E2D00323D004D
:100B4800921201302100A4070030A53D442D200059
:100B58002008A6002108A7002208A8000310270DD6
:100B6800280DA9002908AA002A08031DC22D003053
:100B7800A0000030A1000030A20008002308A60051
:100B88002408A7002508A8000310270D280DA90090
:100B98002908AF002F08031DD82D0030A000003011
:100BA800A1000030A20008002F087B3EA6002608FE
:100BB800AA072008A6002108A7002208A8001030CC
:100BC800A836A70CA60C890BE42D2608A90029082D
:100BD800AF002308A6002408A7002508A8001030A5
:100BE800A836A70CA60C890BF42D2608A9002908FD
:100BF800AF068030A6002608AF05A117A417FF305E
:100C0800A305FF30A4050030A5050030AB00003077
:100C1800AC000030AD000730A6002608AE00201C4E
:100C28001B2E2308AB072408AC3D2508AD3D013039
:100C3800A236A10CA00C890B1C2E0130A335A40DE3
:100C4800A50D890B222E0130AE02031D132E09308B
:100C5800A6002608AE00201C372E2308AB07240860
:100C6800AC3D2508AD3D0130A236A10CA00C890B86
:100C7800382E0130AD36AC0CAB0C890B3E2E013052
:100C8800AE02031D2F2E2B08F0002C08F1002D08B2
:100C9800F2002A08A6002608F3002F08A700270854
:100CA800F40087319A2770082000A0007108A1007D
:100CB8007208A20008008F302000C0004008210000
:100CC8008E058D138D123D00B101B201B301B4013F
:100CD800B601B701B801B9010130BA000130BB0053
:100CE8000130BC00BD010130BE00BF01C201C1011D
:100CF8000130C400F430C3000330C600E730C5003B
:100D0800C901CA01CD01CB01CC010130CE00CF0110
:100D1800C0010130B5008030B100DD302000C000D6
:100D280040082100940514083D00D101D201023089
:100D3800D300D401D601D701D801D9010130DA0096
:100D48000130DB000130DC00DD010130DE00DF01B5
:100D5800E201E1010130E400F430E3000330E60091
:100D6800E730E500E901EA01ED01EB01EC010130B2
:100D7800EE00EF01E0010130D5008030D100BB303A
:100D88002000C00040082100940514083E0091018D
:100D980092010230930094019601970198019901FC
:100DA80001309A0001309B0001309C009D01023007
:100DB8009E009F01A201A1010130A400F430A3000C
:100DC8000330A600E730A500A901AA01AD01AB01D7
:100DD800AC010230AE00AF01A001023095008030B6
:100DE800910077302000C0004008210094051408C5
:100DF800240095122030950022001D169D169D1581
:100E080024009516080021003008AC003108AD0018
:100E18003208AE00AF018D315C25873105302000E6
:100E2800C7000F30C600F430C500C50B192FC60B1C
:100E3800192FC70B192F8D31DD2587318D3180256D
:100E4800873186315F2687318D313D2587318D3158
:100E5800352587318E31522687318F317727873173
:100E6800003A03197A2F21003408031D412F8D31D0
:100E780038258731003A03197A2F8D313825873183
:100E8800003A031D762FAC308D31B42587310330FD
:100E98002000C50045082100AF002F080319742F52
:100EA8002F08FF3EAC3E86008701010803196E2F0C
:100EB8008B132F08FF3EAC3E8600870101082000F7
:100EC800C5004508C00021002F08FF3E8431662474
:100ED80087318B1701302100AF022F08031D542FD3
:100EE8000030772F01308131772187318B138E2F96
:100EF8008B1705302000C7000F30C600F430C5003E
:100F0800C50B842FC60B842FC70B842F8B1301307E
:100F18002100B302210033080319982F8D31382599
:100F28008731003A03197C2F8B172E2F730803196A
:100F3800A22F720871047004031DB32F0030F00053
:100F48000030F1000030F20008000130F5007508AB
:100F5800F3070130F236F10CF00C890BAE2FFE309E
:100F680072050319CC2FA92F0130F5007508F30776
:100F78000130F007003003180130F1070030031882
:100F88000130F2070130F236F10CF00C890BC72F53
:100F9800FF3072050319D92FB82F0130F302013041
:100FA800F035F10DF20D890BD42FF11BDF2F023034
:100FB80073020318D12F7318E72FFF30F0057F3025
:100FC800F105FF30F2050310F30C7308F500F60184
:100FD800F7011030F535F60DF70D890BEE2F750872
:100FE800F0047608F1047708F2047408031908007D
:060FF800F217080032347C
:101A6A0021008C140800003020008C180130080076
:101A7A00D8308B002700110812389100120810384C
:101A8A00920031302000980021000C160800F20064
:101A9A0024001108F0007008F100200091112400C0
:101AAA00951372089100200091190800582D2300FF
:101ABA008C018D01F3302000C000400821008D0503
:101ACA00F8302000C0004008210099048B17080054
:101ADA002000C200240011082000C0004008C100F4
:101AEA00911124009513200042082400910020003F
:101AFA00911908007C2D803021009E000F309F0034
:101B0A002C302000C000400821008C042C3020001A
:101B1A00C000400823008C0421008E170800FD0134
:101B2A00F91F9E2DF809F909F80A0319F90AFD01A6
:101B3A00FD0A7808F0007908F100F2018E30FB0006
:101B4A007B08F3007D08FC007C08F40087319A27A3
:101B5A007008F8007108F9007208FA0008002000FD
:101B6A00C1008D3138258D31003A0319CB2D200063
:101B7A004108860087018101410A860087018101A7
:101B8A004108023E860087018101080002302000D8
:101B9A00C00041088600870140088100410A86008A
:101BAA00870181014108023E860087018101080000
:101BBA00F7302000C000400821008E053D00910149
:101BCA00803092009301940196019701980199013E
:101BDA0001309A0001309B0001309C009D010830C1
:101BEA009E009F01A201A1010130A4006A30A30056
:101BFA000230A6003A30A500A901AA01AD01AB0145
:101C0A00AC010830AE00AF01A00108309500803069
:101C1A009100EE302000C00040082100940514080D
:101C2A0008002000B21F2D2E3009B6003109B70076
:101C3A003209B800B60A0319B70A0319B80A0030FC
:101C4A003607B0000030373DB1008030383DB20071
:101C5A00B51F432E3309B6003409B7003509B80059
:101C6A00B60A0319B70A0319B80A00303607B300CF
:101C7A000030373DB4008030383DB5008030B206C0
:101C8A008030B50635083202031D080034083102D7
:101C9A00031D08003308300208000A30210034020C
:101CAA0003186C2E3D00C401C3013117FF30E40054
:101CBA00FF30E3005117FF303E00A400FF30A300BD
:101CCA0011173D00311751173E00111708000B304C
:101CDA0021003402031C8A2E2330340203188A2E70
:101CEA00FF303D00C400FF30C3003117FF30E4006D
:101CFA00FF30E30051173E00A401A30111173D0074
:101D0A00311751173E0011170800FF303D00C4007B
:101D1A00FF30C3003117E401E3015117FF303E00E1
:101D2A00A400FF30A30011173D00311751173E00E0
:101D3A0011170800F601F11FA92EF009F109F00A9E
:101D4A000319F10AF601F60AF31FB42EF209F30990
:101D5A00F20A0319F30A0130F4007408F606F701CF
:101D6A00F801700871040319E32EF501F50AF11B55
:101D7A00C82E0130F035F10D890BBF2E0130F40069
:101D8A007408F507BC2E0130F735F80D890BC92EFA
:101D9A0071087302031DD32E70087202031CDA2E17
:101DAA007008F2027108F33B77140130F136F00C37
:101DBA00890BDB2E0130F502031DC82E76080319A4
:101DCA00EB2EF709F809F70A0319F80A7808F1005F
:101DDA007708F000080020003008B4003108B50088
:101DEA003208B6000310350D360DB7003708BD00AE
:101DFA003D08031D092F0030B3000030B200003047
:101E0A00B1000030B00008003008B4003108B50055
:101E1A003208B6001730B636B50CB40C890B102F41
:101E2A003408B7003708B800B117FF30B005FF30E3
:101E3A00B1050030B2053008B9003108BA003208DD
:101E4A00BB00BC018E30BD02BD1F472F3D08803A42
:101E5A008F3E0318392F0030B3000030B200003033
:101E6A00B1000030B00008000130BC36BB0CBA0C1F
:101E7A00B90C890B3A2F0130B4003408BD07031995
:101E8A00602F392F18303D02031C5D2F0030B3003C
:101E9A000030B2000030B1000030B000080001305C
:101EAA00B935BA0DBB0DBC0D890B552F0130BD02DA
:101EBA003D08031D542F380803196E2FB909BA09B2
:101ECA00BB09BC09B90A0319BA0A0319BB0A0319DF
:101EDA00BC0A3C08B3003B08B2003A08B100390812
:101EEA00B000080020008E1F7C2F0130080021005E
:101EFA00AB01A201A301A401A501A601A701A801A2
:101F0A00A901AA015130A0000130A1000730A700A1
:101F1A000030A8000430A9000030AA0009309D0052
:101F2A00C7302000C0000000C00B982F003200000C
:101F3A0021009D149D189F2F1C082000C0004008F6
:101F4A002100AB001B082000C00040082100A400AB
:101F5A000D309D00C7302000C0000000C00BB22F1A
:101F6A000032000021009D149D18B92F1C08200082
:101F7A00C00040082100A2001B082000C000400841
:101F8A002100A50015309D00C7302000C0000000C8
:101F9A00C00BCC2F0032000021009D149D18D32FB6
:101FAA001C082000C00040082100A3001B082000D4
:101FBA00C00040082100A6002808803A2000C0007E
:101FCA0080304002031DEC2F21002B082702031C3E
:101FDA00F82F21002A08803A803C031DF62F290891
:101FEA002B020318FC2F20000E16013008002000D7
:101FFA000E12003008000A340D3447346F346F343F
:10200A00643420346A346F3462342E3420345934C0
:10201A006F34753420346B346E346F347734203433
:10202A0068346F347734203474346F342034723423
:10203A00653461346434203469346E3473347434EE
:10204A00723475346334743469346F346E3473346F
:10205A002E340A340A34003450346C346534613412
:10206A0073346534203465346E34743465347234B0
:10207A002034743468346534203463346834613409
:10208A0072346134633474346534723420344134C4
:10209A003A34203400340A340D34573472346F34ED
:1020AA006E34673420346B34653479342E342034FA
:1020BA005434723479342034613467346134693485
:1020CA006E342E340A340D3400340A340D344D344F
:1020DA00613469346E3420344C346F346F34703464
:1020EA00203449346E34643469347634693464345F
:0C20FA00753461346C340A340D34003449
:020000040001F9
:04000E00E4F9FFDE34
:00000001FF
