:08000000803102288731FD2F39
:100EB60008000800080008002000911E5F2F23008C
:100EC60019080800F00023009E1C662F70089A007F
:100ED6000800F830F000700821009904F730F0009F
:100EE60070088D058B1708008730F0007008210008
:100EF6008E058E17333023009B001E119F111E1284
:100F06009D179E161D1621009116080087316C2725
:100F1600873187317727873187315C27873187315A
:100F26005B27873187315E27873187315D27873198
:100F36008731BA2787319B2F7330F3007308F60089
:100F46007208F4007108F300F10A0319F20A730833
:100F56008400740885000008F5007508F700770816
:100F6600031908007708873165278731A32FFB010E
:100F76006A30F1008830F20087319F27873131309F
:100F8600F1008830F20087319F27873187315F274C
:100F96008731F8007808FB0041307B06031DD72F08
:100FA6000030F1008830DA2F5030F1008830F2003E
:100FB60087319F27873120008D151530FA004B3079
:100FC600F900D130F800F80BE62FF90BE62FFA0BF3
:100FD600E62F000020008D111530FA004B30F90085
:100FE600D130F800F80BF52FF90BF52FFA0BF52F8A
:100FF6000000080020008731892F0A340D34473459
:101006006F346F34643420346A346F3462342E346F
:10101600203459346F34753420346B346E346F3465
:101026007734203468346F347734203474346F3432
:1010360020347234653461346434203469346E3457
:1010460073347434723475346334743469346F347D
:101056006E3473342E340A340A34003450346C340B
:101066006534613473346534203465346E347434D5
:10107600653472342034743468346534203463340F
:101086006834613472346134633474346534723470
:10109600203441343A34203400340A340D34573481
:1010A60072346F346E34673420346B34653479347B
:1010B6002E34203454347234793420346134673415
:1010C600613469346E342E340A340D3400340A34F3
:1010D6000D344D34613469346E3420344C346F34FD
:1010E6006F347034203449346E3464346934763461
:1010F60069346434753461346C340A340D34003424
:101106004D34613469346E3420344C346F346F346A
:10111600703420344F346D34653467346134203490
:08112600203420342034003491
:020000040001F9
:04000E00E4F9FFDE34
:00000001FF
