:0400000081318129A0
:100008007E14803120007F08BF00960197012700E9
:10001800931C2B289310C7302000BE000000BE0B95
:10002800122800320000903103208031003A031971
:100038007C2932302000BE003E082100C4009B31DC
:10004800D923803102308C31542480317C29131E0D
:100058007C29EF302000BE003E08270093052000D1
:100068000C1E3F280A3020001702763003191602AA
:1000780003187C293328960197010C1A4B280A305B
:10008800170276300319160203187C2941289601B5
:1000980097010C1E57280A301702763003191602EA
:1000A80003187C294D281708C9001608C8009601AE
:1000B80097010C1A67280A301702763003191602BE
:1000C80003187C295D28960197010C1E73280A30B5
:1000D800170276300319160203187C2969281708B5
:1000E800CB001608CA00CD30A0008C30A1003F30EC
:1000F800A2004B08F9004A08F8009A31032280311F
:1001080078082000A3007908A4007A08A5009C318B
:100118006124803120002008B0002108B1002208A5
:10012800B2004908F9004808F8009A3103228031E2
:1001380078082000B3007908B4007A08B5009A312D
:10014800B2228031031C7C29CD302000A0008C30E5
:10015800A1003F30A2004908F9004808F8009A3188
:100168000322803178082000A3007908A4007A08C7
:10017800A5009C316124803120002008B0002108AE
:10018800B1002208B2004B08F9004A08F8009A3179
:100198000322803178082000B3007908B4007A0877
:1001A800B5009A31B2228031031C7C290230F0005C
:1001B8000030F10020004A084807F2004B08493D8A
:1001C800F30090310D20803171082000CD007008B7
:1001D800CC004D08F9004C08F8009A310322803110
:1001E80078082000A3007908A4007A08A500CD307B
:1001F800A0008E30A1004130A2009C3161248031E2
:1002080020002008B0002108B1002208B2009B316C
:100218005223803120003108CF003008CE004F082B
:10022800803ABE0097303E02031D1C2970304E02F2
:10023800031C3A2920004F08803ABE009D303E0238
:10024800031D28294C304E0203183A29210044087E
:1002580003197C29903103208031003A031D7C2941
:1002680001302100C402C201C20A7C2920004F08C3
:10027800803ABE00A7303E02031D442910304E02CA
:10028800031C5E2920004F08803ABE00AE303E02B3
:10029800031D5029E0304E0203185E293230210038
:1002A800440203187C2901302000BE003E082100CA
:1002B800C4077C2920004F08803ABE00B2303E02B5
:1002C800031D6829C8304E02031C7C2920004F08F2
:1002D800803ABE00BA303E02031D742998304E029F
:1002E80003187C2901302000BE003E082100C30706
:1002F80020003F08FF007E10090081318329C801D2
:10030800C901CA01CB01CC01CD01CE01CF01210029
:10031800BF01C001C101C201C3018731FE27C4006A
:100328007E10200093314A2B2100AC00AE01AF01B2
:10033800B001FF30A5002508AD00FF30A500250855
:10034800AE00AF01B0012C08031D2C03031DED2ADC
:100358002E08A50025082000C30021002F08A600AC
:1003680026082000C40021003008A7002708200024
:10037800C50021002D089431D0248131033021009B
:10038800A7000830A6007830A500A50BC929A60B40
:10039800C929A70BC92921002E08A5002508200076
:1003A800C30021002F08A60026082000C400210051
:1003B8003008A70027082000C50021002D08953126
:1003C8009C25813103302100A7000830A600783031
:1003D800A500A50BED29A60BED29A70BED292100FA
:1003E8002E08A50025082000C30021002F08A6001C
:1003F80026082000C40021003008A7002708200094
:10040800C50021002D08963168268131033021006E
:10041800A7000830A6007830A500A50B112AA60B66
:10042800112AA70B112A21002E08A5002508200053
:10043800C30021002F08A60026082000C4002100C0
:100448003008A70027082000C50021002D08973193
:100458003427813103302100A7000830A600783006
:10046800A500A50B352AA60B352AA70B352A21008E
:100478002E08A50025082000C30021002F08A6008B
:1004880026082000C40021003008A7002708200003
:10049800C50021002D088831AB20813103302100AF
:1004A800A7000830A6007830A500A50B592AA60B8E
:1004B800592AA70B592A21002E08A5002508200033
:1004C800C30021002F08A60026082000C400210030
:1004D8003008A70027082000C50021002D08893111
:1004E8007721813103302100A7000830A600783039
:1004F800A500A50B7D2AA60B7D2AA70B7D2A210026
:100508002E08A50025082000C30021002F08A600FA
:1005180026082000C40021003008A7002708200072
:10052800C50021002D088A31432281310330210082
:10053800A7000830A6007830A500A50BA12AA60BB5
:10054800A12AA70BA12A2100AA0104302A02031814
:10055800C92D2E08A50025082000C30021002F085A
:10056800A60026082000C40021003008A70027089C
:100578002000C50021002D088A3143228131023034
:100588002100A7000430A600BA30A500A50BCA2A8E
:10059800A60BCA2AA70BCA2A00002000C301C4015F
:1005A800C501FF308A314322813102302100A70082
:1005B8000430A600BA30A500A50BE02AA60BE02A55
:1005C800A70BE02A000001302100A5002508AA0792
:1005D800A92A02302C06031DD82CA801A901290834
:1005E800803AA50080302502031DFC2A033028022A
:1005F8000318C92D21002E08A50025082000C300D6
:1006080021002F08A60026082000C4002100300879
:10061800A70027082000C50021002D089431D02408
:10062800813103302100A7000830A6007830A500EA
:10063800A50B1C2BA60B1C2BA70B1C2B21002E0873
:10064800A50025082000C30021002F08A6002608C1
:100658002000C40021003008A70027082000C5009A
:1006680021002D0895319C25813103302100A700F8
:100678000830A6007830A500A50B402BA60B402B10
:10068800A70B402B21002E08A50025082000C30039
:1006980021002F08A60026082000C40021003008E9
:1006A800A70027082000C50021002D0896316826DC
:1006B800813103302100A7000830A6007830A5005A
:1006C800A50B642BA60B642BA70B642B21002E080B
:1006D800A50025082000C30021002F08A600260831
:1006E8002000C40021003008A70027082000C5000A
:1006F80021002D0897313427813103302100A700CC
:100708000830A6007830A500A50B882BA60B882BEF
:10071800A70B882B21002E08A50025082000C30060
:1007280021002F08A60026082000C4002100300858
:10073800A70027082000C50021002D088831AB201C
:10074800813103302100A7000830A6007830A500C9
:10075800A50BAC2BA60BAC2BA70BAC2B21002E08A2
:10076800A50025082000C30021002F08A6002608A0
:100778002000C40021003008A70027082000C50079
:1007880021002D0889317721813103302100A7000C
:100798000830A6007830A500A50BD02BA60BD02BCF
:1007A800A70BD02B21002E08A50025082000C30088
:1007B80021002F08A60026082000C40021003008C8
:1007C800A70027082000C50021002D088A314322F0
:1007D800813103302100A7000830A6007830A50039
:1007E800A50BF42BA60BF42BA70BF42B21002E083A
:1007F800A50025082000C30021002F08A600260810
:100808002000C40021003008A70027082000C500E8
:1008180021002D0889317721813103302100A7007B
:100828000830A6007830A500A50B182CA60B182CAC
:10083800A70B182C21002E08A50025082000C300AE
:1008480021002F08A60026082000C4002100300837
:10085800A70027082000C50021002D088831AB20FB
:10086800813103302100A7000830A6007830A500A8
:10087800A50B3C2CA60B3C2CA70B3C2C21002E08CE
:10088800A50025082000C30021002F08A60026087F
:100898002000C40021003008A70027082000C50058
:1008A80021002D0897313427813103302100A7001A
:1008B8000830A6007830A500A50B602CA60B602C8C
:1008C800A70B602C21002E08A50025082000C300D6
:1008D80021002F08A60026082000C40021003008A7
:1008E800A70027082000C50021002D08963168269A
:1008F800813103302100A7000830A6007830A50018
:10090800A50B842CA60B842CA70B842C21002E0865
:10091800A50025082000C30021002F08A6002608EE
:100928002000C40021003008A70027082000C500C7
:1009380021002D0895319C25813103302100A70025
:100948000830A6007830A500A50BA82CA60BA82C6B
:10095800A70BA82C21002E08A50025082000C300FD
:1009680021002F08A60026082000C4002100300816
:10097800A70027082000C50021002D089431D024A5
:10098800813103302100A7000830A6007830A50087
:10099800A50BCC2CA60BCC2CA70BCC2C0130210002
:1009A800A8070030A93DF32A033021002C06031DB7
:1009B800C92DFF30A50025082000C300C401C501CA
:1009C800FF308A314322813103302100A7000830EB
:1009D800A6007830A500A50BEF2CA60BEF2CA70BD3
:1009E800EF2CFF302100A50025082000C300C4011A
:1009F800C501FF3089317721813103302100A700FB
:100A08000830A6007830A500A50B082DA60B082DE8
:100A1800A70B082DFF302100A50025082000C300E2
:100A2800C401C501FF308831AB208131033021007A
:100A3800A7000830A6007830A500A50B212DA60B2D
:100A4800212DA70B212DFF302100A500250820000E
:100A5800C300C401C501FF30973134278131033009
:100A68002100A7000830A6007830A500A50B3A2D74
:100A7800A60B3A2DA70B3A2DFF302100A50025081B
:100A88002000C300C401C501FF30963168268131BA
:100A980003302100A7000830A6007830A500A50B78
:100AA800532DA60B532DA70B532DFF302100A50066
:100AB80025082000C300C401C501FF3095319C25DD
:100AC800813103302100A7000830A6007830A50046
:100AD800A50B6C2DA60B6C2DA70B6C2DFF302100E0
:100AE800A50025082000C300C401C501FF309431CA
:100AF800D024813103302100A7000830A6007830C7
:100B0800A500A50B852DA60B852DA70B852D2100EE
:100B1800AB0104302B020318C92DFF30A5002508AE
:100B28002000C300C401C501FF309431D0248131B5
:100B380002302100A7000430A600BA30A500A50B9A
:100B4800A32DA60BA32DA70BA32D00002000C301E6
:100B5800C401C501FF309431D02481310230210015
:100B6800A7000430A600BA30A500A50BB92DA60B26
:100B7800B92DA70BB92D000001302100A5002508CB
:100B8800AB0704302B02031C912D94310924080073
:100B980020008E1FD12D013008002100A001A101E5
:100BA800A201A301A401A501B201B301B401B501D9
:100BB800B601B701A601A701A801A901AA01AB01C5
:100BC800AC01AD01AE01AF01B001B1019031082017
:100BD8008531003A0319592E00308400A030850071
:100BE800003F2000C000013FC1004008543E2100E2
:100BF800A6000B302000413D2100A70000308400F2
:100C0800A0308500003F2000C000013FC10040081F
:100C1800AC3E2100A800F4302000413D2100A9008D
:100C280000308400A0308500003F2000C000013F54
:100C3800C1004008543E2100AA000B302000413D6D
:100C48002100AB0000308400A0308500003F200068
:100C5800C000013FC1004008AC3E2100AC00F430A8
:100C68002000413D2100AD0000308400A030850007
:100C7800003F2000C000013FC1004008543E210051
:100C8800AE000B302000413D2100AF000030840051
:100C9800A0308500003F2000C000013FC10040088F
:100CA800AC3E2100B000F430C12E00308400A030EA
:100CB8008500003F2000C000013FC1004008803E81
:100CC8002100A6000C302000413D2100A700003083
:100CD8008400A0308500003F2000C000013FC10013
:100CE8004008803E2100A800F3302000413D21004B
:100CF800A90000308400A0308500003F2000C0001B
:100D0800013FC1004008803E2100AA000C302000AD
:100D1800413D2100AB0000308400A0308500003F39
:100D28002000C000013FC1004008803E2100AC0007
:100D3800F3302000413D2100AD0000308400A03098
:100D48008500003F2000C000013FC1004008803EF0
:100D58002100AE000C302000413D2100AF000030E2
:100D68008400A0308500003F2000C000013FC10082
:100D78004008803E2100B000F3302000413D2100B2
:100D8800B10009309D00C7302000C0000000C00B32
:100D9800CA2E0032000021009D149D18D12E1C0877
:100DA800B3001B08B2000D309D00C7302000C00002
:100DB8000000C00BDC2E0032000021009D149D189D
:100DC800E32E1C08B5001B08B40015309D00C73081
:100DD8002000C0000000C00BEE2E003200002100F1
:100DE8009D149D18F52E1C08B7001B08B60027088F
:100DF800803A2000C00021003308803A20004002D9
:100E0800031D092F210032082602031C602F210030
:100E18003308803A2000C00021002908803A2000C9
:100E28004002031D1A2F210028083202031C602FDC
:100E380021002B08803A2000C00021003508803AA4
:100E480020004002031D2B2F210034082A02031C16
:100E5800602F21003508803A2000C00021002D08AD
:100E6800803A20004002031D3C2F21002C08340248
:100E7800031C602F21002F08803A2000C0002100A9
:100E88003708803A20004002031D4D2F2100360804
:100E98002E02031C602F21003708803A2000C00072
:100EA80021003108803A20004002031D5E2F2100F6
:100EB800300836020318622F01300800003008009D
:100EC80021004408031DA72F3D00C401C3013117A9
:100ED800E401E3015117FF303E00A400FF30A300F6
:100EE80011173D00311751173E001117153020001A
:100EF800C2004B30C100D130C000C00B812FC10BE4
:100F0800812FC20B812F00003D00C401C30131179E
:100F1800E401E30151173E00A401A30111173D00AC
:100F2800311751173E00111715302000C2004B3001
:100F3800C100D130C000C00B9F2FC10B9F2FC20B27
:100F48009F2F0000642F0B3044020318BE2F3D0072
:100F5800C401C3013117E401E3015117FF303E001A
:100F6800A400FF30A30011173D00311751173E00B0
:100F7800111708000B3021004402031CDB2F23301B
:100F880044020318DB2FFF303D00C400FF30C300CC
:100F98003117E401E3015117FF303E00A400A3011B
:100FA80011173D00311751173E0011170800FF3087
:100FB8003D00C400FF30C3003117E401E3015117BD
:100FC8003E00A401A30111173D00311751173E003F
:100FD80011170800F20024001108F0007008F10051
:100FE8002000911124009513720891002000911996
:060FF8000800FA2F32345C
:101002008F302000C500450821008E058D138D12FA
:101012003D00B101B201B301B401B601B701B8019B
:10102200B9010130BA000130BB000130BC00BD0182
:101032000130BE00BF01C201C1010130C400F43061
:10104200C3000330C600E730C500C901CA01CD01A3
:10105200CB01CC010130CE00CF01C0010130B5007F
:101062008030B100DD302000C50045082100940524
:1010720014083D00D101D2010230D300D401D601BF
:10108200D701D801D9010130DA000130DB0001308B
:10109200DC00DD010130DE00DF01E201E1010130AF
:1010A200E400F430E3000330E600E730E500E90154
:1010B200EA01ED01EB01EC010130EE00EF01E0018C
:1010C2000130D5008030D100BB302000C50045087A
:1010D2002100940514083E00910192010230930010
:1010E2009401960197019801990101309A0001300B
:1010F2009B0001309C009D0102309E009F01A201D5
:10110200A1010130A400F430A3000330A600E730AF
:10111200A500A901AA01AD01AB01AC010230AE00EC
:10112200AF01A0010230950080309100773020009D
:10113200C5004508210094051408240095122030AA
:10114200950022001D169D169D15240095169431BA
:10115200092408002100A000A101A2012208803A6E
:101162002000C60080304602031DBA280430210048
:1011720021020318D22800309931DB218831013055
:101182002100A1070030A23D2208803A2000C600BB
:1011920080304602031DD028043021002102031CA6
:1011A200BC28FF309931DB21883100309931DB21B5
:1011B200883100309931DB21883100309931DB21CF
:1011C2008831FF309931DB21883100309931DB21C0
:1011D200883100309931DB21883100309931DB21AF
:1011E2008831FF309931DB21883100309931DB21A0
:1011F200883100309931DB21883100309931DB218F
:101202008831FF309931DB21883100309931DB217F
:10121200883100309931DB21883100309931DB216E
:101222008831210020089931DB21883120004508CE
:101232009931DB218831200044089931DB21883142
:10124200200043089931DB218831FF309931DB21BD
:10125200883100309931DB21883100309931DB212E
:10126200883100309931DB218831FF309931DB211F
:10127200883100309931DB21883100309931DB210E
:10128200883100309931DB2188312100A301A4018A
:101292002408803A2000C60080304602031D5429EB
:1012A20004302100230203186C29FF309931DB211D
:1012B200883101302100A3070030A43D2408803A80
:1012C2002000C60080304602031D6A290430210036
:1012D2002302031C5629D0302000C700C930C600A3
:1012E200C60B7129C70B7129003208002100A0002A
:1012F200A101A2012208803A2000C60080304602E5
:10130200031D862904302100210203189E29003082
:101312009931DB21893101302100A1070030A23D42
:101322002208803A2000C60080304602031D9C2914
:10133200043021002102031C8829FF309931DB216E
:10134200893100309931DB21893100309931DB213B
:10135200893100309931DB218931FF309931DB212C
:10136200893100309931DB21893100309931DB211B
:10137200893100309931DB218931FF309931DB210C
:10138200893100309931DB21893100309931DB21FB
:10139200893100309931DB218931FF309931DB21EC
:1013A200893100309931DB21893100309931DB21DB
:1013B200893100309931DB218931FF309931DB21CC
:1013C200893100309931DB21893100309931DB21BB
:1013D200893100309931DB2189312100200899318E
:1013E200DB218931200045089931DB218931200038
:1013F20044089931DB218931200043089931DB21EE
:101402008931FF309931DB21893100309931DB217B
:10141200893100309931DB21893100309931DB216A
:1014220089312100A301A4012408803A2000C600CA
:1014320080304602031D202A0430210023020318B3
:10144200382AFF309931DB21893101302100A3078D
:101452000030A43D2408803A2000C60080304602B5
:10146200031D362A043021002302031C222AD03015
:101472002000C700C930C600C60B3D2AC70B3D2A53
:10148200003208002100A000A101A2012208803A36
:101492002000C60080304602031D522A043021007B
:1014A200210203186A2A00309931DB218A31013086
:1014B2002100A1070030A23D2208803A2000C60088
:1014C20080304602031D682A043021002102031CD9
:1014D200542AFF309931DB218A3100309931DB21E6
:1014E2008A3100309931DB218A3100309931DB2198
:1014F2008A31FF309931DB218A3100309931DB2189
:101502008A3100309931DB218A3100309931DB2177
:101512008A31FF309931DB218A3100309931DB2168
:101522008A3100309931DB218A3100309931DB2157
:101532008A31FF309931DB218A3100309931DB2148
:101542008A3100309931DB218A3100309931DB2137
:101552008A31FF309931DB218A3100309931DB2128
:101562008A3100309931DB218A3100309931DB2117
:101572008A31FF309931DB218A3100309931DB2108
:101582008A3100309931DB218A3100309931DB21F7
:101592008A31210020089931DB218A312000450857
:1015A2009931DB218A31200044089931DB218A31CB
:1015B200200043089931DB218A312100A301A401D3
:1015C2002408803A2000C60080304602031DEC2A1F
:1015D2000430210023020318042BFF309931DB2150
:1015E2008A3101302100A3070030A43D2408803A4B
:1015F2002000C60080304602031D022B0430210069
:101602002302031CEE2AD0302000C700C930C600D6
:10161200C60B092BC70B092B003208002100A600BC
:101622002608031D7D2BA001A1012108803A20007C
:10163200C10080304102031D212B400821002002FD
:10164200031808003D009216ED302000C100003260
:101652000000C10B282B00003D0092121A3020001E
:10166200C200F830C100C10B342BC20B342B000076
:101672003D00921604302000C200B430C100C10BFC
:10168200402BC20B402B00003D009212193020006B
:10169200C2001B30C100C10B4C2BC20B4C2B0032C1
:1016A2003D00921604302000C200B430C100C10BCC
:1016B200582BC20B582B00003D009212193020000B
:1016C200C2001B30C100C10B642BC20B642B003261
:1016D2003D0092161C302000C200D130C100C10B67
:1016E200702BC20B702B00323D0092120130210090
:1016F200A0070030A13D162B21002603031DEA2B73
:10170200A201A3012308803A2000C10080304102D7
:10171200031D8E2B400821002202031808003D0001
:101722009216ED302000C10000320000C10B952B53
:1017320000003D0092121A302000C200F830C100B1
:10174200C10BA12BC20BA12B00003D00921606304B
:101752002000C2008D30C100C10BAD2BC20BAD2BDE
:1017620000323D00921217302000C2004230C10008
:10177200C10BB92BC20BB92B00003D0092160630EB
:101782002000C2008D30C100C10BC52BC20BC52B7E
:1017920000323D00921217302000C2004230C100D8
:1017A200C10BD12BC20BD12B00003D0092161C3075
:1017B2002000C200D130C100C10BDD2BC20BDD2BDA
:1017C20000323D00921201302100A2070030A33DF9
:1017D200832B2100A401A5012508803A2000C10025
:1017E20080304102031DF82B400821002402031817
:1017F20008003D009216ED302000C10000320000CA
:10180200C10BFF2B00003D0092121A302000C200D3
:10181200F830C100C10B0B2CC20B0B2C00003D0099
:10182200921608302000C2006930C100C10B172C8B
:10183200C20B172C00323D00921215302000C2005C
:101842006630C100C10B232CC20B232C00003D00CB
:10185200921608302000C2006930C100C10B2F2C43
:10186200C20B2F2C00323D00921215302000C20014
:101872006630C100C10B3B2CC20B3B2C00003D006B
:1018820092161C302000C200D130C100C10B472C7F
:10189200C20B472C00323D00921201302100A407F6
:1018A2000030A53DED2B2000A300A901AA01AB0148
:1018B200FF30A0002008A800FF30A0002008A900E7
:1018C200AA01AB012308031D2303031D782D290858
:1018D200A0002008F3002A08A1002108F4002B0828
:1018E200A2002208F50028089D31CF258C31033053
:1018F2002000A2000830A1007830A000A00B7F2CAD
:10190200A10B7F2CA20B7F2C20002908A00020080D
:10191200F3002A08A1002108F4002B08A2002208E3
:10192200F50028089E318A268C3103302000A2005F
:101932000830A1007830A000A00B9D2CA10B9D2C9B
:10194200A20B9D2C20002908A0002008F3002A08E1
:10195200A1002108F4002B08A2002208F5002808A3
:101962009F3145278C3103302000A2000830A100AE
:101972007830A000A00BBB2CA10BBB2CA20BBB2C64
:1019820020002908A0002008F3002A08A10021084D
:10199200F4002B08A2002208F500280890315E20EE
:1019A2008C3103302000A2000830A1007830A00062
:1019B200A00BD92CA10BD92CA20BD92C20002908C1
:1019C200A0002008F3002A08A1002108F4002B0837
:1019D200A2002208F5002808913119218C31033028
:1019E2002000A2000830A1007830A000A00BF72C44
:1019F200A10BF72CA20BF72C20002908A00020082D
:101A0200F3002A08A1002108F4002B08A2002208F2
:101A1200F50028089131D4218C3103302000A20036
:101A22000830A1007830A000A00B152DA10B152DB8
:101A3200A20B152D20002908A0002008F3002A0877
:101A4200A1002108F4002B08A2002208F5002808B2
:101A520092318F228C3103302000A2000830A10085
:101A62007830A000A00B332DA10B332DA20B332D08
:101A72002000A601043026020318FD2F2908A00029
:101A82002008F3002A08A1002108F4002B08A20074
:101A92002208F500280892318F228C310230200072
:101AA200A2000430A100BA30A000A00B562DA10B59
:101AB200562DA20B562D0000F301F401F501FF3063
:101AC20092318F228C3102302000A2000430A1001A
:101AD200BA30A000A00B6B2DA10B6B2DA20B6B2DAE
:101AE200000001302000A0002008A6073B2D023094
:101AF2002306031D152FA401A5012508803AA00085
:101B020080302002031D872D033024020318FD2F8D
:101B120020002908A0002008F3002A08A1002108BB
:101B2200F4002B08A2002208F50028089D31CF25D9
:101B32008C3103302000A2000830A1007830A000D0
:101B4200A00BA12DA10BA12DA20BA12D20002908D4
:101B5200A0002008F3002A08A1002108F4002B08A5
:101B6200A2002208F50028089E318A268C31033013
:101B72002000A2000830A1007830A000A00BBF2DE9
:101B8200A10BBF2DA20BBF2D20002908A000200809
:101B9200F3002A08A1002108F4002B08A200220861
:101BA200F50028089F3145278C3103302000A20020
:101BB2000830A1007830A000A00BDD2DA10BDD2D97
:101BC200A20BDD2D20002908A0002008F3002A081E
:101BD200A1002108F4002B08A2002208F500280821
:101BE20090315E208C3103302000A2000830A10029
:101BF2007830A000A00BFB2DA10BFB2DA20BFB2D1F
:101C020020002908A0002008F3002A08A1002108CA
:101C1200F4002B08A2002208F500280891311921AE
:101C22008C3103302000A2000830A1007830A000DF
:101C3200A00B192EA10B192EA20B192E2000290878
:101C4200A0002008F3002A08A1002108F4002B08B4
:101C5200A2002208F50028089131D4218C310330EA
:101C62002000A2000830A1007830A000A00B372E7F
:101C7200A10B372EA20B372E20002908A000200826
:101C8200F3002A08A1002108F4002B08A200220870
:101C9200F500280892318F228C3103302000A200F7
:101CA2000830A1007830A000A00B552EA10B552EB4
:101CB200A20B552E20002908A0002008F3002A08B4
:101CC200A1002108F4002B08A2002208F500280830
:101CD2009131D4218C3103302000A2000830A100C0
:101CE2007830A000A00B732EA10B732EA20B732EC3
:101CF20020002908A0002008F3002A08A1002108DA
:101D0200F4002B08A2002208F500280891311921BD
:101D12008C3103302000A2000830A1007830A000EE
:101D2200A00B912EA10B912EA20B912E200029081F
:101D3200A0002008F3002A08A1002108F4002B08C3
:101D4200A2002208F500280890315E208C31033071
:101D52002000A2000830A1007830A000A00BAF2E16
:101D6200A10BAF2EA20BAF2E20002908A000200845
:101D7200F3002A08A1002108F4002B08A20022087F
:101D8200F50028089F3145278C3103302000A2003E
:101D92000830A1007830A000A00BCD2EA10BCD2ED3
:101DA200A20BCD2E20002908A0002008F3002A084B
:101DB200A1002108F4002B08A2002208F50028083F
:101DC2009E318A268C3103302000A2000830A10007
:101DD2007830A000A00BEB2EA10BEB2EA20BEB2E6A
:101DE20020002908A0002008F3002A08A1002108E9
:101DF200F4002B08A2002208F50028089D31CF2507
:101E02008C3103302000A2000830A1007830A000FD
:101E1200A00B092FA10B092FA20B092F01302000C3
:101E2200A4070030A53D7E2D033020002306031DAC
:101E3200FD2FFF30A0002008F300F401F501FF3070
:101E420092318F228C3103302000A2000830A10091
:101E52007830A000A00B2B2FA10B2B2FA20B2B2F26
:101E6200FF302000A0002008F300F401F501FF304C
:101E72009131D4218C3103302000A2000830A1001E
:101E82007830A000A00B432FA10B432FA20B432FAE
:101E9200FF302000A0002008F300F401F501FF301C
:101EA200913119218C3103302000A2000830A100A9
:101EB2007830A000A00B5B2FA10B5B2FA20B5B2F36
:101EC200FF302000A0002008F300F401F501FF30EC
:101ED20090315E208C3103302000A2000830A10036
:101EE2007830A000A00B732FA10B732FA20B732FBE
:101EF200FF302000A0002008F300F401F501FF30BC
:101F02009F3145278C3103302000A2000830A10008
:101F12007830A000A00B8B2FA10B8B2FA20B8B2F45
:101F2200FF302000A0002008F300F401F501FF308B
:101F32009E318A268C3103302000A2000830A10095
:101F42007830A000A00BA32FA10BA32FA20BA32FCD
:101F5200FF302000A0002008F300F401F501FF305B
:101F62009D31CF258C3103302000A2000830A10022
:101F72007830A000A00BBB2FA10BBB2FA20BBB2F55
:101F82002000A701043027020318FD2FFF30A00014
:101F92002008F300F401F501FF309D31CF258C318B
:101FA20002302000A2000430A100BA30A000A00B31
:101FB200D82FA10BD82FA20BD82F0000F301F401C8
:101FC200F501FF309D31CF258C3102302000A20077
:101FD2000430A100BA30A000A00BED2FA10BED2F11
:101FE200A20BED2F000001302000A0002008A7075F
:101FF20004302702031CC72F9D311525080021003C
:102002008C140800003020008C18013008000030C9
:1020120020008C1801300800F601F11F1728F00982
:10202200F109F00A0319F10AF601F60AF31F222850
:10203200F209F309F20A0319F30A0130F4007408F1
:10204200F606F701F8017008710403195128F50129
:10205200F50AF11B36280130F035F10D890B2D28D8
:102062000130F4007408F5072A280130F735F80D1D
:10207200890B372871087302031D41287008720208
:10208200031C48287008F2027108F33B77140130F0
:10209200F136F00C890B49280130F502031D362870
:1020A200760803195928F709F809F70A0319F80AF3
:1020B2007808F1007708F0000800F800F901FA0149
:1020C2007A08803AF60080307602031D6A280430CE
:1020D200790203187F2800308731EE2790310130D2
:1020E200F9070030FA3D7A08803AF600803076022D
:1020F200031D7D2804307902031C6C28FF308731D0
:10210200EE27903100308731EE2790310030873151
:10211200EE27903100308731EE279031FF30873142
:10212200EE27903100308731EE2790310030873131
:10213200EE27903100308731EE279031FF30873122
:10214200EE27903100308731EE2790310030873111
:10215200EE27903100308731EE27903178088731B1
:10216200EE27903175088731EE2790317408873158
:10217200EE27903173088731EE279031FF30873197
:10218200EE27903100308731EE27903100308731D1
:10219200EE27903100308731EE279031FF308731C2
:1021A200EE27903100308731EE27903100308731B1
:1021B200EE27903100308731EE279031FF308731A2
:1021C200EE27903100308731EE2790310030873191
:1021D200EE27903100308731EE279031FB01FC0170
:1021E2007C08803AF60080307602031DFA2804301B
:1021F2007B0203180F29FF308731EE27903101301F
:10220200FB070030FC3D7C08803AF6008030760205
:10221200031D0D2904307B02031CFC28D030F7007B
:10222200C930F600F60B1329F70B13290032080008
:10223200F800F901FA017A08803AF6008030760255
:10224200031D25290430790203183A290030873109
:10225200EE2791310130F9070030FA3D7A08803AD1
:10226200F60080307602031D382904307902031CFF
:102272002729FF308731EE27913100308731EE2751
:10228200913100308731EE27913100308731EE27CE
:102292009131FF308731EE27913100308731EE27BF
:1022A200913100308731EE27913100308731EE27AE
:1022B2009131FF308731EE27913100308731EE279F
:1022C200913100308731EE27913100308731EE278E
:1022D2009131FF308731EE27913100308731EE277F
:1022E200913100308731EE27913100308731EE276E
:1022F200913178088731EE27913175088731EE27C1
:10230200913174088731EE27913173088731EE27B6
:102312009131FF308731EE27913100308731EE273E
:10232200913100308731EE27913100308731EE272D
:102332009131FF308731EE27913100308731EE271E
:10234200913100308731EE27913100308731EE270D
:102352009131FB01FC017C08803AF6008030760264
:10236200031DB52904307B020318CA29FF308731C7
:10237200EE2791310130FB070030FC3D7C08803AAA
:10238200F60080307602031DC82904307B02031C4C
:10239200B729D030F700C930F600F60BCE29F70B7B
:1023A200CE2900320800F800F901FA017A08803AD1
:1023B200F60080307602031DE0290430790203180A
:1023C200F52900308731EE2791310130F9070030CD
:1023D200FA3D7A08803AF60080307602031DF3292E
:1023E20004307902031CE229FF308731EE27913154
:1023F20000308731EE27913100308731EE2791315D
:1024020000308731EE279131FF308731EE2791314D
:1024120000308731EE27913100308731EE2791313C
:1024220000308731EE279131FF308731EE2791312D
:1024320000308731EE27913100308731EE2791311C
:1024420000308731EE279131FF308731EE2791310D
:1024520000308731EE27913100308731EE279131FC
:1024620000308731EE279131FF308731EE279131ED
:1024720000308731EE27913100308731EE279131DC
:1024820000308731EE27913178088731EE2791317C
:1024920075088731EE27913174088731EE27913123
:1024A20073088731EE279131FF308731EE27913162
:1024B20000308731EE27913100308731EE2791319C
:1024C20000308731EE279131FB01FC017C08803A14
:1024D200F60080307602031D702A04307B02031856
:1024E200852AFF308731EE2791310130FB0700301A
:1024F200FC3D7C08803AF60080307602031D832A78
:1025020004307B02031C722AD030F700C930F60077
:10251200F60B892AF70B892A00320800F800F90124
:10252200FA017A08803AF60080307602031D9B2A6F
:10253200043079020318B02A00308731EE27923135
:102542000130F9070030FA3D7A08803AF60080300F
:102552007602031DAE2A04307902031C9D2AFF3045
:102562008731EE27923100308731EE2792310030E9
:102572008731EE27923100308731EE279231FF30DA
:102582008731EE27923100308731EE2792310030C9
:102592008731EE27923100308731EE279231FF30BA
:1025A2008731EE27923100308731EE2792310030A9
:1025B2008731EE27923100308731EE279231FF309A
:1025C2008731EE27923100308731EE279231003089
:1025D2008731EE27923100308731EE279231FF307A
:1025E2008731EE27923100308731EE279231003069
:1025F2008731EE27923100308731EE279231FF305A
:102602008731EE27923100308731EE279231003048
:102612008731EE27923100308731EE2792317808E8
:102622008731EE27923175088731EE27923174088F
:102632008731EE27923173088731EE279231FB0101
:10264200FC017C08803AF60080307602031D2B2BB9
:1026520004307B020318402BFF308731EE27923182
:102662000130FB070030FC3D7C08803AF6008030E8
:102672007602031D3E2B04307B02031C2D2BD0302F
:10268200F700C930F600F60B442BF70B442B00324F
:10269200080021003F08BB004008BC004108BD0003
:1026A200BE019A314C2293319A3179229331993178
:1026B200EE2193318831012093319931CC2193312C
:1026C20090310020933187316427933121004208F1
:1026D2000319712B03308131982193312100C201FA
:1026E2008531CC259331003A0319B92B21004408D6
:1026F200031D812B903108209331003A0319B92B25
:10270200903108209331003A031DB52B00308131FE
:1027120098219331BB309A31232293310330210027
:10272200B8003808BE003E080319B92B3E08FF3E28
:10273200BB3E8600870101080319B12B8B133E08AB
:10274200FF3EBB3E860087010108B8003808200022
:10275200C00021003E08FF3E8B310F2393318B17BF
:1027620001302100BE02942B013081319821933136
:102772008B13FD2B8B17FF303D00C400FF30C300CD
:102782003117E401E3015117FF303E00A400A30119
:1027920011173D00311751173E0011170330210068
:1027A200BA000830B9007830B800B80BD62BB90B94
:1027B200D62BBA0BD62B3D00C401C3013117E4015D
:1027C200E30151173E00A401A30111173D00311787
:1027D20051173E00111703302100BA000830B9002A
:1027E2007830B800B80BF32BB90BF32BBA0BF32BE1
:1027F2008B1301302100C302210043080319072C67
:10280200903108209331003A0319BB2B8B17642BAC
:102812002100A001A1012108803A2000C3008030DC
:102822004302031D172C04302100200203182F2C11
:1028320000309931DB21943101302100A0070030B2
:10284200A13D2108803A2000C30080304302031DCD
:102852002D2C043021002002031C192CFF30993149
:10286200DB21943100309931DB21943100309931F0
:10287200DB21943100309931DB219431FF309931E1
:10288200DB21943100309931DB21943100309931D0
:10289200DB21943100309931DB219431FF309931C1
:1028A200DB21943100309931DB21943100309931B0
:1028B200DB21943100309931DB219431FF309931A1
:1028C200DB21943100309931DB2194310030993190
:1028D200DB21943100309931DB219431FF30993181
:1028E200DB21943100309931DB2194310030993170
:1028F200DB21943100309931DB219431FF30993161
:10290200DB21943100309931DB219431003099314F
:10291200DB21943100309931DB219431FF30993140
:10292200DB21943100309931DB219431003099312F
:10293200DB21943100309931DB2194312100A20155
:10294200A3012308803A2000C30080304302031D04
:10295200AD2C0430210022020318C52CFF3099311E
:10296200DB21943101302100A2070030A33D23086E
:10297200803A2000C30080304302031DC32C043080
:1029820021002202031CAF2CD0302000C400C93029
:10299200C300C30BCA2CC40BCA2C0032080021008E
:1029A200A000A101A2012208803A2000C6008030C6
:1029B2004602031DDF2C0430210021020318F72CEC
:1029C20000309931DB21943101302100A107003020
:1029D200A23D2208803A2000C60080304602031D34
:1029E200F52C043021002102031CE12C21002008D7
:1029F2009931DB219431200045089931DB21943152
:102A0200200044089931DB21943120004308993198
:102A1200DB219431FF309931DB219431003099313F
:102A2200DB21943100309931DB219431003099312E
:102A3200DB219431FF309931DB219431003099311F
:102A4200DB21943100309931DB219431003099310E
:102A5200DB219431FF309931DB21943100309931FF
:102A6200DB21943100309931DB21943100309931EE
:102A7200DB219431FF309931DB21943100309931DF
:102A8200DB21943100309931DB21943100309931CE
:102A9200DB219431FF309931DB21943100309931BF
:102AA200DB21943100309931DB21943100309931AE
:102AB200DB219431FF309931DB219431003099319F
:102AC200DB21943100309931DB219431003099318E
:102AD200DB2194312100A301A4012408803A2000C3
:102AE200C60080304602031D792D043021002302E6
:102AF2000318912DFF309931DB21943101302100EF
:102B0200A3070030A43D2408803A2000C60080308C
:102B12004602031D8F2D043021002302031C7B2D4E
:102B2200D0302000C700C930C600C60B962DC70B97
:102B3200962D003208002100A000A101A201220866
:102B4200803A2000C60080304602031DAB2D0430BF
:102B5200210021020318C32D00309931DB21953168
:102B620001302100A1070030A23D2208803A200056
:102B7200C60080304602031DC12D0430210021020F
:102B8200031CAD2DFF309931DB2195310030993195
:102B9200DB21953100309931DB21953100309931BB
:102BA200DB219531210020089931DB21953120006C
:102BB20045089931DB219531200044089931DB2108
:102BC2009531200043089931DB219531FF3099314D
:102BD200DB21953100309931DB219531003099317B
:102BE200DB21953100309931DB219531FF3099316C
:102BF200DB21953100309931DB219531003099315B
:102C0200DB21953100309931DB219531FF3099314B
:102C1200DB21953100309931DB219531003099313A
:102C2200DB21953100309931DB219531FF3099312B
:102C3200DB21953100309931DB219531003099311A
:102C4200DB21953100309931DB219531FF3099310B
:102C5200DB21953100309931DB21953100309931FA
:102C6200DB21953100309931DB2195312100A3011F
:102C7200A4012408803A2000C60080304602031DC9
:102C8200452E04302100230203185D2EFF309931B6
:102C9200DB21953101302100A3070030A43D240837
:102CA200803A2000C60080304602031D5B2E0430AD
:102CB20021002302031C472ED0302000C700C93058
:102CC200C600C60B622EC70B622E0032080021001E
:102CD200A000A101A2012208803A2000C600803093
:102CE2004602031D772E04302100210203188F2E85
:102CF20000309931DB21963101302100A1070030EB
:102D0200A23D2208803A2000C60080304602031D00
:102D12008D2E043021002102031C792EFF309931BF
:102D2200DB21963100309931DB2196310030993127
:102D3200DB21963100309931DB219631FF30993118
:102D4200DB21963100309931DB2196310030993107
:102D5200DB21963100309931DB21963121002008A8
:102D62009931DB219631200045089931DB219631DA
:102D7200200044089931DB21963120004308993123
:102D8200DB219631FF309931DB21963100309931C8
:102D9200DB21963100309931DB21963100309931B7
:102DA200DB219631FF309931DB21963100309931A8
:102DB200DB21963100309931DB2196310030993197
:102DC200DB219631FF309931DB2196310030993188
:102DD200DB21963100309931DB2196310030993177
:102DE200DB219631FF309931DB2196310030993168
:102DF200DB21963100309931DB2196310030993157
:102E0200DB2196312100A301A4012408803A20008D
:102E1200C60080304602031D112F04302100230218
:102E22000318292FFF309931DB219631013021001F
:102E3200A3070030A43D2408803A2000C600803059
:102E42004602031D272F043021002302031C132FE7
:102E5200D0302000C700C930C600C60B2E2FC70BCA
:102E62002E2F003208002100A000A101A201220899
:102E7200803A2000C60080304602031D432F0430F2
:102E82002100210203185B2F00309931DB21973199
:102E920001302100A1070030A23D2208803A200023
:102EA200C60080304602031D592F04302100210242
:102EB200031C452FFF309931DB21973100309931C6
:102EC200DB21973100309931DB2197310030993184
:102ED200DB219731FF309931DB2197310030993175
:102EE200DB21973100309931DB2197310030993164
:102EF200DB219731FF309931DB2197310030993155
:102F0200DB21973100309931DB2197310030993143
:102F1200DB219731210020089931DB2197312000F4
:102F220045089931DB219731200044089931DB2192
:102F32009731200043089931DB219731FF309931D5
:102F4200DB21973100309931DB2197310030993103
:102F5200DB21973100309931DB219731FF309931F4
:102F6200DB21973100309931DB21973100309931E3
:102F7200DB21973100309931DB219731FF309931D4
:102F8200DB21973100309931DB21973100309931C3
:102F9200DB21973100309931DB2197312100A301E8
:102FA200A4012408803A2000C60080304602031D96
:102FB200DD2F0430210023020318F52FFF30993151
:102FC200DB21973101302100A3070030A43D240802
:102FD200803A2000C60080304602031DF32F0430E1
:102FE20021002302031CDF2FD0302000C700C9308C
:0E2FF200C600C60BFA2FC70BFA2F00320800DC
:10339800D8308B0027001108123891001208103815
:1033A800920031302000980021000C1608002000FF
:1033B800C200240011082000C0004008C10091117B
:1033C8002400951320004208240091002000911940
:1033D8000800EA2921009D0180309E000F309F00DF
:1033E8002C302000C000400821008C042C30200024
:1033F800C000400823008C0421008E170800FD013E
:10340800F91F0D2AF809F909F80A0319F90AFD0143
:10341800FD0A7808F0007908F100F2018E30FB000F
:103428007B08F3007D08FC007C08F4009A31EE224A
:103438007008F8007108F9007208FA000800200006
:10344800C100903108209A31003A03193A2A200025
:103458004108860087018101410A860087018101B0
:103468004108023E86008701810108000F302000D4
:10347800C00041088600870140088100410A860093
:10348800870181014108023E860087018101080009
:1034980023008C018D0122000D158D1520000D15BE
:1034A8008D1524000D158D15F8302000C00040083A
:1034B8002100990405302000C2000F30C100F4300B
:1034C800C000C00B652AC10B652AC20B652AF33000
:1034D8002000C000400821008D0520000D158D1525
:1034E8000D198D1D01008B170800F7302000C00052
:1034F800400821008E053D00910180309200930123
:103508009401960197019801990101309A000130C0
:103518009B0001309C009D0108309E009F01A20184
:10352800A1010130A4006A30A3000230A6003A309D
:10353800A500A901AA01AD01AB01AC010830AE009C
:10354800AF01A0010830950080309100EE302000D6
:10355800C000400821009405140808002000B21F8C
:10356800C92A3009B6003109B7003209B800B60ACD
:103578000319B70A0319B80A00303607B00000303B
:10358800373DB1008030383DB200B51FDF2A33091E
:10359800B6003409B7003509B800B60A0319B70AE6
:1035A8000319B80A00303607B3000030373DB400BD
:1035B8008030383DB5008030B2068030B506350819
:1035C8003202031D080034083102031D08003308C5
:1035D8003002080073080319F62A7208710470048F
:1035E800031D072B0030F0000030F1000030F2001E
:1035F80008000130F5007508F3070130F236F10CC8
:10360800F00C890B022BFE3072050319202BFD2AC2
:103618000130F5007508F3070130F0070030031892
:103628000130F107003003180130F2070130F2369B
:10363800F10CF00C890B1B2BFF30720503192D2B95
:103648000C2B0130F3020130F035F10DF20D890B2E
:10365800282BF11B332B023073020318252B731808
:103668003B2BFF30F0057F30F105FF30F2050310EA
:10367800F30C7308F500F601F7011030F535F60D77
:10368800F70D890B422B7508F0047608F1047708CA
:10369800F204740803190800F21708002000300823
:1036A800B4003108B5003208B6000310350D360DE8
:1036B800B7003708BD003D08031D6B2B0030B30071
:1036C8000030B2000030B1000030B000080030080F
:1036D800B4003108B5003208B6001730B636B50C5C
:1036E800B40C890B722B3408B7003708B800B1172F
:1036F800FF30B005FF30B1050030B2053008B90021
:103708003108BA003208BB00BC018E30BD02BD1FB3
:10371800A92B3D08803A8F3E03189B2B0030B3003D
:103728000030B2000030B1000030B00008000130B5
:10373800BC36BB0CBA0CB90C890B9C2B0130B400FD
:103748003408BD070319C22B9B2B18303D02031CFC
:10375800BF2B0030B3000030B2000030B1000030A1
:10376800B00008000130B935BA0DBB0DBC0D890B8E
:10377800B72B0130BD023D08031DB62B38080319CD
:10378800D02BB909BA09BB09BC09B90A0319BA0A85
:103798000319BB0A0319BC0A3C08B3003B08B20072
:1037A8003A08B1003908B000080021004408031D98
:1037B8001A2C3D00C401C3013117E401E30151177C
:1037C800FF303E00A400FF30A30011173D00311761
:1037D80051173E0011171530F2004B30F100D1306F
:1037E800F000F00BF52BF10BF52BF20BF52B00008D
:1037F8003D00C401C3013117E401E30151173E0044
:10380800A401A30111173D00311751173E001117EC
:103818001530F2004B30F100D130F000F00B122CD3
:10382800F10B122CF20B122C0000D92B0B30440296
:103838000318312C3D00C401C3013117E401E30131
:103848005117FF303E00A400FF30A30011173D00C0
:10385800311751173E00111708000B3021004402A0
:10386800031C4E2C2330440203184E2CFF303D001D
:10387800C400FF30C3003117E401E3015117FF30E2
:103888003E00A400A30111173D00311751173E0057
:1038980011170800FF303D00C400FF30C300311786
:1038A800E401E30151173E00A401A30111173D00F3
:1038B800311751173E001117080020002008A600F4
:1038C8002108A7002208A8000310270D280DA90029
:1038D8002908AA002A08031D782C0030A00000300F
:1038E800A1000030A20008002308A6002408A700B1
:1038F8002508A8000310270D280DA9002908AF00E6
:103908002F08031D8E2C0030A0000030A1000030CD
:10391800A20008002F087B3EA6002608AA07200858
:10392800A6002108A7002208A8001030A836A70C76
:10393800A60C890B9A2C2608A9002908AF00230891
:10394800A6002408A7002508A8001030A836A70C50
:10395800A60C890BAA2C2608A9002908AF068030D6
:10396800A6002608AF05A117A417FF30A305FF304E
:10397800A4050030A5050030AB000030AC000030D5
:10398800AD000730A6002608AE00201CD12C230865
:10399800AB072408AC3D2508AD3D0130A236A10C8B
:1039A800A00C890BD22C0130A335A40DA50D890BD1
:1039B800D82C0130AE02031DC92C0930A6002608F8
:1039C800AE00201CED2C2308AB072408AC3D2508CD
:1039D800AD3D0130A236A10CA00C890BEE2C0130B4
:1039E800AD36AC0CAB0C890BF42C0130AE02031DC8
:1039F800E52C2B08F0002C08F1002D08F2002A080D
:103A0800A6002608F3002F08A7002708F4009A311B
:103A1800EE2270082000A0007108A1007208A20020
:103A28000800F501F6017608803AF3008030730249
:103A3800031D202D043075020318352D0030873101
:103A4800EE279D310130F5070030F63D7608803AC3
:103A5800F30080307302031D332D04307502031CFC
:103A6800222DFF308731EE279D3100308731EE2738
:103A78009D3100308731EE279D3100308731EE27A8
:103A88009D31FF308731EE279D3100308731EE2799
:103A98009D3100308731EE279D3100308731EE2788
:103AA8009D31FF308731EE279D3100308731EE2779
:103AB8009D3100308731EE279D3100308731EE2768
:103AC8009D31FF308731EE279D3100308731EE2759
:103AD8009D3100308731EE279D3100308731EE2748
:103AE8009D31FF308731EE279D3100308731EE2739
:103AF8009D3100308731EE279D3100308731EE2728
:103B08009D31FF308731EE279D3100308731EE2718
:103B18009D3100308731EE279D3100308731EE2707
:103B28009D31FF308731EE279D3100308731EE27F8
:103B38009D3100308731EE279D3100308731EE27E7
:103B48009D31F701F8017808803AF300803073025C
:103B5800031DB02D043077020318C52DFF308731BF
:103B6800EE279D310130F7070030F83D7808803A9C
:103B7800F30080307302031DC32D04307702031C49
:103B8800B22DD030F400C930F300F30BC92DF40B7B
:103B9800C92D00320800F800F901FA017A08803AC4
:103BA800F60080307602031DDB2D043079020318FD
:103BB800F02D00308731EE279D310130F9070030B4
:103BC800FA3D7A08803AF60080307602031DEE2D21
:103BD80004307902031CDD2D78088731EE279D31EA
:103BE80075088731EE279D3174088731EE279D319E
:103BF80073088731EE279D31FF308731EE279D31DD
:103C080000308731EE279D3100308731EE279D3116
:103C180000308731EE279D31FF308731EE279D3107
:103C280000308731EE279D3100308731EE279D31F6
:103C380000308731EE279D31FF308731EE279D31E7
:103C480000308731EE279D3100308731EE279D31D6
:103C580000308731EE279D31FF308731EE279D31C7
:103C680000308731EE279D3100308731EE279D31B6
:103C780000308731EE279D31FF308731EE279D31A7
:103C880000308731EE279D3100308731EE279D3196
:103C980000308731EE279D31FF308731EE279D3187
:103CA80000308731EE279D3100308731EE279D3176
:103CB80000308731EE279D31FB01FC017C08803AFA
:103CC800F60080307602031D6B2E04307B02031849
:103CD800802EFF308731EE279D310130FB07003001
:103CE800FC3D7C08803AF60080307602031D7E2E6B
:103CF80004307B02031C6D2ED030F700C930F6006B
:103D0800F60B842EF70B842E00320800F800F90118
:103D1800FA017A08803AF60080307602031D962E62
:103D2800043079020318AB2E00308731EE279E311C
:103D38000130F9070030FA3D7A08803AF600803001
:103D48007602031DA92E04307902031C982EFF3039
:103D58008731EE279E3100308731EE279E310030C3
:103D68008731EE279E3100308731EE279E31780863
:103D78008731EE279E3175088731EE279E3174080A
:103D88008731EE279E3173088731EE279E31FF3049
:103D98008731EE279E3100308731EE279E31003083
:103DA8008731EE279E3100308731EE279E31FF3074
:103DB8008731EE279E3100308731EE279E31003063
:103DC8008731EE279E3100308731EE279E31FF3054
:103DD8008731EE279E3100308731EE279E31003043
:103DE8008731EE279E3100308731EE279E31FF3034
:103DF8008731EE279E3100308731EE279E31003023
:103E08008731EE279E3100308731EE279E31FF3013
:103E18008731EE279E3100308731EE279E31003002
:103E28008731EE279E3100308731EE279E31FB0126
:103E3800FC017C08803AF60080307602031D262FAC
:103E480004307B0203183B2FFF308731EE279E3169
:103E58000130FB070030FC3D7C08803AF6008030DA
:103E68007602031D392F04307B02031C282FD03023
:103E7800F700C930F600F60B3F2FF70B3F2F003243
:103E88000800F800F901FA017A08803AF600803053
:103E98007602031D512F043079020318662F003073
:103EA8008731EE279F310130F9070030FA3D7A0853
:103EB800803AF60080307602031D642F04307902C0
:103EC800031C532FFF308731EE279F310030873195
:103ED800EE279F3100308731EE279F310030873140
:103EE800EE279F31FF308731EE279F310030873131
:103EF800EE279F3100308731EE279F310030873120
:103F0800EE279F3178088731EE279F317508873172
:103F1800EE279F3174088731EE279F317308873168
:103F2800EE279F31FF308731EE279F3100308731F0
:103F3800EE279F3100308731EE279F3100308731DF
:103F4800EE279F31FF308731EE279F3100308731D0
:103F5800EE279F3100308731EE279F3100308731BF
:103F6800EE279F31FF308731EE279F3100308731B0
:103F7800EE279F3100308731EE279F31003087319F
:103F8800EE279F31FF308731EE279F310030873190
:103F9800EE279F3100308731EE279F31003087317F
:103FA800EE279F31FB01FC017C08803AF600803047
:103FB8007602031DE12F04307B020318F62FFF3031
:103FC8008731EE279F310130FB070030FC3D7C082C
:103FD800803AF60080307602031DF42F04307B020D
:103FE800031CE32FD030F700C930F600F60BFA2F88
:103FF800F70BFA2F003208000034103418340C3450
:10400800E83413340A340D3447346F346F3464346D
:1040180020346A346F3462342E34203459346F3487
:10402800753420346B346E346F347734203468340C
:104038006F347734203474346F34203472346534F8
:1040480061346434203469346E34733474347234B3
:1040580075346334743469346F346E3473342E3485
:104068000A340A34003450346C346534613473349F
:104078006534203465346E347434653472342034D5
:104088007434683465342034633468346134723489
:1040980061346334743465347234203441343A34CE
:1040A800203400340A340D34573472346F346E348B
:1040B800673420346B34653479342E3420345434E6
:1040C80072347934203461346734613469346E343D
:1040D8002E340A340D3400340A340D344D3461342E
:1040E80069346E3420344C346F346F347034203477
:1040F80049346E34643469347634693464347534DC
:0A41080061346C340A340D340034C5
:020000040001F9
:04000E00E4F9FFDE34
:00000001FF
