:0400000081317329AE
:1000060032347E14803120007F08BF0096019701AC
:100016002700931C1D28931032302000BE003E0896
:100026002100C5009C31A524803102308C318B24FF
:1000360080316E29131E6E29EF302000BE003E0867
:100046002700930520000C1E31280A3020001702D5
:1000560076300319160203186E2925289601970192
:100066000C1A3D280A3017027630031916020318B7
:100076006E293328960197010C1E49280A3017026B
:1000860076300319160203186E293F281708C9008F
:100096001608C800960197010C1A59280A3017024B
:1000A60076300319160203186E294F289601970118
:1000B6000C1E65280A30170276300319160203183B
:1000C6006E295B281708CB001608CA00CD30A000A1
:1000D6008C30A1003F30A2004B08F9004A08F80016
:1000E6009B313323803178082000A3007908A400CF
:1000F6007A08A5009D31D725803120002008B00060
:100106002108B1002208B2004908F9004808F800A1
:100116009B313323803178082000B3007908B4007E
:100126007A08B5009B31E2238031031C6E29CD305D
:100136002000A0008C30A1003F30A2004908F90041
:100146004808F8009B313323803178082000A3004B
:100156007908A4007A08A5009D31D72580312000B2
:100166002008B0002108B1002208B2004B08F900AF
:100176004A08F8009B313323803178082000B30009
:100186007908B4007A08B5009B31E2238031031C5C
:100196006E290230F0000030F10020004A084807BE
:1001A600F2004B08493DF3008731A72780317108DB
:1001B6002000CD007008CC004D08F9004C08F8006E
:1001C6009B313323803178082000A3007908A400EE
:1001D6007A08A500CD30A0008E30A1004130A200E3
:1001E6009D31D725803120002008B0002108B100BC
:1001F6002208B2009C311E24803120003108CF0035
:100206003008CE004F08803ABE0097303E02031DEC
:100216000E2970304E02031C2C2920004F08803A0C
:10022600BE009D303E02031D1A294C304E020318B3
:100236002C292100450803196E29883100208031B8
:10024600003A031D6E2901302100C502C301C30A0D
:100256006E2920004F08803ABE00A7303E02031DDB
:10026600362910304E02031C502920004F08803AD0
:10027600BE00AE303E02031D4229E0304E02031896
:10028600502932302100450203186E290130200022
:10029600BE003E082100C5076E2920004F08803A9F
:1002A600BE00B2303E02031D5A29C8304E02031C5E
:1002B6006E2920004F08803ABE00BA303E02031D68
:1002C600662998304E0203186E2901302000BE00C0
:1002D6003E082100C40720003F08FF007E100900E9
:1002E60081317529C801C901CA01CB01CC01CD01F3
:1002F600CE01CF012100C001C101C201C301C40169
:1003060080310320C5007E1020009431E22C2100AC
:10031600B200B601B701B801FF30A5002508B50047
:10032600FF30A5002508B600B701B8013208031D45
:100336003203031DDF2A3608A50025082000C30066
:1003460021003708A60026082000C400210038082E
:10035600A70027082000C500210035089631682629
:10036600813103302100A7000830A6007830A500AF
:10037600A50BBB29A60BBB29A70BBB292100360859
:10038600A50025082000C30021003708A60026087E
:100396002000C40021003808A70027082000C50057
:1003A6002100350897313427813103302100A70019
:1003B6000830A6007830A500A50BDF29A60BDF299B
:1003C600A70BDF2921003608A50025082000C30059
:1003D60021003708A60026082000C400210038089E
:1003E600A70027082000C5002100350888318F2086
:1003F600813103302100A7000830A6007830A5001F
:10040600A50B032AA60B032AA70B032A21003608ED
:10041600A50025082000C30021003708A6002608ED
:100426002000C40021003808A70027082000C500C6
:100436002100350889315B21813103302100A70075
:100446000830A6007830A500A50B272AA60B272A78
:10045600A70B272A21003608A50025082000C3007F
:1004660021003708A60026082000C400210038080D
:10047600A70027082000C500210035088A31272259
:10048600813103302100A7000830A6007830A5008E
:10049600A50B4B2AA60B4B2AA70B4B2A2100360885
:1004A600A50025082000C30021003708A60026085D
:1004B6002000C40021003808A70027082000C50036
:1004C600210035088A31F322813103302100A7004B
:1004D6000830A6007830A500A50B6F2AA60B6F2A58
:1004E600A70B6F2A21003608A50025082000C300A7
:1004F60021003708A60026082000C400210038087D
:10050600A70027082000C500210035088B31BF232E
:10051600813103302100A7000830A6007830A500FD
:10052600A50B932AA60B932AA70B932A2100B001A9
:10053600043030020318362D3608A50025082000A1
:10054600C30021003708A60026082000C4002100A9
:100556003808A70027082000C500210035088B3180
:10056600BF23813102302100A7000430A600BA3033
:10057600A500A50BBC2AA60BBC2AA70BBC2A00000B
:100586002000C301C401C501FF308B31BF23813177
:1005960002302100A7000430A600BA30A500A50B42
:1005A600D22AA60BD22AA70BD22A0000013021009C
:1005B600A5002508B0079B2A02303206031D462CEB
:1005C600B301330A0319952BA801A9012908803A1A
:1005D600A50080302502031DF22A043028020318E4
:1005E600082B00309B312023813101302100A807E0
:1005F6000030A93D2908803AA50080302502031D58
:10060600062B04302802031CF42AFF309B312023DA
:10061600813100309B312023813100309B312023F2
:100626008131210033089B3120238131FF309B31FA
:100636002023813100309B312023813100309B31D2
:100646002023813121003303FF3AFF3E9B312023D3
:100656008131FF309B312023813100309B312023B3
:10066600813100309B3120238131210033089B31B9
:1006760020238131FF309B312023813100309B3193
:100686002023813100309B31202381312100330327
:10069600FF3AFF3E9B3120238131FF309B312023DF
:1006A600813100309B312023813100309B31202362
:1006B6008131210033089B31202381312100AA0199
:1006C600AB012B08803AA50080302502031D6D2B57
:1006D60004302A020318832BFF309B3120238131FB
:1006E60001302100AA070030AB3D2B08803AA50057
:1006F60080302502031D812B04302A02031C6F2B38
:10070600D0302100A600C930A500A50B882BA60B6A
:10071600882B003205302100A5002508B307330ACF
:10072600031DE72AFF30A5002508B4003408031985
:10073600362DAC01AD012D08803AA500803025028A
:10074600031DA72B04302C020318BD2B00309B3150
:100756002023813101302100AC070030AD3D2D084A
:10076600803AA50080302502031DBB2B04302C02E5
:10077600031CA92BFF309B312023813100309B3194
:100786002023813100309B31202381312100340820
:100796009B3120238131FF309B3120238131003072
:1007A6009B312023813100309B3120238131210070
:1007B6003403FF3AFF3E9B3120238131FF309B31CA
:1007C6002023813100309B312023813100309B3141
:1007D60020238131210034089B3120238131FF30D1
:1007E6009B312023813100309B3120238131003021
:1007F6009B312023813121003403FF3AFF3E9B3198
:1008060020238131FF309B312023813100309B3101
:100816002023813100309B3120238131210034088F
:100826009B31202381312100AE01AF012F08803A90
:10083600A50080302502031D222C04302E02031849
:10084600382CFF309B312023813101302100AE0747
:100856000030AF3D2F08803AA50080302502031DE9
:10086600362C04302E02031C242CD0302100A60086
:10087600C930A500A50B3D2CA60B3D2C003205303A
:100886002100B402992B03303206031D362DFF30AA
:10089600A50025082000C300C401C501FF308B3127
:1008A600BF23813103302100A7000830A60078302D
:1008B600A500A50B5C2CA60B5C2CA70B5C2CFF30B3
:1008C6002100A50025082000C300C401C501FF3092
:1008D6008A31F322813103302100A7000830A600B7
:1008E6007830A500A50B752CA60B752CA70B752CBF
:1008F600FF302100A50025082000C300C401C50162
:10090600FF308A312722813103302100A7000830C9
:10091600A6007830A500A50B8E2CA60B8E2CA70B57
:100926008E2CFF302100A50025082000C300C4013D
:10093600C501FF3089315B21813103302100A700D9
:100946000830A6007830A500A50BA72CA60BA72C6F
:10095600A70BA72CFF302100A50025082000C30007
:10096600C401C501FF3088318F2081310330210059
:10097600A7000830A6007830A500A50BC02CA60B52
:10098600C02CA70BC02CFF302100A5002508200095
:10099600C300C401C501FF309731342781310330CC
:1009A6002100A7000830A6007830A500A50BD92C99
:1009B600A60BD92CA70BD92CFF302100A5002508A2
:1009C6002000C300C401C501FF309631682681317D
:1009D60003302100A7000830A6007830A500A50B3B
:1009E600F22CA60BF22CA70BF22C2100B10104303D
:1009F60031020318362DFF30A50025082000C3005C
:100A0600C401C501FF3096316826813102302100CC
:100A1600A7000430A600BA30A500A50B102DA60B22
:100A2600102DA70B102D00002000C301C401C50125
:100A3600FF3096316826813102302100A70004304C
:100A4600A600BA30A500A50B262DA60B262DA70BB2
:100A5600262D000001302100A5002508B10704302D
:100A66003102031CFE2C9531A12508002100A600A9
:100A76002608031DA72DA001A1012108803A200008
:100A8600C10080304102031D4B2D40082100200289
:100A9600031808003D009216ED302000C100003218
:100AA6000000C10B522D00003D0092121A302000AA
:100AB600C200F830C100C10B5E2DC20B5E2D0000D6
:100AC6003D00921604302000C200B430C100C10BB4
:100AD6006A2DC20B6A2D00003D00921219302000CB
:100AE600C2001B30C100C10B762DC20B762D003221
:100AF6003D00921604302000C200B430C100C10B84
:100B0600822DC20B822D00003D009212193020006A
:100B1600C2001B30C100C10B8E2DC20B8E2D0032C0
:100B26003D0092161C302000C200D130C100C10B1E
:100B36009A2DC20B9A2D00323D00921201302100EF
:100B4600A0070030A13D402D21002603031D142ED1
:100B5600A201A3012308803A2000C100803041028F
:100B6600031DB82D400821002202031808003D008D
:100B76009216ED302000C10000320000C10BBF2DDF
:100B860000003D0092121A302000C200F830C10069
:100B9600C10BCB2DC20BCB2D00003D0092160630AB
:100BA6002000C2008D30C100C10BD72DC20BD72D3E
:100BB60000323D00921217302000C2004230C100C0
:100BC600C10BE32DC20BE32D00003D00921606304B
:100BD6002000C2008D30C100C10BEF2DC20BEF2DDE
:100BE60000323D00921217302000C2004230C10090
:100BF600C10BFB2DC20BFB2D00003D0092161C30D5
:100C06002000C200D130C100C10B072EC20B072E37
:100C160000323D00921201302100A2070030A33DB0
:100C2600AD2D2100A401A5012508803A2000C100B0
:100C360080304102031D222E4008210024020318A1
:100C460008003D009216ED302000C1000032000081
:100C5600C10B292E00003D0092121A302000C2005E
:100C6600F830C100C10B352EC20B352E00003D00F9
:100C7600921608302000C2006930C100C10B412E17
:100C8600C20B412E00323D00921215302000C200E8
:100C96006630C100C10B4D2EC20B4D2E00003D002B
:100CA600921608302000C2006930C100C10B592ECF
:100CB600C20B592E00323D00921215302000C200A0
:100CC6006630C100C10B652EC20B652E00003D00CB
:100CD60092161C302000C200D130C100C10B712E0B
:100CE600C20B712E00323D00921201302100A40782
:100CF6000030A53D172E20008E1F832E01300800E0
:100D06002100A001A101A201A301A401A501B20134
:100D1600B301B401B501B601B701A601A701A80147
:100D2600A901AA01AB01AC01AD01AE01AF01B00151
:100D3600B10100308400A0308500003F2000C000D3
:100D4600013FC1004008803E2100A6000C30200073
:100D5600413D2100A70000308400A0308500003FFF
:100D66002000C000013FC1004008803E2100A800CD
:100D7600F3302000413D2100A90000308400A0305E
:100D86008500003F2000C000013FC1004008803EB2
:100D96002100AA000C302000413D2100AB000030AC
:100DA6008400A0308500003F2000C000013FC10044
:100DB6004008803E2100AC00F3302000413D210078
:100DC600AD0000308400A0308500003F2000C00048
:100DD600013FC1004008803E2100AE000C302000DB
:100DE600413D2100AF0000308400A0308500003F67
:100DF6002000C000013FC1004008803E2100B00035
:100E0600F3302000413D2100B10009309D00C7307C
:100E16002000C0000000C00B0D2F00320000210092
:100E26009D149D18142F1C08B3001B08B2000D302A
:100E36009D00C7302000C0000000C00B1F2F0032ED
:100E4600000021009D149D18262F1C08B5001B08C4
:100E5600B40015309D00C7302000C0000000C00B54
:100E6600312F0032000021009D149D18382F1C08D8
:100E7600B7001B08B6002708803A2000C0002100F2
:100E86003308803A20004002031D4C2F210032080F
:100E96002602031CA32F21003308803A2000C0003D
:100EA60021002908803A20004002031D5D2F210001
:100EB60028083202031CA32F21002B08803A2000A9
:100EC600C00021003508803A20004002031D6E2F25
:100ED600210034082A02031CA32F21003508803A7A
:100EE6002000C00021002D08803A20004002031D8A
:100EF6007F2F21002C083402031CA32F21002F086A
:100F0600803A2000C00021003708803A20004002C5
:100F1600031D902F210036082E02031CA32F21004B
:100F26003708803A2000C00021003108803A2000AE
:100F36004002031DA12F2100300836020318A52FF9
:100F46000130080000300800F601F11FB12FF0094A
:100F5600F109F00A0319F10AF601F60AF31FBC2F8C
:100F6600F209F309F20A0319F30A0130F4007408CE
:100F7600F606F701F801700871040319EB2FF50165
:100F8600F50AF11BD02F0130F035F10D890BC72F73
:100F96000130F4007408F507C42F0130F735F80D59
:100FA600890BD12F71087302031DDB2F70087202A3
:100FB600031CE22F7008F2027108F33B771401302C
:100FC600F136F00C890BE32F0130F502031DD02F0B
:100FD60076080319F32FF709F809F70A0319F80A2F
:100FE6007808F1007708F0000800003020008C181F
:100FF6000130080021008C140800003020008C18F5
:101006000130080021004508031D48283D00C401A1
:10101600C3013117E401E3015117FF303E00A4007C
:10102600FF30A30011173D00311751173E0011176D
:1010360015302000C2004B30C100D130C000C00BBB
:101046002228C10B2228C20B222800003D00C40121
:10105600C3013117E401E30151173E00A401A301C6
:1010660011173D00311751173E001117153020009A
:10107600C2004B30C100D130C000C00B4028C10BAC
:101086004028C20B4028000005280B3045020318F3
:101096005F283D00C401C3013117E401E301511784
:1010A600FF303E00A400FF30A30011173D003117AA
:1010B60051173E00111708000B3021004502031C92
:1010C6007C282330450203187C28FF303D00C400ED
:1010D600FF30C3003117E401E3015117FF303E0032
:1010E600A400A30111173D00311751173E00111737
:1010F6000800FF303D00C400FF30C3003117E40193
:10110600E30151173E00A401A30111173D00311759
:1011160051173E00111708002100A000A101A201ED
:101126002208803A2000C60080304602031D9E2811
:101136000430210021020318B62800309B312023F9
:10114600883101302100A1070030A23D2208803AF3
:101156002000C60080304602031DB428043021005A
:101166002102031CA028FF309B3120238831003048
:101176009B312023883100309B3120238831003079
:101186009B3120238831FF309B312023883100306A
:101196009B312023883100309B3120238831003059
:1011A6009B3120238831210020089B312023883160
:1011B600200045089B3120238831200044089B31BC
:1011C60020238831200043089B3120238831FF30BB
:1011D6009B312023883100309B3120238831003019
:1011E6009B312023883100309B3120238831FF300A
:1011F6009B312023883100309B31202388310030F9
:101206009B312023883100309B3120238831FF30E9
:101216009B312023883100309B31202388310030D8
:101226009B312023883100309B3120238831FF30C9
:101236009B312023883100309B31202388310030B8
:101246009B312023883100309B31202388312100B7
:10125600A301A4012408803A2000C600803046027B
:10126600031D382904302100230203185029FF30BA
:101276009B312023883101302100A3070030A43D93
:101286002408803A2000C60080304602031D4E29FD
:10129600043021002302031C3A29D0302000C70065
:1012A600C930C600C60B5529C70B552900320800A0
:1012B6002100A000A101A2012208803A2000C60058
:1012C60080304602031D6A290430210021020318DA
:1012D600822900309B312023893101302100A1076A
:1012E6000030A23D2208803A2000C6008030460227
:1012F600031D8029043021002102031C6C29FF30C4
:101306009B312023893100309B31202389310030E5
:101316009B312023893100309B3120238931FF30D6
:101326009B312023893100309B31202389310030C5
:101336009B312023893100309B3120238931FF30B6
:101346009B312023893100309B31202389310030A5
:101356009B312023893100309B31202389312100A4
:1013660020089B3120238931200045089B3120230A
:101376008931200044089B3120238931200043080D
:101386009B3120238931FF309B3120238931003066
:101396009B312023893100309B3120238931003055
:1013A6009B3120238931FF309B3120238931003046
:1013B6009B312023893100309B3120238931003035
:1013C6009B3120238931FF309B3120238931003026
:1013D6009B312023893100309B3120238931003015
:1013E6009B31202389312100A301A4012408803ADE
:1013F6002000C60080304602031D042A0430210066
:10140600230203181C2AFF309B3120238931013027
:101416002100A3070030A43D2408803A2000C6001E
:1014260080304602031D1A2A043021002302031CC1
:10143600062AD0302000C700C930C600C60B212AB4
:10144600C70B212A003208002100A000A101A20139
:101456002208803A2000C60080304602031D362A44
:1014660004302100210203184E2A00309B3120232C
:101476008A3101302100A1070030A23D2208803ABE
:101486002000C60080304602031D4C2A043021008D
:101496002102031C382AFF309B3120238A31003079
:1014A6009B3120238A3100309B3120238A31003042
:1014B6009B3120238A31FF309B3120238A31003033
:1014C6009B3120238A3100309B3120238A31003022
:1014D6009B3120238A31FF309B3120238A31003013
:1014E6009B3120238A3100309B3120238A31003002
:1014F6009B3120238A31FF309B3120238A310030F3
:101506009B3120238A3100309B3120238A310030E1
:101516009B3120238A31210020089B3120238A31E8
:10152600200045089B3120238A31200044089B3146
:1015360020238A31200043089B3120238A31FF3043
:101546009B3120238A3100309B3120238A310030A1
:101556009B3120238A3100309B3120238A31FF3092
:101566009B3120238A3100309B3120238A31003081
:101576009B3120238A3100309B3120238A31210080
:10158600A301A4012408803A2000C6008030460248
:10159600031DD02A0430210023020318E82AFF3055
:1015A6009B3120238A3101302100A3070030A43D5E
:1015B6002408803A2000C60080304602031DE62A31
:1015C600043021002302031CD22AD0302000C70099
:1015D600C930C600C60BED2AC70BED2A003208003B
:1015E6002100A000A101A2012208803A2000C60025
:1015F60080304602031D022B04302100210203180D
:101606001A2B00309B3120238A3101302100A1079B
:101616000030A23D2208803A2000C60080304602F3
:10162600031D182B043021002102031C042BFF305C
:101636009B3120238A3100309B3120238A310030B0
:101646009B3120238A3100309B3120238A31FF30A1
:101656009B3120238A3100309B3120238A31003090
:101666009B3120238A3100309B3120238A31FF3081
:101676009B3120238A3100309B3120238A31003070
:101686009B3120238A3100309B3120238A31FF3061
:101696009B3120238A3100309B3120238A31003050
:1016A6009B3120238A3100309B3120238A31FF3041
:1016B6009B3120238A3100309B3120238A31003030
:1016C6009B3120238A3100309B3120238A3121002F
:1016D60020089B3120238A31200045089B31202396
:1016E6008A31200044089B3120238A312000430898
:1016F6009B3120238A31FF309B3120238A310030F1
:101706009B3120238A3100309B3120238A310030DF
:101716009B3120238A312100A301A4012408803AA9
:101726002000C60080304602031D9C2B0430210099
:1017360023020318B42BFF309B3120238A3101305A
:101746002100A3070030A43D2408803A2000C600EB
:1017560080304602031DB22B043021002302031CF5
:101766009E2BD0302000C700C930C600C60BB92B4F
:10177600C70BB92B003208002100A000A101A2016D
:101786002208803A2000C60080304602031DCE2B78
:101796000430210021020318E62B00309B31202360
:1017A6008B3101302100A1070030A23D2208803A8A
:1017B6002000C60080304602031DE42B04302100C1
:1017C6002102031CD02BFF309B3120238B310030AC
:1017D6009B3120238B3100309B3120238B3100300D
:1017E6009B3120238B31FF309B3120238B310030FE
:1017F6009B3120238B3100309B3120238B310030ED
:101806009B3120238B31FF309B3120238B310030DD
:101816009B3120238B3100309B3120238B310030CC
:101826009B3120238B31FF309B3120238B310030BD
:101836009B3120238B3100309B3120238B310030AC
:101846009B3120238B31FF309B3120238B3100309D
:101856009B3120238B3100309B3120238B3100308C
:101866009B3120238B31FF309B3120238B3100307D
:101876009B3120238B3100309B3120238B3100306C
:101886009B3120238B31210020089B3120238B3173
:10189600200045089B3120238B31200044089B31D2
:1018A60020238B31200043089B3120238B312100DC
:1018B600A301A4012408803A2000C6008030460215
:1018C600031D682C0430210023020318802CFF30EE
:1018D6009B3120238B3101302100A3070030A43D2A
:1018E6002408803A2000C60080304602031D7E2C64
:1018F600043021002302031C6A2CD0302000C700CC
:10190600C930C600C60B852CC70B852C00320800D3
:101916002000A300B101B201B301FF30A0002008EE
:10192600B000FF30A0002008B100B201B3012308C7
:10193600031D2303031DAF2D3108A0002008F3006B
:101946003208A1002108F4003308A2002208F5009D
:1019560030089F3145278C3103302000A200083023
:10196600A1007830A000A00BB62CA10BB62CA20BC0
:10197600B62C20003108A0002008F3003208A10090
:101986002108F4003308A2002208F500300890313F
:1019960080208C3103302000A2000830A10078306E
:1019A600A000A00BD42CA10BD42CA20BD42C20006D
:1019B6003108A0002008F3003208A1002108F40035
:1019C6003308A2002208F500300891313B218C3102
:1019D60003302000A2000830A1007830A000A00B40
:1019E600F22CA10BF22CA20BF22C20003108A00045
:1019F6002008F3003208A1002108F4003308A200F1
:101A06002208F50030089131F6218C310330200090
:101A1600A2000830A1007830A000A00B102DA10B69
:101A2600102DA20B102D20003108A0002008F30075
:101A36003208A1002108F4003308A2002208F500AC
:101A460030089231B1228C3103302000A2000830D8
:101A5600A1007830A000A00B2E2DA10B2E2DA20BDD
:101A66002E2D20003108A0002008F3003208A10026
:101A76002108F4003308A2002208F500300893314B
:101A86006C238C3103302000A2000830A10078308E
:101A9600A000A00B4C2DA10B4C2DA20B4C2D200011
:101AA6003108A0002008F3003208A1002108F40044
:101AB6003308A2002208F5003008943127248C311F
:101AC60003302000A2000830A1007830A000A00B4F
:101AD6006A2DA10B6A2DA20B6A2D2000AC010430E1
:101AE6002C020318FD2F3108A0002008F30032084D
:101AF600A1002108F4003308A2002208F5003008EE
:101B0600943127248C3102302000A2000430A10039
:101B1600BA30A000A00B8D2DA10B8D2DA20B8D2D03
:101B26000000F301F401F501FF30943127248C31D4
:101B360002302000A2000430A100BA30A000A00BA1
:101B4600A22DA10BA22DA20BA22D00000130200078
:101B5600A0002008AC07722D02302306031D162FA5
:101B6600AE012E0A0319652EA401A5012508803AA7
:101B7600A00080302002031DC22D04302402031869
:101B8600D82D00309B3110238C3101302000A40762
:101B96000030A53D2508803AA00080302002031DB4
:101BA600D62D04302402031CC42DFF309B31102394
:101BB6008C3100309B3110238C3100309B31102347
:101BC6008C3120002E089B3110238C31FF309B3145
:101BD60010238C3100309B3110238C3100309B3127
:101BE60010238C3120002E03FF3AFF3E9B31102339
:101BF6008C31FF309B3110238C3100309B31102308
:101C06008C3100309B3110238C3120002E089B3103
:101C160010238C31FF309B3110238C3100309B31E7
:101C260010238C3100309B3110238C3120002E0381
:101C3600FF3AFF3E9B3110238C31FF309B3110233E
:101C46008C3100309B3110238C3100309B311023B6
:101C56008C3120002E089B3110238C312000A601E8
:101C6600A7012708803AA00080302002031D3D2EE0
:101C7600043026020318532EFF309B3110238C317B
:101C860001302000A6070030A73D2708803AA000B3
:101C960080302002031D512E04302602031C3F2EE5
:101CA600D0302000A100C930A000A00B582EA10BF7
:101CB600582E003205302000A0002008AE072E0A5C
:101CC600031DB72DFF30A0002008AF002F08031911
:101CD600FD2FA801A9012908803AA0008030200222
:101CE600031D772E0430280203188D2E00309B31F9
:101CF60010238C3101302000A8070030A93D2908A7
:101D0600803AA00080302002031D8B2E043028026A
:101D1600031C792EFF309B3110238C3100309B3110
:101D260010238C3100309B3110238C3120002F087A
:101D36009B3110238C31FF309B3110238C310030C6
:101D46009B3110238C3100309B3110238C312000C5
:101D56002F03FF3AFF3E9B3110238C31FF309B311E
:101D660010238C3100309B3110238C3100309B3195
:101D760010238C3120002F089B3110238C31FF302B
:101D86009B3110238C3100309B3110238C31003075
:101D96009B3110238C3120002F03FF3AFF3E9B31ED
:101DA60010238C31FF309B3110238C3100309B3156
:101DB60010238C3100309B3110238C3120002F08EA
:101DC6009B3110238C312000AA01AB012B08803AED
:101DD600A00080302002031DF22E04302A020318D0
:101DE600082FFF309B3110238C3101302000AA07C9
:101DF6000030AB3D2B08803AA00080302002031D46
:101E0600062F04302A02031CF42ED0302000A10035
:101E1600C930A000A00B0D2FA10B0D2F00320530ED
:101E26002000AF02692E03302306031DFD2FFF306D
:101E3600A0002008F300F401F501FF3094312724B7
:101E46008C3103302000A2000830A1007830A000B9
:101E5600A00B2B2FA10B2B2FA20B2B2FFF3020001B
:101E6600A0002008F300F401F501FF3093316C2344
:101E76008C3103302000A2000830A1007830A00089
:101E8600A00B432FA10B432FA20B432FFF302000A3
:101E9600A0002008F300F401F501FF309231B122D1
:101EA6008C3103302000A2000830A1007830A00059
:101EB600A00B5B2FA10B5B2FA20B5B2FFF3020002B
:101EC600A0002008F300F401F501FF309131F6215E
:101ED6008C3103302000A2000830A1007830A00029
:101EE600A00B732FA10B732FA20B732FFF302000B3
:101EF600A0002008F300F401F501FF3091313B21E9
:101F06008C3103302000A2000830A1007830A000F8
:101F1600A00B8B2FA10B8B2FA20B8B2FFF3020003A
:101F2600A0002008F300F401F501FF309031802075
:101F36008C3103302000A2000830A1007830A000C8
:101F4600A00BA32FA10BA32FA20BA32FFF302000C2
:101F5600A0002008F300F401F501FF309F3145276A
:101F66008C3103302000A2000830A1007830A00098
:101F7600A00BBB2FA10BBB2FA20BBB2F2000AD01CB
:101F860004302D020318FD2FFF30A0002008F300B7
:101F9600F401F501FF309F3145278C3102302000D6
:101FA600A2000430A100BA30A000A00BD82FA10BCC
:101FB600D82FA20BD82F0000F301F401F501FF3052
:101FC6009F3145278C3102302000A2000430A10049
:101FD600BA30A000A00BED2FA10BED2FA20BED2F19
:101FE600000001302000A0002008AD0704302D02BB
:0A1FF600031CC72F9E318B26080044
:10200E0021009D0180309E000F309F002C3020005B
:10201E00C000400821008C042C302000C000400875
:10202E0023008C0421008E1708007308031924283E
:10203E00720871047004031D35280030F000003062
:10204E00F1000030F20008000130F5007508F307CA
:10205E000130F236F10CF00C890B3028FE3072058F
:10206E0003194E282B280130F5007508F3070130AF
:10207E00F007003003180130F1070030031801306B
:10208E00F2070130F236F10CF00C890B4928FF30C3
:10209E00720503195B283A280130F3020130F0353E
:1020AE00F10DF20D890B5628F11B612802307302D7
:1020BE000318532873186928FF30F0057F30F10597
:1020CE00FF30F2050310F30C7308F500F601F7016B
:1020DE001030F535F60DF70D890B70287508F004E4
:1020EE007608F1047708F204740803190800F21751
:1020FE000800F800F901FA017A08803AF6008030FB
:10210E007602031D8C28043079020318A1280030B2
:10211E009B31102390310130F9070030FA3D7A08D7
:10212E00803AF60080307602031D9F280430790233
:10213E00031C8E28FF309B311023903100309B31D1
:10214E001023903100309B311023903100309B31A1
:10215E001023903178089B311023903175089B31F4
:10216E001023903174089B311023903173089B31EA
:10217E0010239031FF309B311023903100309B3172
:10218E001023903100309B311023903100309B3161
:10219E0010239031FF309B311023903100309B3152
:1021AE001023903100309B311023903100309B3141
:1021BE0010239031FF309B311023903100309B3132
:1021CE001023903100309B311023903100309B3121
:1021DE0010239031FF309B311023903100309B3112
:1021EE001023903100309B311023903100309B3101
:1021FE0010239031FF309B311023903100309B31F2
:10220E001023903100309B311023903100309B31E0
:10221E0010239031FB01FC017C08803AF6008030DF
:10222E007602031D1C2904307B0203183129FF306E
:10223E009B31102390310130FB070030FC3D7C08B0
:10224E00803AF60080307602031D2F2904307B027F
:10225E00031C1E29D030F700C930F600F60B3529C5
:10226E00F70B352900320800F800F901FA017A0857
:10227E00803AF60080307602031D47290430790239
:10228E0003185C2900309B31102391310130F9077E
:10229E000030FA3D7A08803AF60080307602031D4F
:1022AE005A2904307902031C4929FF309B3110232F
:1022BE00913100309B311023913100309B3110232E
:1022CE00913100309B3110239131FF309B3110231F
:1022DE00913100309B311023913100309B3110230E
:1022EE00913100309B311023913178089B311023AE
:1022FE00913175089B311023913174089B31102355
:10230E00913173089B3110239131FF309B31102393
:10231E00913100309B311023913100309B311023CD
:10232E00913100309B3110239131FF309B311023BE
:10233E00913100309B311023913100309B311023AD
:10234E00913100309B3110239131FF309B3110239E
:10235E00913100309B311023913100309B3110238D
:10236E00913100309B3110239131FF309B3110237E
:10237E00913100309B311023913100309B3110236D
:10238E00913100309B3110239131FB01FC017C080F
:10239E00803AF60080307602031DD72904307B0286
:1023AE000318EC29FF309B31102391310130FB07CC
:1023BE000030FC3D7C08803AF60080307602031D2A
:1023CE00EA2904307B02031CD929D030F700C9302A
:1023DE00F600F60BF029F70BF02900320800F80092
:1023EE00F901FA017A08803AF60080307602031D70
:1023FE00022A043079020318172A00309B31102369
:10240E0091310130F9070030FA3D7A08803AF60032
:10241E0080307602031D152A04307902031C042A2B
:10242E00FF309B311023913100309B3110239131BD
:10243E0000309B311023913100309B3110239131AC
:10244E00FF309B311023913100309B31102391319D
:10245E0000309B311023913100309B31102391318C
:10246E00FF309B311023913100309B31102391317D
:10247E0000309B311023913100309B31102391316C
:10248E0078089B311023913175089B3110239131BF
:10249E0074089B311023913173089B3110239131B5
:1024AE00FF309B311023913100309B31102391313D
:1024BE0000309B311023913100309B31102391312C
:1024CE00FF309B311023913100309B31102391311D
:1024DE0000309B311023913100309B31102391310C
:1024EE00FF309B311023913100309B3110239131FD
:1024FE0000309B311023913100309B3110239131EC
:10250E00FB01FC017C08803AF60080307602031D48
:10251E00922A04307B020318A72AFF309B31102326
:10252E0091310130FB070030FC3D7C08803AF6000B
:10253E0080307602031DA52A04307B02031C942AE8
:10254E00D030F700C930F600F60BAB2AF70BAB2AEA
:10255E0000320800F800F901FA017A08803AF60014
:10256E0080307602031DBD2A043079020318D22A68
:10257E0000309B31102392310130F9070030FA3DC3
:10258E007A08803AF60080307602031DD02A043095
:10259E007902031CBF2AFF309B3110239231003089
:1025AE009B311023923100309B3110239231003039
:1025BE009B3110239231FF309B311023923100302A
:1025CE009B311023923100309B3110239231003019
:1025DE009B3110239231FF309B311023923100300A
:1025EE009B311023923100309B31102392310030F9
:1025FE009B3110239231FF309B31102392310030EA
:10260E009B311023923100309B31102392310030D8
:10261E009B311023923178089B311023923175082B
:10262E009B311023923174089B3110239231730821
:10263E009B3110239231FF309B31102392310030A9
:10264E009B311023923100309B3110239231003098
:10265E009B3110239231FF309B3110239231003089
:10266E009B311023923100309B3110239231003078
:10267E009B3110239231FB01FC017C08803AF6005D
:10268E0080307602031D4D2B04307B020318622B23
:10269E00FF309B31102392310130FB070030FC3D9F
:1026AE007C08803AF60080307602031D602B0430E1
:1026BE007B02031C4F2BD030F700C930F600F60B0F
:1026CE00662BF70B662B00320800F800F901FA01B1
:1026DE007A08803AF60080307602031D782B04309B
:1026EE00790203188D2B00309B311023933101306A
:1026FE00F9070030FA3D7A08803AF600803076020B
:10270E00031D8B2B04307902031C7A2BFF309B3177
:10271E001023933100309B311023933100309B31C5
:10272E001023933100309B3110239331FF309B31B6
:10273E001023933100309B311023933100309B31A5
:10274E001023933100309B3110239331FF309B3196
:10275E001023933100309B311023933100309B3185
:10276E001023933100309B3110239331FF309B3176
:10277E001023933100309B311023933100309B3165
:10278E001023933100309B3110239331FF309B3156
:10279E001023933100309B311023933100309B3145
:1027AE001023933100309B311023933178089B31E5
:1027BE001023933175089B311023933174089B318C
:1027CE001023933173089B3110239331FF309B31CB
:1027DE001023933100309B311023933100309B3105
:1027EE001023933100309B3110239331FB01FC01F8
:1027FE007C08803AF60080307602031D082C0430E7
:10280E007B0203181D2CFF309B31102393310130B6
:10281E00FB070030FC3D7C08803AF60080307602E3
:10282E00031D1B2C04307B02031C0A2CD030F70036
:10283E00C930F600F60B212CF70B212C00320800C4
:10284E00F800F901FA017A08803AF6008030760233
:10285E00031D332C043079020318482C00309B31B1
:10286E00102394310130F9070030FA3D7A08803A8E
:10287E00F60080307602031D462C04307902031CCC
:10288E00352CFF309B311023943100309B311023B7
:10289E00943100309B311023943100309B31102342
:1028AE009431FF309B311023943100309B31102333
:1028BE00943100309B311023943100309B31102322
:1028CE009431FF309B311023943100309B31102313
:1028DE00943100309B311023943100309B31102302
:1028EE009431FF309B311023943100309B311023F3
:1028FE00943100309B311023943100309B311023E2
:10290E009431FF309B311023943100309B311023D2
:10291E00943100309B311023943100309B311023C1
:10292E009431FF309B311023943100309B311023B2
:10293E00943100309B311023943100309B311023A1
:10294E00943178089B311023943175089B311023F4
:10295E00943174089B311023943173089B311023EA
:10296E009431FB01FC017C08803AF600803076023F
:10297E00031DC32C04307B020318D82CFF309B316F
:10298E00102394310130FB070030FC3D7C08803A67
:10299E00F60080307602031DD62C04307B02031C19
:1029AE00C52CD030F700C930F600F60BDC2CF70B37
:1029BE00DC2C0032080021004008BC004108BD009C
:1029CE004208BE00BF019B317C2394319B31A92369
:1029DE0094319031072094319D312D2594319B31C6
:1029EE00012394318731FD279431883105209431AC
:1029FE00210043080319092D033081318A219431B6
:102A0E002100C30186317E269431003A0319512DDF
:102A1E0021004508031D192D8731F8279431003AFE
:102A2E000319512D8731F8279431003A031D4D2D8E
:102A3E00003081318A219431BC309B315323943143
:102A4E0003302100B9003908BF003F080319512D8A
:102A5E003F08FF3EBC3E8600870101080319492D41
:102A6E008B133F08FF3EBC3E860087010108B9006C
:102A7E0039082000C00021003F08FF3E853139256E
:102A8E0094318B1701302100BF022C2D0130813182
:102A9E008A2194318B13952D8B17FF303D00C40086
:102AAE00FF30C3003117E401E3015117FF303E0040
:102ABE00A400A30111173D00311751173E00111745
:102ACE0003302100BB000830BA007830B900B90BD2
:102ADE006E2DBA0B6E2DBB0B6E2D3D00C401C301C6
:102AEE003117E401E30151173E00A401A3011117B0
:102AFE003D00311751173E00111703302100BB0066
:102B0E000830BA007830B900B90B8B2DBA0B8B2D6B
:102B1E00BB0B8B2D8B1301302100C4022100440806
:102B2E0003199F2D8731F8279431003A0319532D3D
:102B3E008B17FC2C2100A001A1012108803A200056
:102B4E00C30080304302031DAF2D0430210020024C
:102B5E000318C72D00309B31202395310130210001
:102B6E00A0070030A13D2108803A2000C30080302C
:102B7E004302031DC52D043021002002031CB12D7C
:102B8E00FF309B312023953100309B31202395312E
:102B9E0000309B312023953100309B31202395311D
:102BAE00FF309B312023953100309B31202395310E
:102BBE0000309B312023953100309B3120239531FD
:102BCE00FF309B312023953100309B3120239531EE
:102BDE0000309B312023953100309B3120239531DD
:102BEE00FF309B312023953100309B3120239531CE
:102BFE0000309B312023953100309B3120239531BD
:102C0E00FF309B312023953100309B3120239531AD
:102C1E0000309B312023953100309B31202395319C
:102C2E00FF309B312023953100309B31202395318D
:102C3E0000309B312023953100309B31202395317C
:102C4E00FF309B312023953100309B31202395316D
:102C5E0000309B312023953100309B31202395315C
:102C6E002100A201A3012308803A2000C300803076
:102C7E004302031D452E04302100220203185D2E4F
:102C8E00FF309B312023953101302100A207003007
:102C9E00A33D2308803A2000C30080304302031D69
:102CAE005B2E043021002202031C472ED030200060
:102CBE00C400C930C300C30B622EC40B622E003297
:102CCE0008002100A000A101A2012208803A2000E4
:102CDE00C60080304602031D772E043021002102EB
:102CEE0003188F2E00309B312023963101302100A6
:102CFE00A1070030A23D2208803A2000C600803095
:102D0E004602031D8D2E043021002102031C792E54
:102D1E00210020089B3120239631200045089B314D
:102D2E0020239631200044089B3120239631200029
:102D3E0043089B3120239631FF309B31202396315F
:102D4E0000309B312023963100309B312023963169
:102D5E0000309B3120239631FF309B31202396315A
:102D6E0000309B312023963100309B312023963149
:102D7E0000309B3120239631FF309B31202396313A
:102D8E0000309B312023963100309B312023963129
:102D9E0000309B3120239631FF309B31202396311A
:102DAE0000309B312023963100309B312023963109
:102DBE0000309B3120239631FF309B3120239631FA
:102DCE0000309B312023963100309B3120239631E9
:102DDE0000309B3120239631FF309B3120239631DA
:102DEE0000309B312023963100309B3120239631C9
:102DFE0000309B31202396312100A301A401240829
:102E0E00803A2000C60080304602031D112F043088
:102E1E00210023020318292FFF309B3120239631E6
:102E2E0001302100A3070030A43D2408803A200081
:102E3E00C60080304602031D272F043021002302D6
:102E4E00031C132FD0302000C700C930C600C60B9C
:102E5E002E2FC70B2E2F003208002100A000A1013B
:102E6E00A2012208803A2000C60080304602031DCF
:102E7E00432F04302100210203185B2F00309B31B9
:102E8E002023973101302100A1070030A23D2208F6
:102E9E00803A2000C60080304602031D592F0430B0
:102EAE0021002102031C452FFF309B312023973137
:102EBE0000309B312023973100309B3120239731F6
:102ECE0000309B3120239731210020089B31202395
:102EDE009731200045089B3120239731200044086C
:102EEE009B3120239731200043089B3120239731BB
:102EFE00FF309B312023973100309B3120239731B7
:102F0E0000309B312023973100309B3120239731A5
:102F1E00FF309B312023973100309B312023973196
:102F2E0000309B312023973100309B312023973185
:102F3E00FF309B312023973100309B312023973176
:102F4E0000309B312023973100309B312023973165
:102F5E00FF309B312023973100309B312023973156
:102F6E0000309B312023973100309B312023973145
:102F7E00FF309B312023973100309B312023973136
:102F8E0000309B312023973100309B312023973125
:102F9E002100A301A4012408803A2000C60080303D
:102FAE004602031DDD2F0430210023020318F52FE6
:102FBE00FF309B312023973101302100A3070030D1
:102FCE00A43D2408803A2000C60080304602031D2E
:102FDE00F32F043021002302031CDF2FD0302000FA
:102FEE00C700C930C600C60BFA2FC70BFA2F003226
:022FFE000800C9
:10360200D8308B00270011081238910012081038A8
:10361200920031302000980021000C160800F200C0
:1036220024001108F0007008F1002000911124001C
:103632009513720891002000911908001C2B20009C
:10364200C200240011082000C0004008C1009111EE
:1036520024009513200042082400910020009119B3
:1036620008002F2BFD01F91F3D2BF809F909F80A73
:103672000319F90AFD01FD0A7808F0007908F10042
:10368200F2018E30FB007B08F3007D08FC007C0811
:10369200F40090311C207008F8007108F9007208DB
:1036A200FA0008002000C1008731F8279B31003A58
:1036B20003196A2B20004108860087018101410A13
:1036C2008600870181014108023E8600870181014F
:1036D20008000F302000C000410886008701400822
:1036E2008100410A8600870181014108023E86006D
:1036F20087018101080023008C018D0122000D1534
:103702008D1520000D158D1524000D158D15F83021
:103712002000C00040082100990405302000C200AA
:103722000F30C100F430C000C00B952BC10B952B9C
:10373200C20B952BF3302000C000400821008D05FC
:1037420020000D158D150D198D1D01008B17080018
:10375200F7302000C000400821008E053D00910195
:10376200803092009301940196019701980199018A
:1037720001309A0001309B0001309C009D0108300D
:103782009E009F01A201A1010130A4006A30A300A2
:103792000230A6003A30A500A901AA01AD01AB0191
:1037A200AC010830AE00AF01A001083095008030B6
:1037B2009100EE302000C00040082100940514085A
:1037C20008002000B21FF92B3009B6003109B700FA
:1037D2003209B800B60A0319B70A0319B80A003049
:1037E2003607B0000030373DB1008030383DB200BE
:1037F200B51F0F2C3309B6003409B7003509B800DC
:10380200B60A0319B70A0319B80A00303607B3001B
:103812000030373DB4008030383DB5008030B2060C
:103822008030B50635083202031D08003408310223
:10383200031D080033083002080020003008B400DD
:103842003108B5003208B6000310350D360DB70049
:103852003708BD003D08031D372C0030B30000308F
:10386200B2000030B1000030B00008003008B400EF
:103872003108B5003208B6001730B636B50CB40CB4
:10388200890B3E2C3408B7003708B800B117FF3057
:10389200B005FF30B1050030B2053008B90031087B
:1038A200BA003208BB00BC018E30BD02BD1F752CB0
:1038B2003D08803A8F3E0318672C0030B300003079
:1038C200B2000030B1000030B00008000130BC3658
:1038D200BB0CBA0CB90C890B682C0130B40034084B
:1038E200BD0703198E2C672C18303D02031C8B2C4C
:1038F2000030B3000030B2000030B1000030B00040
:1039020008000130B935BA0DBB0DBC0D890B832CF3
:103912000130BD023D08031D822C380803199C2C7E
:10392200B909BA09BB09BC09B90A0319BA0A0319C8
:10393200BB0A0319BC0A3C08B3003B08B2003A08B0
:10394200B1003908B000080021004508031DE62C2B
:103952003D00C401C3013117E401E3015117FF30F7
:103962003E00A400FF30A30011173D00311751178C
:103972003E0011171530F2004B30F100D130F0004B
:10398200F00BC12CF10BC12CF20BC12C00003D003D
:10399200C401C3013117E401E30151173E00A40140
:1039A200A30111173D00311751173E0011171530B1
:1039B200F2004B30F100D130F000F00BDE2CF10BB5
:1039C200DE2CF20BDE2C0000A52C0B304502031876
:1039D200FD2C3D00C401C3013117E401E30151177D
:1039E200FF303E00A400FF30A30011173D00311745
:1039F20051173E00111708000B3021004502031C2D
:103A02001A2D2330450203181A2DFF303D00C40041
:103A1200FF30C3003117E401E3015117FF303E00CC
:103A2200A400A30111173D00311751173E001117D1
:103A32000800FF303D00C400FF30C3003117E4012D
:103A4200E30151173E00A401A30111173D003117F4
:103A520051173E00111708008F302000C50045089D
:103A620021008E058D138D123D00B101B201B3010B
:103A7200B401B601B701B801B9010130BA00013091
:103A8200BB000130BC00BD010130BE00BF01C2015C
:103A9200C1010130C400F430C3000330C600E73076
:103AA200C500C901CA01CD01CB01CC010130CE0054
:103AB200CF01C0010130B5008030B100DD302000FF
:103AC200C50045082100940514083D00D101D2012A
:103AD2000230D300D401D601D701D801D901013077
:103AE200DA000130DB000130DC00DD010130DE00F4
:103AF200DF01E201E1010130E400F430E3000330D0
:103B0200E600E730E500E901EA01ED01EB01EC0135
:103B12000130EE00EF01E0010130D5008030D1002C
:103B2200BB302000C50045082100940514083E0062
:103B3200910192010230930094019601970198013C
:103B4200990101309A0001309B0001309C009D01D7
:103B520002309E009F01A201A1010130A400F430B5
:103B6200A3000330A600E730A500A901AA01AD0118
:103B7200AB01AC010230AE00AF01A00102309500F2
:103B82008030910077302000C5004508210094055F
:103B92001408240095122030950022001D169D164F
:103BA2009D15240095169531A125080020002008B6
:103BB200A6002108A7002208A8000310270D280D3F
:103BC200A9002908AA002A08031DEE2D0030A00032
:103BD2000030A1000030A20008002308A60024083B
:103BE200A7002508A8000310270D280DA900290801
:103BF200AF002F08031D042E0030A0000030A100EA
:103C02000030A20008002F087B3EA6002608AA0763
:103C12002008A6002108A7002208A8001030A83614
:103C2200A70CA60C890B102E2608A9002908AF00A4
:103C32002308A6002408A7002508A8001030A836EB
:103C4200A70CA60C890B202E2608A9002908AF066E
:103C52008030A6002608AF05A117A417FF30A305E0
:103C6200FF30A4050030A5050030AB000030AC00E9
:103C72000030AD000730A6002608AE00201C472EFB
:103C82002308AB072408AC3D2508AD3D0130A23620
:103C9200A10CA00C890B482E0130A335A40DA50D53
:103CA200890B4E2E0130AE02031D3F2E0930A600B5
:103CB2002608AE00201C632E2308AB072408AC3D67
:103CC2002508AD3D0130A236A10CA00C890B642E53
:103CD2000130AD36AC0CAB0C890B6A2E0130AE0252
:103CE200031D5B2E2B08F0002C08F1002D08F200BA
:103CF2002A08A6002608F3002F08A7002708F400C8
:103D020090311C2070082000A0007108A1007208E8
:103D1200A2000800F501F6017608803AF30080302F
:103D22007302031D962E043075020318AB2E003069
:103D32009B3110239E310130F5070030F63D7608A5
:103D4200803AF30080307302031DA92E04307502FD
:103D5200031C982EFF309B3110239E3100309B3183
:103D620010239E3100309B3110239E3100309B3155
:103D720010239E31FF309B3110239E3100309B3146
:103D820010239E3100309B3110239E3100309B3135
:103D920010239E31FF309B3110239E3100309B3126
:103DA20010239E3100309B3110239E3100309B3115
:103DB20010239E31FF309B3110239E3100309B3106
:103DC20010239E3100309B3110239E3100309B31F5
:103DD20010239E31FF309B3110239E3100309B31E6
:103DE20010239E3100309B3110239E3100309B31D5
:103DF20010239E31FF309B3110239E3100309B31C6
:103E020010239E3100309B3110239E3100309B31B4
:103E120010239E31FF309B3110239E3100309B31A5
:103E220010239E3100309B3110239E3100309B3194
:103E320010239E31F701F8017808803AF3008030B0
:103E42007302031D262F0430770203183B2FFF3025
:103E52009B3110239E310130F7070030F83D78087E
:103E6200803AF30080307302031D392F0430770249
:103E7200031C282FD030F400C930F300F30B3F2F7E
:103E8200F40B3F2F00320800F800F901FA017A081A
:103E9200803AF60080307602031D512F04307902F9
:103EA2000318662F00309B3110239F310130F90730
:103EB2000030FA3D7A08803AF60080307602031D1F
:103EC200642F04307902031C532F78089B3110238E
:103ED2009F3175089B3110239F3174089B31102349
:103EE2009F3173089B3110239F31FF309B31102388
:103EF2009F3100309B3110239F3100309B311023C2
:103F02009F3100309B3110239F31FF309B311023B2
:103F12009F3100309B3110239F3100309B311023A1
:103F22009F3100309B3110239F31FF309B31102392
:103F32009F3100309B3110239F3100309B31102381
:103F42009F3100309B3110239F31FF309B31102372
:103F52009F3100309B3110239F3100309B31102361
:103F62009F3100309B3110239F31FF309B31102352
:103F72009F3100309B3110239F3100309B31102341
:103F82009F3100309B3110239F31FF309B31102332
:103F92009F3100309B3110239F3100309B31102321
:103FA2009F3100309B3110239F31FB01FC017C08C3
:103FB200803AF60080307602031DE12F04307B0246
:103FC2000318F62FFF309B3110239F310130FB077E
:103FD2000030FC3D7C08803AF60080307602031DFA
:103FE200F42F04307B02031CE32FD030F700C930DA
:103FF200F600F60BFA2FF70BFA2F00320800003406
:10400200103418340C34E83413340A340D34473481
:104012006F346F34643420346A346F3462342E3433
:10402200203459346F34753420346B346E346F3429
:104032007734203468346F347734203474346F34F6
:1040420020347234653461346434203469346E341B
:1040520073347434723475346334743469346F3441
:104062006E3473342E340A340A34003450346C34CF
:104072006534613473346534203465346E34743499
:1040820065347234203474346834653420346334D3
:104092006834613472346134633474346534723434
:1040A200203441343A34203400340A340D34573445
:1040B20072346F346E34673420346B34653479343F
:1040C2002E342034543472347934203461346734D9
:1040D200613469346E342E340A340D3400340A34B7
:1040E2000D344D34613469346E3420344C346F34C1
:1040F2006F347034203449346E3464346934763425
:1041020069346434753461346C340A340D340034E7
:020000040001F9
:04000E00E4F9FFDE34
:00000001FF
